{"contracts/PropertyNFT.sol":{"PropertyNFT":{"abi":[{"inputs":[],"stateMutability":"nonpayable","type":"constructor"},{"anonymous":false,"inputs":[{"indexed":true,"internalType":"address","name":"owner","type":"address"},{"indexed":true,"internalType":"address","name":"approved","type":"address"},{"indexed":true,"internalType":"uint256","name":"tokenId","type":"uint256"}],"name":"Approval","type":"event"},{"anonymous":false,"inputs":[{"indexed":true,"internalType":"address","name":"owner","type":"address"},{"indexed":true,"internalType":"address","name":"operator","type":"address"},{"indexed":false,"internalType":"bool","name":"approved","type":"bool"}],"name":"ApprovalForAll","type":"event"},{"anonymous":false,"inputs":[{"indexed":false,"internalType":"uint256","name":"_fromTokenId","type":"uint256"},{"indexed":false,"internalType":"uint256","name":"_toTokenId","type":"uint256"}],"name":"BatchMetadataUpdate","type":"event"},{"anonymous":false,"inputs":[{"indexed":true,"internalType":"address","name":"contractAddress","type":"address"},{"indexed":false,"internalType":"bool","name":"authorized","type":"bool"}],"name":"ContractAuthorized","type":"event"},{"anonymous":false,"inputs":[{"indexed":false,"internalType":"uint256","name":"_tokenId","type":"uint256"}],"name":"MetadataUpdate","type":"event"},{"anonymous":false,"inputs":[{"indexed":true,"internalType":"address","name":"previousOwner","type":"address"},{"indexed":true,"internalType":"address","name":"newOwner","type":"address"}],"name":"OwnershipTransferred","type":"event"},{"anonymous":false,"inputs":[{"indexed":true,"internalType":"uint256","name":"tokenId","type":"uint256"},{"indexed":false,"internalType":"string","name":"propertyAddress","type":"string"},{"indexed":false,"internalType":"string","name":"ownerName","type":"string"},{"indexed":true,"internalType":"address","name":"submitter","type":"address"}],"name":"PropertySubmitted","type":"event"},{"anonymous":false,"inputs":[{"indexed":true,"internalType":"uint256","name":"tokenId","type":"uint256"},{"indexed":false,"internalType":"uint256","name":"newValue","type":"uint256"}],"name":"PropertyValueUpdated","type":"event"},{"anonymous":false,"inputs":[{"indexed":true,"internalType":"uint256","name":"tokenId","type":"uint256"},{"indexed":false,"internalType":"bool","name":"verified","type":"bool"}],"name":"PropertyVerified","type":"event"},{"anonymous":false,"inputs":[{"indexed":true,"internalType":"address","name":"from","type":"address"},{"indexed":true,"internalType":"address","name":"to","type":"address"},{"indexed":true,"internalType":"uint256","name":"tokenId","type":"uint256"}],"name":"Transfer","type":"event"},{"anonymous":false,"inputs":[{"indexed":true,"internalType":"uint256","name":"tokenId","type":"uint256"},{"indexed":true,"internalType":"address","name":"voter","type":"address"},{"indexed":false,"internalType":"bool","name":"approve","type":"bool"}],"name":"VoteCast","type":"event"},{"inputs":[],"name":"REJECTION_THRESHOLD","outputs":[{"internalType":"uint256","name":"","type":"uint256"}],"stateMutability":"view","type":"function"},{"inputs":[],"name":"VERIFICATION_THRESHOLD","outputs":[{"internalType":"uint256","name":"","type":"uint256"}],"stateMutability":"view","type":"function"},{"inputs":[{"internalType":"string","name":"","type":"string"}],"name":"addressExists","outputs":[{"internalType":"bool","name":"","type":"bool"}],"stateMutability":"view","type":"function"},{"inputs":[{"internalType":"address","name":"to","type":"address"},{"internalType":"uint256","name":"tokenId","type":"uint256"}],"name":"approve","outputs":[],"stateMutability":"nonpayable","type":"function"},{"inputs":[{"internalType":"address","name":"","type":"address"}],"name":"authorizedContracts","outputs":[{"internalType":"bool","name":"","type":"bool"}],"stateMutability":"view","type":"function"},{"inputs":[{"internalType":"address","name":"owner","type":"address"}],"name":"balanceOf","outputs":[{"internalType":"uint256","name":"","type":"uint256"}],"stateMutability":"view","type":"function"},{"inputs":[{"internalType":"uint256","name":"tokenId","type":"uint256"}],"name":"getApproved","outputs":[{"internalType":"address","name":"","type":"address"}],"stateMutability":"view","type":"function"},{"inputs":[{"internalType":"address","name":"owner","type":"address"},{"internalType":"address","name":"operator","type":"address"}],"name":"isApprovedForAll","outputs":[{"internalType":"bool","name":"","type":"bool"}],"stateMutability":"view","type":"function"},{"inputs":[{"internalType":"address","name":"_contract","type":"address"}],"name":"isAuthorizedContract","outputs":[{"internalType":"bool","name":"","type":"bool"}],"stateMutability":"view","type":"function"},{"inputs":[],"name":"name","outputs":[{"internalType":"string","name":"","type":"string"}],"stateMutability":"view","type":"function"},{"inputs":[],"name":"owner","outputs":[{"internalType":"address","name":"","type":"address"}],"stateMutability":"view","type":"function"},{"inputs":[{"internalType":"uint256","name":"tokenId","type":"uint256"}],"name":"ownerOf","outputs":[{"internalType":"address","name":"","type":"address"}],"stateMutability":"view","type":"function"},{"inputs":[{"internalType":"address","name":"","type":"address"},{"internalType":"uint256","name":"","type":"uint256"}],"name":"ownerProperties","outputs":[{"internalType":"uint256","name":"","type":"uint256"}],"stateMutability":"view","type":"function"},{"inputs":[{"internalType":"uint256","name":"","type":"uint256"}],"name":"properties","outputs":[{"internalType":"string","name":"propertyAddress","type":"string"},{"internalType":"string","name":"ownerName","type":"string"},{"internalType":"string","name":"propertyType","type":"string"},{"internalType":"uint256","name":"renovationDate","type":"uint256"},{"internalType":"string","name":"imageURI","type":"string"},{"internalType":"int256","name":"latitude","type":"int256"},{"internalType":"int256","name":"longitude","type":"int256"},{"internalType":"bool","name":"isVerified","type":"bool"},{"internalType":"uint256","name":"estimatedValue","type":"uint256"},{"internalType":"uint256","name":"verificationVotes","type":"uint256"},{"internalType":"uint256","name":"rejectionVotes","type":"uint256"},{"internalType":"uint256","name":"locationScore","type":"uint256"},{"internalType":"uint256","name":"sizeScore","type":"uint256"},{"internalType":"uint256","name":"conditionScore","type":"uint256"},{"internalType":"uint256","name":"ageScore","type":"uint256"},{"internalType":"uint256","name":"renovationScore","type":"uint256"},{"internalType":"uint256","name":"comparableValue","type":"uint256"},{"internalType":"uint256","name":"lastValuationUpdate","type":"uint256"}],"stateMutability":"view","type":"function"},{"inputs":[],"name":"renounceOwnership","outputs":[],"stateMutability":"nonpayable","type":"function"},{"inputs":[{"internalType":"address","name":"from","type":"address"},{"internalType":"address","name":"to","type":"address"},{"internalType":"uint256","name":"tokenId","type":"uint256"}],"name":"safeTransferFrom","outputs":[],"stateMutability":"nonpayable","type":"function"},{"inputs":[{"internalType":"address","name":"from","type":"address"},{"internalType":"address","name":"to","type":"address"},{"internalType":"uint256","name":"tokenId","type":"uint256"},{"internalType":"bytes","name":"data","type":"bytes"}],"name":"safeTransferFrom","outputs":[],"stateMutability":"nonpayable","type":"function"},{"inputs":[{"internalType":"address","name":"operator","type":"address"},{"internalType":"bool","name":"approved","type":"bool"}],"name":"setApprovalForAll","outputs":[],"stateMutability":"nonpayable","type":"function"},{"inputs":[{"internalType":"address","name":"_contract","type":"address"},{"internalType":"bool","name":"_authorized","type":"bool"}],"name":"setAuthorizedContract","outputs":[],"stateMutability":"nonpayable","type":"function"},{"inputs":[{"internalType":"string","name":"_propertyAddress","type":"string"},{"internalType":"string","name":"_ownerName","type":"string"},{"internalType":"string","name":"_propertyType","type":"string"},{"internalType":"uint256","name":"_renovationDate","type":"uint256"},{"internalType":"string","name":"_imageURI","type":"string"},{"internalType":"int256","name":"_latitude","type":"int256"},{"internalType":"int256","name":"_longitude","type":"int256"}],"name":"submitProperty","outputs":[{"internalType":"uint256","name":"","type":"uint256"}],"stateMutability":"nonpayable","type":"function"},{"inputs":[{"internalType":"bytes4","name":"interfaceId","type":"bytes4"}],"name":"supportsInterface","outputs":[{"internalType":"bool","name":"","type":"bool"}],"stateMutability":"view","type":"function"},{"inputs":[],"name":"symbol","outputs":[{"internalType":"string","name":"","type":"string"}],"stateMutability":"view","type":"function"},{"inputs":[{"internalType":"uint256","name":"tokenId","type":"uint256"}],"name":"tokenURI","outputs":[{"internalType":"string","name":"","type":"string"}],"stateMutability":"view","type":"function"},{"inputs":[{"internalType":"address","name":"from","type":"address"},{"internalType":"address","name":"to","type":"address"},{"internalType":"uint256","name":"tokenId","type":"uint256"}],"name":"transferFrom","outputs":[],"stateMutability":"nonpayable","type":"function"},{"inputs":[{"internalType":"address","name":"newOwner","type":"address"}],"name":"transferOwnership","outputs":[],"stateMutability":"nonpayable","type":"function"},{"inputs":[{"internalType":"uint256","name":"_tokenId","type":"uint256"},{"internalType":"uint256","name":"_estimatedValue","type":"uint256"},{"internalType":"uint256","name":"_comparableValue","type":"uint256"},{"internalType":"uint256","name":"_locationScore","type":"uint256"},{"internalType":"uint256","name":"_sizeScore","type":"uint256"},{"internalType":"uint256","name":"_conditionScore","type":"uint256"},{"internalType":"uint256","name":"_ageScore","type":"uint256"},{"internalType":"uint256","name":"_renovationScore","type":"uint256"}],"name":"updatePropertyValuation","outputs":[],"stateMutability":"nonpayable","type":"function"},{"inputs":[{"internalType":"uint256","name":"_tokenId","type":"uint256"},{"internalType":"uint256","name":"_newValue","type":"uint256"}],"name":"updatePropertyValue","outputs":[],"stateMutability":"nonpayable","type":"function"},{"inputs":[{"internalType":"uint256","name":"_tokenId","type":"uint256"},{"internalType":"bool","name":"_approve","type":"bool"}],"name":"voteOnProperty","outputs":[],"stateMutability":"nonpayable","type":"function"}],"evm":{"bytecode":{"linkReferences":{},"object":"6080346200035f576001600160401b03906040908082018381118282101762000349578252600b81526020916a141c9bdc195c9d1e53919560aa1b8383015280519381850185811082821117620003495782526004855263050524f560e41b84860152825181811162000349576000948554916001958684811c941680156200033e575b838510146200032a578190601f94858111620002d7575b5083908583116001146200027357899262000267575b5050600019600383901b1c191690861b1786555b8651928311620002535784548581811c9116801562000248575b828210146200023457828111620001ec575b50809183116001146200018357508495829394959262000177575b5050600019600383901b1c191690831b1782555b60068054336001600160a01b03198216811790925591519390916001600160a01b0316907f8be0079c531659141344cd1fd0a4f28419497f9722a3daafe3b4186f6b6457e09080a36007556135e39081620003658239f35b0151905038806200010b565b90601f198316968587528287209287905b898210620001d45750508386979896959610620001ba575b505050811b0182556200011f565b015160001960f88460031b161c19169055388080620001ac565b80888596829496860151815501950193019062000194565b8587528187208380860160051c8201928487106200022a575b0160051c019086905b8281106200021e575050620000f0565b8881550186906200020e565b9250819262000205565b634e487b7160e01b87526022600452602487fd5b90607f1690620000de565b634e487b7160e01b86526041600452602486fd5b015190503880620000b0565b898052848a208994509190601f1984168b5b87828210620002c05750508411620002a6575b505050811b018655620000c4565b015160001960f88460031b161c1916905538808062000298565b8385015186558c9790950194938401930162000285565b9091508880528389208580850160051c82019286861062000320575b918a91869594930160051c01915b828110620003115750506200009a565b8b81558594508a910162000301565b92508192620002f3565b634e487b7160e01b88526022600452602488fd5b93607f169362000083565b634e487b7160e01b600052604160045260246000fd5b600080fdfe61012080604052600436101561001457600080fd5b60003560e01c90816301ffc9a7146128685750806306fdde03146127c5578063081812fc146127a7578063095ea7b31461262d5780630af441081461237e578063179cd75614611b0a57806323b872dd14611ae65780633f53b43f14611aca57806342842e0e14611a975780634beac331146118005780636352211e146117d057806366d0ead3146104d557806370a0823114611739578063715018a6146116dc57806388f5ab9f1461167b5780638da5cb5b146116525780638f48bd5b146115fa57806395d89b411461151b5780639b7c4b4b1461142f578063a22cb46514611357578063b88d4fde146112d0578063c87b56dd14610514578063d5b9221b146104d5578063dfdea265146104b9578063e985e9c514610463578063f2fa739214610393578063f2fde38b146102cf5763f7b108081461015457600080fd5b346102ca5760203660031901126102ca576004356000526009602052604060002061017e81612aba565b61018a60018301612aba565b60a05261019960028301612aba565b60e0526003820154916101ae60048201612aba565b926005820154608052600682015493600783015460ff1660088401546009850154600a860154600b87015491600c88015493600d89015495600e8a015497600f8b01549960108c01549b6011015460c0526040519c6101009d8e818152610240809252510161021c916128f6565b8d51808203906020015260a05190610233916128f6565b8d51808203906040015260e0519061024a916128f6565b908d51606001528c518082039060800152610264916128f6565b9b6080518c5160a001528b5160c0015215158a5160e0015289805101528851610120015287516101400152865161016001528551610180015284516101a0015283516101c0015282516101e001528151610200015260c051815161022001525180910390f35b600080fd5b346102ca5760203660031901126102ca576102e861291b565b6102f0612b60565b6001600160a01b0390811690811561033f57600654826001600160601b0360a01b821617600655167f8be0079c531659141344cd1fd0a4f28419497f9722a3daafe3b4186f6b6457e0600080a3005b60405162461bcd60e51b815260206004820152602660248201527f4f776e61626c653a206e6577206f776e657220697320746865207a65726f206160448201526564647265737360d01b6064820152608490fd5b346102ca5760403660031901126102ca576103ac61291b565b6103b4612947565b906103bd612b60565b6001600160a01b031690811561041e5760207f3213ab8ec2ed122402f038736b41878b69ae9f61f49a7edd0666bce891d29fc99183600052600c82526104138160406000209060ff801983541691151516179055565b6040519015158152a2005b60405162461bcd60e51b815260206004820152601860248201527f496e76616c696420636f6e7472616374206164647265737300000000000000006044820152606490fd5b346102ca5760403660031901126102ca5761047c61291b565b610484612931565b9060018060a01b03809116600052600560205260406000209116600052602052602060ff604060002054166040519015158152f35b346102ca5760003660031901126102ca57602060405160028152f35b346102ca5760203660031901126102ca576001600160a01b036104f661291b565b16600052600c602052602060ff604060002054166040519015158152f35b346102ca5760203660031901126102ca5760043560009081526002602052604090205461054b906001600160a01b03161515613108565b60043560005260096020526040600020600080600b83015490816112c5575b83600c810154806112aa575b600d820154938461128f575b600e8301549485611274575b600f840154948561125b575b80158015611231575b50506105b06004356133eb565b966105bc6004356133eb565b9560ff60078701541660001461120b576040516105d881612971565b600881526715995c9a599a595960c21b6020820152975b6105fc60088801546133eb565b601088015490949080156111f457610613906133eb565b6106a7606860405180937f7b2274726169745f74797065223a2022436f6d70617261626c652056616c756560208301527f222c2022646973706c61795f74797065223a20226e756d626572222c202276616040830152650363ab2911d160d51b606083015261068c8151809260206066860191016128d3565b8101611f4b60f21b606682015203604881018452018261298c565b965b6040516106b581612956565b6000815280978061112d575b50508061106c575b5080610fa6575b5080610ee6575b5080610e1f575b508015610e08576106ee906133eb565b610789606f60405180937f7b2274726169745f74797065223a20224f766572616c6c2053636f7265222c2060208301527f22646973706c61795f74797065223a2022626f6f73745f70657263656e74616760408301526c032911610113b30b63ab2911d1609d1b606083015261076e815180926020606d860191016128d3565b8101611f4b60f21b606d82015203604f81018452018261298c565b905b60058501546107999061352e565b9360068601546107a89061352e565b9360038701546107b7906133eb565b9060098801546107c6906133eb565b95600a8901546107d5906133eb565b976040519b8c9a60208c017f7b2274726169745f74797065223a202250726f70657274792054797065222c20905269113b30b63ab2911d101160b11b60408d0152604a8c016002820190610828916131d2565b62089f4b60ea1b81527f7b2274726169745f74797065223a20224f776e6572222c202276616c7565223a600382015261101160f11b6023820152610874916025909101906001016131d2565b62089f4b60ea1b81527f7b2274726169745f74797065223a2022566572696669636174696f6e2053746160038201526f3a3ab9911610113b30b63ab2911d101160811b60238201528151916108d290839060338401906020016128d3565b019662089f4b60ea1b6033890152603688017f7b2274726169745f74797065223a2022457374696d617465642056616c75652290527f2c2022646973706c61795f74797065223a20226e756d626572222c202276616c968760568a01526403ab2911d160dd1b9889607682015281519182607b83019160200191610955926128d3565b0193611f4b60f21b968588607b8198015281519182607d8301916020019161097c926128d3565b0181519182607d83019160200191610993926128d3565b0181519182607d830191602001916109aa926128d3565b01607d81017f7b2274726169745f74797065223a20224c61746974756465222c2022646973709052609d81017f6c61795f74797065223a20226e756d626572222c202276616c7565223a20000090528151918260bb83019160200191610a0f926128d3565b018260bb82015260bd81017f7b2274726169745f74797065223a20224c6f6e676974756465222c2022646973905260dd81017f706c61795f74797065223a20226e756d626572222c202276616c7565223a200090528151918260fc83019160200191610a7a926128d3565b018160fc82015260fe81017f7b2274726169745f74797065223a202252656e6f766174696f6e204461746522905261011e81017f2c2022646973706c61795f74797065223a202264617465222c202276616c75659052620111d160ed1b61013e82015282519061014193828583019160200191610af6926128d3565b01918201527f7b2274726169745f74797065223a2022566572696669636174696f6e20566f746101438201527f6573222c2022646973706c61795f74797065223a20226e756d626572222c20226101638201526703b30b63ab2911d160c51b610183820152845161018b95909190610b76908390888401906020016128d3565b019384015261018d83017f7b2274726169745f74797065223a202252656a656374696f6e20566f7465732290526101ad8301526101cd8201528151906101d292828483019160200191610bc8926128d3565b01908101607d60f81b9052036101b3810183526101d301610be9908361298c565b604051938493737b226e616d65223a202250726f7065727479202360601b602086015280519081603487019160200191610c22926128d3565b8401603481016201016960ed1b9052603701610c3e90826131d2565b7f222c20226465736372697074696f6e223a202256657269666965642070726f7081527f65727479204e465420726570726573656e74696e67207265616c2065737461746020820152640329030ba160dd1b6040820152610ca290604501826131d2565b680171027bbb732b91d160bd1b8152610cc190600901600183016131d2565b6c1116101134b6b0b3b2911d101160991b8152610ce691600d909101906004016131d2565b7f222c202265787465726e616c5f75726c223a202268747470733a2f2f796f7572815260208101706170702e636f6d2f70726f70657274792f60781b905281519182603183019160200191610d3a926128d3565b0171222c202261747472696275746573223a205b60701b603182015281519182604383019160200191610d6c926128d3565b0160438101615d7d60f01b905203602581018252604501610d8d908261298c565b610d9690613287565b6040518091602082017f646174613a6170706c69636174696f6e2f6a736f6e3b6261736536342c000000905280519081603d84019160200191610dd8926128d3565b810103601d81018252603d01610dee908261298c565b60405180916020825260208201610e04916128f6565b0390f35b50604051610e1581612956565b600081529061078b565b6072610e30610edf929593956133eb565b926040519381610e4a8693518092602080870191016128d3565b82017f7b2274726169745f74797065223a202252656e6f766174696f6e2053636f726560208201527f222c2022646973706c61795f74797065223a2022626f6f73745f70657263656e60408201526f03a30b3b2911610113b30b63ab2911d160851b6060820152610ec58251809360206070850191016128d3565b01611f4b60f21b607082015203605281018452018261298c565b91896106de565b606b610ef7610f9f929693966133eb565b926040519381610f118693518092602080870191016128d3565b82017f7b2274726169745f74797065223a20224167652053636f7265222c202264697360208201527f706c61795f74797065223a2022626f6f73745f70657263656e74616765222c206040820152680113b30b63ab2911d160bd1b6060820152610f858251809360206069850191016128d3565b01611f4b60f21b606982015203604b81018452018261298c565b928a6106d7565b6071610fb7611065929793976133eb565b926040519381610fd18693518092602080870191016128d3565b82017f7b2274726169745f74797065223a2022436f6e646974696f6e2053636f72652260208201527f2c2022646973706c61795f74797065223a2022626f6f73745f70657263656e7460408201526e030b3b2911610113b30b63ab2911d1608d1b606082015261104b825180936020606f850191016128d3565b01611f4b60f21b606f82015203605181018452018261298c565b938b6106d0565b606c61107d611126929893986133eb565b9260405193816110978693518092602080870191016128d3565b82017f7b2274726169745f74797065223a202253697a652053636f7265222c2022646960208201527f73706c61795f74797065223a2022626f6f73745f70657263656e74616765222c604082015269010113b30b63ab2911d160b51b606082015261110c825180936020606a850191016128d3565b01611f4b60f21b606a82015203604c81018452018261298c565b948c6106c9565b6111ec9192985061113f6070916133eb565b9260405193816111598693518092602080870191016128d3565b82017f7b2274726169745f74797065223a20224c6f636174696f6e2053636f7265222c60208201527f2022646973706c61795f74797065223a2022626f6f73745f70657263656e746160408201526d033b2911610113b30b63ab2911d160951b60608201526111d2825180936020606e850191016128d3565b01611f4b60f21b606e82015203605081018452018261298c565b958d806106c1565b5060405161120181612956565b60008152966106a9565b60405161121781612971565b600781526650656e64696e6760c81b6020820152976105ef565b9091979450611245578793049588806105a3565b634e487b7160e01b600052601260045260246000fd5b966112698661126f926131c5565b97613154565b61059a565b939561128386611289926131c5565b96613154565b9361058e565b929461129e856112a4926131c5565b95613154565b92610582565b91936112b9836112bf926131c5565b94613154565b91610576565b50905080600161056a565b346102ca5760803660031901126102ca576112e961291b565b6112f1612931565b90606435906044356001600160401b0383116102ca57366023840112156102ca576113559361132d6113509436906024816004013591016129c8565b9261134061133b8433612d3e565b612c65565b61134b838383612e06565b613035565b612d1a565b005b346102ca5760403660031901126102ca5761137061291b565b611378612947565b6001600160a01b03909116903382146113ea573360005260056020526040600020826000526020526113ba8160406000209060ff801983541691151516179055565b60405190151581527f17307eab39ab6107e8899845ad3d59bd9653f200f220920489ca2b5937696c3160203392a3005b60405162461bcd60e51b815260206004820152601960248201527f4552433732313a20617070726f766520746f2063616c6c6572000000000000006044820152606490fd5b346102ca5760403660031901126102ca5760008051602061358e8339815191526020600435807f38feca60919cb6c50d2bda77cc786b4121a0ab59fdcbccad58c37f0bc84869e98360243561148384612c04565b6001600160a01b03908116331490811561150d575b5080156114f5575b6114a990613179565b6000848152600260205260409020546114cc906001600160a01b03161515613108565b83600052600982526040600020816008820155601142910155604051908152a2604051908152a1005b50336000908152600c8352604090205460ff166114a0565b600654163314905088611498565b346102ca5760003660031901126102ca576040516000600180549061153f82612a80565b808552918181169081156115d3575060011461157a575b610e04846115668186038261298c565b6040519182916020835260208301906128f6565b600081815292507fb10e2d527612073b26eecdfd717e6a320cf44b4afac2b0732d9fcbe2b7fa0cf65b8284106115bb57505050810160200161156682611556565b805460208587018101919091529093019281016115a3565b60ff191660208087019190915292151560051b850190920192506115669150839050611556565b346102ca5760403660031901126102ca5761161361291b565b6001600160a01b03166000908152600b60205260409020805460243591908210156102ca5760209161164491612a52565b90546040519160031b1c8152f35b346102ca5760003660031901126102ca576006546040516001600160a01b039091168152602090f35b346102ca5760203660031901126102ca576004356001600160401b0381116102ca5760ff6116c660206116b3819436906004016129ff565b81604051938285809451938492016128d3565b8101600a81520301902054166040519015158152f35b346102ca5760003660031901126102ca576116f5612b60565b600680546001600160a01b031981169091556000906001600160a01b03167f8be0079c531659141344cd1fd0a4f28419497f9722a3daafe3b4186f6b6457e08280a3005b346102ca5760203660031901126102ca576001600160a01b0361175a61291b565b1680156117795760005260036020526020604060002054604051908152f35b60405162461bcd60e51b815260206004820152602960248201527f4552433732313a2061646472657373207a65726f206973206e6f7420612076616044820152683634b21037bbb732b960b91b6064820152608490fd5b346102ca5760203660031901126102ca5760206117ee600435612c04565b6040516001600160a01b039091168152f35b346102ca576101003660031901126102ca5760043560249081359160649081359160843560a4359060c4359260e4359461183988612c04565b6001600160a01b039081163314908115611a89575b508015611a70575b61185f90613179565b600088815260026020526040902054611882906001600160a01b03161515613108565b818711611a2f578183116119ee578184116119ad5781851161196c5781861161192b5760008051602061358e833981519152602089807f38feca60919cb6c50d2bda77cc786b4121a0ab59fdcbccad58c37f0bc84869e9838e8d8d8d8d8d88600052600987526040600020948660088701556044356010870155600b860155600c850155600d840155600e830155600f820155601142910155604051908152a2604051908152a1005b601f6040519162461bcd60e51b8352602060048401528201527f52656e6f766174696f6e2073636f7265206d757374206265203c3d20313030006044820152fd5b60186040519162461bcd60e51b8352602060048401528201527f4167652073636f7265206d757374206265203c3d2031303000000000000000006044820152fd5b601e6040519162461bcd60e51b8352602060048401528201527f436f6e646974696f6e2073636f7265206d757374206265203c3d2031303000006044820152fd5b60196040519162461bcd60e51b8352602060048401528201527f53697a652073636f7265206d757374206265203c3d20313030000000000000006044820152fd5b601d6040519162461bcd60e51b8352602060048401528201527f4c6f636174696f6e2073636f7265206d757374206265203c3d203130300000006044820152fd5b50336000908152600c602052604090205460ff16611856565b60065416331490508a61184e565b346102ca57611355611350611aab36612a1d565b9060405192611ab984612956565b6000845261134061133b8433612d3e565b346102ca5760003660031901126102ca57602060405160038152f35b346102ca57611355611af736612a1d565b91611b0561133b8433612d3e565b612e06565b346102ca5760e03660031901126102ca576004356001600160401b0381116102ca57611b3a9036906004016129ff565b6024356001600160401b0381116102ca57611b599036906004016129ff565b6044356001600160401b0381116102ca57611b789036906004016129ff565b906084356001600160401b0381116102ca57611b989036906004016129ff565b9183511561233a578151156122f55760ff6040516020818751611bbe8183858c016128d3565b8101600a81520301902054166122b0576008549260018401600855604051611be581612956565b60008152331561226c57600085815260026020526040902054611ca39161135091611c1c906001600160a01b031615155b156130bc565b600087815260026020526040902054611c3f906001600160a01b03161515611c16565b3360005260036020526040600020600181540190558660005260026020526040600020336001600160601b0360a01b825416179055863360007fddf252ad1be2c89b69c2b068fc378daa952ba7f163c4a11628f55a4df523b3ef8180a48633612f17565b83600052600960205260406000209185516001600160401b038111611f4657611ccc8454612a80565b601f8111612228575b50806020601f82116001146121c1576000916121b6575b508160011b916000199060031b1c19161783555b83516001600160401b038111611f4657611d1d6001850154612a80565b601f811161216f575b50806020601f8211600114612102576000916120f7575b508160011b916000199060031b1c19161760018401555b8051906001600160401b038211611f46578190611d746002860154612a80565b601f81116120a4575b50602090601f831160011461203257600092612027575b50508160011b916000199060031b1c19161760028301555b60643560038301558051906001600160401b038211611f46578190611dd46004850154612a80565b601f8111611fd4575b50602090601f8311600114611f6757600092611f5c575b50508160011b916000199060031b1c19161760048201555b60a435600582015560c435600682015560006011600783019260ff199384815416905582600882015582600982015582600a82015582600b82015582600c82015582600d82015582600e82015582600f820155826010820155015560016040516020818751611e7e8183858c016128d3565b8101600a8152030190209182541617905533600052600b60205260406000209283549368010000000000000000851015611f4657611f168492611eea877f90e8f7c94b32ba9b4e353e2e85be612b1dd84a28d7334362b89e67c1729a2ab194600160209a018155612a52565b81549060031b9086821b91600019901b1916179055611f246040519283926040845260408401906128f6565b8281038984015233966128f6565b0390a360008051602061358e83398151915282604051838152a1604051908152f35b634e487b7160e01b600052604160045260246000fd5b015190508680611df4565b600485016000908152602081209350601f198516905b818110611fbc5750908460019594939210611fa3575b505050811b016004820155611e0c565b015160001960f88460031b161c19169055868080611f93565b92936020600181928786015181550195019301611f7d565b909150600484016000526020600020601f840160051c810160208510612020575b90849392915b601f830160051c82018110612011575050611ddd565b60008155859450600101611ffb565b5080611ff5565b015190508780611d94565b9250600285016000526020600020906000935b601f1984168510612089576001945083601f19811610612070575b505050811b016002830155611dac565b015160001960f88460031b161c19169055878080612060565b81810151835560209485019460019093019290910190612045565b909150600285016000526020600020601f840160051c8101602085106120f0575b90849392915b601f830160051c820181106120e1575050611d7d565b600081558594506001016120cb565b50806120c5565b905085015188611d3d565b91506001850160005260206000206000925b601f1983168410612157576001935082601f1981161061213e575b5050811b016001840155611d54565b87015160001960f88460031b161c19169055888061212f565b87810151825560209384019360019092019101612114565b600185016000526020600020601f830160051c8101602084106121af575b601f830160051c820181106121a3575050611d26565b6000815560010161218d565b508061218d565b905087015188611cec565b91508460005260206000206000925b601f1983168410612210576001935082601f198116106121f7575b5050811b018355611d00565b89015160001960f88460031b161c1916905588806121eb565b898101518255602093840193600190920191016121d0565b846000526020600020601f830160051c810160208410612265575b601f830160051c82018110612259575050611cd5565b60008155600101612243565b5080612243565b606460405162461bcd60e51b815260206004820152602060248201527f4552433732313a206d696e7420746f20746865207a65726f20616464726573736044820152fd5b60405162461bcd60e51b815260206004820152601760248201527f50726f706572747920616c7265616479206578697374730000000000000000006044820152606490fd5b60405162461bcd60e51b815260206004820152601a60248201527f4f776e6572206e616d652063616e6e6f7420626520656d7074790000000000006044820152606490fd5b606460405162461bcd60e51b815260206004820152602060248201527f50726f706572747920616464726573732063616e6e6f7420626520656d7074796044820152fd5b346102ca5760403660031901126102ca5760043561239a612947565b6000828152600260205260409020549091906123c0906001600160a01b03161515613108565b806000526020906009825260ff600760406000200154166125e8578060005260098252601260406000200133600052825260ff604060002054166125b357336001600160a01b0361241083612c04565b161461256e5780600052600982526040600020923360005260128401835260406000209060ff19916001838254161790556000146124e0576003600985016124588154613154565b80915560405160018152847fe71fcdac32df1877c1700e7bda2a03157e20993363a28fc35ac495cefc76e4d4873393a3101561249057005b6001600760008051602061358e833981519152950191825416179055807fafdcc517a26e633f535aa9cebec29f4281ab2ffa922a475b12fd1297ad765bc88360405160018152a2604051908152a1005b5091600a600291016124f28154613154565b80915560405160008152847fe71fcdac32df1877c1700e7bda2a03157e20993363a28fc35ac495cefc76e4d4853393a3101561252a57005b8160008051602061358e833981519152927fafdcc517a26e633f535aa9cebec29f4281ab2ffa922a475b12fd1297ad765bc88360405160008152a2604051908152a1005b60405162461bcd60e51b815260048101839052601b60248201527f43616e6e6f7420766f7465206f6e206f776e2070726f706572747900000000006044820152606490fd5b60405162461bcd60e51b815260048101839052600d60248201526c105b1c9958591e481d9bdd1959609a1b6044820152606490fd5b60405162461bcd60e51b815260048101839052601960248201527f50726f706572747920616c7265616479207665726966696564000000000000006044820152606490fd5b346102ca5760403660031901126102ca5761264661291b565b602435906001600160a01b03808061265d85612c04565b1692169180831461275857803314908115612733575b50156126c857600083815260046020526040902080546001600160a01b031916831790556126a083612c04565b167f8c5be1e5ebec7d5bd14f71427d1e84f3dd0314c0f7b2291e5b200ac8c7c3b925600080a4005b60405162461bcd60e51b815260206004820152603d60248201527f4552433732313a20617070726f76652063616c6c6572206973206e6f7420746f60448201527f6b656e206f776e6572206f7220617070726f76656420666f7220616c6c0000006064820152608490fd5b9050600052600560205260406000203360005260205260ff6040600020541684612673565b60405162461bcd60e51b815260206004820152602160248201527f4552433732313a20617070726f76616c20746f2063757272656e74206f776e656044820152603960f91b6064820152608490fd5b346102ca5760203660031901126102ca5760206117ee600435612c27565b346102ca5760003660031901126102ca57604051600080546127e681612a80565b808452906001908181169081156115d3575060011461280f57610e04846115668186038261298c565b600080805292507f290decd9548b62a8d60345a988386fc84ba6bc95484008f6362f93160ef3e5635b82841061285057505050810160200161156682611556565b80546020858701810191909152909301928101612838565b346102ca5760203660031901126102ca576004359063ffffffff60e01b82168092036102ca576020916380ac58cd60e01b81149081156128c2575b81156128b1575b5015158152f35b6301ffc9a760e01b149050836128aa565b635b5e139f60e01b811491506128a3565b60005b8381106128e65750506000910152565b81810151838201526020016128d6565b9060209161290f815180928185528580860191016128d3565b601f01601f1916010190565b600435906001600160a01b03821682036102ca57565b602435906001600160a01b03821682036102ca57565b6024359081151582036102ca57565b602081019081106001600160401b03821117611f4657604052565b604081019081106001600160401b03821117611f4657604052565b90601f801991011681019081106001600160401b03821117611f4657604052565b6001600160401b038111611f4657601f01601f191660200190565b9291926129d4826129ad565b916129e2604051938461298c565b8294818452818301116102ca578281602093846000960137010152565b9080601f830112156102ca57816020612a1a933591016129c8565b90565b60609060031901126102ca576001600160a01b039060043582811681036102ca579160243590811681036102ca579060443590565b8054821015612a6a5760005260206000200190600090565b634e487b7160e01b600052603260045260246000fd5b90600182811c92168015612ab0575b6020831014612a9a57565b634e487b7160e01b600052602260045260246000fd5b91607f1691612a8f565b9060405191826000825492612ace84612a80565b908184526001948581169081600014612b3d5750600114612afa575b5050612af89250038361298c565b565b9093915060005260209081600020936000915b818310612b25575050612af893508201013880612aea565b85548884018501529485019487945091830191612b0d565b915050612af894506020925060ff191682840152151560051b8201013880612aea565b6006546001600160a01b03163303612b7457565b606460405162461bcd60e51b815260206004820152602060248201527f4f776e61626c653a2063616c6c6572206973206e6f7420746865206f776e65726044820152fd5b15612bbf57565b60405162461bcd60e51b815260206004820152601860248201527f4552433732313a20696e76616c696420746f6b656e20494400000000000000006044820152606490fd5b6000908152600260205260409020546001600160a01b0316612a1a811515612bb8565b600081815260026020526040902054612c4a906001600160a01b03161515612bb8565b6000908152600460205260409020546001600160a01b031690565b15612c6c57565b60405162461bcd60e51b815260206004820152602d60248201527f4552433732313a2063616c6c6572206973206e6f7420746f6b656e206f776e6560448201526c1c881bdc88185c1c1c9bdd9959609a1b6064820152608490fd5b60809060208152603260208201527f4552433732313a207472616e7366657220746f206e6f6e20455243373231526560408201527131b2b4bb32b91034b6b83632b6b2b73a32b960711b60608201520190565b15612d2157565b60405162461bcd60e51b815280612d3a60048201612cc7565b0390fd5b906001600160a01b038080612d5284612c04565b16931691838314938415612d85575b508315612d6f575b50505090565b612d7b91929350612c27565b1614388080612d69565b909350600052600560205260406000208260005260205260ff604060002054169238612d61565b15612db357565b60405162461bcd60e51b815260206004820152602560248201527f4552433732313a207472616e736665722066726f6d20696e636f72726563742060448201526437bbb732b960d91b6064820152608490fd5b90612e2e91612e1484612c04565b6001600160a01b0393918416928492909183168414612dac565b16918215612ec65781612e4b91612e4486612c04565b1614612dac565b7fddf252ad1be2c89b69c2b068fc378daa952ba7f163c4a11628f55a4df523b3ef60008481526004602052604081206001600160601b0360a01b9081815416905583825260036020526040822060001981540190558482526040822060018154019055858252600260205284604083209182541617905580a4565b60405162461bcd60e51b8152602060048201526024808201527f4552433732313a207472616e7366657220746f20746865207a65726f206164646044820152637265737360e01b6064820152608490fd5b91929091803b1561302c57612f64936040519081630a85bd0160e11b9384825233600483015260009687602484015260448301526080606483015281878160209a8b9660848301906128f6565b03926001600160a01b03165af1849181612fe8575b50612fd7575050503d600014612fcf573d612f93816129ad565b90612fa1604051928361298c565b81528091833d92013e5b80519182612fcc5760405162461bcd60e51b815280612d3a60048201612cc7565b01fd5b506060612fab565b6001600160e01b0319161492509050565b9091508581813d8311613025575b613000818361298c565b8101031261302157516001600160e01b031981168103613021579038612f79565b8480fd5b503d612ff6565b50915050600190565b92939190803b156130b257613087946040518092630a85bd0160e11b9485835233600484015260018060a01b03809816602484015260448301526080606483015281806020998a9560848301906128f6565b03916000988991165af1849181612fe85750612fd7575050503d600014612fcf573d612f93816129ad565b5050915050600190565b156130c357565b60405162461bcd60e51b815260206004820152601c60248201527f4552433732313a20746f6b656e20616c7265616479206d696e746564000000006044820152606490fd5b1561310f57565b60405162461bcd60e51b815260206004820152601760248201527f50726f706572747920646f6573206e6f742065786973740000000000000000006044820152606490fd5b60001981146131635760010190565b634e487b7160e01b600052601160045260246000fd5b1561318057565b60405162461bcd60e51b815260206004820152601e60248201527f4e6f7420617574686f72697a656420746f207570646174652076616c756500006044820152606490fd5b9190820180921161316357565b6000929181546131e181612a80565b9260019180831690811561323a57506001146131fe575b50505050565b90919293945060005260209081600020906000915b85831061322957505050500190388080806131f8565b805485840152918301918101613213565b60ff19168452505050811515909102019150388080806131f8565b9061325f826129ad565b61326c604051918261298c565b828152809261327d601f19916129ad565b0190602036910137565b8051156133d75760405190606082018281106001600160401b03821117611f4657604052604082527f4142434445464748494a4b4c4d4e4f505152535455565758595a61626364656660208301527f6768696a6b6c6d6e6f707172737475767778797a303132333435363738392b2f60408301528051600291828201809211613163576003918290046001600160fe1b03811681036131635761332d908495941b613255565b936020850193829183518401906020820192835194600085525b83811061338657505050505251068060011461337357600214613368575090565b603d90600019015390565b50603d9081600019820153600119015390565b87600491999293949901918251600190603f9082828260121c16880101518453828282600c1c16880101518385015382828260061c1688010151888501531685010151898201530197929190613347565b506040516133e481612956565b6000815290565b806000917a184f03e93ff9f4daa797ed6e38ed64bf6a1f01000000000000000080821015613520575b506d04ee2d6d415b85acef810000000080831015613511575b50662386f26fc1000080831015613502575b506305f5e100808310156134f3575b50612710808310156134e4575b5060648210156134d4575b600a809210156134ca575b600190816021613482828701613255565b95860101905b613494575b5050505090565b600019019083906f181899199a1a9b1b9c1cb0b131b232b360811b8282061a8353049182156134c557919082613488565b61348d565b9160010191613471565b9190606460029104910191613466565b6004919392049101913861345b565b6008919392049101913861344e565b6010919392049101913861343f565b6020919392049101913861342d565b604093508104915038613414565b6000811261353f57612a1a906133eb565b600160ff1b811461316357613556906000036133eb565b612a1a60216040518093602d60f81b602083015261357d81518092602086860191016128d3565b810103600181018452018261298c56fef8e1a15aba9398e019f0b49df1a4fde98ee17ae345cb5f6b5e2c27f5033e8ce7a26469706673582212205e2e4cb7e0c45801c4e98fd7b2f1ae8d14411d72baf8916576e3627879cc96b664736f6c63430008140033","opcodes":"PUSH1 0x80 CALLVALUE PUSH3 0x35F JUMPI PUSH1 0x1 PUSH1 0x1 PUSH1 0x40 SHL SUB SWAP1 PUSH1 0x40 SWAP1 DUP1 DUP3 ADD DUP4 DUP2 GT DUP3 DUP3 LT OR PUSH3 0x349 JUMPI DUP3 MSTORE PUSH1 0xB DUP2 MSTORE PUSH1 0x20 SWAP2 PUSH11 0x141C9BDC195C9D1E539195 PUSH1 0xAA SHL DUP4 DUP4 ADD MSTORE DUP1 MLOAD SWAP4 DUP2 DUP6 ADD DUP6 DUP2 LT DUP3 DUP3 GT OR PUSH3 0x349 JUMPI DUP3 MSTORE PUSH1 0x4 DUP6 MSTORE PUSH4 0x50524F5 PUSH1 0xE4 SHL DUP5 DUP7 ADD MSTORE DUP3 MLOAD DUP2 DUP2 GT PUSH3 0x349 JUMPI PUSH1 0x0 SWAP5 DUP6 SLOAD SWAP2 PUSH1 0x1 SWAP6 DUP7 DUP5 DUP2 SHR SWAP5 AND DUP1 ISZERO PUSH3 0x33E JUMPI JUMPDEST DUP4 DUP6 LT EQ PUSH3 0x32A JUMPI DUP2 SWAP1 PUSH1 0x1F SWAP5 DUP6 DUP2 GT PUSH3 0x2D7 JUMPI JUMPDEST POP DUP4 SWAP1 DUP6 DUP4 GT PUSH1 0x1 EQ PUSH3 0x273 JUMPI DUP10 SWAP3 PUSH3 0x267 JUMPI JUMPDEST POP POP PUSH1 0x0 NOT PUSH1 0x3 DUP4 SWAP1 SHL SHR NOT AND SWAP1 DUP7 SHL OR DUP7 SSTORE JUMPDEST DUP7 MLOAD SWAP3 DUP4 GT PUSH3 0x253 JUMPI DUP5 SLOAD DUP6 DUP2 DUP2 SHR SWAP2 AND DUP1 ISZERO PUSH3 0x248 JUMPI JUMPDEST DUP3 DUP3 LT EQ PUSH3 0x234 JUMPI DUP3 DUP2 GT PUSH3 0x1EC JUMPI JUMPDEST POP DUP1 SWAP2 DUP4 GT PUSH1 0x1 EQ PUSH3 0x183 JUMPI POP DUP5 SWAP6 DUP3 SWAP4 SWAP5 SWAP6 SWAP3 PUSH3 0x177 JUMPI JUMPDEST POP POP PUSH1 0x0 NOT PUSH1 0x3 DUP4 SWAP1 SHL SHR NOT AND SWAP1 DUP4 SHL OR DUP3 SSTORE JUMPDEST PUSH1 0x6 DUP1 SLOAD CALLER PUSH1 0x1 PUSH1 0x1 PUSH1 0xA0 SHL SUB NOT DUP3 AND DUP2 OR SWAP1 SWAP3 SSTORE SWAP2 MLOAD SWAP4 SWAP1 SWAP2 PUSH1 0x1 PUSH1 0x1 PUSH1 0xA0 SHL SUB AND SWAP1 PUSH32 0x8BE0079C531659141344CD1FD0A4F28419497F9722A3DAAFE3B4186F6B6457E0 SWAP1 DUP1 LOG3 PUSH1 0x7 SSTORE PUSH2 0x35E3 SWAP1 DUP2 PUSH3 0x365 DUP3 CODECOPY RETURN JUMPDEST ADD MLOAD SWAP1 POP CODESIZE DUP1 PUSH3 0x10B JUMP JUMPDEST SWAP1 PUSH1 0x1F NOT DUP4 AND SWAP7 DUP6 DUP8 MSTORE DUP3 DUP8 KECCAK256 SWAP3 DUP8 SWAP1 JUMPDEST DUP10 DUP3 LT PUSH3 0x1D4 JUMPI POP POP DUP4 DUP7 SWAP8 SWAP9 SWAP7 SWAP6 SWAP7 LT PUSH3 0x1BA JUMPI JUMPDEST POP POP POP DUP2 SHL ADD DUP3 SSTORE PUSH3 0x11F JUMP JUMPDEST ADD MLOAD PUSH1 0x0 NOT PUSH1 0xF8 DUP5 PUSH1 0x3 SHL AND SHR NOT AND SWAP1 SSTORE CODESIZE DUP1 DUP1 PUSH3 0x1AC JUMP JUMPDEST DUP1 DUP9 DUP6 SWAP7 DUP3 SWAP5 SWAP7 DUP7 ADD MLOAD DUP2 SSTORE ADD SWAP6 ADD SWAP4 ADD SWAP1 PUSH3 0x194 JUMP JUMPDEST DUP6 DUP8 MSTORE DUP2 DUP8 KECCAK256 DUP4 DUP1 DUP7 ADD PUSH1 0x5 SHR DUP3 ADD SWAP3 DUP5 DUP8 LT PUSH3 0x22A JUMPI JUMPDEST ADD PUSH1 0x5 SHR ADD SWAP1 DUP7 SWAP1 JUMPDEST DUP3 DUP2 LT PUSH3 0x21E JUMPI POP POP PUSH3 0xF0 JUMP JUMPDEST DUP9 DUP2 SSTORE ADD DUP7 SWAP1 PUSH3 0x20E JUMP JUMPDEST SWAP3 POP DUP2 SWAP3 PUSH3 0x205 JUMP JUMPDEST PUSH4 0x4E487B71 PUSH1 0xE0 SHL DUP8 MSTORE PUSH1 0x22 PUSH1 0x4 MSTORE PUSH1 0x24 DUP8 REVERT JUMPDEST SWAP1 PUSH1 0x7F AND SWAP1 PUSH3 0xDE JUMP JUMPDEST PUSH4 0x4E487B71 PUSH1 0xE0 SHL DUP7 MSTORE PUSH1 0x41 PUSH1 0x4 MSTORE PUSH1 0x24 DUP7 REVERT JUMPDEST ADD MLOAD SWAP1 POP CODESIZE DUP1 PUSH3 0xB0 JUMP JUMPDEST DUP10 DUP1 MSTORE DUP5 DUP11 KECCAK256 DUP10 SWAP5 POP SWAP2 SWAP1 PUSH1 0x1F NOT DUP5 AND DUP12 JUMPDEST DUP8 DUP3 DUP3 LT PUSH3 0x2C0 JUMPI POP POP DUP5 GT PUSH3 0x2A6 JUMPI JUMPDEST POP POP POP DUP2 SHL ADD DUP7 SSTORE PUSH3 0xC4 JUMP JUMPDEST ADD MLOAD PUSH1 0x0 NOT PUSH1 0xF8 DUP5 PUSH1 0x3 SHL AND SHR NOT AND SWAP1 SSTORE CODESIZE DUP1 DUP1 PUSH3 0x298 JUMP JUMPDEST DUP4 DUP6 ADD MLOAD DUP7 SSTORE DUP13 SWAP8 SWAP1 SWAP6 ADD SWAP5 SWAP4 DUP5 ADD SWAP4 ADD PUSH3 0x285 JUMP JUMPDEST SWAP1 SWAP2 POP DUP9 DUP1 MSTORE DUP4 DUP10 KECCAK256 DUP6 DUP1 DUP6 ADD PUSH1 0x5 SHR DUP3 ADD SWAP3 DUP7 DUP7 LT PUSH3 0x320 JUMPI JUMPDEST SWAP2 DUP11 SWAP2 DUP7 SWAP6 SWAP5 SWAP4 ADD PUSH1 0x5 SHR ADD SWAP2 JUMPDEST DUP3 DUP2 LT PUSH3 0x311 JUMPI POP POP PUSH3 0x9A JUMP JUMPDEST DUP12 DUP2 SSTORE DUP6 SWAP5 POP DUP11 SWAP2 ADD PUSH3 0x301 JUMP JUMPDEST SWAP3 POP DUP2 SWAP3 PUSH3 0x2F3 JUMP JUMPDEST PUSH4 0x4E487B71 PUSH1 0xE0 SHL DUP9 MSTORE PUSH1 0x22 PUSH1 0x4 MSTORE PUSH1 0x24 DUP9 REVERT JUMPDEST SWAP4 PUSH1 0x7F AND SWAP4 PUSH3 0x83 JUMP JUMPDEST PUSH4 0x4E487B71 PUSH1 0xE0 SHL PUSH1 0x0 MSTORE PUSH1 0x41 PUSH1 0x4 MSTORE PUSH1 0x24 PUSH1 0x0 REVERT JUMPDEST PUSH1 0x0 DUP1 REVERT INVALID PUSH2 0x120 DUP1 PUSH1 0x40 MSTORE PUSH1 0x4 CALLDATASIZE LT ISZERO PUSH2 0x14 JUMPI PUSH1 0x0 DUP1 REVERT JUMPDEST PUSH1 0x0 CALLDATALOAD PUSH1 0xE0 SHR SWAP1 DUP2 PUSH4 0x1FFC9A7 EQ PUSH2 0x2868 JUMPI POP DUP1 PUSH4 0x6FDDE03 EQ PUSH2 0x27C5 JUMPI DUP1 PUSH4 0x81812FC EQ PUSH2 0x27A7 JUMPI DUP1 PUSH4 0x95EA7B3 EQ PUSH2 0x262D JUMPI DUP1 PUSH4 0xAF44108 EQ PUSH2 0x237E JUMPI DUP1 PUSH4 0x179CD756 EQ PUSH2 0x1B0A JUMPI DUP1 PUSH4 0x23B872DD EQ PUSH2 0x1AE6 JUMPI DUP1 PUSH4 0x3F53B43F EQ PUSH2 0x1ACA JUMPI DUP1 PUSH4 0x42842E0E EQ PUSH2 0x1A97 JUMPI DUP1 PUSH4 0x4BEAC331 EQ PUSH2 0x1800 JUMPI DUP1 PUSH4 0x6352211E EQ PUSH2 0x17D0 JUMPI DUP1 PUSH4 0x66D0EAD3 EQ PUSH2 0x4D5 JUMPI DUP1 PUSH4 0x70A08231 EQ PUSH2 0x1739 JUMPI DUP1 PUSH4 0x715018A6 EQ PUSH2 0x16DC JUMPI DUP1 PUSH4 0x88F5AB9F EQ PUSH2 0x167B JUMPI DUP1 PUSH4 0x8DA5CB5B EQ PUSH2 0x1652 JUMPI DUP1 PUSH4 0x8F48BD5B EQ PUSH2 0x15FA JUMPI DUP1 PUSH4 0x95D89B41 EQ PUSH2 0x151B JUMPI DUP1 PUSH4 0x9B7C4B4B EQ PUSH2 0x142F JUMPI DUP1 PUSH4 0xA22CB465 EQ PUSH2 0x1357 JUMPI DUP1 PUSH4 0xB88D4FDE EQ PUSH2 0x12D0 JUMPI DUP1 PUSH4 0xC87B56DD EQ PUSH2 0x514 JUMPI DUP1 PUSH4 0xD5B9221B EQ PUSH2 0x4D5 JUMPI DUP1 PUSH4 0xDFDEA265 EQ PUSH2 0x4B9 JUMPI DUP1 PUSH4 0xE985E9C5 EQ PUSH2 0x463 JUMPI DUP1 PUSH4 0xF2FA7392 EQ PUSH2 0x393 JUMPI DUP1 PUSH4 0xF2FDE38B EQ PUSH2 0x2CF JUMPI PUSH4 0xF7B10808 EQ PUSH2 0x154 JUMPI PUSH1 0x0 DUP1 REVERT JUMPDEST CALLVALUE PUSH2 0x2CA JUMPI PUSH1 0x20 CALLDATASIZE PUSH1 0x3 NOT ADD SLT PUSH2 0x2CA JUMPI PUSH1 0x4 CALLDATALOAD PUSH1 0x0 MSTORE PUSH1 0x9 PUSH1 0x20 MSTORE PUSH1 0x40 PUSH1 0x0 KECCAK256 PUSH2 0x17E DUP2 PUSH2 0x2ABA JUMP JUMPDEST PUSH2 0x18A PUSH1 0x1 DUP4 ADD PUSH2 0x2ABA JUMP JUMPDEST PUSH1 0xA0 MSTORE PUSH2 0x199 PUSH1 0x2 DUP4 ADD PUSH2 0x2ABA JUMP JUMPDEST PUSH1 0xE0 MSTORE PUSH1 0x3 DUP3 ADD SLOAD SWAP2 PUSH2 0x1AE PUSH1 0x4 DUP3 ADD PUSH2 0x2ABA JUMP JUMPDEST SWAP3 PUSH1 0x5 DUP3 ADD SLOAD PUSH1 0x80 MSTORE PUSH1 0x6 DUP3 ADD SLOAD SWAP4 PUSH1 0x7 DUP4 ADD SLOAD PUSH1 0xFF AND PUSH1 0x8 DUP5 ADD SLOAD PUSH1 0x9 DUP6 ADD SLOAD PUSH1 0xA DUP7 ADD SLOAD PUSH1 0xB DUP8 ADD SLOAD SWAP2 PUSH1 0xC DUP9 ADD SLOAD SWAP4 PUSH1 0xD DUP10 ADD SLOAD SWAP6 PUSH1 0xE DUP11 ADD SLOAD SWAP8 PUSH1 0xF DUP12 ADD SLOAD SWAP10 PUSH1 0x10 DUP13 ADD SLOAD SWAP12 PUSH1 0x11 ADD SLOAD PUSH1 0xC0 MSTORE PUSH1 0x40 MLOAD SWAP13 PUSH2 0x100 SWAP14 DUP15 DUP2 DUP2 MSTORE PUSH2 0x240 DUP1 SWAP3 MSTORE MLOAD ADD PUSH2 0x21C SWAP2 PUSH2 0x28F6 JUMP JUMPDEST DUP14 MLOAD DUP1 DUP3 SUB SWAP1 PUSH1 0x20 ADD MSTORE PUSH1 0xA0 MLOAD SWAP1 PUSH2 0x233 SWAP2 PUSH2 0x28F6 JUMP JUMPDEST DUP14 MLOAD DUP1 DUP3 SUB SWAP1 PUSH1 0x40 ADD MSTORE PUSH1 0xE0 MLOAD SWAP1 PUSH2 0x24A SWAP2 PUSH2 0x28F6 JUMP JUMPDEST SWAP1 DUP14 MLOAD PUSH1 0x60 ADD MSTORE DUP13 MLOAD DUP1 DUP3 SUB SWAP1 PUSH1 0x80 ADD MSTORE PUSH2 0x264 SWAP2 PUSH2 0x28F6 JUMP JUMPDEST SWAP12 PUSH1 0x80 MLOAD DUP13 MLOAD PUSH1 0xA0 ADD MSTORE DUP12 MLOAD PUSH1 0xC0 ADD MSTORE ISZERO ISZERO DUP11 MLOAD PUSH1 0xE0 ADD MSTORE DUP10 DUP1 MLOAD ADD MSTORE DUP9 MLOAD PUSH2 0x120 ADD MSTORE DUP8 MLOAD PUSH2 0x140 ADD MSTORE DUP7 MLOAD PUSH2 0x160 ADD MSTORE DUP6 MLOAD PUSH2 0x180 ADD MSTORE DUP5 MLOAD PUSH2 0x1A0 ADD MSTORE DUP4 MLOAD PUSH2 0x1C0 ADD MSTORE DUP3 MLOAD PUSH2 0x1E0 ADD MSTORE DUP2 MLOAD PUSH2 0x200 ADD MSTORE PUSH1 0xC0 MLOAD DUP2 MLOAD PUSH2 0x220 ADD MSTORE MLOAD DUP1 SWAP2 SUB SWAP1 RETURN JUMPDEST PUSH1 0x0 DUP1 REVERT JUMPDEST CALLVALUE PUSH2 0x2CA JUMPI PUSH1 0x20 CALLDATASIZE PUSH1 0x3 NOT ADD SLT PUSH2 0x2CA JUMPI PUSH2 0x2E8 PUSH2 0x291B JUMP JUMPDEST PUSH2 0x2F0 PUSH2 0x2B60 JUMP JUMPDEST PUSH1 0x1 PUSH1 0x1 PUSH1 0xA0 SHL SUB SWAP1 DUP2 AND SWAP1 DUP2 ISZERO PUSH2 0x33F JUMPI PUSH1 0x6 SLOAD DUP3 PUSH1 0x1 PUSH1 0x1 PUSH1 0x60 SHL SUB PUSH1 0xA0 SHL DUP3 AND OR PUSH1 0x6 SSTORE AND PUSH32 0x8BE0079C531659141344CD1FD0A4F28419497F9722A3DAAFE3B4186F6B6457E0 PUSH1 0x0 DUP1 LOG3 STOP JUMPDEST PUSH1 0x40 MLOAD PUSH3 0x461BCD PUSH1 0xE5 SHL DUP2 MSTORE PUSH1 0x20 PUSH1 0x4 DUP3 ADD MSTORE PUSH1 0x26 PUSH1 0x24 DUP3 ADD MSTORE PUSH32 0x4F776E61626C653A206E6577206F776E657220697320746865207A65726F2061 PUSH1 0x44 DUP3 ADD MSTORE PUSH6 0x646472657373 PUSH1 0xD0 SHL PUSH1 0x64 DUP3 ADD MSTORE PUSH1 0x84 SWAP1 REVERT JUMPDEST CALLVALUE PUSH2 0x2CA JUMPI PUSH1 0x40 CALLDATASIZE PUSH1 0x3 NOT ADD SLT PUSH2 0x2CA JUMPI PUSH2 0x3AC PUSH2 0x291B JUMP JUMPDEST PUSH2 0x3B4 PUSH2 0x2947 JUMP JUMPDEST SWAP1 PUSH2 0x3BD PUSH2 0x2B60 JUMP JUMPDEST PUSH1 0x1 PUSH1 0x1 PUSH1 0xA0 SHL SUB AND SWAP1 DUP2 ISZERO PUSH2 0x41E JUMPI PUSH1 0x20 PUSH32 0x3213AB8EC2ED122402F038736B41878B69AE9F61F49A7EDD0666BCE891D29FC9 SWAP2 DUP4 PUSH1 0x0 MSTORE PUSH1 0xC DUP3 MSTORE PUSH2 0x413 DUP2 PUSH1 0x40 PUSH1 0x0 KECCAK256 SWAP1 PUSH1 0xFF DUP1 NOT DUP4 SLOAD AND SWAP2 ISZERO ISZERO AND OR SWAP1 SSTORE JUMP JUMPDEST PUSH1 0x40 MLOAD SWAP1 ISZERO ISZERO DUP2 MSTORE LOG2 STOP JUMPDEST PUSH1 0x40 MLOAD PUSH3 0x461BCD PUSH1 0xE5 SHL DUP2 MSTORE PUSH1 0x20 PUSH1 0x4 DUP3 ADD MSTORE PUSH1 0x18 PUSH1 0x24 DUP3 ADD MSTORE PUSH32 0x496E76616C696420636F6E747261637420616464726573730000000000000000 PUSH1 0x44 DUP3 ADD MSTORE PUSH1 0x64 SWAP1 REVERT JUMPDEST CALLVALUE PUSH2 0x2CA JUMPI PUSH1 0x40 CALLDATASIZE PUSH1 0x3 NOT ADD SLT PUSH2 0x2CA JUMPI PUSH2 0x47C PUSH2 0x291B JUMP JUMPDEST PUSH2 0x484 PUSH2 0x2931 JUMP JUMPDEST SWAP1 PUSH1 0x1 DUP1 PUSH1 0xA0 SHL SUB DUP1 SWAP2 AND PUSH1 0x0 MSTORE PUSH1 0x5 PUSH1 0x20 MSTORE PUSH1 0x40 PUSH1 0x0 KECCAK256 SWAP2 AND PUSH1 0x0 MSTORE PUSH1 0x20 MSTORE PUSH1 0x20 PUSH1 0xFF PUSH1 0x40 PUSH1 0x0 KECCAK256 SLOAD AND PUSH1 0x40 MLOAD SWAP1 ISZERO ISZERO DUP2 MSTORE RETURN JUMPDEST CALLVALUE PUSH2 0x2CA JUMPI PUSH1 0x0 CALLDATASIZE PUSH1 0x3 NOT ADD SLT PUSH2 0x2CA JUMPI PUSH1 0x20 PUSH1 0x40 MLOAD PUSH1 0x2 DUP2 MSTORE RETURN JUMPDEST CALLVALUE PUSH2 0x2CA JUMPI PUSH1 0x20 CALLDATASIZE PUSH1 0x3 NOT ADD SLT PUSH2 0x2CA JUMPI PUSH1 0x1 PUSH1 0x1 PUSH1 0xA0 SHL SUB PUSH2 0x4F6 PUSH2 0x291B JUMP JUMPDEST AND PUSH1 0x0 MSTORE PUSH1 0xC PUSH1 0x20 MSTORE PUSH1 0x20 PUSH1 0xFF PUSH1 0x40 PUSH1 0x0 KECCAK256 SLOAD AND PUSH1 0x40 MLOAD SWAP1 ISZERO ISZERO DUP2 MSTORE RETURN JUMPDEST CALLVALUE PUSH2 0x2CA JUMPI PUSH1 0x20 CALLDATASIZE PUSH1 0x3 NOT ADD SLT PUSH2 0x2CA JUMPI PUSH1 0x4 CALLDATALOAD PUSH1 0x0 SWAP1 DUP2 MSTORE PUSH1 0x2 PUSH1 0x20 MSTORE PUSH1 0x40 SWAP1 KECCAK256 SLOAD PUSH2 0x54B SWAP1 PUSH1 0x1 PUSH1 0x1 PUSH1 0xA0 SHL SUB AND ISZERO ISZERO PUSH2 0x3108 JUMP JUMPDEST PUSH1 0x4 CALLDATALOAD PUSH1 0x0 MSTORE PUSH1 0x9 PUSH1 0x20 MSTORE PUSH1 0x40 PUSH1 0x0 KECCAK256 PUSH1 0x0 DUP1 PUSH1 0xB DUP4 ADD SLOAD SWAP1 DUP2 PUSH2 0x12C5 JUMPI JUMPDEST DUP4 PUSH1 0xC DUP2 ADD SLOAD DUP1 PUSH2 0x12AA JUMPI JUMPDEST PUSH1 0xD DUP3 ADD SLOAD SWAP4 DUP5 PUSH2 0x128F JUMPI JUMPDEST PUSH1 0xE DUP4 ADD SLOAD SWAP5 DUP6 PUSH2 0x1274 JUMPI JUMPDEST PUSH1 0xF DUP5 ADD SLOAD SWAP5 DUP6 PUSH2 0x125B JUMPI JUMPDEST DUP1 ISZERO DUP1 ISZERO PUSH2 0x1231 JUMPI JUMPDEST POP POP PUSH2 0x5B0 PUSH1 0x4 CALLDATALOAD PUSH2 0x33EB JUMP JUMPDEST SWAP7 PUSH2 0x5BC PUSH1 0x4 CALLDATALOAD PUSH2 0x33EB JUMP JUMPDEST SWAP6 PUSH1 0xFF PUSH1 0x7 DUP8 ADD SLOAD AND PUSH1 0x0 EQ PUSH2 0x120B JUMPI PUSH1 0x40 MLOAD PUSH2 0x5D8 DUP2 PUSH2 0x2971 JUMP JUMPDEST PUSH1 0x8 DUP2 MSTORE PUSH8 0x15995C9A599A5959 PUSH1 0xC2 SHL PUSH1 0x20 DUP3 ADD MSTORE SWAP8 JUMPDEST PUSH2 0x5FC PUSH1 0x8 DUP9 ADD SLOAD PUSH2 0x33EB JUMP JUMPDEST PUSH1 0x10 DUP9 ADD SLOAD SWAP1 SWAP5 SWAP1 DUP1 ISZERO PUSH2 0x11F4 JUMPI PUSH2 0x613 SWAP1 PUSH2 0x33EB JUMP JUMPDEST PUSH2 0x6A7 PUSH1 0x68 PUSH1 0x40 MLOAD DUP1 SWAP4 PUSH32 0x7B2274726169745F74797065223A2022436F6D70617261626C652056616C7565 PUSH1 0x20 DUP4 ADD MSTORE PUSH32 0x222C2022646973706C61795F74797065223A20226E756D626572222C20227661 PUSH1 0x40 DUP4 ADD MSTORE PUSH6 0x363AB2911D1 PUSH1 0xD5 SHL PUSH1 0x60 DUP4 ADD MSTORE PUSH2 0x68C DUP2 MLOAD DUP1 SWAP3 PUSH1 0x20 PUSH1 0x66 DUP7 ADD SWAP2 ADD PUSH2 0x28D3 JUMP JUMPDEST DUP2 ADD PUSH2 0x1F4B PUSH1 0xF2 SHL PUSH1 0x66 DUP3 ADD MSTORE SUB PUSH1 0x48 DUP2 ADD DUP5 MSTORE ADD DUP3 PUSH2 0x298C JUMP JUMPDEST SWAP7 JUMPDEST PUSH1 0x40 MLOAD PUSH2 0x6B5 DUP2 PUSH2 0x2956 JUMP JUMPDEST PUSH1 0x0 DUP2 MSTORE DUP1 SWAP8 DUP1 PUSH2 0x112D JUMPI JUMPDEST POP POP DUP1 PUSH2 0x106C JUMPI JUMPDEST POP DUP1 PUSH2 0xFA6 JUMPI JUMPDEST POP DUP1 PUSH2 0xEE6 JUMPI JUMPDEST POP DUP1 PUSH2 0xE1F JUMPI JUMPDEST POP DUP1 ISZERO PUSH2 0xE08 JUMPI PUSH2 0x6EE SWAP1 PUSH2 0x33EB JUMP JUMPDEST PUSH2 0x789 PUSH1 0x6F PUSH1 0x40 MLOAD DUP1 SWAP4 PUSH32 0x7B2274726169745F74797065223A20224F766572616C6C2053636F7265222C20 PUSH1 0x20 DUP4 ADD MSTORE PUSH32 0x22646973706C61795F74797065223A2022626F6F73745F70657263656E746167 PUSH1 0x40 DUP4 ADD MSTORE PUSH13 0x32911610113B30B63AB2911D1 PUSH1 0x9D SHL PUSH1 0x60 DUP4 ADD MSTORE PUSH2 0x76E DUP2 MLOAD DUP1 SWAP3 PUSH1 0x20 PUSH1 0x6D DUP7 ADD SWAP2 ADD PUSH2 0x28D3 JUMP JUMPDEST DUP2 ADD PUSH2 0x1F4B PUSH1 0xF2 SHL PUSH1 0x6D DUP3 ADD MSTORE SUB PUSH1 0x4F DUP2 ADD DUP5 MSTORE ADD DUP3 PUSH2 0x298C JUMP JUMPDEST SWAP1 JUMPDEST PUSH1 0x5 DUP6 ADD SLOAD PUSH2 0x799 SWAP1 PUSH2 0x352E JUMP JUMPDEST SWAP4 PUSH1 0x6 DUP7 ADD SLOAD PUSH2 0x7A8 SWAP1 PUSH2 0x352E JUMP JUMPDEST SWAP4 PUSH1 0x3 DUP8 ADD SLOAD PUSH2 0x7B7 SWAP1 PUSH2 0x33EB JUMP JUMPDEST SWAP1 PUSH1 0x9 DUP9 ADD SLOAD PUSH2 0x7C6 SWAP1 PUSH2 0x33EB JUMP JUMPDEST SWAP6 PUSH1 0xA DUP10 ADD SLOAD PUSH2 0x7D5 SWAP1 PUSH2 0x33EB JUMP JUMPDEST SWAP8 PUSH1 0x40 MLOAD SWAP12 DUP13 SWAP11 PUSH1 0x20 DUP13 ADD PUSH32 0x7B2274726169745F74797065223A202250726F70657274792054797065222C20 SWAP1 MSTORE PUSH10 0x113B30B63AB2911D1011 PUSH1 0xB1 SHL PUSH1 0x40 DUP14 ADD MSTORE PUSH1 0x4A DUP13 ADD PUSH1 0x2 DUP3 ADD SWAP1 PUSH2 0x828 SWAP2 PUSH2 0x31D2 JUMP JUMPDEST PUSH3 0x89F4B PUSH1 0xEA SHL DUP2 MSTORE PUSH32 0x7B2274726169745F74797065223A20224F776E6572222C202276616C7565223A PUSH1 0x3 DUP3 ADD MSTORE PUSH2 0x1011 PUSH1 0xF1 SHL PUSH1 0x23 DUP3 ADD MSTORE PUSH2 0x874 SWAP2 PUSH1 0x25 SWAP1 SWAP2 ADD SWAP1 PUSH1 0x1 ADD PUSH2 0x31D2 JUMP JUMPDEST PUSH3 0x89F4B PUSH1 0xEA SHL DUP2 MSTORE PUSH32 0x7B2274726169745F74797065223A2022566572696669636174696F6E20537461 PUSH1 0x3 DUP3 ADD MSTORE PUSH16 0x3A3AB9911610113B30B63AB2911D1011 PUSH1 0x81 SHL PUSH1 0x23 DUP3 ADD MSTORE DUP2 MLOAD SWAP2 PUSH2 0x8D2 SWAP1 DUP4 SWAP1 PUSH1 0x33 DUP5 ADD SWAP1 PUSH1 0x20 ADD PUSH2 0x28D3 JUMP JUMPDEST ADD SWAP7 PUSH3 0x89F4B PUSH1 0xEA SHL PUSH1 0x33 DUP10 ADD MSTORE PUSH1 0x36 DUP9 ADD PUSH32 0x7B2274726169745F74797065223A2022457374696D617465642056616C756522 SWAP1 MSTORE PUSH32 0x2C2022646973706C61795F74797065223A20226E756D626572222C202276616C SWAP7 DUP8 PUSH1 0x56 DUP11 ADD MSTORE PUSH5 0x3AB2911D1 PUSH1 0xDD SHL SWAP9 DUP10 PUSH1 0x76 DUP3 ADD MSTORE DUP2 MLOAD SWAP2 DUP3 PUSH1 0x7B DUP4 ADD SWAP2 PUSH1 0x20 ADD SWAP2 PUSH2 0x955 SWAP3 PUSH2 0x28D3 JUMP JUMPDEST ADD SWAP4 PUSH2 0x1F4B PUSH1 0xF2 SHL SWAP7 DUP6 DUP9 PUSH1 0x7B DUP2 SWAP9 ADD MSTORE DUP2 MLOAD SWAP2 DUP3 PUSH1 0x7D DUP4 ADD SWAP2 PUSH1 0x20 ADD SWAP2 PUSH2 0x97C SWAP3 PUSH2 0x28D3 JUMP JUMPDEST ADD DUP2 MLOAD SWAP2 DUP3 PUSH1 0x7D DUP4 ADD SWAP2 PUSH1 0x20 ADD SWAP2 PUSH2 0x993 SWAP3 PUSH2 0x28D3 JUMP JUMPDEST ADD DUP2 MLOAD SWAP2 DUP3 PUSH1 0x7D DUP4 ADD SWAP2 PUSH1 0x20 ADD SWAP2 PUSH2 0x9AA SWAP3 PUSH2 0x28D3 JUMP JUMPDEST ADD PUSH1 0x7D DUP2 ADD PUSH32 0x7B2274726169745F74797065223A20224C61746974756465222C202264697370 SWAP1 MSTORE PUSH1 0x9D DUP2 ADD PUSH32 0x6C61795F74797065223A20226E756D626572222C202276616C7565223A200000 SWAP1 MSTORE DUP2 MLOAD SWAP2 DUP3 PUSH1 0xBB DUP4 ADD SWAP2 PUSH1 0x20 ADD SWAP2 PUSH2 0xA0F SWAP3 PUSH2 0x28D3 JUMP JUMPDEST ADD DUP3 PUSH1 0xBB DUP3 ADD MSTORE PUSH1 0xBD DUP2 ADD PUSH32 0x7B2274726169745F74797065223A20224C6F6E676974756465222C2022646973 SWAP1 MSTORE PUSH1 0xDD DUP2 ADD PUSH32 0x706C61795F74797065223A20226E756D626572222C202276616C7565223A2000 SWAP1 MSTORE DUP2 MLOAD SWAP2 DUP3 PUSH1 0xFC DUP4 ADD SWAP2 PUSH1 0x20 ADD SWAP2 PUSH2 0xA7A SWAP3 PUSH2 0x28D3 JUMP JUMPDEST ADD DUP2 PUSH1 0xFC DUP3 ADD MSTORE PUSH1 0xFE DUP2 ADD PUSH32 0x7B2274726169745F74797065223A202252656E6F766174696F6E204461746522 SWAP1 MSTORE PUSH2 0x11E DUP2 ADD PUSH32 0x2C2022646973706C61795F74797065223A202264617465222C202276616C7565 SWAP1 MSTORE PUSH3 0x111D1 PUSH1 0xED SHL PUSH2 0x13E DUP3 ADD MSTORE DUP3 MLOAD SWAP1 PUSH2 0x141 SWAP4 DUP3 DUP6 DUP4 ADD SWAP2 PUSH1 0x20 ADD SWAP2 PUSH2 0xAF6 SWAP3 PUSH2 0x28D3 JUMP JUMPDEST ADD SWAP2 DUP3 ADD MSTORE PUSH32 0x7B2274726169745F74797065223A2022566572696669636174696F6E20566F74 PUSH2 0x143 DUP3 ADD MSTORE PUSH32 0x6573222C2022646973706C61795F74797065223A20226E756D626572222C2022 PUSH2 0x163 DUP3 ADD MSTORE PUSH8 0x3B30B63AB2911D1 PUSH1 0xC5 SHL PUSH2 0x183 DUP3 ADD MSTORE DUP5 MLOAD PUSH2 0x18B SWAP6 SWAP1 SWAP2 SWAP1 PUSH2 0xB76 SWAP1 DUP4 SWAP1 DUP9 DUP5 ADD SWAP1 PUSH1 0x20 ADD PUSH2 0x28D3 JUMP JUMPDEST ADD SWAP4 DUP5 ADD MSTORE PUSH2 0x18D DUP4 ADD PUSH32 0x7B2274726169745F74797065223A202252656A656374696F6E20566F74657322 SWAP1 MSTORE PUSH2 0x1AD DUP4 ADD MSTORE PUSH2 0x1CD DUP3 ADD MSTORE DUP2 MLOAD SWAP1 PUSH2 0x1D2 SWAP3 DUP3 DUP5 DUP4 ADD SWAP2 PUSH1 0x20 ADD SWAP2 PUSH2 0xBC8 SWAP3 PUSH2 0x28D3 JUMP JUMPDEST ADD SWAP1 DUP2 ADD PUSH1 0x7D PUSH1 0xF8 SHL SWAP1 MSTORE SUB PUSH2 0x1B3 DUP2 ADD DUP4 MSTORE PUSH2 0x1D3 ADD PUSH2 0xBE9 SWAP1 DUP4 PUSH2 0x298C JUMP JUMPDEST PUSH1 0x40 MLOAD SWAP4 DUP5 SWAP4 PUSH20 0x7B226E616D65223A202250726F70657274792023 PUSH1 0x60 SHL PUSH1 0x20 DUP7 ADD MSTORE DUP1 MLOAD SWAP1 DUP2 PUSH1 0x34 DUP8 ADD SWAP2 PUSH1 0x20 ADD SWAP2 PUSH2 0xC22 SWAP3 PUSH2 0x28D3 JUMP JUMPDEST DUP5 ADD PUSH1 0x34 DUP2 ADD PUSH3 0x10169 PUSH1 0xED SHL SWAP1 MSTORE PUSH1 0x37 ADD PUSH2 0xC3E SWAP1 DUP3 PUSH2 0x31D2 JUMP JUMPDEST PUSH32 0x222C20226465736372697074696F6E223A202256657269666965642070726F70 DUP2 MSTORE PUSH32 0x65727479204E465420726570726573656E74696E67207265616C206573746174 PUSH1 0x20 DUP3 ADD MSTORE PUSH5 0x329030BA1 PUSH1 0xDD SHL PUSH1 0x40 DUP3 ADD MSTORE PUSH2 0xCA2 SWAP1 PUSH1 0x45 ADD DUP3 PUSH2 0x31D2 JUMP JUMPDEST PUSH9 0x171027BBB732B91D1 PUSH1 0xBD SHL DUP2 MSTORE PUSH2 0xCC1 SWAP1 PUSH1 0x9 ADD PUSH1 0x1 DUP4 ADD PUSH2 0x31D2 JUMP JUMPDEST PUSH13 0x1116101134B6B0B3B2911D1011 PUSH1 0x99 SHL DUP2 MSTORE PUSH2 0xCE6 SWAP2 PUSH1 0xD SWAP1 SWAP2 ADD SWAP1 PUSH1 0x4 ADD PUSH2 0x31D2 JUMP JUMPDEST PUSH32 0x222C202265787465726E616C5F75726C223A202268747470733A2F2F796F7572 DUP2 MSTORE PUSH1 0x20 DUP2 ADD PUSH17 0x6170702E636F6D2F70726F70657274792F PUSH1 0x78 SHL SWAP1 MSTORE DUP2 MLOAD SWAP2 DUP3 PUSH1 0x31 DUP4 ADD SWAP2 PUSH1 0x20 ADD SWAP2 PUSH2 0xD3A SWAP3 PUSH2 0x28D3 JUMP JUMPDEST ADD PUSH18 0x222C202261747472696275746573223A205B PUSH1 0x70 SHL PUSH1 0x31 DUP3 ADD MSTORE DUP2 MLOAD SWAP2 DUP3 PUSH1 0x43 DUP4 ADD SWAP2 PUSH1 0x20 ADD SWAP2 PUSH2 0xD6C SWAP3 PUSH2 0x28D3 JUMP JUMPDEST ADD PUSH1 0x43 DUP2 ADD PUSH2 0x5D7D PUSH1 0xF0 SHL SWAP1 MSTORE SUB PUSH1 0x25 DUP2 ADD DUP3 MSTORE PUSH1 0x45 ADD PUSH2 0xD8D SWAP1 DUP3 PUSH2 0x298C JUMP JUMPDEST PUSH2 0xD96 SWAP1 PUSH2 0x3287 JUMP JUMPDEST PUSH1 0x40 MLOAD DUP1 SWAP2 PUSH1 0x20 DUP3 ADD PUSH32 0x646174613A6170706C69636174696F6E2F6A736F6E3B6261736536342C000000 SWAP1 MSTORE DUP1 MLOAD SWAP1 DUP2 PUSH1 0x3D DUP5 ADD SWAP2 PUSH1 0x20 ADD SWAP2 PUSH2 0xDD8 SWAP3 PUSH2 0x28D3 JUMP JUMPDEST DUP2 ADD SUB PUSH1 0x1D DUP2 ADD DUP3 MSTORE PUSH1 0x3D ADD PUSH2 0xDEE SWAP1 DUP3 PUSH2 0x298C JUMP JUMPDEST PUSH1 0x40 MLOAD DUP1 SWAP2 PUSH1 0x20 DUP3 MSTORE PUSH1 0x20 DUP3 ADD PUSH2 0xE04 SWAP2 PUSH2 0x28F6 JUMP JUMPDEST SUB SWAP1 RETURN JUMPDEST POP PUSH1 0x40 MLOAD PUSH2 0xE15 DUP2 PUSH2 0x2956 JUMP JUMPDEST PUSH1 0x0 DUP2 MSTORE SWAP1 PUSH2 0x78B JUMP JUMPDEST PUSH1 0x72 PUSH2 0xE30 PUSH2 0xEDF SWAP3 SWAP6 SWAP4 SWAP6 PUSH2 0x33EB JUMP JUMPDEST SWAP3 PUSH1 0x40 MLOAD SWAP4 DUP2 PUSH2 0xE4A DUP7 SWAP4 MLOAD DUP1 SWAP3 PUSH1 0x20 DUP1 DUP8 ADD SWAP2 ADD PUSH2 0x28D3 JUMP JUMPDEST DUP3 ADD PUSH32 0x7B2274726169745F74797065223A202252656E6F766174696F6E2053636F7265 PUSH1 0x20 DUP3 ADD MSTORE PUSH32 0x222C2022646973706C61795F74797065223A2022626F6F73745F70657263656E PUSH1 0x40 DUP3 ADD MSTORE PUSH16 0x3A30B3B2911610113B30B63AB2911D1 PUSH1 0x85 SHL PUSH1 0x60 DUP3 ADD MSTORE PUSH2 0xEC5 DUP3 MLOAD DUP1 SWAP4 PUSH1 0x20 PUSH1 0x70 DUP6 ADD SWAP2 ADD PUSH2 0x28D3 JUMP JUMPDEST ADD PUSH2 0x1F4B PUSH1 0xF2 SHL PUSH1 0x70 DUP3 ADD MSTORE SUB PUSH1 0x52 DUP2 ADD DUP5 MSTORE ADD DUP3 PUSH2 0x298C JUMP JUMPDEST SWAP2 DUP10 PUSH2 0x6DE JUMP JUMPDEST PUSH1 0x6B PUSH2 0xEF7 PUSH2 0xF9F SWAP3 SWAP7 SWAP4 SWAP7 PUSH2 0x33EB JUMP JUMPDEST SWAP3 PUSH1 0x40 MLOAD SWAP4 DUP2 PUSH2 0xF11 DUP7 SWAP4 MLOAD DUP1 SWAP3 PUSH1 0x20 DUP1 DUP8 ADD SWAP2 ADD PUSH2 0x28D3 JUMP JUMPDEST DUP3 ADD PUSH32 0x7B2274726169745F74797065223A20224167652053636F7265222C2022646973 PUSH1 0x20 DUP3 ADD MSTORE PUSH32 0x706C61795F74797065223A2022626F6F73745F70657263656E74616765222C20 PUSH1 0x40 DUP3 ADD MSTORE PUSH9 0x113B30B63AB2911D1 PUSH1 0xBD SHL PUSH1 0x60 DUP3 ADD MSTORE PUSH2 0xF85 DUP3 MLOAD DUP1 SWAP4 PUSH1 0x20 PUSH1 0x69 DUP6 ADD SWAP2 ADD PUSH2 0x28D3 JUMP JUMPDEST ADD PUSH2 0x1F4B PUSH1 0xF2 SHL PUSH1 0x69 DUP3 ADD MSTORE SUB PUSH1 0x4B DUP2 ADD DUP5 MSTORE ADD DUP3 PUSH2 0x298C JUMP JUMPDEST SWAP3 DUP11 PUSH2 0x6D7 JUMP JUMPDEST PUSH1 0x71 PUSH2 0xFB7 PUSH2 0x1065 SWAP3 SWAP8 SWAP4 SWAP8 PUSH2 0x33EB JUMP JUMPDEST SWAP3 PUSH1 0x40 MLOAD SWAP4 DUP2 PUSH2 0xFD1 DUP7 SWAP4 MLOAD DUP1 SWAP3 PUSH1 0x20 DUP1 DUP8 ADD SWAP2 ADD PUSH2 0x28D3 JUMP JUMPDEST DUP3 ADD PUSH32 0x7B2274726169745F74797065223A2022436F6E646974696F6E2053636F726522 PUSH1 0x20 DUP3 ADD MSTORE PUSH32 0x2C2022646973706C61795F74797065223A2022626F6F73745F70657263656E74 PUSH1 0x40 DUP3 ADD MSTORE PUSH15 0x30B3B2911610113B30B63AB2911D1 PUSH1 0x8D SHL PUSH1 0x60 DUP3 ADD MSTORE PUSH2 0x104B DUP3 MLOAD DUP1 SWAP4 PUSH1 0x20 PUSH1 0x6F DUP6 ADD SWAP2 ADD PUSH2 0x28D3 JUMP JUMPDEST ADD PUSH2 0x1F4B PUSH1 0xF2 SHL PUSH1 0x6F DUP3 ADD MSTORE SUB PUSH1 0x51 DUP2 ADD DUP5 MSTORE ADD DUP3 PUSH2 0x298C JUMP JUMPDEST SWAP4 DUP12 PUSH2 0x6D0 JUMP JUMPDEST PUSH1 0x6C PUSH2 0x107D PUSH2 0x1126 SWAP3 SWAP9 SWAP4 SWAP9 PUSH2 0x33EB JUMP JUMPDEST SWAP3 PUSH1 0x40 MLOAD SWAP4 DUP2 PUSH2 0x1097 DUP7 SWAP4 MLOAD DUP1 SWAP3 PUSH1 0x20 DUP1 DUP8 ADD SWAP2 ADD PUSH2 0x28D3 JUMP JUMPDEST DUP3 ADD PUSH32 0x7B2274726169745F74797065223A202253697A652053636F7265222C20226469 PUSH1 0x20 DUP3 ADD MSTORE PUSH32 0x73706C61795F74797065223A2022626F6F73745F70657263656E74616765222C PUSH1 0x40 DUP3 ADD MSTORE PUSH10 0x10113B30B63AB2911D1 PUSH1 0xB5 SHL PUSH1 0x60 DUP3 ADD MSTORE PUSH2 0x110C DUP3 MLOAD DUP1 SWAP4 PUSH1 0x20 PUSH1 0x6A DUP6 ADD SWAP2 ADD PUSH2 0x28D3 JUMP JUMPDEST ADD PUSH2 0x1F4B PUSH1 0xF2 SHL PUSH1 0x6A DUP3 ADD MSTORE SUB PUSH1 0x4C DUP2 ADD DUP5 MSTORE ADD DUP3 PUSH2 0x298C JUMP JUMPDEST SWAP5 DUP13 PUSH2 0x6C9 JUMP JUMPDEST PUSH2 0x11EC SWAP2 SWAP3 SWAP9 POP PUSH2 0x113F PUSH1 0x70 SWAP2 PUSH2 0x33EB JUMP JUMPDEST SWAP3 PUSH1 0x40 MLOAD SWAP4 DUP2 PUSH2 0x1159 DUP7 SWAP4 MLOAD DUP1 SWAP3 PUSH1 0x20 DUP1 DUP8 ADD SWAP2 ADD PUSH2 0x28D3 JUMP JUMPDEST DUP3 ADD PUSH32 0x7B2274726169745F74797065223A20224C6F636174696F6E2053636F7265222C PUSH1 0x20 DUP3 ADD MSTORE PUSH32 0x2022646973706C61795F74797065223A2022626F6F73745F70657263656E7461 PUSH1 0x40 DUP3 ADD MSTORE PUSH14 0x33B2911610113B30B63AB2911D1 PUSH1 0x95 SHL PUSH1 0x60 DUP3 ADD MSTORE PUSH2 0x11D2 DUP3 MLOAD DUP1 SWAP4 PUSH1 0x20 PUSH1 0x6E DUP6 ADD SWAP2 ADD PUSH2 0x28D3 JUMP JUMPDEST ADD PUSH2 0x1F4B PUSH1 0xF2 SHL PUSH1 0x6E DUP3 ADD MSTORE SUB PUSH1 0x50 DUP2 ADD DUP5 MSTORE ADD DUP3 PUSH2 0x298C JUMP JUMPDEST SWAP6 DUP14 DUP1 PUSH2 0x6C1 JUMP JUMPDEST POP PUSH1 0x40 MLOAD PUSH2 0x1201 DUP2 PUSH2 0x2956 JUMP JUMPDEST PUSH1 0x0 DUP2 MSTORE SWAP7 PUSH2 0x6A9 JUMP JUMPDEST PUSH1 0x40 MLOAD PUSH2 0x1217 DUP2 PUSH2 0x2971 JUMP JUMPDEST PUSH1 0x7 DUP2 MSTORE PUSH7 0x50656E64696E67 PUSH1 0xC8 SHL PUSH1 0x20 DUP3 ADD MSTORE SWAP8 PUSH2 0x5EF JUMP JUMPDEST SWAP1 SWAP2 SWAP8 SWAP5 POP PUSH2 0x1245 JUMPI DUP8 SWAP4 DIV SWAP6 DUP9 DUP1 PUSH2 0x5A3 JUMP JUMPDEST PUSH4 0x4E487B71 PUSH1 0xE0 SHL PUSH1 0x0 MSTORE PUSH1 0x12 PUSH1 0x4 MSTORE PUSH1 0x24 PUSH1 0x0 REVERT JUMPDEST SWAP7 PUSH2 0x1269 DUP7 PUSH2 0x126F SWAP3 PUSH2 0x31C5 JUMP JUMPDEST SWAP8 PUSH2 0x3154 JUMP JUMPDEST PUSH2 0x59A JUMP JUMPDEST SWAP4 SWAP6 PUSH2 0x1283 DUP7 PUSH2 0x1289 SWAP3 PUSH2 0x31C5 JUMP JUMPDEST SWAP7 PUSH2 0x3154 JUMP JUMPDEST SWAP4 PUSH2 0x58E JUMP JUMPDEST SWAP3 SWAP5 PUSH2 0x129E DUP6 PUSH2 0x12A4 SWAP3 PUSH2 0x31C5 JUMP JUMPDEST SWAP6 PUSH2 0x3154 JUMP JUMPDEST SWAP3 PUSH2 0x582 JUMP JUMPDEST SWAP2 SWAP4 PUSH2 0x12B9 DUP4 PUSH2 0x12BF SWAP3 PUSH2 0x31C5 JUMP JUMPDEST SWAP5 PUSH2 0x3154 JUMP JUMPDEST SWAP2 PUSH2 0x576 JUMP JUMPDEST POP SWAP1 POP DUP1 PUSH1 0x1 PUSH2 0x56A JUMP JUMPDEST CALLVALUE PUSH2 0x2CA JUMPI PUSH1 0x80 CALLDATASIZE PUSH1 0x3 NOT ADD SLT PUSH2 0x2CA JUMPI PUSH2 0x12E9 PUSH2 0x291B JUMP JUMPDEST PUSH2 0x12F1 PUSH2 0x2931 JUMP JUMPDEST SWAP1 PUSH1 0x64 CALLDATALOAD SWAP1 PUSH1 0x44 CALLDATALOAD PUSH1 0x1 PUSH1 0x1 PUSH1 0x40 SHL SUB DUP4 GT PUSH2 0x2CA JUMPI CALLDATASIZE PUSH1 0x23 DUP5 ADD SLT ISZERO PUSH2 0x2CA JUMPI PUSH2 0x1355 SWAP4 PUSH2 0x132D PUSH2 0x1350 SWAP5 CALLDATASIZE SWAP1 PUSH1 0x24 DUP2 PUSH1 0x4 ADD CALLDATALOAD SWAP2 ADD PUSH2 0x29C8 JUMP JUMPDEST SWAP3 PUSH2 0x1340 PUSH2 0x133B DUP5 CALLER PUSH2 0x2D3E JUMP JUMPDEST PUSH2 0x2C65 JUMP JUMPDEST PUSH2 0x134B DUP4 DUP4 DUP4 PUSH2 0x2E06 JUMP JUMPDEST PUSH2 0x3035 JUMP JUMPDEST PUSH2 0x2D1A JUMP JUMPDEST STOP JUMPDEST CALLVALUE PUSH2 0x2CA JUMPI PUSH1 0x40 CALLDATASIZE PUSH1 0x3 NOT ADD SLT PUSH2 0x2CA JUMPI PUSH2 0x1370 PUSH2 0x291B JUMP JUMPDEST PUSH2 0x1378 PUSH2 0x2947 JUMP JUMPDEST PUSH1 0x1 PUSH1 0x1 PUSH1 0xA0 SHL SUB SWAP1 SWAP2 AND SWAP1 CALLER DUP3 EQ PUSH2 0x13EA JUMPI CALLER PUSH1 0x0 MSTORE PUSH1 0x5 PUSH1 0x20 MSTORE PUSH1 0x40 PUSH1 0x0 KECCAK256 DUP3 PUSH1 0x0 MSTORE PUSH1 0x20 MSTORE PUSH2 0x13BA DUP2 PUSH1 0x40 PUSH1 0x0 KECCAK256 SWAP1 PUSH1 0xFF DUP1 NOT DUP4 SLOAD AND SWAP2 ISZERO ISZERO AND OR SWAP1 SSTORE JUMP JUMPDEST PUSH1 0x40 MLOAD SWAP1 ISZERO ISZERO DUP2 MSTORE PUSH32 0x17307EAB39AB6107E8899845AD3D59BD9653F200F220920489CA2B5937696C31 PUSH1 0x20 CALLER SWAP3 LOG3 STOP JUMPDEST PUSH1 0x40 MLOAD PUSH3 0x461BCD PUSH1 0xE5 SHL DUP2 MSTORE PUSH1 0x20 PUSH1 0x4 DUP3 ADD MSTORE PUSH1 0x19 PUSH1 0x24 DUP3 ADD MSTORE PUSH32 0x4552433732313A20617070726F766520746F2063616C6C657200000000000000 PUSH1 0x44 DUP3 ADD MSTORE PUSH1 0x64 SWAP1 REVERT JUMPDEST CALLVALUE PUSH2 0x2CA JUMPI PUSH1 0x40 CALLDATASIZE PUSH1 0x3 NOT ADD SLT PUSH2 0x2CA JUMPI PUSH1 0x0 DUP1 MLOAD PUSH1 0x20 PUSH2 0x358E DUP4 CODECOPY DUP2 MLOAD SWAP2 MSTORE PUSH1 0x20 PUSH1 0x4 CALLDATALOAD DUP1 PUSH32 0x38FECA60919CB6C50D2BDA77CC786B4121A0AB59FDCBCCAD58C37F0BC84869E9 DUP4 PUSH1 0x24 CALLDATALOAD PUSH2 0x1483 DUP5 PUSH2 0x2C04 JUMP JUMPDEST PUSH1 0x1 PUSH1 0x1 PUSH1 0xA0 SHL SUB SWAP1 DUP2 AND CALLER EQ SWAP1 DUP2 ISZERO PUSH2 0x150D JUMPI JUMPDEST POP DUP1 ISZERO PUSH2 0x14F5 JUMPI JUMPDEST PUSH2 0x14A9 SWAP1 PUSH2 0x3179 JUMP JUMPDEST PUSH1 0x0 DUP5 DUP2 MSTORE PUSH1 0x2 PUSH1 0x20 MSTORE PUSH1 0x40 SWAP1 KECCAK256 SLOAD PUSH2 0x14CC SWAP1 PUSH1 0x1 PUSH1 0x1 PUSH1 0xA0 SHL SUB AND ISZERO ISZERO PUSH2 0x3108 JUMP JUMPDEST DUP4 PUSH1 0x0 MSTORE PUSH1 0x9 DUP3 MSTORE PUSH1 0x40 PUSH1 0x0 KECCAK256 DUP2 PUSH1 0x8 DUP3 ADD SSTORE PUSH1 0x11 TIMESTAMP SWAP2 ADD SSTORE PUSH1 0x40 MLOAD SWAP1 DUP2 MSTORE LOG2 PUSH1 0x40 MLOAD SWAP1 DUP2 MSTORE LOG1 STOP JUMPDEST POP CALLER PUSH1 0x0 SWAP1 DUP2 MSTORE PUSH1 0xC DUP4 MSTORE PUSH1 0x40 SWAP1 KECCAK256 SLOAD PUSH1 0xFF AND PUSH2 0x14A0 JUMP JUMPDEST PUSH1 0x6 SLOAD AND CALLER EQ SWAP1 POP DUP9 PUSH2 0x1498 JUMP JUMPDEST CALLVALUE PUSH2 0x2CA JUMPI PUSH1 0x0 CALLDATASIZE PUSH1 0x3 NOT ADD SLT PUSH2 0x2CA JUMPI PUSH1 0x40 MLOAD PUSH1 0x0 PUSH1 0x1 DUP1 SLOAD SWAP1 PUSH2 0x153F DUP3 PUSH2 0x2A80 JUMP JUMPDEST DUP1 DUP6 MSTORE SWAP2 DUP2 DUP2 AND SWAP1 DUP2 ISZERO PUSH2 0x15D3 JUMPI POP PUSH1 0x1 EQ PUSH2 0x157A JUMPI JUMPDEST PUSH2 0xE04 DUP5 PUSH2 0x1566 DUP2 DUP7 SUB DUP3 PUSH2 0x298C JUMP JUMPDEST PUSH1 0x40 MLOAD SWAP2 DUP3 SWAP2 PUSH1 0x20 DUP4 MSTORE PUSH1 0x20 DUP4 ADD SWAP1 PUSH2 0x28F6 JUMP JUMPDEST PUSH1 0x0 DUP2 DUP2 MSTORE SWAP3 POP PUSH32 0xB10E2D527612073B26EECDFD717E6A320CF44B4AFAC2B0732D9FCBE2B7FA0CF6 JUMPDEST DUP3 DUP5 LT PUSH2 0x15BB JUMPI POP POP POP DUP2 ADD PUSH1 0x20 ADD PUSH2 0x1566 DUP3 PUSH2 0x1556 JUMP JUMPDEST DUP1 SLOAD PUSH1 0x20 DUP6 DUP8 ADD DUP2 ADD SWAP2 SWAP1 SWAP2 MSTORE SWAP1 SWAP4 ADD SWAP3 DUP2 ADD PUSH2 0x15A3 JUMP JUMPDEST PUSH1 0xFF NOT AND PUSH1 0x20 DUP1 DUP8 ADD SWAP2 SWAP1 SWAP2 MSTORE SWAP3 ISZERO ISZERO PUSH1 0x5 SHL DUP6 ADD SWAP1 SWAP3 ADD SWAP3 POP PUSH2 0x1566 SWAP2 POP DUP4 SWAP1 POP PUSH2 0x1556 JUMP JUMPDEST CALLVALUE PUSH2 0x2CA JUMPI PUSH1 0x40 CALLDATASIZE PUSH1 0x3 NOT ADD SLT PUSH2 0x2CA JUMPI PUSH2 0x1613 PUSH2 0x291B JUMP JUMPDEST PUSH1 0x1 PUSH1 0x1 PUSH1 0xA0 SHL SUB AND PUSH1 0x0 SWAP1 DUP2 MSTORE PUSH1 0xB PUSH1 0x20 MSTORE PUSH1 0x40 SWAP1 KECCAK256 DUP1 SLOAD PUSH1 0x24 CALLDATALOAD SWAP2 SWAP1 DUP3 LT ISZERO PUSH2 0x2CA JUMPI PUSH1 0x20 SWAP2 PUSH2 0x1644 SWAP2 PUSH2 0x2A52 JUMP JUMPDEST SWAP1 SLOAD PUSH1 0x40 MLOAD SWAP2 PUSH1 0x3 SHL SHR DUP2 MSTORE RETURN JUMPDEST CALLVALUE PUSH2 0x2CA JUMPI PUSH1 0x0 CALLDATASIZE PUSH1 0x3 NOT ADD SLT PUSH2 0x2CA JUMPI PUSH1 0x6 SLOAD PUSH1 0x40 MLOAD PUSH1 0x1 PUSH1 0x1 PUSH1 0xA0 SHL SUB SWAP1 SWAP2 AND DUP2 MSTORE PUSH1 0x20 SWAP1 RETURN JUMPDEST CALLVALUE PUSH2 0x2CA JUMPI PUSH1 0x20 CALLDATASIZE PUSH1 0x3 NOT ADD SLT PUSH2 0x2CA JUMPI PUSH1 0x4 CALLDATALOAD PUSH1 0x1 PUSH1 0x1 PUSH1 0x40 SHL SUB DUP2 GT PUSH2 0x2CA JUMPI PUSH1 0xFF PUSH2 0x16C6 PUSH1 0x20 PUSH2 0x16B3 DUP2 SWAP5 CALLDATASIZE SWAP1 PUSH1 0x4 ADD PUSH2 0x29FF JUMP JUMPDEST DUP2 PUSH1 0x40 MLOAD SWAP4 DUP3 DUP6 DUP1 SWAP5 MLOAD SWAP4 DUP5 SWAP3 ADD PUSH2 0x28D3 JUMP JUMPDEST DUP2 ADD PUSH1 0xA DUP2 MSTORE SUB ADD SWAP1 KECCAK256 SLOAD AND PUSH1 0x40 MLOAD SWAP1 ISZERO ISZERO DUP2 MSTORE RETURN JUMPDEST CALLVALUE PUSH2 0x2CA JUMPI PUSH1 0x0 CALLDATASIZE PUSH1 0x3 NOT ADD SLT PUSH2 0x2CA JUMPI PUSH2 0x16F5 PUSH2 0x2B60 JUMP JUMPDEST PUSH1 0x6 DUP1 SLOAD PUSH1 0x1 PUSH1 0x1 PUSH1 0xA0 SHL SUB NOT DUP2 AND SWAP1 SWAP2 SSTORE PUSH1 0x0 SWAP1 PUSH1 0x1 PUSH1 0x1 PUSH1 0xA0 SHL SUB AND PUSH32 0x8BE0079C531659141344CD1FD0A4F28419497F9722A3DAAFE3B4186F6B6457E0 DUP3 DUP1 LOG3 STOP JUMPDEST CALLVALUE PUSH2 0x2CA JUMPI PUSH1 0x20 CALLDATASIZE PUSH1 0x3 NOT ADD SLT PUSH2 0x2CA JUMPI PUSH1 0x1 PUSH1 0x1 PUSH1 0xA0 SHL SUB PUSH2 0x175A PUSH2 0x291B JUMP JUMPDEST AND DUP1 ISZERO PUSH2 0x1779 JUMPI PUSH1 0x0 MSTORE PUSH1 0x3 PUSH1 0x20 MSTORE PUSH1 0x20 PUSH1 0x40 PUSH1 0x0 KECCAK256 SLOAD PUSH1 0x40 MLOAD SWAP1 DUP2 MSTORE RETURN JUMPDEST PUSH1 0x40 MLOAD PUSH3 0x461BCD PUSH1 0xE5 SHL DUP2 MSTORE PUSH1 0x20 PUSH1 0x4 DUP3 ADD MSTORE PUSH1 0x29 PUSH1 0x24 DUP3 ADD MSTORE PUSH32 0x4552433732313A2061646472657373207A65726F206973206E6F742061207661 PUSH1 0x44 DUP3 ADD MSTORE PUSH9 0x3634B21037BBB732B9 PUSH1 0xB9 SHL PUSH1 0x64 DUP3 ADD MSTORE PUSH1 0x84 SWAP1 REVERT JUMPDEST CALLVALUE PUSH2 0x2CA JUMPI PUSH1 0x20 CALLDATASIZE PUSH1 0x3 NOT ADD SLT PUSH2 0x2CA JUMPI PUSH1 0x20 PUSH2 0x17EE PUSH1 0x4 CALLDATALOAD PUSH2 0x2C04 JUMP JUMPDEST PUSH1 0x40 MLOAD PUSH1 0x1 PUSH1 0x1 PUSH1 0xA0 SHL SUB SWAP1 SWAP2 AND DUP2 MSTORE RETURN JUMPDEST CALLVALUE PUSH2 0x2CA JUMPI PUSH2 0x100 CALLDATASIZE PUSH1 0x3 NOT ADD SLT PUSH2 0x2CA JUMPI PUSH1 0x4 CALLDATALOAD PUSH1 0x24 SWAP1 DUP2 CALLDATALOAD SWAP2 PUSH1 0x64 SWAP1 DUP2 CALLDATALOAD SWAP2 PUSH1 0x84 CALLDATALOAD PUSH1 0xA4 CALLDATALOAD SWAP1 PUSH1 0xC4 CALLDATALOAD SWAP3 PUSH1 0xE4 CALLDATALOAD SWAP5 PUSH2 0x1839 DUP9 PUSH2 0x2C04 JUMP JUMPDEST PUSH1 0x1 PUSH1 0x1 PUSH1 0xA0 SHL SUB SWAP1 DUP2 AND CALLER EQ SWAP1 DUP2 ISZERO PUSH2 0x1A89 JUMPI JUMPDEST POP DUP1 ISZERO PUSH2 0x1A70 JUMPI JUMPDEST PUSH2 0x185F SWAP1 PUSH2 0x3179 JUMP JUMPDEST PUSH1 0x0 DUP9 DUP2 MSTORE PUSH1 0x2 PUSH1 0x20 MSTORE PUSH1 0x40 SWAP1 KECCAK256 SLOAD PUSH2 0x1882 SWAP1 PUSH1 0x1 PUSH1 0x1 PUSH1 0xA0 SHL SUB AND ISZERO ISZERO PUSH2 0x3108 JUMP JUMPDEST DUP2 DUP8 GT PUSH2 0x1A2F JUMPI DUP2 DUP4 GT PUSH2 0x19EE JUMPI DUP2 DUP5 GT PUSH2 0x19AD JUMPI DUP2 DUP6 GT PUSH2 0x196C JUMPI DUP2 DUP7 GT PUSH2 0x192B JUMPI PUSH1 0x0 DUP1 MLOAD PUSH1 0x20 PUSH2 0x358E DUP4 CODECOPY DUP2 MLOAD SWAP2 MSTORE PUSH1 0x20 DUP10 DUP1 PUSH32 0x38FECA60919CB6C50D2BDA77CC786B4121A0AB59FDCBCCAD58C37F0BC84869E9 DUP4 DUP15 DUP14 DUP14 DUP14 DUP14 DUP14 DUP9 PUSH1 0x0 MSTORE PUSH1 0x9 DUP8 MSTORE PUSH1 0x40 PUSH1 0x0 KECCAK256 SWAP5 DUP7 PUSH1 0x8 DUP8 ADD SSTORE PUSH1 0x44 CALLDATALOAD PUSH1 0x10 DUP8 ADD SSTORE PUSH1 0xB DUP7 ADD SSTORE PUSH1 0xC DUP6 ADD SSTORE PUSH1 0xD DUP5 ADD SSTORE PUSH1 0xE DUP4 ADD SSTORE PUSH1 0xF DUP3 ADD SSTORE PUSH1 0x11 TIMESTAMP SWAP2 ADD SSTORE PUSH1 0x40 MLOAD SWAP1 DUP2 MSTORE LOG2 PUSH1 0x40 MLOAD SWAP1 DUP2 MSTORE LOG1 STOP JUMPDEST PUSH1 0x1F PUSH1 0x40 MLOAD SWAP2 PUSH3 0x461BCD PUSH1 0xE5 SHL DUP4 MSTORE PUSH1 0x20 PUSH1 0x4 DUP5 ADD MSTORE DUP3 ADD MSTORE PUSH32 0x52656E6F766174696F6E2073636F7265206D757374206265203C3D2031303000 PUSH1 0x44 DUP3 ADD MSTORE REVERT JUMPDEST PUSH1 0x18 PUSH1 0x40 MLOAD SWAP2 PUSH3 0x461BCD PUSH1 0xE5 SHL DUP4 MSTORE PUSH1 0x20 PUSH1 0x4 DUP5 ADD MSTORE DUP3 ADD MSTORE PUSH32 0x4167652073636F7265206D757374206265203C3D203130300000000000000000 PUSH1 0x44 DUP3 ADD MSTORE REVERT JUMPDEST PUSH1 0x1E PUSH1 0x40 MLOAD SWAP2 PUSH3 0x461BCD PUSH1 0xE5 SHL DUP4 MSTORE PUSH1 0x20 PUSH1 0x4 DUP5 ADD MSTORE DUP3 ADD MSTORE PUSH32 0x436F6E646974696F6E2073636F7265206D757374206265203C3D203130300000 PUSH1 0x44 DUP3 ADD MSTORE REVERT JUMPDEST PUSH1 0x19 PUSH1 0x40 MLOAD SWAP2 PUSH3 0x461BCD PUSH1 0xE5 SHL DUP4 MSTORE PUSH1 0x20 PUSH1 0x4 DUP5 ADD MSTORE DUP3 ADD MSTORE PUSH32 0x53697A652073636F7265206D757374206265203C3D2031303000000000000000 PUSH1 0x44 DUP3 ADD MSTORE REVERT JUMPDEST PUSH1 0x1D PUSH1 0x40 MLOAD SWAP2 PUSH3 0x461BCD PUSH1 0xE5 SHL DUP4 MSTORE PUSH1 0x20 PUSH1 0x4 DUP5 ADD MSTORE DUP3 ADD MSTORE PUSH32 0x4C6F636174696F6E2073636F7265206D757374206265203C3D20313030000000 PUSH1 0x44 DUP3 ADD MSTORE REVERT JUMPDEST POP CALLER PUSH1 0x0 SWAP1 DUP2 MSTORE PUSH1 0xC PUSH1 0x20 MSTORE PUSH1 0x40 SWAP1 KECCAK256 SLOAD PUSH1 0xFF AND PUSH2 0x1856 JUMP JUMPDEST PUSH1 0x6 SLOAD AND CALLER EQ SWAP1 POP DUP11 PUSH2 0x184E JUMP JUMPDEST CALLVALUE PUSH2 0x2CA JUMPI PUSH2 0x1355 PUSH2 0x1350 PUSH2 0x1AAB CALLDATASIZE PUSH2 0x2A1D JUMP JUMPDEST SWAP1 PUSH1 0x40 MLOAD SWAP3 PUSH2 0x1AB9 DUP5 PUSH2 0x2956 JUMP JUMPDEST PUSH1 0x0 DUP5 MSTORE PUSH2 0x1340 PUSH2 0x133B DUP5 CALLER PUSH2 0x2D3E JUMP JUMPDEST CALLVALUE PUSH2 0x2CA JUMPI PUSH1 0x0 CALLDATASIZE PUSH1 0x3 NOT ADD SLT PUSH2 0x2CA JUMPI PUSH1 0x20 PUSH1 0x40 MLOAD PUSH1 0x3 DUP2 MSTORE RETURN JUMPDEST CALLVALUE PUSH2 0x2CA JUMPI PUSH2 0x1355 PUSH2 0x1AF7 CALLDATASIZE PUSH2 0x2A1D JUMP JUMPDEST SWAP2 PUSH2 0x1B05 PUSH2 0x133B DUP5 CALLER PUSH2 0x2D3E JUMP JUMPDEST PUSH2 0x2E06 JUMP JUMPDEST CALLVALUE PUSH2 0x2CA JUMPI PUSH1 0xE0 CALLDATASIZE PUSH1 0x3 NOT ADD SLT PUSH2 0x2CA JUMPI PUSH1 0x4 CALLDATALOAD PUSH1 0x1 PUSH1 0x1 PUSH1 0x40 SHL SUB DUP2 GT PUSH2 0x2CA JUMPI PUSH2 0x1B3A SWAP1 CALLDATASIZE SWAP1 PUSH1 0x4 ADD PUSH2 0x29FF JUMP JUMPDEST PUSH1 0x24 CALLDATALOAD PUSH1 0x1 PUSH1 0x1 PUSH1 0x40 SHL SUB DUP2 GT PUSH2 0x2CA JUMPI PUSH2 0x1B59 SWAP1 CALLDATASIZE SWAP1 PUSH1 0x4 ADD PUSH2 0x29FF JUMP JUMPDEST PUSH1 0x44 CALLDATALOAD PUSH1 0x1 PUSH1 0x1 PUSH1 0x40 SHL SUB DUP2 GT PUSH2 0x2CA JUMPI PUSH2 0x1B78 SWAP1 CALLDATASIZE SWAP1 PUSH1 0x4 ADD PUSH2 0x29FF JUMP JUMPDEST SWAP1 PUSH1 0x84 CALLDATALOAD PUSH1 0x1 PUSH1 0x1 PUSH1 0x40 SHL SUB DUP2 GT PUSH2 0x2CA JUMPI PUSH2 0x1B98 SWAP1 CALLDATASIZE SWAP1 PUSH1 0x4 ADD PUSH2 0x29FF JUMP JUMPDEST SWAP2 DUP4 MLOAD ISZERO PUSH2 0x233A JUMPI DUP2 MLOAD ISZERO PUSH2 0x22F5 JUMPI PUSH1 0xFF PUSH1 0x40 MLOAD PUSH1 0x20 DUP2 DUP8 MLOAD PUSH2 0x1BBE DUP2 DUP4 DUP6 DUP13 ADD PUSH2 0x28D3 JUMP JUMPDEST DUP2 ADD PUSH1 0xA DUP2 MSTORE SUB ADD SWAP1 KECCAK256 SLOAD AND PUSH2 0x22B0 JUMPI PUSH1 0x8 SLOAD SWAP3 PUSH1 0x1 DUP5 ADD PUSH1 0x8 SSTORE PUSH1 0x40 MLOAD PUSH2 0x1BE5 DUP2 PUSH2 0x2956 JUMP JUMPDEST PUSH1 0x0 DUP2 MSTORE CALLER ISZERO PUSH2 0x226C JUMPI PUSH1 0x0 DUP6 DUP2 MSTORE PUSH1 0x2 PUSH1 0x20 MSTORE PUSH1 0x40 SWAP1 KECCAK256 SLOAD PUSH2 0x1CA3 SWAP2 PUSH2 0x1350 SWAP2 PUSH2 0x1C1C SWAP1 PUSH1 0x1 PUSH1 0x1 PUSH1 0xA0 SHL SUB AND ISZERO ISZERO JUMPDEST ISZERO PUSH2 0x30BC JUMP JUMPDEST PUSH1 0x0 DUP8 DUP2 MSTORE PUSH1 0x2 PUSH1 0x20 MSTORE PUSH1 0x40 SWAP1 KECCAK256 SLOAD PUSH2 0x1C3F SWAP1 PUSH1 0x1 PUSH1 0x1 PUSH1 0xA0 SHL SUB AND ISZERO ISZERO PUSH2 0x1C16 JUMP JUMPDEST CALLER PUSH1 0x0 MSTORE PUSH1 0x3 PUSH1 0x20 MSTORE PUSH1 0x40 PUSH1 0x0 KECCAK256 PUSH1 0x1 DUP2 SLOAD ADD SWAP1 SSTORE DUP7 PUSH1 0x0 MSTORE PUSH1 0x2 PUSH1 0x20 MSTORE PUSH1 0x40 PUSH1 0x0 KECCAK256 CALLER PUSH1 0x1 PUSH1 0x1 PUSH1 0x60 SHL SUB PUSH1 0xA0 SHL DUP3 SLOAD AND OR SWAP1 SSTORE DUP7 CALLER PUSH1 0x0 PUSH32 0xDDF252AD1BE2C89B69C2B068FC378DAA952BA7F163C4A11628F55A4DF523B3EF DUP2 DUP1 LOG4 DUP7 CALLER PUSH2 0x2F17 JUMP JUMPDEST DUP4 PUSH1 0x0 MSTORE PUSH1 0x9 PUSH1 0x20 MSTORE PUSH1 0x40 PUSH1 0x0 KECCAK256 SWAP2 DUP6 MLOAD PUSH1 0x1 PUSH1 0x1 PUSH1 0x40 SHL SUB DUP2 GT PUSH2 0x1F46 JUMPI PUSH2 0x1CCC DUP5 SLOAD PUSH2 0x2A80 JUMP JUMPDEST PUSH1 0x1F DUP2 GT PUSH2 0x2228 JUMPI JUMPDEST POP DUP1 PUSH1 0x20 PUSH1 0x1F DUP3 GT PUSH1 0x1 EQ PUSH2 0x21C1 JUMPI PUSH1 0x0 SWAP2 PUSH2 0x21B6 JUMPI JUMPDEST POP DUP2 PUSH1 0x1 SHL SWAP2 PUSH1 0x0 NOT SWAP1 PUSH1 0x3 SHL SHR NOT AND OR DUP4 SSTORE JUMPDEST DUP4 MLOAD PUSH1 0x1 PUSH1 0x1 PUSH1 0x40 SHL SUB DUP2 GT PUSH2 0x1F46 JUMPI PUSH2 0x1D1D PUSH1 0x1 DUP6 ADD SLOAD PUSH2 0x2A80 JUMP JUMPDEST PUSH1 0x1F DUP2 GT PUSH2 0x216F JUMPI JUMPDEST POP DUP1 PUSH1 0x20 PUSH1 0x1F DUP3 GT PUSH1 0x1 EQ PUSH2 0x2102 JUMPI PUSH1 0x0 SWAP2 PUSH2 0x20F7 JUMPI JUMPDEST POP DUP2 PUSH1 0x1 SHL SWAP2 PUSH1 0x0 NOT SWAP1 PUSH1 0x3 SHL SHR NOT AND OR PUSH1 0x1 DUP5 ADD SSTORE JUMPDEST DUP1 MLOAD SWAP1 PUSH1 0x1 PUSH1 0x1 PUSH1 0x40 SHL SUB DUP3 GT PUSH2 0x1F46 JUMPI DUP2 SWAP1 PUSH2 0x1D74 PUSH1 0x2 DUP7 ADD SLOAD PUSH2 0x2A80 JUMP JUMPDEST PUSH1 0x1F DUP2 GT PUSH2 0x20A4 JUMPI JUMPDEST POP PUSH1 0x20 SWAP1 PUSH1 0x1F DUP4 GT PUSH1 0x1 EQ PUSH2 0x2032 JUMPI PUSH1 0x0 SWAP3 PUSH2 0x2027 JUMPI JUMPDEST POP POP DUP2 PUSH1 0x1 SHL SWAP2 PUSH1 0x0 NOT SWAP1 PUSH1 0x3 SHL SHR NOT AND OR PUSH1 0x2 DUP4 ADD SSTORE JUMPDEST PUSH1 0x64 CALLDATALOAD PUSH1 0x3 DUP4 ADD SSTORE DUP1 MLOAD SWAP1 PUSH1 0x1 PUSH1 0x1 PUSH1 0x40 SHL SUB DUP3 GT PUSH2 0x1F46 JUMPI DUP2 SWAP1 PUSH2 0x1DD4 PUSH1 0x4 DUP6 ADD SLOAD PUSH2 0x2A80 JUMP JUMPDEST PUSH1 0x1F DUP2 GT PUSH2 0x1FD4 JUMPI JUMPDEST POP PUSH1 0x20 SWAP1 PUSH1 0x1F DUP4 GT PUSH1 0x1 EQ PUSH2 0x1F67 JUMPI PUSH1 0x0 SWAP3 PUSH2 0x1F5C JUMPI JUMPDEST POP POP DUP2 PUSH1 0x1 SHL SWAP2 PUSH1 0x0 NOT SWAP1 PUSH1 0x3 SHL SHR NOT AND OR PUSH1 0x4 DUP3 ADD SSTORE JUMPDEST PUSH1 0xA4 CALLDATALOAD PUSH1 0x5 DUP3 ADD SSTORE PUSH1 0xC4 CALLDATALOAD PUSH1 0x6 DUP3 ADD SSTORE PUSH1 0x0 PUSH1 0x11 PUSH1 0x7 DUP4 ADD SWAP3 PUSH1 0xFF NOT SWAP4 DUP5 DUP2 SLOAD AND SWAP1 SSTORE DUP3 PUSH1 0x8 DUP3 ADD SSTORE DUP3 PUSH1 0x9 DUP3 ADD SSTORE DUP3 PUSH1 0xA DUP3 ADD SSTORE DUP3 PUSH1 0xB DUP3 ADD SSTORE DUP3 PUSH1 0xC DUP3 ADD SSTORE DUP3 PUSH1 0xD DUP3 ADD SSTORE DUP3 PUSH1 0xE DUP3 ADD SSTORE DUP3 PUSH1 0xF DUP3 ADD SSTORE DUP3 PUSH1 0x10 DUP3 ADD SSTORE ADD SSTORE PUSH1 0x1 PUSH1 0x40 MLOAD PUSH1 0x20 DUP2 DUP8 MLOAD PUSH2 0x1E7E DUP2 DUP4 DUP6 DUP13 ADD PUSH2 0x28D3 JUMP JUMPDEST DUP2 ADD PUSH1 0xA DUP2 MSTORE SUB ADD SWAP1 KECCAK256 SWAP2 DUP3 SLOAD AND OR SWAP1 SSTORE CALLER PUSH1 0x0 MSTORE PUSH1 0xB PUSH1 0x20 MSTORE PUSH1 0x40 PUSH1 0x0 KECCAK256 SWAP3 DUP4 SLOAD SWAP4 PUSH9 0x10000000000000000 DUP6 LT ISZERO PUSH2 0x1F46 JUMPI PUSH2 0x1F16 DUP5 SWAP3 PUSH2 0x1EEA DUP8 PUSH32 0x90E8F7C94B32BA9B4E353E2E85BE612B1DD84A28D7334362B89E67C1729A2AB1 SWAP5 PUSH1 0x1 PUSH1 0x20 SWAP11 ADD DUP2 SSTORE PUSH2 0x2A52 JUMP JUMPDEST DUP2 SLOAD SWAP1 PUSH1 0x3 SHL SWAP1 DUP7 DUP3 SHL SWAP2 PUSH1 0x0 NOT SWAP1 SHL NOT AND OR SWAP1 SSTORE PUSH2 0x1F24 PUSH1 0x40 MLOAD SWAP3 DUP4 SWAP3 PUSH1 0x40 DUP5 MSTORE PUSH1 0x40 DUP5 ADD SWAP1 PUSH2 0x28F6 JUMP JUMPDEST DUP3 DUP2 SUB DUP10 DUP5 ADD MSTORE CALLER SWAP7 PUSH2 0x28F6 JUMP JUMPDEST SUB SWAP1 LOG3 PUSH1 0x0 DUP1 MLOAD PUSH1 0x20 PUSH2 0x358E DUP4 CODECOPY DUP2 MLOAD SWAP2 MSTORE DUP3 PUSH1 0x40 MLOAD DUP4 DUP2 MSTORE LOG1 PUSH1 0x40 MLOAD SWAP1 DUP2 MSTORE RETURN JUMPDEST PUSH4 0x4E487B71 PUSH1 0xE0 SHL PUSH1 0x0 MSTORE PUSH1 0x41 PUSH1 0x4 MSTORE PUSH1 0x24 PUSH1 0x0 REVERT JUMPDEST ADD MLOAD SWAP1 POP DUP7 DUP1 PUSH2 0x1DF4 JUMP JUMPDEST PUSH1 0x4 DUP6 ADD PUSH1 0x0 SWAP1 DUP2 MSTORE PUSH1 0x20 DUP2 KECCAK256 SWAP4 POP PUSH1 0x1F NOT DUP6 AND SWAP1 JUMPDEST DUP2 DUP2 LT PUSH2 0x1FBC JUMPI POP SWAP1 DUP5 PUSH1 0x1 SWAP6 SWAP5 SWAP4 SWAP3 LT PUSH2 0x1FA3 JUMPI JUMPDEST POP POP POP DUP2 SHL ADD PUSH1 0x4 DUP3 ADD SSTORE PUSH2 0x1E0C JUMP JUMPDEST ADD MLOAD PUSH1 0x0 NOT PUSH1 0xF8 DUP5 PUSH1 0x3 SHL AND SHR NOT AND SWAP1 SSTORE DUP7 DUP1 DUP1 PUSH2 0x1F93 JUMP JUMPDEST SWAP3 SWAP4 PUSH1 0x20 PUSH1 0x1 DUP2 SWAP3 DUP8 DUP7 ADD MLOAD DUP2 SSTORE ADD SWAP6 ADD SWAP4 ADD PUSH2 0x1F7D JUMP JUMPDEST SWAP1 SWAP2 POP PUSH1 0x4 DUP5 ADD PUSH1 0x0 MSTORE PUSH1 0x20 PUSH1 0x0 KECCAK256 PUSH1 0x1F DUP5 ADD PUSH1 0x5 SHR DUP2 ADD PUSH1 0x20 DUP6 LT PUSH2 0x2020 JUMPI JUMPDEST SWAP1 DUP5 SWAP4 SWAP3 SWAP2 JUMPDEST PUSH1 0x1F DUP4 ADD PUSH1 0x5 SHR DUP3 ADD DUP2 LT PUSH2 0x2011 JUMPI POP POP PUSH2 0x1DDD JUMP JUMPDEST PUSH1 0x0 DUP2 SSTORE DUP6 SWAP5 POP PUSH1 0x1 ADD PUSH2 0x1FFB JUMP JUMPDEST POP DUP1 PUSH2 0x1FF5 JUMP JUMPDEST ADD MLOAD SWAP1 POP DUP8 DUP1 PUSH2 0x1D94 JUMP JUMPDEST SWAP3 POP PUSH1 0x2 DUP6 ADD PUSH1 0x0 MSTORE PUSH1 0x20 PUSH1 0x0 KECCAK256 SWAP1 PUSH1 0x0 SWAP4 JUMPDEST PUSH1 0x1F NOT DUP5 AND DUP6 LT PUSH2 0x2089 JUMPI PUSH1 0x1 SWAP5 POP DUP4 PUSH1 0x1F NOT DUP2 AND LT PUSH2 0x2070 JUMPI JUMPDEST POP POP POP DUP2 SHL ADD PUSH1 0x2 DUP4 ADD SSTORE PUSH2 0x1DAC JUMP JUMPDEST ADD MLOAD PUSH1 0x0 NOT PUSH1 0xF8 DUP5 PUSH1 0x3 SHL AND SHR NOT AND SWAP1 SSTORE DUP8 DUP1 DUP1 PUSH2 0x2060 JUMP JUMPDEST DUP2 DUP2 ADD MLOAD DUP4 SSTORE PUSH1 0x20 SWAP5 DUP6 ADD SWAP5 PUSH1 0x1 SWAP1 SWAP4 ADD SWAP3 SWAP1 SWAP2 ADD SWAP1 PUSH2 0x2045 JUMP JUMPDEST SWAP1 SWAP2 POP PUSH1 0x2 DUP6 ADD PUSH1 0x0 MSTORE PUSH1 0x20 PUSH1 0x0 KECCAK256 PUSH1 0x1F DUP5 ADD PUSH1 0x5 SHR DUP2 ADD PUSH1 0x20 DUP6 LT PUSH2 0x20F0 JUMPI JUMPDEST SWAP1 DUP5 SWAP4 SWAP3 SWAP2 JUMPDEST PUSH1 0x1F DUP4 ADD PUSH1 0x5 SHR DUP3 ADD DUP2 LT PUSH2 0x20E1 JUMPI POP POP PUSH2 0x1D7D JUMP JUMPDEST PUSH1 0x0 DUP2 SSTORE DUP6 SWAP5 POP PUSH1 0x1 ADD PUSH2 0x20CB JUMP JUMPDEST POP DUP1 PUSH2 0x20C5 JUMP JUMPDEST SWAP1 POP DUP6 ADD MLOAD DUP9 PUSH2 0x1D3D JUMP JUMPDEST SWAP2 POP PUSH1 0x1 DUP6 ADD PUSH1 0x0 MSTORE PUSH1 0x20 PUSH1 0x0 KECCAK256 PUSH1 0x0 SWAP3 JUMPDEST PUSH1 0x1F NOT DUP4 AND DUP5 LT PUSH2 0x2157 JUMPI PUSH1 0x1 SWAP4 POP DUP3 PUSH1 0x1F NOT DUP2 AND LT PUSH2 0x213E JUMPI JUMPDEST POP POP DUP2 SHL ADD PUSH1 0x1 DUP5 ADD SSTORE PUSH2 0x1D54 JUMP JUMPDEST DUP8 ADD MLOAD PUSH1 0x0 NOT PUSH1 0xF8 DUP5 PUSH1 0x3 SHL AND SHR NOT AND SWAP1 SSTORE DUP9 DUP1 PUSH2 0x212F JUMP JUMPDEST DUP8 DUP2 ADD MLOAD DUP3 SSTORE PUSH1 0x20 SWAP4 DUP5 ADD SWAP4 PUSH1 0x1 SWAP1 SWAP3 ADD SWAP2 ADD PUSH2 0x2114 JUMP JUMPDEST PUSH1 0x1 DUP6 ADD PUSH1 0x0 MSTORE PUSH1 0x20 PUSH1 0x0 KECCAK256 PUSH1 0x1F DUP4 ADD PUSH1 0x5 SHR DUP2 ADD PUSH1 0x20 DUP5 LT PUSH2 0x21AF JUMPI JUMPDEST PUSH1 0x1F DUP4 ADD PUSH1 0x5 SHR DUP3 ADD DUP2 LT PUSH2 0x21A3 JUMPI POP POP PUSH2 0x1D26 JUMP JUMPDEST PUSH1 0x0 DUP2 SSTORE PUSH1 0x1 ADD PUSH2 0x218D JUMP JUMPDEST POP DUP1 PUSH2 0x218D JUMP JUMPDEST SWAP1 POP DUP8 ADD MLOAD DUP9 PUSH2 0x1CEC JUMP JUMPDEST SWAP2 POP DUP5 PUSH1 0x0 MSTORE PUSH1 0x20 PUSH1 0x0 KECCAK256 PUSH1 0x0 SWAP3 JUMPDEST PUSH1 0x1F NOT DUP4 AND DUP5 LT PUSH2 0x2210 JUMPI PUSH1 0x1 SWAP4 POP DUP3 PUSH1 0x1F NOT DUP2 AND LT PUSH2 0x21F7 JUMPI JUMPDEST POP POP DUP2 SHL ADD DUP4 SSTORE PUSH2 0x1D00 JUMP JUMPDEST DUP10 ADD MLOAD PUSH1 0x0 NOT PUSH1 0xF8 DUP5 PUSH1 0x3 SHL AND SHR NOT AND SWAP1 SSTORE DUP9 DUP1 PUSH2 0x21EB JUMP JUMPDEST DUP10 DUP2 ADD MLOAD DUP3 SSTORE PUSH1 0x20 SWAP4 DUP5 ADD SWAP4 PUSH1 0x1 SWAP1 SWAP3 ADD SWAP2 ADD PUSH2 0x21D0 JUMP JUMPDEST DUP5 PUSH1 0x0 MSTORE PUSH1 0x20 PUSH1 0x0 KECCAK256 PUSH1 0x1F DUP4 ADD PUSH1 0x5 SHR DUP2 ADD PUSH1 0x20 DUP5 LT PUSH2 0x2265 JUMPI JUMPDEST PUSH1 0x1F DUP4 ADD PUSH1 0x5 SHR DUP3 ADD DUP2 LT PUSH2 0x2259 JUMPI POP POP PUSH2 0x1CD5 JUMP JUMPDEST PUSH1 0x0 DUP2 SSTORE PUSH1 0x1 ADD PUSH2 0x2243 JUMP JUMPDEST POP DUP1 PUSH2 0x2243 JUMP JUMPDEST PUSH1 0x64 PUSH1 0x40 MLOAD PUSH3 0x461BCD PUSH1 0xE5 SHL DUP2 MSTORE PUSH1 0x20 PUSH1 0x4 DUP3 ADD MSTORE PUSH1 0x20 PUSH1 0x24 DUP3 ADD MSTORE PUSH32 0x4552433732313A206D696E7420746F20746865207A65726F2061646472657373 PUSH1 0x44 DUP3 ADD MSTORE REVERT JUMPDEST PUSH1 0x40 MLOAD PUSH3 0x461BCD PUSH1 0xE5 SHL DUP2 MSTORE PUSH1 0x20 PUSH1 0x4 DUP3 ADD MSTORE PUSH1 0x17 PUSH1 0x24 DUP3 ADD MSTORE PUSH32 0x50726F706572747920616C726561647920657869737473000000000000000000 PUSH1 0x44 DUP3 ADD MSTORE PUSH1 0x64 SWAP1 REVERT JUMPDEST PUSH1 0x40 MLOAD PUSH3 0x461BCD PUSH1 0xE5 SHL DUP2 MSTORE PUSH1 0x20 PUSH1 0x4 DUP3 ADD MSTORE PUSH1 0x1A PUSH1 0x24 DUP3 ADD MSTORE PUSH32 0x4F776E6572206E616D652063616E6E6F7420626520656D707479000000000000 PUSH1 0x44 DUP3 ADD MSTORE PUSH1 0x64 SWAP1 REVERT JUMPDEST PUSH1 0x64 PUSH1 0x40 MLOAD PUSH3 0x461BCD PUSH1 0xE5 SHL DUP2 MSTORE PUSH1 0x20 PUSH1 0x4 DUP3 ADD MSTORE PUSH1 0x20 PUSH1 0x24 DUP3 ADD MSTORE PUSH32 0x50726F706572747920616464726573732063616E6E6F7420626520656D707479 PUSH1 0x44 DUP3 ADD MSTORE REVERT JUMPDEST CALLVALUE PUSH2 0x2CA JUMPI PUSH1 0x40 CALLDATASIZE PUSH1 0x3 NOT ADD SLT PUSH2 0x2CA JUMPI PUSH1 0x4 CALLDATALOAD PUSH2 0x239A PUSH2 0x2947 JUMP JUMPDEST PUSH1 0x0 DUP3 DUP2 MSTORE PUSH1 0x2 PUSH1 0x20 MSTORE PUSH1 0x40 SWAP1 KECCAK256 SLOAD SWAP1 SWAP2 SWAP1 PUSH2 0x23C0 SWAP1 PUSH1 0x1 PUSH1 0x1 PUSH1 0xA0 SHL SUB AND ISZERO ISZERO PUSH2 0x3108 JUMP JUMPDEST DUP1 PUSH1 0x0 MSTORE PUSH1 0x20 SWAP1 PUSH1 0x9 DUP3 MSTORE PUSH1 0xFF PUSH1 0x7 PUSH1 0x40 PUSH1 0x0 KECCAK256 ADD SLOAD AND PUSH2 0x25E8 JUMPI DUP1 PUSH1 0x0 MSTORE PUSH1 0x9 DUP3 MSTORE PUSH1 0x12 PUSH1 0x40 PUSH1 0x0 KECCAK256 ADD CALLER PUSH1 0x0 MSTORE DUP3 MSTORE PUSH1 0xFF PUSH1 0x40 PUSH1 0x0 KECCAK256 SLOAD AND PUSH2 0x25B3 JUMPI CALLER PUSH1 0x1 PUSH1 0x1 PUSH1 0xA0 SHL SUB PUSH2 0x2410 DUP4 PUSH2 0x2C04 JUMP JUMPDEST AND EQ PUSH2 0x256E JUMPI DUP1 PUSH1 0x0 MSTORE PUSH1 0x9 DUP3 MSTORE PUSH1 0x40 PUSH1 0x0 KECCAK256 SWAP3 CALLER PUSH1 0x0 MSTORE PUSH1 0x12 DUP5 ADD DUP4 MSTORE PUSH1 0x40 PUSH1 0x0 KECCAK256 SWAP1 PUSH1 0xFF NOT SWAP2 PUSH1 0x1 DUP4 DUP3 SLOAD AND OR SWAP1 SSTORE PUSH1 0x0 EQ PUSH2 0x24E0 JUMPI PUSH1 0x3 PUSH1 0x9 DUP6 ADD PUSH2 0x2458 DUP2 SLOAD PUSH2 0x3154 JUMP JUMPDEST DUP1 SWAP2 SSTORE PUSH1 0x40 MLOAD PUSH1 0x1 DUP2 MSTORE DUP5 PUSH32 0xE71FCDAC32DF1877C1700E7BDA2A03157E20993363A28FC35AC495CEFC76E4D4 DUP8 CALLER SWAP4 LOG3 LT ISZERO PUSH2 0x2490 JUMPI STOP JUMPDEST PUSH1 0x1 PUSH1 0x7 PUSH1 0x0 DUP1 MLOAD PUSH1 0x20 PUSH2 0x358E DUP4 CODECOPY DUP2 MLOAD SWAP2 MSTORE SWAP6 ADD SWAP2 DUP3 SLOAD AND OR SWAP1 SSTORE DUP1 PUSH32 0xAFDCC517A26E633F535AA9CEBEC29F4281AB2FFA922A475B12FD1297AD765BC8 DUP4 PUSH1 0x40 MLOAD PUSH1 0x1 DUP2 MSTORE LOG2 PUSH1 0x40 MLOAD SWAP1 DUP2 MSTORE LOG1 STOP JUMPDEST POP SWAP2 PUSH1 0xA PUSH1 0x2 SWAP2 ADD PUSH2 0x24F2 DUP2 SLOAD PUSH2 0x3154 JUMP JUMPDEST DUP1 SWAP2 SSTORE PUSH1 0x40 MLOAD PUSH1 0x0 DUP2 MSTORE DUP5 PUSH32 0xE71FCDAC32DF1877C1700E7BDA2A03157E20993363A28FC35AC495CEFC76E4D4 DUP6 CALLER SWAP4 LOG3 LT ISZERO PUSH2 0x252A JUMPI STOP JUMPDEST DUP2 PUSH1 0x0 DUP1 MLOAD PUSH1 0x20 PUSH2 0x358E DUP4 CODECOPY DUP2 MLOAD SWAP2 MSTORE SWAP3 PUSH32 0xAFDCC517A26E633F535AA9CEBEC29F4281AB2FFA922A475B12FD1297AD765BC8 DUP4 PUSH1 0x40 MLOAD PUSH1 0x0 DUP2 MSTORE LOG2 PUSH1 0x40 MLOAD SWAP1 DUP2 MSTORE LOG1 STOP JUMPDEST PUSH1 0x40 MLOAD PUSH3 0x461BCD PUSH1 0xE5 SHL DUP2 MSTORE PUSH1 0x4 DUP2 ADD DUP4 SWAP1 MSTORE PUSH1 0x1B PUSH1 0x24 DUP3 ADD MSTORE PUSH32 0x43616E6E6F7420766F7465206F6E206F776E2070726F70657274790000000000 PUSH1 0x44 DUP3 ADD MSTORE PUSH1 0x64 SWAP1 REVERT JUMPDEST PUSH1 0x40 MLOAD PUSH3 0x461BCD PUSH1 0xE5 SHL DUP2 MSTORE PUSH1 0x4 DUP2 ADD DUP4 SWAP1 MSTORE PUSH1 0xD PUSH1 0x24 DUP3 ADD MSTORE PUSH13 0x105B1C9958591E481D9BDD1959 PUSH1 0x9A SHL PUSH1 0x44 DUP3 ADD MSTORE PUSH1 0x64 SWAP1 REVERT JUMPDEST PUSH1 0x40 MLOAD PUSH3 0x461BCD PUSH1 0xE5 SHL DUP2 MSTORE PUSH1 0x4 DUP2 ADD DUP4 SWAP1 MSTORE PUSH1 0x19 PUSH1 0x24 DUP3 ADD MSTORE PUSH32 0x50726F706572747920616C726561647920766572696669656400000000000000 PUSH1 0x44 DUP3 ADD MSTORE PUSH1 0x64 SWAP1 REVERT JUMPDEST CALLVALUE PUSH2 0x2CA JUMPI PUSH1 0x40 CALLDATASIZE PUSH1 0x3 NOT ADD SLT PUSH2 0x2CA JUMPI PUSH2 0x2646 PUSH2 0x291B JUMP JUMPDEST PUSH1 0x24 CALLDATALOAD SWAP1 PUSH1 0x1 PUSH1 0x1 PUSH1 0xA0 SHL SUB DUP1 DUP1 PUSH2 0x265D DUP6 PUSH2 0x2C04 JUMP JUMPDEST AND SWAP3 AND SWAP2 DUP1 DUP4 EQ PUSH2 0x2758 JUMPI DUP1 CALLER EQ SWAP1 DUP2 ISZERO PUSH2 0x2733 JUMPI JUMPDEST POP ISZERO PUSH2 0x26C8 JUMPI PUSH1 0x0 DUP4 DUP2 MSTORE PUSH1 0x4 PUSH1 0x20 MSTORE PUSH1 0x40 SWAP1 KECCAK256 DUP1 SLOAD PUSH1 0x1 PUSH1 0x1 PUSH1 0xA0 SHL SUB NOT AND DUP4 OR SWAP1 SSTORE PUSH2 0x26A0 DUP4 PUSH2 0x2C04 JUMP JUMPDEST AND PUSH32 0x8C5BE1E5EBEC7D5BD14F71427D1E84F3DD0314C0F7B2291E5B200AC8C7C3B925 PUSH1 0x0 DUP1 LOG4 STOP JUMPDEST PUSH1 0x40 MLOAD PUSH3 0x461BCD PUSH1 0xE5 SHL DUP2 MSTORE PUSH1 0x20 PUSH1 0x4 DUP3 ADD MSTORE PUSH1 0x3D PUSH1 0x24 DUP3 ADD MSTORE PUSH32 0x4552433732313A20617070726F76652063616C6C6572206973206E6F7420746F PUSH1 0x44 DUP3 ADD MSTORE PUSH32 0x6B656E206F776E6572206F7220617070726F76656420666F7220616C6C000000 PUSH1 0x64 DUP3 ADD MSTORE PUSH1 0x84 SWAP1 REVERT JUMPDEST SWAP1 POP PUSH1 0x0 MSTORE PUSH1 0x5 PUSH1 0x20 MSTORE PUSH1 0x40 PUSH1 0x0 KECCAK256 CALLER PUSH1 0x0 MSTORE PUSH1 0x20 MSTORE PUSH1 0xFF PUSH1 0x40 PUSH1 0x0 KECCAK256 SLOAD AND DUP5 PUSH2 0x2673 JUMP JUMPDEST PUSH1 0x40 MLOAD PUSH3 0x461BCD PUSH1 0xE5 SHL DUP2 MSTORE PUSH1 0x20 PUSH1 0x4 DUP3 ADD MSTORE PUSH1 0x21 PUSH1 0x24 DUP3 ADD MSTORE PUSH32 0x4552433732313A20617070726F76616C20746F2063757272656E74206F776E65 PUSH1 0x44 DUP3 ADD MSTORE PUSH1 0x39 PUSH1 0xF9 SHL PUSH1 0x64 DUP3 ADD MSTORE PUSH1 0x84 SWAP1 REVERT JUMPDEST CALLVALUE PUSH2 0x2CA JUMPI PUSH1 0x20 CALLDATASIZE PUSH1 0x3 NOT ADD SLT PUSH2 0x2CA JUMPI PUSH1 0x20 PUSH2 0x17EE PUSH1 0x4 CALLDATALOAD PUSH2 0x2C27 JUMP JUMPDEST CALLVALUE PUSH2 0x2CA JUMPI PUSH1 0x0 CALLDATASIZE PUSH1 0x3 NOT ADD SLT PUSH2 0x2CA JUMPI PUSH1 0x40 MLOAD PUSH1 0x0 DUP1 SLOAD PUSH2 0x27E6 DUP2 PUSH2 0x2A80 JUMP JUMPDEST DUP1 DUP5 MSTORE SWAP1 PUSH1 0x1 SWAP1 DUP2 DUP2 AND SWAP1 DUP2 ISZERO PUSH2 0x15D3 JUMPI POP PUSH1 0x1 EQ PUSH2 0x280F JUMPI PUSH2 0xE04 DUP5 PUSH2 0x1566 DUP2 DUP7 SUB DUP3 PUSH2 0x298C JUMP JUMPDEST PUSH1 0x0 DUP1 DUP1 MSTORE SWAP3 POP PUSH32 0x290DECD9548B62A8D60345A988386FC84BA6BC95484008F6362F93160EF3E563 JUMPDEST DUP3 DUP5 LT PUSH2 0x2850 JUMPI POP POP POP DUP2 ADD PUSH1 0x20 ADD PUSH2 0x1566 DUP3 PUSH2 0x1556 JUMP JUMPDEST DUP1 SLOAD PUSH1 0x20 DUP6 DUP8 ADD DUP2 ADD SWAP2 SWAP1 SWAP2 MSTORE SWAP1 SWAP4 ADD SWAP3 DUP2 ADD PUSH2 0x2838 JUMP JUMPDEST CALLVALUE PUSH2 0x2CA JUMPI PUSH1 0x20 CALLDATASIZE PUSH1 0x3 NOT ADD SLT PUSH2 0x2CA JUMPI PUSH1 0x4 CALLDATALOAD SWAP1 PUSH4 0xFFFFFFFF PUSH1 0xE0 SHL DUP3 AND DUP1 SWAP3 SUB PUSH2 0x2CA JUMPI PUSH1 0x20 SWAP2 PUSH4 0x80AC58CD PUSH1 0xE0 SHL DUP2 EQ SWAP1 DUP2 ISZERO PUSH2 0x28C2 JUMPI JUMPDEST DUP2 ISZERO PUSH2 0x28B1 JUMPI JUMPDEST POP ISZERO ISZERO DUP2 MSTORE RETURN JUMPDEST PUSH4 0x1FFC9A7 PUSH1 0xE0 SHL EQ SWAP1 POP DUP4 PUSH2 0x28AA JUMP JUMPDEST PUSH4 0x5B5E139F PUSH1 0xE0 SHL DUP2 EQ SWAP2 POP PUSH2 0x28A3 JUMP JUMPDEST PUSH1 0x0 JUMPDEST DUP4 DUP2 LT PUSH2 0x28E6 JUMPI POP POP PUSH1 0x0 SWAP2 ADD MSTORE JUMP JUMPDEST DUP2 DUP2 ADD MLOAD DUP4 DUP3 ADD MSTORE PUSH1 0x20 ADD PUSH2 0x28D6 JUMP JUMPDEST SWAP1 PUSH1 0x20 SWAP2 PUSH2 0x290F DUP2 MLOAD DUP1 SWAP3 DUP2 DUP6 MSTORE DUP6 DUP1 DUP7 ADD SWAP2 ADD PUSH2 0x28D3 JUMP JUMPDEST PUSH1 0x1F ADD PUSH1 0x1F NOT AND ADD ADD SWAP1 JUMP JUMPDEST PUSH1 0x4 CALLDATALOAD SWAP1 PUSH1 0x1 PUSH1 0x1 PUSH1 0xA0 SHL SUB DUP3 AND DUP3 SUB PUSH2 0x2CA JUMPI JUMP JUMPDEST PUSH1 0x24 CALLDATALOAD SWAP1 PUSH1 0x1 PUSH1 0x1 PUSH1 0xA0 SHL SUB DUP3 AND DUP3 SUB PUSH2 0x2CA JUMPI JUMP JUMPDEST PUSH1 0x24 CALLDATALOAD SWAP1 DUP2 ISZERO ISZERO DUP3 SUB PUSH2 0x2CA JUMPI JUMP JUMPDEST PUSH1 0x20 DUP2 ADD SWAP1 DUP2 LT PUSH1 0x1 PUSH1 0x1 PUSH1 0x40 SHL SUB DUP3 GT OR PUSH2 0x1F46 JUMPI PUSH1 0x40 MSTORE JUMP JUMPDEST PUSH1 0x40 DUP2 ADD SWAP1 DUP2 LT PUSH1 0x1 PUSH1 0x1 PUSH1 0x40 SHL SUB DUP3 GT OR PUSH2 0x1F46 JUMPI PUSH1 0x40 MSTORE JUMP JUMPDEST SWAP1 PUSH1 0x1F DUP1 NOT SWAP2 ADD AND DUP2 ADD SWAP1 DUP2 LT PUSH1 0x1 PUSH1 0x1 PUSH1 0x40 SHL SUB DUP3 GT OR PUSH2 0x1F46 JUMPI PUSH1 0x40 MSTORE JUMP JUMPDEST PUSH1 0x1 PUSH1 0x1 PUSH1 0x40 SHL SUB DUP2 GT PUSH2 0x1F46 JUMPI PUSH1 0x1F ADD PUSH1 0x1F NOT AND PUSH1 0x20 ADD SWAP1 JUMP JUMPDEST SWAP3 SWAP2 SWAP3 PUSH2 0x29D4 DUP3 PUSH2 0x29AD JUMP JUMPDEST SWAP2 PUSH2 0x29E2 PUSH1 0x40 MLOAD SWAP4 DUP5 PUSH2 0x298C JUMP JUMPDEST DUP3 SWAP5 DUP2 DUP5 MSTORE DUP2 DUP4 ADD GT PUSH2 0x2CA JUMPI DUP3 DUP2 PUSH1 0x20 SWAP4 DUP5 PUSH1 0x0 SWAP7 ADD CALLDATACOPY ADD ADD MSTORE JUMP JUMPDEST SWAP1 DUP1 PUSH1 0x1F DUP4 ADD SLT ISZERO PUSH2 0x2CA JUMPI DUP2 PUSH1 0x20 PUSH2 0x2A1A SWAP4 CALLDATALOAD SWAP2 ADD PUSH2 0x29C8 JUMP JUMPDEST SWAP1 JUMP JUMPDEST PUSH1 0x60 SWAP1 PUSH1 0x3 NOT ADD SLT PUSH2 0x2CA JUMPI PUSH1 0x1 PUSH1 0x1 PUSH1 0xA0 SHL SUB SWAP1 PUSH1 0x4 CALLDATALOAD DUP3 DUP2 AND DUP2 SUB PUSH2 0x2CA JUMPI SWAP2 PUSH1 0x24 CALLDATALOAD SWAP1 DUP2 AND DUP2 SUB PUSH2 0x2CA JUMPI SWAP1 PUSH1 0x44 CALLDATALOAD SWAP1 JUMP JUMPDEST DUP1 SLOAD DUP3 LT ISZERO PUSH2 0x2A6A JUMPI PUSH1 0x0 MSTORE PUSH1 0x20 PUSH1 0x0 KECCAK256 ADD SWAP1 PUSH1 0x0 SWAP1 JUMP JUMPDEST PUSH4 0x4E487B71 PUSH1 0xE0 SHL PUSH1 0x0 MSTORE PUSH1 0x32 PUSH1 0x4 MSTORE PUSH1 0x24 PUSH1 0x0 REVERT JUMPDEST SWAP1 PUSH1 0x1 DUP3 DUP2 SHR SWAP3 AND DUP1 ISZERO PUSH2 0x2AB0 JUMPI JUMPDEST PUSH1 0x20 DUP4 LT EQ PUSH2 0x2A9A JUMPI JUMP JUMPDEST PUSH4 0x4E487B71 PUSH1 0xE0 SHL PUSH1 0x0 MSTORE PUSH1 0x22 PUSH1 0x4 MSTORE PUSH1 0x24 PUSH1 0x0 REVERT JUMPDEST SWAP2 PUSH1 0x7F AND SWAP2 PUSH2 0x2A8F JUMP JUMPDEST SWAP1 PUSH1 0x40 MLOAD SWAP2 DUP3 PUSH1 0x0 DUP3 SLOAD SWAP3 PUSH2 0x2ACE DUP5 PUSH2 0x2A80 JUMP JUMPDEST SWAP1 DUP2 DUP5 MSTORE PUSH1 0x1 SWAP5 DUP6 DUP2 AND SWAP1 DUP2 PUSH1 0x0 EQ PUSH2 0x2B3D JUMPI POP PUSH1 0x1 EQ PUSH2 0x2AFA JUMPI JUMPDEST POP POP PUSH2 0x2AF8 SWAP3 POP SUB DUP4 PUSH2 0x298C JUMP JUMPDEST JUMP JUMPDEST SWAP1 SWAP4 SWAP2 POP PUSH1 0x0 MSTORE PUSH1 0x20 SWAP1 DUP2 PUSH1 0x0 KECCAK256 SWAP4 PUSH1 0x0 SWAP2 JUMPDEST DUP2 DUP4 LT PUSH2 0x2B25 JUMPI POP POP PUSH2 0x2AF8 SWAP4 POP DUP3 ADD ADD CODESIZE DUP1 PUSH2 0x2AEA JUMP JUMPDEST DUP6 SLOAD DUP9 DUP5 ADD DUP6 ADD MSTORE SWAP5 DUP6 ADD SWAP5 DUP8 SWAP5 POP SWAP2 DUP4 ADD SWAP2 PUSH2 0x2B0D JUMP JUMPDEST SWAP2 POP POP PUSH2 0x2AF8 SWAP5 POP PUSH1 0x20 SWAP3 POP PUSH1 0xFF NOT AND DUP3 DUP5 ADD MSTORE ISZERO ISZERO PUSH1 0x5 SHL DUP3 ADD ADD CODESIZE DUP1 PUSH2 0x2AEA JUMP JUMPDEST PUSH1 0x6 SLOAD PUSH1 0x1 PUSH1 0x1 PUSH1 0xA0 SHL SUB AND CALLER SUB PUSH2 0x2B74 JUMPI JUMP JUMPDEST PUSH1 0x64 PUSH1 0x40 MLOAD PUSH3 0x461BCD PUSH1 0xE5 SHL DUP2 MSTORE PUSH1 0x20 PUSH1 0x4 DUP3 ADD MSTORE PUSH1 0x20 PUSH1 0x24 DUP3 ADD MSTORE PUSH32 0x4F776E61626C653A2063616C6C6572206973206E6F7420746865206F776E6572 PUSH1 0x44 DUP3 ADD MSTORE REVERT JUMPDEST ISZERO PUSH2 0x2BBF JUMPI JUMP JUMPDEST PUSH1 0x40 MLOAD PUSH3 0x461BCD PUSH1 0xE5 SHL DUP2 MSTORE PUSH1 0x20 PUSH1 0x4 DUP3 ADD MSTORE PUSH1 0x18 PUSH1 0x24 DUP3 ADD MSTORE PUSH32 0x4552433732313A20696E76616C696420746F6B656E2049440000000000000000 PUSH1 0x44 DUP3 ADD MSTORE PUSH1 0x64 SWAP1 REVERT JUMPDEST PUSH1 0x0 SWAP1 DUP2 MSTORE PUSH1 0x2 PUSH1 0x20 MSTORE PUSH1 0x40 SWAP1 KECCAK256 SLOAD PUSH1 0x1 PUSH1 0x1 PUSH1 0xA0 SHL SUB AND PUSH2 0x2A1A DUP2 ISZERO ISZERO PUSH2 0x2BB8 JUMP JUMPDEST PUSH1 0x0 DUP2 DUP2 MSTORE PUSH1 0x2 PUSH1 0x20 MSTORE PUSH1 0x40 SWAP1 KECCAK256 SLOAD PUSH2 0x2C4A SWAP1 PUSH1 0x1 PUSH1 0x1 PUSH1 0xA0 SHL SUB AND ISZERO ISZERO PUSH2 0x2BB8 JUMP JUMPDEST PUSH1 0x0 SWAP1 DUP2 MSTORE PUSH1 0x4 PUSH1 0x20 MSTORE PUSH1 0x40 SWAP1 KECCAK256 SLOAD PUSH1 0x1 PUSH1 0x1 PUSH1 0xA0 SHL SUB AND SWAP1 JUMP JUMPDEST ISZERO PUSH2 0x2C6C JUMPI JUMP JUMPDEST PUSH1 0x40 MLOAD PUSH3 0x461BCD PUSH1 0xE5 SHL DUP2 MSTORE PUSH1 0x20 PUSH1 0x4 DUP3 ADD MSTORE PUSH1 0x2D PUSH1 0x24 DUP3 ADD MSTORE PUSH32 0x4552433732313A2063616C6C6572206973206E6F7420746F6B656E206F776E65 PUSH1 0x44 DUP3 ADD MSTORE PUSH13 0x1C881BDC88185C1C1C9BDD9959 PUSH1 0x9A SHL PUSH1 0x64 DUP3 ADD MSTORE PUSH1 0x84 SWAP1 REVERT JUMPDEST PUSH1 0x80 SWAP1 PUSH1 0x20 DUP2 MSTORE PUSH1 0x32 PUSH1 0x20 DUP3 ADD MSTORE PUSH32 0x4552433732313A207472616E7366657220746F206E6F6E204552433732315265 PUSH1 0x40 DUP3 ADD MSTORE PUSH18 0x31B2B4BB32B91034B6B83632B6B2B73A32B9 PUSH1 0x71 SHL PUSH1 0x60 DUP3 ADD MSTORE ADD SWAP1 JUMP JUMPDEST ISZERO PUSH2 0x2D21 JUMPI JUMP JUMPDEST PUSH1 0x40 MLOAD PUSH3 0x461BCD PUSH1 0xE5 SHL DUP2 MSTORE DUP1 PUSH2 0x2D3A PUSH1 0x4 DUP3 ADD PUSH2 0x2CC7 JUMP JUMPDEST SUB SWAP1 REVERT JUMPDEST SWAP1 PUSH1 0x1 PUSH1 0x1 PUSH1 0xA0 SHL SUB DUP1 DUP1 PUSH2 0x2D52 DUP5 PUSH2 0x2C04 JUMP JUMPDEST AND SWAP4 AND SWAP2 DUP4 DUP4 EQ SWAP4 DUP5 ISZERO PUSH2 0x2D85 JUMPI JUMPDEST POP DUP4 ISZERO PUSH2 0x2D6F JUMPI JUMPDEST POP POP POP SWAP1 JUMP JUMPDEST PUSH2 0x2D7B SWAP2 SWAP3 SWAP4 POP PUSH2 0x2C27 JUMP JUMPDEST AND EQ CODESIZE DUP1 DUP1 PUSH2 0x2D69 JUMP JUMPDEST SWAP1 SWAP4 POP PUSH1 0x0 MSTORE PUSH1 0x5 PUSH1 0x20 MSTORE PUSH1 0x40 PUSH1 0x0 KECCAK256 DUP3 PUSH1 0x0 MSTORE PUSH1 0x20 MSTORE PUSH1 0xFF PUSH1 0x40 PUSH1 0x0 KECCAK256 SLOAD AND SWAP3 CODESIZE PUSH2 0x2D61 JUMP JUMPDEST ISZERO PUSH2 0x2DB3 JUMPI JUMP JUMPDEST PUSH1 0x40 MLOAD PUSH3 0x461BCD PUSH1 0xE5 SHL DUP2 MSTORE PUSH1 0x20 PUSH1 0x4 DUP3 ADD MSTORE PUSH1 0x25 PUSH1 0x24 DUP3 ADD MSTORE PUSH32 0x4552433732313A207472616E736665722066726F6D20696E636F727265637420 PUSH1 0x44 DUP3 ADD MSTORE PUSH5 0x37BBB732B9 PUSH1 0xD9 SHL PUSH1 0x64 DUP3 ADD MSTORE PUSH1 0x84 SWAP1 REVERT JUMPDEST SWAP1 PUSH2 0x2E2E SWAP2 PUSH2 0x2E14 DUP5 PUSH2 0x2C04 JUMP JUMPDEST PUSH1 0x1 PUSH1 0x1 PUSH1 0xA0 SHL SUB SWAP4 SWAP2 DUP5 AND SWAP3 DUP5 SWAP3 SWAP1 SWAP2 DUP4 AND DUP5 EQ PUSH2 0x2DAC JUMP JUMPDEST AND SWAP2 DUP3 ISZERO PUSH2 0x2EC6 JUMPI DUP2 PUSH2 0x2E4B SWAP2 PUSH2 0x2E44 DUP7 PUSH2 0x2C04 JUMP JUMPDEST AND EQ PUSH2 0x2DAC JUMP JUMPDEST PUSH32 0xDDF252AD1BE2C89B69C2B068FC378DAA952BA7F163C4A11628F55A4DF523B3EF PUSH1 0x0 DUP5 DUP2 MSTORE PUSH1 0x4 PUSH1 0x20 MSTORE PUSH1 0x40 DUP2 KECCAK256 PUSH1 0x1 PUSH1 0x1 PUSH1 0x60 SHL SUB PUSH1 0xA0 SHL SWAP1 DUP2 DUP2 SLOAD AND SWAP1 SSTORE DUP4 DUP3 MSTORE PUSH1 0x3 PUSH1 0x20 MSTORE PUSH1 0x40 DUP3 KECCAK256 PUSH1 0x0 NOT DUP2 SLOAD ADD SWAP1 SSTORE DUP5 DUP3 MSTORE PUSH1 0x40 DUP3 KECCAK256 PUSH1 0x1 DUP2 SLOAD ADD SWAP1 SSTORE DUP6 DUP3 MSTORE PUSH1 0x2 PUSH1 0x20 MSTORE DUP5 PUSH1 0x40 DUP4 KECCAK256 SWAP2 DUP3 SLOAD AND OR SWAP1 SSTORE DUP1 LOG4 JUMP JUMPDEST PUSH1 0x40 MLOAD PUSH3 0x461BCD PUSH1 0xE5 SHL DUP2 MSTORE PUSH1 0x20 PUSH1 0x4 DUP3 ADD MSTORE PUSH1 0x24 DUP1 DUP3 ADD MSTORE PUSH32 0x4552433732313A207472616E7366657220746F20746865207A65726F20616464 PUSH1 0x44 DUP3 ADD MSTORE PUSH4 0x72657373 PUSH1 0xE0 SHL PUSH1 0x64 DUP3 ADD MSTORE PUSH1 0x84 SWAP1 REVERT JUMPDEST SWAP2 SWAP3 SWAP1 SWAP2 DUP1 EXTCODESIZE ISZERO PUSH2 0x302C JUMPI PUSH2 0x2F64 SWAP4 PUSH1 0x40 MLOAD SWAP1 DUP2 PUSH4 0xA85BD01 PUSH1 0xE1 SHL SWAP4 DUP5 DUP3 MSTORE CALLER PUSH1 0x4 DUP4 ADD MSTORE PUSH1 0x0 SWAP7 DUP8 PUSH1 0x24 DUP5 ADD MSTORE PUSH1 0x44 DUP4 ADD MSTORE PUSH1 0x80 PUSH1 0x64 DUP4 ADD MSTORE DUP2 DUP8 DUP2 PUSH1 0x20 SWAP11 DUP12 SWAP7 PUSH1 0x84 DUP4 ADD SWAP1 PUSH2 0x28F6 JUMP JUMPDEST SUB SWAP3 PUSH1 0x1 PUSH1 0x1 PUSH1 0xA0 SHL SUB AND GAS CALL DUP5 SWAP2 DUP2 PUSH2 0x2FE8 JUMPI JUMPDEST POP PUSH2 0x2FD7 JUMPI POP POP POP RETURNDATASIZE PUSH1 0x0 EQ PUSH2 0x2FCF JUMPI RETURNDATASIZE PUSH2 0x2F93 DUP2 PUSH2 0x29AD JUMP JUMPDEST SWAP1 PUSH2 0x2FA1 PUSH1 0x40 MLOAD SWAP3 DUP4 PUSH2 0x298C JUMP JUMPDEST DUP2 MSTORE DUP1 SWAP2 DUP4 RETURNDATASIZE SWAP3 ADD RETURNDATACOPY JUMPDEST DUP1 MLOAD SWAP2 DUP3 PUSH2 0x2FCC JUMPI PUSH1 0x40 MLOAD PUSH3 0x461BCD PUSH1 0xE5 SHL DUP2 MSTORE DUP1 PUSH2 0x2D3A PUSH1 0x4 DUP3 ADD PUSH2 0x2CC7 JUMP JUMPDEST ADD REVERT JUMPDEST POP PUSH1 0x60 PUSH2 0x2FAB JUMP JUMPDEST PUSH1 0x1 PUSH1 0x1 PUSH1 0xE0 SHL SUB NOT AND EQ SWAP3 POP SWAP1 POP JUMP JUMPDEST SWAP1 SWAP2 POP DUP6 DUP2 DUP2 RETURNDATASIZE DUP4 GT PUSH2 0x3025 JUMPI JUMPDEST PUSH2 0x3000 DUP2 DUP4 PUSH2 0x298C JUMP JUMPDEST DUP2 ADD SUB SLT PUSH2 0x3021 JUMPI MLOAD PUSH1 0x1 PUSH1 0x1 PUSH1 0xE0 SHL SUB NOT DUP2 AND DUP2 SUB PUSH2 0x3021 JUMPI SWAP1 CODESIZE PUSH2 0x2F79 JUMP JUMPDEST DUP5 DUP1 REVERT JUMPDEST POP RETURNDATASIZE PUSH2 0x2FF6 JUMP JUMPDEST POP SWAP2 POP POP PUSH1 0x1 SWAP1 JUMP JUMPDEST SWAP3 SWAP4 SWAP2 SWAP1 DUP1 EXTCODESIZE ISZERO PUSH2 0x30B2 JUMPI PUSH2 0x3087 SWAP5 PUSH1 0x40 MLOAD DUP1 SWAP3 PUSH4 0xA85BD01 PUSH1 0xE1 SHL SWAP5 DUP6 DUP4 MSTORE CALLER PUSH1 0x4 DUP5 ADD MSTORE PUSH1 0x1 DUP1 PUSH1 0xA0 SHL SUB DUP1 SWAP9 AND PUSH1 0x24 DUP5 ADD MSTORE PUSH1 0x44 DUP4 ADD MSTORE PUSH1 0x80 PUSH1 0x64 DUP4 ADD MSTORE DUP2 DUP1 PUSH1 0x20 SWAP10 DUP11 SWAP6 PUSH1 0x84 DUP4 ADD SWAP1 PUSH2 0x28F6 JUMP JUMPDEST SUB SWAP2 PUSH1 0x0 SWAP9 DUP10 SWAP2 AND GAS CALL DUP5 SWAP2 DUP2 PUSH2 0x2FE8 JUMPI POP PUSH2 0x2FD7 JUMPI POP POP POP RETURNDATASIZE PUSH1 0x0 EQ PUSH2 0x2FCF JUMPI RETURNDATASIZE PUSH2 0x2F93 DUP2 PUSH2 0x29AD JUMP JUMPDEST POP POP SWAP2 POP POP PUSH1 0x1 SWAP1 JUMP JUMPDEST ISZERO PUSH2 0x30C3 JUMPI JUMP JUMPDEST PUSH1 0x40 MLOAD PUSH3 0x461BCD PUSH1 0xE5 SHL DUP2 MSTORE PUSH1 0x20 PUSH1 0x4 DUP3 ADD MSTORE PUSH1 0x1C PUSH1 0x24 DUP3 ADD MSTORE PUSH32 0x4552433732313A20746F6B656E20616C7265616479206D696E74656400000000 PUSH1 0x44 DUP3 ADD MSTORE PUSH1 0x64 SWAP1 REVERT JUMPDEST ISZERO PUSH2 0x310F JUMPI JUMP JUMPDEST PUSH1 0x40 MLOAD PUSH3 0x461BCD PUSH1 0xE5 SHL DUP2 MSTORE PUSH1 0x20 PUSH1 0x4 DUP3 ADD MSTORE PUSH1 0x17 PUSH1 0x24 DUP3 ADD MSTORE PUSH32 0x50726F706572747920646F6573206E6F74206578697374000000000000000000 PUSH1 0x44 DUP3 ADD MSTORE PUSH1 0x64 SWAP1 REVERT JUMPDEST PUSH1 0x0 NOT DUP2 EQ PUSH2 0x3163 JUMPI PUSH1 0x1 ADD SWAP1 JUMP JUMPDEST PUSH4 0x4E487B71 PUSH1 0xE0 SHL PUSH1 0x0 MSTORE PUSH1 0x11 PUSH1 0x4 MSTORE PUSH1 0x24 PUSH1 0x0 REVERT JUMPDEST ISZERO PUSH2 0x3180 JUMPI JUMP JUMPDEST PUSH1 0x40 MLOAD PUSH3 0x461BCD PUSH1 0xE5 SHL DUP2 MSTORE PUSH1 0x20 PUSH1 0x4 DUP3 ADD MSTORE PUSH1 0x1E PUSH1 0x24 DUP3 ADD MSTORE PUSH32 0x4E6F7420617574686F72697A656420746F207570646174652076616C75650000 PUSH1 0x44 DUP3 ADD MSTORE PUSH1 0x64 SWAP1 REVERT JUMPDEST SWAP2 SWAP1 DUP3 ADD DUP1 SWAP3 GT PUSH2 0x3163 JUMPI JUMP JUMPDEST PUSH1 0x0 SWAP3 SWAP2 DUP2 SLOAD PUSH2 0x31E1 DUP2 PUSH2 0x2A80 JUMP JUMPDEST SWAP3 PUSH1 0x1 SWAP2 DUP1 DUP4 AND SWAP1 DUP2 ISZERO PUSH2 0x323A JUMPI POP PUSH1 0x1 EQ PUSH2 0x31FE JUMPI JUMPDEST POP POP POP POP JUMP JUMPDEST SWAP1 SWAP2 SWAP3 SWAP4 SWAP5 POP PUSH1 0x0 MSTORE PUSH1 0x20 SWAP1 DUP2 PUSH1 0x0 KECCAK256 SWAP1 PUSH1 0x0 SWAP2 JUMPDEST DUP6 DUP4 LT PUSH2 0x3229 JUMPI POP POP POP POP ADD SWAP1 CODESIZE DUP1 DUP1 DUP1 PUSH2 0x31F8 JUMP JUMPDEST DUP1 SLOAD DUP6 DUP5 ADD MSTORE SWAP2 DUP4 ADD SWAP2 DUP2 ADD PUSH2 0x3213 JUMP JUMPDEST PUSH1 0xFF NOT AND DUP5 MSTORE POP POP POP DUP2 ISZERO ISZERO SWAP1 SWAP2 MUL ADD SWAP2 POP CODESIZE DUP1 DUP1 DUP1 PUSH2 0x31F8 JUMP JUMPDEST SWAP1 PUSH2 0x325F DUP3 PUSH2 0x29AD JUMP JUMPDEST PUSH2 0x326C PUSH1 0x40 MLOAD SWAP2 DUP3 PUSH2 0x298C JUMP JUMPDEST DUP3 DUP2 MSTORE DUP1 SWAP3 PUSH2 0x327D PUSH1 0x1F NOT SWAP2 PUSH2 0x29AD JUMP JUMPDEST ADD SWAP1 PUSH1 0x20 CALLDATASIZE SWAP2 ADD CALLDATACOPY JUMP JUMPDEST DUP1 MLOAD ISZERO PUSH2 0x33D7 JUMPI PUSH1 0x40 MLOAD SWAP1 PUSH1 0x60 DUP3 ADD DUP3 DUP2 LT PUSH1 0x1 PUSH1 0x1 PUSH1 0x40 SHL SUB DUP3 GT OR PUSH2 0x1F46 JUMPI PUSH1 0x40 MSTORE PUSH1 0x40 DUP3 MSTORE PUSH32 0x4142434445464748494A4B4C4D4E4F505152535455565758595A616263646566 PUSH1 0x20 DUP4 ADD MSTORE PUSH32 0x6768696A6B6C6D6E6F707172737475767778797A303132333435363738392B2F PUSH1 0x40 DUP4 ADD MSTORE DUP1 MLOAD PUSH1 0x2 SWAP2 DUP3 DUP3 ADD DUP1 SWAP3 GT PUSH2 0x3163 JUMPI PUSH1 0x3 SWAP2 DUP3 SWAP1 DIV PUSH1 0x1 PUSH1 0x1 PUSH1 0xFE SHL SUB DUP2 AND DUP2 SUB PUSH2 0x3163 JUMPI PUSH2 0x332D SWAP1 DUP5 SWAP6 SWAP5 SHL PUSH2 0x3255 JUMP JUMPDEST SWAP4 PUSH1 0x20 DUP6 ADD SWAP4 DUP3 SWAP2 DUP4 MLOAD DUP5 ADD SWAP1 PUSH1 0x20 DUP3 ADD SWAP3 DUP4 MLOAD SWAP5 PUSH1 0x0 DUP6 MSTORE JUMPDEST DUP4 DUP2 LT PUSH2 0x3386 JUMPI POP POP POP POP MSTORE MLOAD MOD DUP1 PUSH1 0x1 EQ PUSH2 0x3373 JUMPI PUSH1 0x2 EQ PUSH2 0x3368 JUMPI POP SWAP1 JUMP JUMPDEST PUSH1 0x3D SWAP1 PUSH1 0x0 NOT ADD MSTORE8 SWAP1 JUMP JUMPDEST POP PUSH1 0x3D SWAP1 DUP2 PUSH1 0x0 NOT DUP3 ADD MSTORE8 PUSH1 0x1 NOT ADD MSTORE8 SWAP1 JUMP JUMPDEST DUP8 PUSH1 0x4 SWAP2 SWAP10 SWAP3 SWAP4 SWAP5 SWAP10 ADD SWAP2 DUP3 MLOAD PUSH1 0x1 SWAP1 PUSH1 0x3F SWAP1 DUP3 DUP3 DUP3 PUSH1 0x12 SHR AND DUP9 ADD ADD MLOAD DUP5 MSTORE8 DUP3 DUP3 DUP3 PUSH1 0xC SHR AND DUP9 ADD ADD MLOAD DUP4 DUP6 ADD MSTORE8 DUP3 DUP3 DUP3 PUSH1 0x6 SHR AND DUP9 ADD ADD MLOAD DUP9 DUP6 ADD MSTORE8 AND DUP6 ADD ADD MLOAD DUP10 DUP3 ADD MSTORE8 ADD SWAP8 SWAP3 SWAP2 SWAP1 PUSH2 0x3347 JUMP JUMPDEST POP PUSH1 0x40 MLOAD PUSH2 0x33E4 DUP2 PUSH2 0x2956 JUMP JUMPDEST PUSH1 0x0 DUP2 MSTORE SWAP1 JUMP JUMPDEST DUP1 PUSH1 0x0 SWAP2 PUSH27 0x184F03E93FF9F4DAA797ED6E38ED64BF6A1F010000000000000000 DUP1 DUP3 LT ISZERO PUSH2 0x3520 JUMPI JUMPDEST POP PUSH14 0x4EE2D6D415B85ACEF8100000000 DUP1 DUP4 LT ISZERO PUSH2 0x3511 JUMPI JUMPDEST POP PUSH7 0x2386F26FC10000 DUP1 DUP4 LT ISZERO PUSH2 0x3502 JUMPI JUMPDEST POP PUSH4 0x5F5E100 DUP1 DUP4 LT ISZERO PUSH2 0x34F3 JUMPI JUMPDEST POP PUSH2 0x2710 DUP1 DUP4 LT ISZERO PUSH2 0x34E4 JUMPI JUMPDEST POP PUSH1 0x64 DUP3 LT ISZERO PUSH2 0x34D4 JUMPI JUMPDEST PUSH1 0xA DUP1 SWAP3 LT ISZERO PUSH2 0x34CA JUMPI JUMPDEST PUSH1 0x1 SWAP1 DUP2 PUSH1 0x21 PUSH2 0x3482 DUP3 DUP8 ADD PUSH2 0x3255 JUMP JUMPDEST SWAP6 DUP7 ADD ADD SWAP1 JUMPDEST PUSH2 0x3494 JUMPI JUMPDEST POP POP POP POP SWAP1 JUMP JUMPDEST PUSH1 0x0 NOT ADD SWAP1 DUP4 SWAP1 PUSH16 0x181899199A1A9B1B9C1CB0B131B232B3 PUSH1 0x81 SHL DUP3 DUP3 MOD BYTE DUP4 MSTORE8 DIV SWAP2 DUP3 ISZERO PUSH2 0x34C5 JUMPI SWAP2 SWAP1 DUP3 PUSH2 0x3488 JUMP JUMPDEST PUSH2 0x348D JUMP JUMPDEST SWAP2 PUSH1 0x1 ADD SWAP2 PUSH2 0x3471 JUMP JUMPDEST SWAP2 SWAP1 PUSH1 0x64 PUSH1 0x2 SWAP2 DIV SWAP2 ADD SWAP2 PUSH2 0x3466 JUMP JUMPDEST PUSH1 0x4 SWAP2 SWAP4 SWAP3 DIV SWAP2 ADD SWAP2 CODESIZE PUSH2 0x345B JUMP JUMPDEST PUSH1 0x8 SWAP2 SWAP4 SWAP3 DIV SWAP2 ADD SWAP2 CODESIZE PUSH2 0x344E JUMP JUMPDEST PUSH1 0x10 SWAP2 SWAP4 SWAP3 DIV SWAP2 ADD SWAP2 CODESIZE PUSH2 0x343F JUMP JUMPDEST PUSH1 0x20 SWAP2 SWAP4 SWAP3 DIV SWAP2 ADD SWAP2 CODESIZE PUSH2 0x342D JUMP JUMPDEST PUSH1 0x40 SWAP4 POP DUP2 DIV SWAP2 POP CODESIZE PUSH2 0x3414 JUMP JUMPDEST PUSH1 0x0 DUP2 SLT PUSH2 0x353F JUMPI PUSH2 0x2A1A SWAP1 PUSH2 0x33EB JUMP JUMPDEST PUSH1 0x1 PUSH1 0xFF SHL DUP2 EQ PUSH2 0x3163 JUMPI PUSH2 0x3556 SWAP1 PUSH1 0x0 SUB PUSH2 0x33EB JUMP JUMPDEST PUSH2 0x2A1A PUSH1 0x21 PUSH1 0x40 MLOAD DUP1 SWAP4 PUSH1 0x2D PUSH1 0xF8 SHL PUSH1 0x20 DUP4 ADD MSTORE PUSH2 0x357D DUP2 MLOAD DUP1 SWAP3 PUSH1 0x20 DUP7 DUP7 ADD SWAP2 ADD PUSH2 0x28D3 JUMP JUMPDEST DUP2 ADD SUB PUSH1 0x1 DUP2 ADD DUP5 MSTORE ADD DUP3 PUSH2 0x298C JUMP INVALID 0xF8 0xE1 LOG1 GAS 0xBA SWAP4 SWAP9 0xE0 NOT CREATE 0xB4 SWAP14 CALL LOG4 REVERT 0xE9 DUP15 0xE1 PUSH27 0xE345CB5F6B5E2C27F5033E8CE7A26469706673582212205E2E4CB7 0xE0 0xC4 PC ADD 0xC4 0xE9 DUP16 0xD7 0xB2 CALL 0xAE DUP14 EQ COINBASE SAR PUSH19 0xBAF8916576E3627879CC96B664736F6C634300 ADDMOD EQ STOP CALLER "},"methodIdentifiers":{"REJECTION_THRESHOLD()":"dfdea265","VERIFICATION_THRESHOLD()":"3f53b43f","addressExists(string)":"88f5ab9f","approve(address,uint256)":"095ea7b3","authorizedContracts(address)":"d5b9221b","balanceOf(address)":"70a08231","getApproved(uint256)":"081812fc","isApprovedForAll(address,address)":"e985e9c5","isAuthorizedContract(address)":"66d0ead3","name()":"06fdde03","owner()":"8da5cb5b","ownerOf(uint256)":"6352211e","ownerProperties(address,uint256)":"8f48bd5b","properties(uint256)":"f7b10808","renounceOwnership()":"715018a6","safeTransferFrom(address,address,uint256)":"42842e0e","safeTransferFrom(address,address,uint256,bytes)":"b88d4fde","setApprovalForAll(address,bool)":"a22cb465","setAuthorizedContract(address,bool)":"f2fa7392","submitProperty(string,string,string,uint256,string,int256,int256)":"179cd756","supportsInterface(bytes4)":"01ffc9a7","symbol()":"95d89b41","tokenURI(uint256)":"c87b56dd","transferFrom(address,address,uint256)":"23b872dd","transferOwnership(address)":"f2fde38b","updatePropertyValuation(uint256,uint256,uint256,uint256,uint256,uint256,uint256,uint256)":"4beac331","updatePropertyValue(uint256,uint256)":"9b7c4b4b","voteOnProperty(uint256,bool)":"0af44108"}}}}}