{"contracts/PropertyNFT.sol":{"PropertyNFT":{"abi":[{"inputs":[],"stateMutability":"nonpayable","type":"constructor"},{"anonymous":false,"inputs":[{"indexed":true,"internalType":"address","name":"owner","type":"address"},{"indexed":true,"internalType":"address","name":"approved","type":"address"},{"indexed":true,"internalType":"uint256","name":"tokenId","type":"uint256"}],"name":"Approval","type":"event"},{"anonymous":false,"inputs":[{"indexed":true,"internalType":"address","name":"owner","type":"address"},{"indexed":true,"internalType":"address","name":"operator","type":"address"},{"indexed":false,"internalType":"bool","name":"approved","type":"bool"}],"name":"ApprovalForAll","type":"event"},{"anonymous":false,"inputs":[{"indexed":false,"internalType":"uint256","name":"_fromTokenId","type":"uint256"},{"indexed":false,"internalType":"uint256","name":"_toTokenId","type":"uint256"}],"name":"BatchMetadataUpdate","type":"event"},{"anonymous":false,"inputs":[{"indexed":true,"internalType":"address","name":"contractAddress","type":"address"},{"indexed":false,"internalType":"bool","name":"authorized","type":"bool"}],"name":"ContractAuthorized","type":"event"},{"anonymous":false,"inputs":[{"indexed":false,"internalType":"uint256","name":"_tokenId","type":"uint256"}],"name":"MetadataUpdate","type":"event"},{"anonymous":false,"inputs":[{"indexed":true,"internalType":"address","name":"previousOwner","type":"address"},{"indexed":true,"internalType":"address","name":"newOwner","type":"address"}],"name":"OwnershipTransferred","type":"event"},{"anonymous":false,"inputs":[{"indexed":true,"internalType":"uint256","name":"tokenId","type":"uint256"},{"indexed":false,"internalType":"string","name":"propertyAddress","type":"string"},{"indexed":false,"internalType":"string","name":"ownerName","type":"string"},{"indexed":true,"internalType":"address","name":"submitter","type":"address"}],"name":"PropertySubmitted","type":"event"},{"anonymous":false,"inputs":[{"indexed":true,"internalType":"uint256","name":"tokenId","type":"uint256"},{"indexed":false,"internalType":"uint256","name":"newValue","type":"uint256"}],"name":"PropertyValueUpdated","type":"event"},{"anonymous":false,"inputs":[{"indexed":true,"internalType":"uint256","name":"tokenId","type":"uint256"},{"indexed":false,"internalType":"bool","name":"verified","type":"bool"}],"name":"PropertyVerified","type":"event"},{"anonymous":false,"inputs":[{"indexed":true,"internalType":"address","name":"from","type":"address"},{"indexed":true,"internalType":"address","name":"to","type":"address"},{"indexed":true,"internalType":"uint256","name":"tokenId","type":"uint256"}],"name":"Transfer","type":"event"},{"anonymous":false,"inputs":[{"indexed":true,"internalType":"uint256","name":"tokenId","type":"uint256"},{"indexed":true,"internalType":"address","name":"voter","type":"address"},{"indexed":false,"internalType":"bool","name":"approve","type":"bool"}],"name":"VoteCast","type":"event"},{"inputs":[],"name":"REJECTION_THRESHOLD","outputs":[{"internalType":"uint256","name":"","type":"uint256"}],"stateMutability":"view","type":"function"},{"inputs":[],"name":"VERIFICATION_THRESHOLD","outputs":[{"internalType":"uint256","name":"","type":"uint256"}],"stateMutability":"view","type":"function"},{"inputs":[{"internalType":"string","name":"","type":"string"}],"name":"addressExists","outputs":[{"internalType":"bool","name":"","type":"bool"}],"stateMutability":"view","type":"function"},{"inputs":[{"internalType":"address","name":"to","type":"address"},{"internalType":"uint256","name":"tokenId","type":"uint256"}],"name":"approve","outputs":[],"stateMutability":"nonpayable","type":"function"},{"inputs":[{"internalType":"address","name":"","type":"address"}],"name":"authorizedContracts","outputs":[{"internalType":"bool","name":"","type":"bool"}],"stateMutability":"view","type":"function"},{"inputs":[{"internalType":"address","name":"owner","type":"address"}],"name":"balanceOf","outputs":[{"internalType":"uint256","name":"","type":"uint256"}],"stateMutability":"view","type":"function"},{"inputs":[{"internalType":"uint256","name":"tokenId","type":"uint256"}],"name":"getApproved","outputs":[{"internalType":"address","name":"","type":"address"}],"stateMutability":"view","type":"function"},{"inputs":[{"internalType":"uint256[]","name":"_tokenIds","type":"uint256[]"}],"name":"getMultipleProperties","outputs":[{"components":[{"internalType":"uint256","name":"tokenId","type":"uint256"},{"internalType":"string","name":"propertyAddress","type":"string"},{"internalType":"string","name":"ownerName","type":"string"},{"internalType":"string","name":"propertyType","type":"string"},{"internalType":"uint256","name":"renovationDate","type":"uint256"},{"internalType":"string","name":"imageURI","type":"string"},{"internalType":"int256","name":"latitude","type":"int256"},{"internalType":"int256","name":"longitude","type":"int256"},{"internalType":"bool","name":"isVerified","type":"bool"},{"internalType":"uint256","name":"estimatedValue","type":"uint256"},{"internalType":"uint256","name":"verificationVotes","type":"uint256"},{"internalType":"uint256","name":"rejectionVotes","type":"uint256"},{"internalType":"address","name":"currentOwner","type":"address"}],"internalType":"struct PropertyNFT.PropertySummary[]","name":"","type":"tuple[]"}],"stateMutability":"view","type":"function"},{"inputs":[{"internalType":"address","name":"_owner","type":"address"}],"name":"getOwnerPropertiesDetailed","outputs":[{"components":[{"internalType":"uint256","name":"tokenId","type":"uint256"},{"internalType":"string","name":"propertyAddress","type":"string"},{"internalType":"string","name":"ownerName","type":"string"},{"internalType":"string","name":"propertyType","type":"string"},{"internalType":"uint256","name":"renovationDate","type":"uint256"},{"internalType":"string","name":"imageURI","type":"string"},{"internalType":"int256","name":"latitude","type":"int256"},{"internalType":"int256","name":"longitude","type":"int256"},{"internalType":"bool","name":"isVerified","type":"bool"},{"internalType":"uint256","name":"estimatedValue","type":"uint256"},{"internalType":"uint256","name":"verificationVotes","type":"uint256"},{"internalType":"uint256","name":"rejectionVotes","type":"uint256"},{"internalType":"address","name":"currentOwner","type":"address"}],"internalType":"struct PropertyNFT.PropertySummary[]","name":"","type":"tuple[]"}],"stateMutability":"view","type":"function"},{"inputs":[{"internalType":"string","name":"_propertyType","type":"string"}],"name":"getPropertiesByType","outputs":[{"internalType":"uint256[]","name":"","type":"uint256[]"}],"stateMutability":"view","type":"function"},{"inputs":[{"internalType":"address","name":"owner","type":"address"},{"internalType":"address","name":"operator","type":"address"}],"name":"isApprovedForAll","outputs":[{"internalType":"bool","name":"","type":"bool"}],"stateMutability":"view","type":"function"},{"inputs":[{"internalType":"address","name":"_contract","type":"address"}],"name":"isAuthorizedContract","outputs":[{"internalType":"bool","name":"","type":"bool"}],"stateMutability":"view","type":"function"},{"inputs":[],"name":"name","outputs":[{"internalType":"string","name":"","type":"string"}],"stateMutability":"view","type":"function"},{"inputs":[],"name":"owner","outputs":[{"internalType":"address","name":"","type":"address"}],"stateMutability":"view","type":"function"},{"inputs":[{"internalType":"uint256","name":"tokenId","type":"uint256"}],"name":"ownerOf","outputs":[{"internalType":"address","name":"","type":"address"}],"stateMutability":"view","type":"function"},{"inputs":[{"internalType":"address","name":"","type":"address"},{"internalType":"uint256","name":"","type":"uint256"}],"name":"ownerProperties","outputs":[{"internalType":"uint256","name":"","type":"uint256"}],"stateMutability":"view","type":"function"},{"inputs":[{"internalType":"uint256","name":"","type":"uint256"}],"name":"properties","outputs":[{"internalType":"string","name":"propertyAddress","type":"string"},{"internalType":"string","name":"ownerName","type":"string"},{"internalType":"string","name":"propertyType","type":"string"},{"internalType":"uint256","name":"renovationDate","type":"uint256"},{"internalType":"string","name":"imageURI","type":"string"},{"internalType":"int256","name":"latitude","type":"int256"},{"internalType":"int256","name":"longitude","type":"int256"},{"internalType":"bool","name":"isVerified","type":"bool"},{"internalType":"uint256","name":"estimatedValue","type":"uint256"},{"internalType":"uint256","name":"verificationVotes","type":"uint256"},{"internalType":"uint256","name":"rejectionVotes","type":"uint256"},{"internalType":"uint256","name":"locationScore","type":"uint256"},{"internalType":"uint256","name":"sizeScore","type":"uint256"},{"internalType":"uint256","name":"conditionScore","type":"uint256"},{"internalType":"uint256","name":"ageScore","type":"uint256"},{"internalType":"uint256","name":"renovationScore","type":"uint256"},{"internalType":"uint256","name":"comparableValue","type":"uint256"},{"internalType":"uint256","name":"lastValuationUpdate","type":"uint256"}],"stateMutability":"view","type":"function"},{"inputs":[{"internalType":"string","name":"","type":"string"},{"internalType":"uint256","name":"","type":"uint256"}],"name":"propertiesByType","outputs":[{"internalType":"uint256","name":"","type":"uint256"}],"stateMutability":"view","type":"function"},{"inputs":[{"internalType":"uint256","name":"","type":"uint256"},{"internalType":"uint256","name":"","type":"uint256"}],"name":"propertiesByYearRange","outputs":[{"internalType":"uint256","name":"","type":"uint256"}],"stateMutability":"view","type":"function"},{"inputs":[],"name":"renounceOwnership","outputs":[],"stateMutability":"nonpayable","type":"function"},{"inputs":[{"internalType":"address","name":"from","type":"address"},{"internalType":"address","name":"to","type":"address"},{"internalType":"uint256","name":"tokenId","type":"uint256"}],"name":"safeTransferFrom","outputs":[],"stateMutability":"nonpayable","type":"function"},{"inputs":[{"internalType":"address","name":"from","type":"address"},{"internalType":"address","name":"to","type":"address"},{"internalType":"uint256","name":"tokenId","type":"uint256"},{"internalType":"bytes","name":"data","type":"bytes"}],"name":"safeTransferFrom","outputs":[],"stateMutability":"nonpayable","type":"function"},{"inputs":[{"internalType":"address","name":"operator","type":"address"},{"internalType":"bool","name":"approved","type":"bool"}],"name":"setApprovalForAll","outputs":[],"stateMutability":"nonpayable","type":"function"},{"inputs":[{"internalType":"address","name":"_contract","type":"address"},{"internalType":"bool","name":"_authorized","type":"bool"}],"name":"setAuthorizedContract","outputs":[],"stateMutability":"nonpayable","type":"function"},{"inputs":[{"internalType":"string","name":"_propertyAddress","type":"string"},{"internalType":"string","name":"_ownerName","type":"string"},{"internalType":"string","name":"_propertyType","type":"string"},{"internalType":"uint256","name":"_renovationDate","type":"uint256"},{"internalType":"string","name":"_imageURI","type":"string"},{"internalType":"int256","name":"_latitude","type":"int256"},{"internalType":"int256","name":"_longitude","type":"int256"}],"name":"submitProperty","outputs":[{"internalType":"uint256","name":"","type":"uint256"}],"stateMutability":"nonpayable","type":"function"},{"inputs":[{"internalType":"bytes4","name":"interfaceId","type":"bytes4"}],"name":"supportsInterface","outputs":[{"internalType":"bool","name":"","type":"bool"}],"stateMutability":"view","type":"function"},{"inputs":[],"name":"symbol","outputs":[{"internalType":"string","name":"","type":"string"}],"stateMutability":"view","type":"function"},{"inputs":[{"internalType":"uint256","name":"tokenId","type":"uint256"}],"name":"tokenURI","outputs":[{"internalType":"string","name":"","type":"string"}],"stateMutability":"view","type":"function"},{"inputs":[{"internalType":"address","name":"from","type":"address"},{"internalType":"address","name":"to","type":"address"},{"internalType":"uint256","name":"tokenId","type":"uint256"}],"name":"transferFrom","outputs":[],"stateMutability":"nonpayable","type":"function"},{"inputs":[{"internalType":"address","name":"newOwner","type":"address"}],"name":"transferOwnership","outputs":[],"stateMutability":"nonpayable","type":"function"},{"inputs":[{"internalType":"uint256","name":"_tokenId","type":"uint256"},{"internalType":"uint256","name":"_estimatedValue","type":"uint256"},{"internalType":"uint256","name":"_comparableValue","type":"uint256"},{"internalType":"uint256","name":"_locationScore","type":"uint256"},{"internalType":"uint256","name":"_sizeScore","type":"uint256"},{"internalType":"uint256","name":"_conditionScore","type":"uint256"},{"internalType":"uint256","name":"_ageScore","type":"uint256"},{"internalType":"uint256","name":"_renovationScore","type":"uint256"}],"name":"updatePropertyValuation","outputs":[],"stateMutability":"nonpayable","type":"function"},{"inputs":[{"internalType":"uint256","name":"_tokenId","type":"uint256"},{"internalType":"uint256","name":"_newValue","type":"uint256"}],"name":"updatePropertyValue","outputs":[],"stateMutability":"nonpayable","type":"function"},{"inputs":[{"internalType":"uint256","name":"_tokenId","type":"uint256"},{"internalType":"bool","name":"_approve","type":"bool"}],"name":"voteOnProperty","outputs":[],"stateMutability":"nonpayable","type":"function"}],"evm":{"bytecode":{"linkReferences":{},"object":"6080346200035f576001600160401b03906040908082018381118282101762000349578252600b81526020916a141c9bdc195c9d1e53919560aa1b8383015280519381850185811082821117620003495782526004855263050524f560e41b84860152825181811162000349576000948554916001958684811c941680156200033e575b838510146200032a578190601f94858111620002d7575b5083908583116001146200027357899262000267575b5050600019600383901b1c191690861b1786555b8651928311620002535784548581811c9116801562000248575b828210146200023457828111620001ec575b50809183116001146200018357508495829394959262000177575b5050600019600383901b1c191690831b1782555b60068054336001600160a01b03198216811790925591519390916001600160a01b0316907f8be0079c531659141344cd1fd0a4f28419497f9722a3daafe3b4186f6b6457e09080a3600755613c4f9081620003658239f35b0151905038806200010b565b90601f198316968587528287209287905b898210620001d45750508386979896959610620001ba575b505050811b0182556200011f565b015160001960f88460031b161c19169055388080620001ac565b80888596829496860151815501950193019062000194565b8587528187208380860160051c8201928487106200022a575b0160051c019086905b8281106200021e575050620000f0565b8881550186906200020e565b9250819262000205565b634e487b7160e01b87526022600452602487fd5b90607f1690620000de565b634e487b7160e01b86526041600452602486fd5b015190503880620000b0565b898052848a208994509190601f1984168b5b87828210620002c05750508411620002a6575b505050811b018655620000c4565b015160001960f88460031b161c1916905538808062000298565b8385015186558c9790950194938401930162000285565b9091508880528389208580850160051c82019286861062000320575b918a91869594930160051c01915b828110620003115750506200009a565b8b81558594508a910162000301565b92508192620002f3565b634e487b7160e01b88526022600452602488fd5b93607f169362000083565b634e487b7160e01b600052604160045260246000fd5b600080fdfe61012080604052600436101561001457600080fd5b60e090600035821c90816301ffc9a714612b645750806306fdde0314612ac15780630816ebf214612a42578063081812fc14612a24578063095ea7b3146128aa5780630af44108146125fb578063179cd75614611d3357806323b872dd14611d0f5780633f53b43f14611cf357806342842e0e14611cc05780634beac33114611a2957806353fe5c2c146119be5780635bb5c50b146119295780636352211e146118f957806366d0ead31461050e57806370a0823114611862578063715018a61461180557806388f5ab9f146117b75780638c2a27df146117865780638da5cb5b1461175d5780638f48bd5b1461170557806395d89b41146116265780639b7c4b4b1461153f578063a22cb46514611467578063b88d4fde146113e0578063bf13a83414611309578063c87b56dd1461054d578063d5b9221b1461050e578063dfdea265146104f2578063e985e9c51461049c578063f2fa7392146103cc578063f2fde38b146103085763f7b108081461018d57600080fd5b3461030357602036600319011261030357600435600052600b6020526040600020906101b882612f16565b916101c560018201612f16565b60c05280806101d660028201612f16565b946101009586526003820154600483016101ef90612f16565b6005840154608052600684015497600785015460ff16906008860154600987015491600a88015493600b890154958c600c8b015498600d8c01549a600e8d01549c600f01549d601001549e6011015460a05260405180845261024080915283510161025991612bf2565b8251808203906020015260c0519061027091612bf2565b8251808203906040015285519061028691612bf2565b9151606001528d51808203906080015261029f91612bf2565b9c6080518d5160a001528c5160c0015215158b805101528a5101528851610120015287516101400152865161016001528551610180015284516101a0015283516101c0015282516101e001528151610200015260a051815161022001525180910390f35b600080fd5b3461030357602036600319011261030357610321612c17565b610329612fbc565b6001600160a01b0390811690811561037857600654826001600160601b0360a01b821617600655167f8be0079c531659141344cd1fd0a4f28419497f9722a3daafe3b4186f6b6457e0600080a3005b60405162461bcd60e51b815260206004820152602660248201527f4f776e61626c653a206e6577206f776e657220697320746865207a65726f206160448201526564647265737360d01b6064820152608490fd5b34610303576040366003190112610303576103e5612c17565b6103ed612d5a565b906103f6612fbc565b6001600160a01b03169081156104575760207f3213ab8ec2ed122402f038736b41878b69ae9f61f49a7edd0666bce891d29fc99183600052600e825261044c8160406000209060ff801983541691151516179055565b6040519015158152a2005b60405162461bcd60e51b815260206004820152601860248201527f496e76616c696420636f6e7472616374206164647265737300000000000000006044820152606490fd5b34610303576040366003190112610303576104b5612c17565b6104bd612c2d565b9060018060a01b03809116600052600560205260406000209116600052602052602060ff604060002054166040519015158152f35b3461030357600036600319011261030357602060405160028152f35b34610303576020366003190112610303576001600160a01b0361052f612c17565b16600052600e602052602060ff604060002054166040519015158152f35b3461030357602036600319011261030357600435600090815260026020526040902054610584906001600160a01b031615156135ab565b600435600052600b6020526040600020600080600b83015490816112fe575b83600c810154806112e3575b600d82015493846112c8575b600e83015494856112ad575b600f8401549485611294575b8015801561126a575b50506105e960043561386b565b966105f560043561386b565b9560ff6007870154166000146112445760405161061181612da0565b600881526715995c9a599a595960c21b6020820152975b610635600888015461386b565b6010880154909490801561122d5761064c9061386b565b6106e0606860405180937f7b2274726169745f74797065223a2022436f6d70617261626c652056616c756560208301527f222c2022646973706c61795f74797065223a20226e756d626572222c202276616040830152650363ab2911d160d51b60608301526106c5815180926020606686019101612bcf565b8101611f4b60f21b6066820152036048810184520182612dbb565b965b6040516106ee81612d85565b60008152809780611166575b5050806110a5575b5080610fdf575b5080610f1f575b5080610e58575b508015610e41576107279061386b565b6107c2606f60405180937f7b2274726169745f74797065223a20224f766572616c6c2053636f7265222c2060208301527f22646973706c61795f74797065223a2022626f6f73745f70657263656e74616760408301526c032911610113b30b63ab2911d1609d1b60608301526107a7815180926020606d86019101612bcf565b8101611f4b60f21b606d82015203604f810184520182612dbb565b905b60058501546107d2906139ae565b9360068601546107e1906139ae565b9360038701546107f09061386b565b9060098801546107ff9061386b565b95600a89015461080e9061386b565b976040519b8c9a60208c017f7b2274726169745f74797065223a202250726f70657274792054797065222c20905269113b30b63ab2911d101160b11b60408d0152604a8c01600282019061086191613652565b62089f4b60ea1b81527f7b2274726169745f74797065223a20224f776e6572222c202276616c7565223a600382015261101160f11b60238201526108ad91602590910190600101613652565b62089f4b60ea1b81527f7b2274726169745f74797065223a2022566572696669636174696f6e2053746160038201526f3a3ab9911610113b30b63ab2911d101160811b602382015281519161090b9083906033840190602001612bcf565b019662089f4b60ea1b6033890152603688017f7b2274726169745f74797065223a2022457374696d617465642056616c75652290527f2c2022646973706c61795f74797065223a20226e756d626572222c202276616c968760568a01526403ab2911d160dd1b9889607682015281519182607b8301916020019161098e92612bcf565b0193611f4b60f21b968588607b8198015281519182607d830191602001916109b592612bcf565b0181519182607d830191602001916109cc92612bcf565b0181519182607d830191602001916109e392612bcf565b01607d81017f7b2274726169745f74797065223a20224c61746974756465222c2022646973709052609d81017f6c61795f74797065223a20226e756d626572222c202276616c7565223a20000090528151918260bb83019160200191610a4892612bcf565b018260bb82015260bd81017f7b2274726169745f74797065223a20224c6f6e676974756465222c2022646973905260dd81017f706c61795f74797065223a20226e756d626572222c202276616c7565223a200090528151918260fc83019160200191610ab392612bcf565b018160fc82015260fe81017f7b2274726169745f74797065223a202252656e6f766174696f6e204461746522905261011e81017f2c2022646973706c61795f74797065223a202264617465222c202276616c75659052620111d160ed1b61013e82015282519061014193828583019160200191610b2f92612bcf565b01918201527f7b2274726169745f74797065223a2022566572696669636174696f6e20566f746101438201527f6573222c2022646973706c61795f74797065223a20226e756d626572222c20226101638201526703b30b63ab2911d160c51b610183820152845161018b95909190610baf90839088840190602001612bcf565b019384015261018d83017f7b2274726169745f74797065223a202252656a656374696f6e20566f7465732290526101ad8301526101cd8201528151906101d292828483019160200191610c0192612bcf565b01908101607d60f81b9052036101b3810183526101d301610c229083612dbb565b604051938493737b226e616d65223a202250726f7065727479202360601b602086015280519081603487019160200191610c5b92612bcf565b8401603481016201016960ed1b9052603701610c779082613652565b7f222c20226465736372697074696f6e223a202256657269666965642070726f7081527f65727479204e465420726570726573656e74696e67207265616c2065737461746020820152640329030ba160dd1b6040820152610cdb9060450182613652565b680171027bbb732b91d160bd1b8152610cfa9060090160018301613652565b6c1116101134b6b0b3b2911d101160991b8152610d1f91600d90910190600401613652565b7f222c202265787465726e616c5f75726c223a202268747470733a2f2f796f7572815260208101706170702e636f6d2f70726f70657274792f60781b905281519182603183019160200191610d7392612bcf565b0171222c202261747472696275746573223a205b60701b603182015281519182604383019160200191610da592612bcf565b0160438101615d7d60f01b905203602581018252604501610dc69082612dbb565b610dcf90613707565b6040518091602082017f646174613a6170706c69636174696f6e2f6a736f6e3b6261736536342c000000905280519081603d84019160200191610e1192612bcf565b810103601d81018252603d01610e279082612dbb565b60405180916020825260208201610e3d91612bf2565b0390f35b50604051610e4e81612d85565b60008152906107c4565b6072610e69610f189295939561386b565b926040519381610e83869351809260208087019101612bcf565b82017f7b2274726169745f74797065223a202252656e6f766174696f6e2053636f726560208201527f222c2022646973706c61795f74797065223a2022626f6f73745f70657263656e60408201526f03a30b3b2911610113b30b63ab2911d160851b6060820152610efe825180936020607085019101612bcf565b01611f4b60f21b6070820152036052810184520182612dbb565b9189610717565b606b610f30610fd89296939661386b565b926040519381610f4a869351809260208087019101612bcf565b82017f7b2274726169745f74797065223a20224167652053636f7265222c202264697360208201527f706c61795f74797065223a2022626f6f73745f70657263656e74616765222c206040820152680113b30b63ab2911d160bd1b6060820152610fbe825180936020606985019101612bcf565b01611f4b60f21b606982015203604b810184520182612dbb565b928a610710565b6071610ff061109e9297939761386b565b92604051938161100a869351809260208087019101612bcf565b82017f7b2274726169745f74797065223a2022436f6e646974696f6e2053636f72652260208201527f2c2022646973706c61795f74797065223a2022626f6f73745f70657263656e7460408201526e030b3b2911610113b30b63ab2911d1608d1b6060820152611084825180936020606f85019101612bcf565b01611f4b60f21b606f820152036051810184520182612dbb565b938b610709565b606c6110b661115f9298939861386b565b9260405193816110d0869351809260208087019101612bcf565b82017f7b2274726169745f74797065223a202253697a652053636f7265222c2022646960208201527f73706c61795f74797065223a2022626f6f73745f70657263656e74616765222c604082015269010113b30b63ab2911d160b51b6060820152611145825180936020606a85019101612bcf565b01611f4b60f21b606a82015203604c810184520182612dbb565b948c610702565b6112259192985061117860709161386b565b926040519381611192869351809260208087019101612bcf565b82017f7b2274726169745f74797065223a20224c6f636174696f6e2053636f7265222c60208201527f2022646973706c61795f74797065223a2022626f6f73745f70657263656e746160408201526d033b2911610113b30b63ab2911d160951b606082015261120b825180936020606e85019101612bcf565b01611f4b60f21b606e820152036050810184520182612dbb565b958d806106fa565b5060405161123a81612d85565b60008152966106e2565b60405161125081612da0565b600781526650656e64696e6760c81b602082015297610628565b909197945061127e578793049588806105dc565b634e487b7160e01b600052601260045260246000fd5b966112a2866112a892613552565b976135f7565b6105d3565b93956112bc866112c292613552565b966135f7565b936105c7565b92946112d7856112dd92613552565b956135f7565b926105bb565b91936112f2836112f892613552565b946135f7565b916105af565b5090508060016105a3565b3461030357602080600319360112610303576004356001600160401b038111610303578161133e611351923690600401612e2e565b8160405193828580945193849201612bcf565b8101600981520301902060405190818382549182815201908192600052846000209060005b868282106113cc57868661138c82880383612dbb565b604051928392818401908285525180915260408401929160005b8281106113b557505050500390f35b8351855286955093810193928101926001016113a6565b835485529093019260019283019201611376565b34610303576080366003190112610303576113f9612c17565b611401612c2d565b90606435906044356001600160401b0383116103035736602384011215610303576114659361143d611460943690602481600401359101612df7565b9261145061144b843361319a565b6130c1565b61145b838383613262565b613491565b613176565b005b3461030357604036600319011261030357611480612c17565b611488612d5a565b6001600160a01b03909116903382146114fa573360005260056020526040600020826000526020526114ca8160406000209060ff801983541691151516179055565b60405190151581527f17307eab39ab6107e8899845ad3d59bd9653f200f220920489ca2b5937696c3160203392a3005b60405162461bcd60e51b815260206004820152601960248201527f4552433732313a20617070726f766520746f2063616c6c6572000000000000006044820152606490fd5b3461030357600080516020613bfa8339815191526020807f38feca60919cb6c50d2bda77cc786b4121a0ab59fdcbccad58c37f0bc84869e961158036612ec6565b92819361158e839493613060565b6001600160a01b039081163314908115611618575b508015611600575b6115b490613606565b6000848152600260205260409020546115d7906001600160a01b031615156135ab565b83600052600b82526040600020816008820155601142910155604051908152a2604051908152a1005b50336000908152600e8352604090205460ff166115ab565b6006541633149050886115a3565b34610303576000366003190112610303576040516000600180549061164a82612edc565b808552918181169081156116de5750600114611685575b610e3d8461167181860382612dbb565b604051918291602083526020830190612bf2565b600081815292507fb10e2d527612073b26eecdfd717e6a320cf44b4afac2b0732d9fcbe2b7fa0cf65b8284106116c657505050810160200161167182611661565b805460208587018101919091529093019281016116ae565b60ff191660208087019190915292151560051b850190920192506116719150839050611661565b346103035760403660031901126103035761171e612c17565b6001600160a01b03166000908152600d60205260409020805460243591908210156103035760209161174f91612e81565b90546040519160031b1c8152f35b34610303576000366003190112610303576006546040516001600160a01b039091168152602090f35b346103035761179436612ec6565b90600052600a602052604060002080548210156103035760209161174f91612e81565b34610303576020366003190112610303576004356001600160401b0381116103035760ff6117ef602061133e81943690600401612e2e565b8101600c81520301902054166040519015158152f35b346103035760003660031901126103035761181e612fbc565b600680546001600160a01b031981169091556000906001600160a01b03167f8be0079c531659141344cd1fd0a4f28419497f9722a3daafe3b4186f6b6457e08280a3005b34610303576020366003190112610303576001600160a01b03611883612c17565b1680156118a25760005260036020526020604060002054604051908152f35b60405162461bcd60e51b815260206004820152602960248201527f4552433732313a2061646472657373207a65726f206973206e6f7420612076616044820152683634b21037bbb732b960b91b6064820152608490fd5b34610303576020366003190112610303576020611917600435613060565b6040516001600160a01b039091168152f35b3461030357602080600319360112610303576004356001600160401b03811161030357366023820112156103035780600401359061196682612eaf565b916119746040519384612dbb565b80835260248484019160051b8301019136831161030357602401905b8282106119af57610e3d6119a385613a21565b60405191829182612c43565b81358152908401908401611990565b34610303576040366003190112610303576004356001600160401b038111610303576119ee903690600401612e2e565b611a0a6020602435928160405193828580945193849201612bcf565b8101600981520301902080548210156103035760209161174f91612e81565b34610303576101003660031901126103035760043560249081359160649081359160843560a4359060c4359260e43594611a6288613060565b6001600160a01b039081163314908115611cb2575b508015611c99575b611a8890613606565b600088815260026020526040902054611aab906001600160a01b031615156135ab565b818711611c5857818311611c1757818411611bd657818511611b9557818611611b5457600080516020613bfa833981519152602089807f38feca60919cb6c50d2bda77cc786b4121a0ab59fdcbccad58c37f0bc84869e9838e8d8d8d8d8d88600052600b87526040600020948660088701556044356010870155600b860155600c850155600d840155600e830155600f820155601142910155604051908152a2604051908152a1005b601f6040519162461bcd60e51b8352602060048401528201527f52656e6f766174696f6e2073636f7265206d757374206265203c3d20313030006044820152fd5b60186040519162461bcd60e51b8352602060048401528201527f4167652073636f7265206d757374206265203c3d2031303000000000000000006044820152fd5b601e6040519162461bcd60e51b8352602060048401528201527f436f6e646974696f6e2073636f7265206d757374206265203c3d2031303000006044820152fd5b60196040519162461bcd60e51b8352602060048401528201527f53697a652073636f7265206d757374206265203c3d20313030000000000000006044820152fd5b601d6040519162461bcd60e51b8352602060048401528201527f4c6f636174696f6e2073636f7265206d757374206265203c3d203130300000006044820152fd5b50336000908152600e602052604090205460ff16611a7f565b60065416331490508a611a77565b3461030357611465611460611cd436612e4c565b9060405192611ce284612d85565b6000845261145061144b843361319a565b3461030357600036600319011261030357602060405160038152f35b3461030357611465611d2036612e4c565b91611d2e61144b843361319a565b613262565b503461030357366003190112610303576004356001600160401b03811161030357611d62903690600401612e2e565b6024356001600160401b03811161030357611d81903690600401612e2e565b6044356001600160401b03811161030357611da0903690600401612e2e565b906084356001600160401b03811161030357611dc0903690600401612e2e565b928051156125b7578151156125725760ff6040516020818451611de68183858901612bcf565b8101600c815203019020541661252d576008549260018401600855604051611e0d81612d85565b6000815233156124e957600085815260026020526040902054611ecb9161146091611e44906001600160a01b031615155b1561355f565b600087815260026020526040902054611e67906001600160a01b03161515611e3e565b3360005260036020526040600020600181540190558660005260026020526040600020336001600160601b0360a01b825416179055863360007fddf252ad1be2c89b69c2b068fc378daa952ba7f163c4a11628f55a4df523b3ef8180a48633613373565b83600052600b602052604060002082516001600160401b0381116122a657611ef38254612edc565b601f81116124a5575b50806020601f821160011461244157600091612436575b508160011b916000199060031b1c19161781555b83516001600160401b0381116122a657611f446001830154612edc565b601f81116123ef575b50806020601f821160011461238457600091612379575b508160011b916000199060031b1c19161760018201555b81516001600160401b0381116122a657611f986002830154612edc565b601f8111612332575b50806020601f82116001146122c7576000916122bc575b508160011b916000199060031b1c19161760028201555b606435600382015585516001600160401b0381116122a657611ff46004830154612edc565b96601f881161225f575b869750600096959650602090601f83116001146121bc576020612129957f90e8f7c94b32ba9b4e353e2e85be612b1dd84a28d7334362b89e67c1729a2ab1979585612112968b96612103966000926121b1575b50508160011b916000199060031b1c19161760048201555b60a435600582015560c435600682015560006011600783019260ff199384815416905582600882015582600982015582600a82015582600b82015582600c82015582600d82015582600e82015582600f820155826010820155015560016040518481816120dc8c83815193849201612bcf565b8101600c8152030190209182541617905533600052600d825261133e846040600020613518565b81016009815203019020613518565b612138604051928392604084526040840190612bf2565b82810360208401523396612bf2565b0390a3600080516020613bfa8339815191526020604051838152a1606435612166575b602090604051908152f35b6301e1338060643504906107b2820180921161219b57602091600052600a8252612194816040600020613518565b905061215b565b634e487b7160e01b600052601160045260246000fd5b015190503880612051565b906004840160005260206000209160005b601f19851681106122445750612129957f90e8f7c94b32ba9b4e353e2e85be612b1dd84a28d7334362b89e67c1729a2ab197956001868b96612103966020966121129a601f1981161061222b575b505050811b016004820155612069565b015160001960f88460031b161c1916905538808061221b565b8183015184558a9850600190930192602092830192016121cd565b600483016000526020600020601f830160051c81016020841061229f575b601f8a0160051c82018110612293575050611ffe565b6000815560010161227d565b508061227d565b634e487b7160e01b600052604160045260246000fd5b905083015138611fb8565b600284016000908152602081209250601f198416905b81811061231a57509083600194939210612301575b5050811b016002820155611fcf565b85015160001960f88460031b161c1916905538806122f2565b9192602060018192868a0151815501940192016122dd565b600283016000526020600020601f830160051c810160208410612372575b601f830160051c82018110612366575050611fa1565b60008155600101612350565b5080612350565b905085015138611f64565b600184016000908152602081209250601f198416905b8181106123d7575090836001949392106123be575b5050811b016001820155611f7b565b87015160001960f88460031b161c1916905538806123af565b9192602060018192868c01518155019401920161239a565b600183016000526020600020601f830160051c81016020841061242f575b601f830160051c82018110612423575050611f4d565b6000815560010161240d565b508061240d565b905084015138611f13565b6000848152602081209250601f198416905b81811061248d57509083600194939210612474575b5050811b018155611f27565b86015160001960f88460031b161c191690553880612468565b9192602060018192868b015181550194019201612453565b826000526020600020601f830160051c8101602084106124e2575b601f830160051c820181106124d6575050611efc565b600081556001016124c0565b50806124c0565b606460405162461bcd60e51b815260206004820152602060248201527f4552433732313a206d696e7420746f20746865207a65726f20616464726573736044820152fd5b60405162461bcd60e51b815260206004820152601760248201527f50726f706572747920616c7265616479206578697374730000000000000000006044820152606490fd5b60405162461bcd60e51b815260206004820152601a60248201527f4f776e6572206e616d652063616e6e6f7420626520656d7074790000000000006044820152606490fd5b606460405162461bcd60e51b815260206004820152602060248201527f50726f706572747920616464726573732063616e6e6f7420626520656d7074796044820152fd5b3461030357604036600319011261030357600435612617612d5a565b60008281526002602052604090205490919061263d906001600160a01b031615156135ab565b80600052602090600b825260ff600760406000200154166128655780600052600b8252601260406000200133600052825260ff6040600020541661283057336001600160a01b0361268d83613060565b16146127eb5780600052600b82526040600020923360005260128401835260406000209060ff199160018382541617905560001461275d576003600985016126d581546135f7565b80915560405160018152847fe71fcdac32df1877c1700e7bda2a03157e20993363a28fc35ac495cefc76e4d4873393a3101561270d57005b60016007600080516020613bfa833981519152950191825416179055807fafdcc517a26e633f535aa9cebec29f4281ab2ffa922a475b12fd1297ad765bc88360405160018152a2604051908152a1005b5091600a6002910161276f81546135f7565b80915560405160008152847fe71fcdac32df1877c1700e7bda2a03157e20993363a28fc35ac495cefc76e4d4853393a310156127a757005b81600080516020613bfa833981519152927fafdcc517a26e633f535aa9cebec29f4281ab2ffa922a475b12fd1297ad765bc88360405160008152a2604051908152a1005b60405162461bcd60e51b815260048101839052601b60248201527f43616e6e6f7420766f7465206f6e206f776e2070726f706572747900000000006044820152606490fd5b60405162461bcd60e51b815260048101839052600d60248201526c105b1c9958591e481d9bdd1959609a1b6044820152606490fd5b60405162461bcd60e51b815260048101839052601960248201527f50726f706572747920616c7265616479207665726966696564000000000000006044820152606490fd5b34610303576040366003190112610303576128c3612c17565b602435906001600160a01b0380806128da85613060565b169216918083146129d5578033149081156129b0575b501561294557600083815260046020526040902080546001600160a01b0319168317905561291d83613060565b167f8c5be1e5ebec7d5bd14f71427d1e84f3dd0314c0f7b2291e5b200ac8c7c3b925600080a4005b60405162461bcd60e51b815260206004820152603d60248201527f4552433732313a20617070726f76652063616c6c6572206973206e6f7420746f60448201527f6b656e206f776e6572206f7220617070726f76656420666f7220616c6c0000006064820152608490fd5b9050600052600560205260406000203360005260205260ff60406000205416846128f0565b60405162461bcd60e51b815260206004820152602160248201527f4552433732313a20617070726f76616c20746f2063757272656e74206f776e656044820152603960f91b6064820152608490fd5b34610303576020366003190112610303576020611917600435613083565b3461030357602080600319360112610303576001600160a01b03612a64612c17565b16600052600d81526040600020604051918281835491828152019260005281600020916000905b828210612aaa57610e3d6119a387612aa581890382612dbb565b613a21565b835485529384019360019384019390910190612a8b565b346103035760003660031901126103035760405160008054612ae281612edc565b808452906001908181169081156116de5750600114612b0b57610e3d8461167181860382612dbb565b600080805292507f290decd9548b62a8d60345a988386fc84ba6bc95484008f6362f93160ef3e5635b828410612b4c57505050810160200161167182611661565b80546020858701810191909152909301928101612b34565b34610303576020366003190112610303576004359063ffffffff60e01b8216809203610303576020916380ac58cd60e01b8114908115612bbe575b8115612bad575b5015158152f35b6301ffc9a760e01b14905083612ba6565b635b5e139f60e01b81149150612b9f565b60005b838110612be25750506000910152565b8181015183820152602001612bd2565b90602091612c0b81518092818552858086019101612bcf565b601f01601f1916010190565b600435906001600160a01b038216820361030357565b602435906001600160a01b038216820361030357565b602080820190808352835180925260409283810182858560051b8401019601946000925b858410612c78575050505050505090565b909192939495968580600192603f198582030187528a519081518152612cf4612cd7612cc4612cb4868601516101a08089880152860190612bf2565b8a8601518582038c870152612bf2565b6060808601519085830390860152612bf2565b6080808501519084015260a0808501519084830390850152612bf2565b9160c0808201519083015260e08082015190830152610100808201511515908301526101208082015190830152610140808201519083015261016080820151908301526101809081878060a01b0391015116910152990194019401929594939190612c67565b60243590811515820361030357565b6101a081019081106001600160401b038211176122a657604052565b602081019081106001600160401b038211176122a657604052565b604081019081106001600160401b038211176122a657604052565b90601f801991011681019081106001600160401b038211176122a657604052565b6001600160401b0381116122a657601f01601f191660200190565b929192612e0382612ddc565b91612e116040519384612dbb565b829481845281830111610303578281602093846000960137010152565b9080601f8301121561030357816020612e4993359101612df7565b90565b6060906003190112610303576001600160a01b0390600435828116810361030357916024359081168103610303579060443590565b8054821015612e995760005260206000200190600090565b634e487b7160e01b600052603260045260246000fd5b6001600160401b0381116122a65760051b60200190565b6040906003190112610303576004359060243590565b90600182811c92168015612f0c575b6020831014612ef657565b634e487b7160e01b600052602260045260246000fd5b91607f1691612eeb565b9060405191826000825492612f2a84612edc565b908184526001948581169081600014612f995750600114612f56575b5050612f5492500383612dbb565b565b9093915060005260209081600020936000915b818310612f81575050612f5493508201013880612f46565b85548884018501529485019487945091830191612f69565b915050612f5494506020925060ff191682840152151560051b8201013880612f46565b6006546001600160a01b03163303612fd057565b606460405162461bcd60e51b815260206004820152602060248201527f4f776e61626c653a2063616c6c6572206973206e6f7420746865206f776e65726044820152fd5b1561301b57565b60405162461bcd60e51b815260206004820152601860248201527f4552433732313a20696e76616c696420746f6b656e20494400000000000000006044820152606490fd5b6000908152600260205260409020546001600160a01b0316612e49811515613014565b6000818152600260205260409020546130a6906001600160a01b03161515613014565b6000908152600460205260409020546001600160a01b031690565b156130c857565b60405162461bcd60e51b815260206004820152602d60248201527f4552433732313a2063616c6c6572206973206e6f7420746f6b656e206f776e6560448201526c1c881bdc88185c1c1c9bdd9959609a1b6064820152608490fd5b60809060208152603260208201527f4552433732313a207472616e7366657220746f206e6f6e20455243373231526560408201527131b2b4bb32b91034b6b83632b6b2b73a32b960711b60608201520190565b1561317d57565b60405162461bcd60e51b81528061319660048201613123565b0390fd5b906001600160a01b0380806131ae84613060565b169316918383149384156131e1575b5083156131cb575b50505090565b6131d791929350613083565b16143880806131c5565b909350600052600560205260406000208260005260205260ff6040600020541692386131bd565b1561320f57565b60405162461bcd60e51b815260206004820152602560248201527f4552433732313a207472616e736665722066726f6d20696e636f72726563742060448201526437bbb732b960d91b6064820152608490fd5b9061328a9161327084613060565b6001600160a01b0393918416928492909183168414613208565b1691821561332257816132a7916132a086613060565b1614613208565b7fddf252ad1be2c89b69c2b068fc378daa952ba7f163c4a11628f55a4df523b3ef60008481526004602052604081206001600160601b0360a01b9081815416905583825260036020526040822060001981540190558482526040822060018154019055858252600260205284604083209182541617905580a4565b60405162461bcd60e51b8152602060048201526024808201527f4552433732313a207472616e7366657220746f20746865207a65726f206164646044820152637265737360e01b6064820152608490fd5b91929091803b15613488576133c0936040519081630a85bd0160e11b9384825233600483015260009687602484015260448301526080606483015281878160209a8b966084830190612bf2565b03926001600160a01b03165af1849181613444575b50613433575050503d60001461342b573d6133ef81612ddc565b906133fd6040519283612dbb565b81528091833d92013e5b805191826134285760405162461bcd60e51b81528061319660048201613123565b01fd5b506060613407565b6001600160e01b0319161492509050565b9091508581813d8311613481575b61345c8183612dbb565b8101031261347d57516001600160e01b03198116810361347d5790386133d5565b8480fd5b503d613452565b50915050600190565b92939190803b1561350e576134e3946040518092630a85bd0160e11b9485835233600484015260018060a01b03809816602484015260448301526080606483015281806020998a956084830190612bf2565b03916000988991165af18491816134445750613433575050503d60001461342b573d6133ef81612ddc565b5050915050600190565b8054680100000000000000008110156122a65761353a91600182018155612e81565b819291549060031b91821b91600019901b1916179055565b9190820180921161219b57565b1561356657565b60405162461bcd60e51b815260206004820152601c60248201527f4552433732313a20746f6b656e20616c7265616479206d696e746564000000006044820152606490fd5b156135b257565b60405162461bcd60e51b815260206004820152601760248201527f50726f706572747920646f6573206e6f742065786973740000000000000000006044820152606490fd5b600019811461219b5760010190565b1561360d57565b60405162461bcd60e51b815260206004820152601e60248201527f4e6f7420617574686f72697a656420746f207570646174652076616c756500006044820152606490fd5b60009291815461366181612edc565b926001918083169081156136ba575060011461367e575b50505050565b90919293945060005260209081600020906000915b8583106136a95750505050019038808080613678565b805485840152918301918101613693565b60ff1916845250505081151590910201915038808080613678565b906136df82612ddc565b6136ec6040519182612dbb565b82815280926136fd601f1991612ddc565b0190602036910137565b8051156138575760405190606082018281106001600160401b038211176122a657604052604082527f4142434445464748494a4b4c4d4e4f505152535455565758595a61626364656660208301527f6768696a6b6c6d6e6f707172737475767778797a303132333435363738392b2f6040830152805160029182820180921161219b576003918290046001600160fe1b038116810361219b576137ad908495941b6136d5565b936020850193829183518401906020820192835194600085525b8381106138065750505050525106806001146137f3576002146137e8575090565b603d90600019015390565b50603d9081600019820153600119015390565b87600491999293949901918251600190603f9082828260121c16880101518453828282600c1c16880101518385015382828260061c16880101518885015316850101518982015301979291906137c7565b5060405161386481612d85565b6000815290565b806000917a184f03e93ff9f4daa797ed6e38ed64bf6a1f010000000000000000808210156139a0575b506d04ee2d6d415b85acef810000000080831015613991575b50662386f26fc1000080831015613982575b506305f5e10080831015613973575b5061271080831015613964575b506064821015613954575b600a8092101561394a575b6001908160216139028287016136d5565b95860101905b613914575b5050505090565b600019019083906f181899199a1a9b1b9c1cb0b131b232b360811b8282061a83530491821561394557919082613908565b61390d565b91600101916138f1565b91906064600291049101916138e6565b600491939204910191386138db565b600891939204910191386138ce565b601091939204910191386138bf565b602091939204910191386138ad565b604093508104915038613894565b600081126139bf57612e499061386b565b600160ff1b811461219b576139d69060000361386b565b612e4960216040518093602d60f81b60208301526139fd8151809260208686019101612bcf565b8101036001810184520182612dbb565b8051821015612e995760209160051b010190565b908151613a2d81612eaf565b92604091613a3d83519586612dbb565b808552613a4c601f1991612eaf565b0160005b818110613b8757505060005b8151811015613b825780613a73613a979284613a0d565b516000818152600260205260409020546001600160a01b0316613a9c575b506135f7565b613a5c565b80600052602090600b825285806000206003810154906005810154600682015460ff60078401541691613b2e6004600886015495600981015497600a82015499613ae58c613060565b9b81519d8e91613af483612d69565b8252613aff85612f16565b910152613b0e60018401612f16565b908d0152613b1e60028301612f16565b60608d015260808c015201612f16565b60a089015260c088015260e087015215156101008601526101208501526101408401526101608301526001600160a01b0316610180820152613b708288613a0d565b52613b7b8187613a0d565b5038613a91565b505050565b6020908451613b9581612d69565b60008152606083908082840152808884015280808401526000608084015260a0830152600060c0830152600060e083015260006101008301526000610120830152600061014083015260006101608301526000610180830152828901015201613a5056fef8e1a15aba9398e019f0b49df1a4fde98ee17ae345cb5f6b5e2c27f5033e8ce7a2646970667358221220de74f291634c164027f622d15a17d82db6b67ea1f2d68c959f3c2777d89aadca64736f6c63430008140033","opcodes":"PUSH1 0x80 CALLVALUE PUSH3 0x35F JUMPI PUSH1 0x1 PUSH1 0x1 PUSH1 0x40 SHL SUB SWAP1 PUSH1 0x40 SWAP1 DUP1 DUP3 ADD DUP4 DUP2 GT DUP3 DUP3 LT OR PUSH3 0x349 JUMPI DUP3 MSTORE PUSH1 0xB DUP2 MSTORE PUSH1 0x20 SWAP2 PUSH11 0x141C9BDC195C9D1E539195 PUSH1 0xAA SHL DUP4 DUP4 ADD MSTORE DUP1 MLOAD SWAP4 DUP2 DUP6 ADD DUP6 DUP2 LT DUP3 DUP3 GT OR PUSH3 0x349 JUMPI DUP3 MSTORE PUSH1 0x4 DUP6 MSTORE PUSH4 0x50524F5 PUSH1 0xE4 SHL DUP5 DUP7 ADD MSTORE DUP3 MLOAD DUP2 DUP2 GT PUSH3 0x349 JUMPI PUSH1 0x0 SWAP5 DUP6 SLOAD SWAP2 PUSH1 0x1 SWAP6 DUP7 DUP5 DUP2 SHR SWAP5 AND DUP1 ISZERO PUSH3 0x33E JUMPI JUMPDEST DUP4 DUP6 LT EQ PUSH3 0x32A JUMPI DUP2 SWAP1 PUSH1 0x1F SWAP5 DUP6 DUP2 GT PUSH3 0x2D7 JUMPI JUMPDEST POP DUP4 SWAP1 DUP6 DUP4 GT PUSH1 0x1 EQ PUSH3 0x273 JUMPI DUP10 SWAP3 PUSH3 0x267 JUMPI JUMPDEST POP POP PUSH1 0x0 NOT PUSH1 0x3 DUP4 SWAP1 SHL SHR NOT AND SWAP1 DUP7 SHL OR DUP7 SSTORE JUMPDEST DUP7 MLOAD SWAP3 DUP4 GT PUSH3 0x253 JUMPI DUP5 SLOAD DUP6 DUP2 DUP2 SHR SWAP2 AND DUP1 ISZERO PUSH3 0x248 JUMPI JUMPDEST DUP3 DUP3 LT EQ PUSH3 0x234 JUMPI DUP3 DUP2 GT PUSH3 0x1EC JUMPI JUMPDEST POP DUP1 SWAP2 DUP4 GT PUSH1 0x1 EQ PUSH3 0x183 JUMPI POP DUP5 SWAP6 DUP3 SWAP4 SWAP5 SWAP6 SWAP3 PUSH3 0x177 JUMPI JUMPDEST POP POP PUSH1 0x0 NOT PUSH1 0x3 DUP4 SWAP1 SHL SHR NOT AND SWAP1 DUP4 SHL OR DUP3 SSTORE JUMPDEST PUSH1 0x6 DUP1 SLOAD CALLER PUSH1 0x1 PUSH1 0x1 PUSH1 0xA0 SHL SUB NOT DUP3 AND DUP2 OR SWAP1 SWAP3 SSTORE SWAP2 MLOAD SWAP4 SWAP1 SWAP2 PUSH1 0x1 PUSH1 0x1 PUSH1 0xA0 SHL SUB AND SWAP1 PUSH32 0x8BE0079C531659141344CD1FD0A4F28419497F9722A3DAAFE3B4186F6B6457E0 SWAP1 DUP1 LOG3 PUSH1 0x7 SSTORE PUSH2 0x3C4F SWAP1 DUP2 PUSH3 0x365 DUP3 CODECOPY RETURN JUMPDEST ADD MLOAD SWAP1 POP CODESIZE DUP1 PUSH3 0x10B JUMP JUMPDEST SWAP1 PUSH1 0x1F NOT DUP4 AND SWAP7 DUP6 DUP8 MSTORE DUP3 DUP8 KECCAK256 SWAP3 DUP8 SWAP1 JUMPDEST DUP10 DUP3 LT PUSH3 0x1D4 JUMPI POP POP DUP4 DUP7 SWAP8 SWAP9 SWAP7 SWAP6 SWAP7 LT PUSH3 0x1BA JUMPI JUMPDEST POP POP POP DUP2 SHL ADD DUP3 SSTORE PUSH3 0x11F JUMP JUMPDEST ADD MLOAD PUSH1 0x0 NOT PUSH1 0xF8 DUP5 PUSH1 0x3 SHL AND SHR NOT AND SWAP1 SSTORE CODESIZE DUP1 DUP1 PUSH3 0x1AC JUMP JUMPDEST DUP1 DUP9 DUP6 SWAP7 DUP3 SWAP5 SWAP7 DUP7 ADD MLOAD DUP2 SSTORE ADD SWAP6 ADD SWAP4 ADD SWAP1 PUSH3 0x194 JUMP JUMPDEST DUP6 DUP8 MSTORE DUP2 DUP8 KECCAK256 DUP4 DUP1 DUP7 ADD PUSH1 0x5 SHR DUP3 ADD SWAP3 DUP5 DUP8 LT PUSH3 0x22A JUMPI JUMPDEST ADD PUSH1 0x5 SHR ADD SWAP1 DUP7 SWAP1 JUMPDEST DUP3 DUP2 LT PUSH3 0x21E JUMPI POP POP PUSH3 0xF0 JUMP JUMPDEST DUP9 DUP2 SSTORE ADD DUP7 SWAP1 PUSH3 0x20E JUMP JUMPDEST SWAP3 POP DUP2 SWAP3 PUSH3 0x205 JUMP JUMPDEST PUSH4 0x4E487B71 PUSH1 0xE0 SHL DUP8 MSTORE PUSH1 0x22 PUSH1 0x4 MSTORE PUSH1 0x24 DUP8 REVERT JUMPDEST SWAP1 PUSH1 0x7F AND SWAP1 PUSH3 0xDE JUMP JUMPDEST PUSH4 0x4E487B71 PUSH1 0xE0 SHL DUP7 MSTORE PUSH1 0x41 PUSH1 0x4 MSTORE PUSH1 0x24 DUP7 REVERT JUMPDEST ADD MLOAD SWAP1 POP CODESIZE DUP1 PUSH3 0xB0 JUMP JUMPDEST DUP10 DUP1 MSTORE DUP5 DUP11 KECCAK256 DUP10 SWAP5 POP SWAP2 SWAP1 PUSH1 0x1F NOT DUP5 AND DUP12 JUMPDEST DUP8 DUP3 DUP3 LT PUSH3 0x2C0 JUMPI POP POP DUP5 GT PUSH3 0x2A6 JUMPI JUMPDEST POP POP POP DUP2 SHL ADD DUP7 SSTORE PUSH3 0xC4 JUMP JUMPDEST ADD MLOAD PUSH1 0x0 NOT PUSH1 0xF8 DUP5 PUSH1 0x3 SHL AND SHR NOT AND SWAP1 SSTORE CODESIZE DUP1 DUP1 PUSH3 0x298 JUMP JUMPDEST DUP4 DUP6 ADD MLOAD DUP7 SSTORE DUP13 SWAP8 SWAP1 SWAP6 ADD SWAP5 SWAP4 DUP5 ADD SWAP4 ADD PUSH3 0x285 JUMP JUMPDEST SWAP1 SWAP2 POP DUP9 DUP1 MSTORE DUP4 DUP10 KECCAK256 DUP6 DUP1 DUP6 ADD PUSH1 0x5 SHR DUP3 ADD SWAP3 DUP7 DUP7 LT PUSH3 0x320 JUMPI JUMPDEST SWAP2 DUP11 SWAP2 DUP7 SWAP6 SWAP5 SWAP4 ADD PUSH1 0x5 SHR ADD SWAP2 JUMPDEST DUP3 DUP2 LT PUSH3 0x311 JUMPI POP POP PUSH3 0x9A JUMP JUMPDEST DUP12 DUP2 SSTORE DUP6 SWAP5 POP DUP11 SWAP2 ADD PUSH3 0x301 JUMP JUMPDEST SWAP3 POP DUP2 SWAP3 PUSH3 0x2F3 JUMP JUMPDEST PUSH4 0x4E487B71 PUSH1 0xE0 SHL DUP9 MSTORE PUSH1 0x22 PUSH1 0x4 MSTORE PUSH1 0x24 DUP9 REVERT JUMPDEST SWAP4 PUSH1 0x7F AND SWAP4 PUSH3 0x83 JUMP JUMPDEST PUSH4 0x4E487B71 PUSH1 0xE0 SHL PUSH1 0x0 MSTORE PUSH1 0x41 PUSH1 0x4 MSTORE PUSH1 0x24 PUSH1 0x0 REVERT JUMPDEST PUSH1 0x0 DUP1 REVERT INVALID PUSH2 0x120 DUP1 PUSH1 0x40 MSTORE PUSH1 0x4 CALLDATASIZE LT ISZERO PUSH2 0x14 JUMPI PUSH1 0x0 DUP1 REVERT JUMPDEST PUSH1 0xE0 SWAP1 PUSH1 0x0 CALLDATALOAD DUP3 SHR SWAP1 DUP2 PUSH4 0x1FFC9A7 EQ PUSH2 0x2B64 JUMPI POP DUP1 PUSH4 0x6FDDE03 EQ PUSH2 0x2AC1 JUMPI DUP1 PUSH4 0x816EBF2 EQ PUSH2 0x2A42 JUMPI DUP1 PUSH4 0x81812FC EQ PUSH2 0x2A24 JUMPI DUP1 PUSH4 0x95EA7B3 EQ PUSH2 0x28AA JUMPI DUP1 PUSH4 0xAF44108 EQ PUSH2 0x25FB JUMPI DUP1 PUSH4 0x179CD756 EQ PUSH2 0x1D33 JUMPI DUP1 PUSH4 0x23B872DD EQ PUSH2 0x1D0F JUMPI DUP1 PUSH4 0x3F53B43F EQ PUSH2 0x1CF3 JUMPI DUP1 PUSH4 0x42842E0E EQ PUSH2 0x1CC0 JUMPI DUP1 PUSH4 0x4BEAC331 EQ PUSH2 0x1A29 JUMPI DUP1 PUSH4 0x53FE5C2C EQ PUSH2 0x19BE JUMPI DUP1 PUSH4 0x5BB5C50B EQ PUSH2 0x1929 JUMPI DUP1 PUSH4 0x6352211E EQ PUSH2 0x18F9 JUMPI DUP1 PUSH4 0x66D0EAD3 EQ PUSH2 0x50E JUMPI DUP1 PUSH4 0x70A08231 EQ PUSH2 0x1862 JUMPI DUP1 PUSH4 0x715018A6 EQ PUSH2 0x1805 JUMPI DUP1 PUSH4 0x88F5AB9F EQ PUSH2 0x17B7 JUMPI DUP1 PUSH4 0x8C2A27DF EQ PUSH2 0x1786 JUMPI DUP1 PUSH4 0x8DA5CB5B EQ PUSH2 0x175D JUMPI DUP1 PUSH4 0x8F48BD5B EQ PUSH2 0x1705 JUMPI DUP1 PUSH4 0x95D89B41 EQ PUSH2 0x1626 JUMPI DUP1 PUSH4 0x9B7C4B4B EQ PUSH2 0x153F JUMPI DUP1 PUSH4 0xA22CB465 EQ PUSH2 0x1467 JUMPI DUP1 PUSH4 0xB88D4FDE EQ PUSH2 0x13E0 JUMPI DUP1 PUSH4 0xBF13A834 EQ PUSH2 0x1309 JUMPI DUP1 PUSH4 0xC87B56DD EQ PUSH2 0x54D JUMPI DUP1 PUSH4 0xD5B9221B EQ PUSH2 0x50E JUMPI DUP1 PUSH4 0xDFDEA265 EQ PUSH2 0x4F2 JUMPI DUP1 PUSH4 0xE985E9C5 EQ PUSH2 0x49C JUMPI DUP1 PUSH4 0xF2FA7392 EQ PUSH2 0x3CC JUMPI DUP1 PUSH4 0xF2FDE38B EQ PUSH2 0x308 JUMPI PUSH4 0xF7B10808 EQ PUSH2 0x18D JUMPI PUSH1 0x0 DUP1 REVERT JUMPDEST CALLVALUE PUSH2 0x303 JUMPI PUSH1 0x20 CALLDATASIZE PUSH1 0x3 NOT ADD SLT PUSH2 0x303 JUMPI PUSH1 0x4 CALLDATALOAD PUSH1 0x0 MSTORE PUSH1 0xB PUSH1 0x20 MSTORE PUSH1 0x40 PUSH1 0x0 KECCAK256 SWAP1 PUSH2 0x1B8 DUP3 PUSH2 0x2F16 JUMP JUMPDEST SWAP2 PUSH2 0x1C5 PUSH1 0x1 DUP3 ADD PUSH2 0x2F16 JUMP JUMPDEST PUSH1 0xC0 MSTORE DUP1 DUP1 PUSH2 0x1D6 PUSH1 0x2 DUP3 ADD PUSH2 0x2F16 JUMP JUMPDEST SWAP5 PUSH2 0x100 SWAP6 DUP7 MSTORE PUSH1 0x3 DUP3 ADD SLOAD PUSH1 0x4 DUP4 ADD PUSH2 0x1EF SWAP1 PUSH2 0x2F16 JUMP JUMPDEST PUSH1 0x5 DUP5 ADD SLOAD PUSH1 0x80 MSTORE PUSH1 0x6 DUP5 ADD SLOAD SWAP8 PUSH1 0x7 DUP6 ADD SLOAD PUSH1 0xFF AND SWAP1 PUSH1 0x8 DUP7 ADD SLOAD PUSH1 0x9 DUP8 ADD SLOAD SWAP2 PUSH1 0xA DUP9 ADD SLOAD SWAP4 PUSH1 0xB DUP10 ADD SLOAD SWAP6 DUP13 PUSH1 0xC DUP12 ADD SLOAD SWAP9 PUSH1 0xD DUP13 ADD SLOAD SWAP11 PUSH1 0xE DUP14 ADD SLOAD SWAP13 PUSH1 0xF ADD SLOAD SWAP14 PUSH1 0x10 ADD SLOAD SWAP15 PUSH1 0x11 ADD SLOAD PUSH1 0xA0 MSTORE PUSH1 0x40 MLOAD DUP1 DUP5 MSTORE PUSH2 0x240 DUP1 SWAP2 MSTORE DUP4 MLOAD ADD PUSH2 0x259 SWAP2 PUSH2 0x2BF2 JUMP JUMPDEST DUP3 MLOAD DUP1 DUP3 SUB SWAP1 PUSH1 0x20 ADD MSTORE PUSH1 0xC0 MLOAD SWAP1 PUSH2 0x270 SWAP2 PUSH2 0x2BF2 JUMP JUMPDEST DUP3 MLOAD DUP1 DUP3 SUB SWAP1 PUSH1 0x40 ADD MSTORE DUP6 MLOAD SWAP1 PUSH2 0x286 SWAP2 PUSH2 0x2BF2 JUMP JUMPDEST SWAP2 MLOAD PUSH1 0x60 ADD MSTORE DUP14 MLOAD DUP1 DUP3 SUB SWAP1 PUSH1 0x80 ADD MSTORE PUSH2 0x29F SWAP2 PUSH2 0x2BF2 JUMP JUMPDEST SWAP13 PUSH1 0x80 MLOAD DUP14 MLOAD PUSH1 0xA0 ADD MSTORE DUP13 MLOAD PUSH1 0xC0 ADD MSTORE ISZERO ISZERO DUP12 DUP1 MLOAD ADD MSTORE DUP11 MLOAD ADD MSTORE DUP9 MLOAD PUSH2 0x120 ADD MSTORE DUP8 MLOAD PUSH2 0x140 ADD MSTORE DUP7 MLOAD PUSH2 0x160 ADD MSTORE DUP6 MLOAD PUSH2 0x180 ADD MSTORE DUP5 MLOAD PUSH2 0x1A0 ADD MSTORE DUP4 MLOAD PUSH2 0x1C0 ADD MSTORE DUP3 MLOAD PUSH2 0x1E0 ADD MSTORE DUP2 MLOAD PUSH2 0x200 ADD MSTORE PUSH1 0xA0 MLOAD DUP2 MLOAD PUSH2 0x220 ADD MSTORE MLOAD DUP1 SWAP2 SUB SWAP1 RETURN JUMPDEST PUSH1 0x0 DUP1 REVERT JUMPDEST CALLVALUE PUSH2 0x303 JUMPI PUSH1 0x20 CALLDATASIZE PUSH1 0x3 NOT ADD SLT PUSH2 0x303 JUMPI PUSH2 0x321 PUSH2 0x2C17 JUMP JUMPDEST PUSH2 0x329 PUSH2 0x2FBC JUMP JUMPDEST PUSH1 0x1 PUSH1 0x1 PUSH1 0xA0 SHL SUB SWAP1 DUP2 AND SWAP1 DUP2 ISZERO PUSH2 0x378 JUMPI PUSH1 0x6 SLOAD DUP3 PUSH1 0x1 PUSH1 0x1 PUSH1 0x60 SHL SUB PUSH1 0xA0 SHL DUP3 AND OR PUSH1 0x6 SSTORE AND PUSH32 0x8BE0079C531659141344CD1FD0A4F28419497F9722A3DAAFE3B4186F6B6457E0 PUSH1 0x0 DUP1 LOG3 STOP JUMPDEST PUSH1 0x40 MLOAD PUSH3 0x461BCD PUSH1 0xE5 SHL DUP2 MSTORE PUSH1 0x20 PUSH1 0x4 DUP3 ADD MSTORE PUSH1 0x26 PUSH1 0x24 DUP3 ADD MSTORE PUSH32 0x4F776E61626C653A206E6577206F776E657220697320746865207A65726F2061 PUSH1 0x44 DUP3 ADD MSTORE PUSH6 0x646472657373 PUSH1 0xD0 SHL PUSH1 0x64 DUP3 ADD MSTORE PUSH1 0x84 SWAP1 REVERT JUMPDEST CALLVALUE PUSH2 0x303 JUMPI PUSH1 0x40 CALLDATASIZE PUSH1 0x3 NOT ADD SLT PUSH2 0x303 JUMPI PUSH2 0x3E5 PUSH2 0x2C17 JUMP JUMPDEST PUSH2 0x3ED PUSH2 0x2D5A JUMP JUMPDEST SWAP1 PUSH2 0x3F6 PUSH2 0x2FBC JUMP JUMPDEST PUSH1 0x1 PUSH1 0x1 PUSH1 0xA0 SHL SUB AND SWAP1 DUP2 ISZERO PUSH2 0x457 JUMPI PUSH1 0x20 PUSH32 0x3213AB8EC2ED122402F038736B41878B69AE9F61F49A7EDD0666BCE891D29FC9 SWAP2 DUP4 PUSH1 0x0 MSTORE PUSH1 0xE DUP3 MSTORE PUSH2 0x44C DUP2 PUSH1 0x40 PUSH1 0x0 KECCAK256 SWAP1 PUSH1 0xFF DUP1 NOT DUP4 SLOAD AND SWAP2 ISZERO ISZERO AND OR SWAP1 SSTORE JUMP JUMPDEST PUSH1 0x40 MLOAD SWAP1 ISZERO ISZERO DUP2 MSTORE LOG2 STOP JUMPDEST PUSH1 0x40 MLOAD PUSH3 0x461BCD PUSH1 0xE5 SHL DUP2 MSTORE PUSH1 0x20 PUSH1 0x4 DUP3 ADD MSTORE PUSH1 0x18 PUSH1 0x24 DUP3 ADD MSTORE PUSH32 0x496E76616C696420636F6E747261637420616464726573730000000000000000 PUSH1 0x44 DUP3 ADD MSTORE PUSH1 0x64 SWAP1 REVERT JUMPDEST CALLVALUE PUSH2 0x303 JUMPI PUSH1 0x40 CALLDATASIZE PUSH1 0x3 NOT ADD SLT PUSH2 0x303 JUMPI PUSH2 0x4B5 PUSH2 0x2C17 JUMP JUMPDEST PUSH2 0x4BD PUSH2 0x2C2D JUMP JUMPDEST SWAP1 PUSH1 0x1 DUP1 PUSH1 0xA0 SHL SUB DUP1 SWAP2 AND PUSH1 0x0 MSTORE PUSH1 0x5 PUSH1 0x20 MSTORE PUSH1 0x40 PUSH1 0x0 KECCAK256 SWAP2 AND PUSH1 0x0 MSTORE PUSH1 0x20 MSTORE PUSH1 0x20 PUSH1 0xFF PUSH1 0x40 PUSH1 0x0 KECCAK256 SLOAD AND PUSH1 0x40 MLOAD SWAP1 ISZERO ISZERO DUP2 MSTORE RETURN JUMPDEST CALLVALUE PUSH2 0x303 JUMPI PUSH1 0x0 CALLDATASIZE PUSH1 0x3 NOT ADD SLT PUSH2 0x303 JUMPI PUSH1 0x20 PUSH1 0x40 MLOAD PUSH1 0x2 DUP2 MSTORE RETURN JUMPDEST CALLVALUE PUSH2 0x303 JUMPI PUSH1 0x20 CALLDATASIZE PUSH1 0x3 NOT ADD SLT PUSH2 0x303 JUMPI PUSH1 0x1 PUSH1 0x1 PUSH1 0xA0 SHL SUB PUSH2 0x52F PUSH2 0x2C17 JUMP JUMPDEST AND PUSH1 0x0 MSTORE PUSH1 0xE PUSH1 0x20 MSTORE PUSH1 0x20 PUSH1 0xFF PUSH1 0x40 PUSH1 0x0 KECCAK256 SLOAD AND PUSH1 0x40 MLOAD SWAP1 ISZERO ISZERO DUP2 MSTORE RETURN JUMPDEST CALLVALUE PUSH2 0x303 JUMPI PUSH1 0x20 CALLDATASIZE PUSH1 0x3 NOT ADD SLT PUSH2 0x303 JUMPI PUSH1 0x4 CALLDATALOAD PUSH1 0x0 SWAP1 DUP2 MSTORE PUSH1 0x2 PUSH1 0x20 MSTORE PUSH1 0x40 SWAP1 KECCAK256 SLOAD PUSH2 0x584 SWAP1 PUSH1 0x1 PUSH1 0x1 PUSH1 0xA0 SHL SUB AND ISZERO ISZERO PUSH2 0x35AB JUMP JUMPDEST PUSH1 0x4 CALLDATALOAD PUSH1 0x0 MSTORE PUSH1 0xB PUSH1 0x20 MSTORE PUSH1 0x40 PUSH1 0x0 KECCAK256 PUSH1 0x0 DUP1 PUSH1 0xB DUP4 ADD SLOAD SWAP1 DUP2 PUSH2 0x12FE JUMPI JUMPDEST DUP4 PUSH1 0xC DUP2 ADD SLOAD DUP1 PUSH2 0x12E3 JUMPI JUMPDEST PUSH1 0xD DUP3 ADD SLOAD SWAP4 DUP5 PUSH2 0x12C8 JUMPI JUMPDEST PUSH1 0xE DUP4 ADD SLOAD SWAP5 DUP6 PUSH2 0x12AD JUMPI JUMPDEST PUSH1 0xF DUP5 ADD SLOAD SWAP5 DUP6 PUSH2 0x1294 JUMPI JUMPDEST DUP1 ISZERO DUP1 ISZERO PUSH2 0x126A JUMPI JUMPDEST POP POP PUSH2 0x5E9 PUSH1 0x4 CALLDATALOAD PUSH2 0x386B JUMP JUMPDEST SWAP7 PUSH2 0x5F5 PUSH1 0x4 CALLDATALOAD PUSH2 0x386B JUMP JUMPDEST SWAP6 PUSH1 0xFF PUSH1 0x7 DUP8 ADD SLOAD AND PUSH1 0x0 EQ PUSH2 0x1244 JUMPI PUSH1 0x40 MLOAD PUSH2 0x611 DUP2 PUSH2 0x2DA0 JUMP JUMPDEST PUSH1 0x8 DUP2 MSTORE PUSH8 0x15995C9A599A5959 PUSH1 0xC2 SHL PUSH1 0x20 DUP3 ADD MSTORE SWAP8 JUMPDEST PUSH2 0x635 PUSH1 0x8 DUP9 ADD SLOAD PUSH2 0x386B JUMP JUMPDEST PUSH1 0x10 DUP9 ADD SLOAD SWAP1 SWAP5 SWAP1 DUP1 ISZERO PUSH2 0x122D JUMPI PUSH2 0x64C SWAP1 PUSH2 0x386B JUMP JUMPDEST PUSH2 0x6E0 PUSH1 0x68 PUSH1 0x40 MLOAD DUP1 SWAP4 PUSH32 0x7B2274726169745F74797065223A2022436F6D70617261626C652056616C7565 PUSH1 0x20 DUP4 ADD MSTORE PUSH32 0x222C2022646973706C61795F74797065223A20226E756D626572222C20227661 PUSH1 0x40 DUP4 ADD MSTORE PUSH6 0x363AB2911D1 PUSH1 0xD5 SHL PUSH1 0x60 DUP4 ADD MSTORE PUSH2 0x6C5 DUP2 MLOAD DUP1 SWAP3 PUSH1 0x20 PUSH1 0x66 DUP7 ADD SWAP2 ADD PUSH2 0x2BCF JUMP JUMPDEST DUP2 ADD PUSH2 0x1F4B PUSH1 0xF2 SHL PUSH1 0x66 DUP3 ADD MSTORE SUB PUSH1 0x48 DUP2 ADD DUP5 MSTORE ADD DUP3 PUSH2 0x2DBB JUMP JUMPDEST SWAP7 JUMPDEST PUSH1 0x40 MLOAD PUSH2 0x6EE DUP2 PUSH2 0x2D85 JUMP JUMPDEST PUSH1 0x0 DUP2 MSTORE DUP1 SWAP8 DUP1 PUSH2 0x1166 JUMPI JUMPDEST POP POP DUP1 PUSH2 0x10A5 JUMPI JUMPDEST POP DUP1 PUSH2 0xFDF JUMPI JUMPDEST POP DUP1 PUSH2 0xF1F JUMPI JUMPDEST POP DUP1 PUSH2 0xE58 JUMPI JUMPDEST POP DUP1 ISZERO PUSH2 0xE41 JUMPI PUSH2 0x727 SWAP1 PUSH2 0x386B JUMP JUMPDEST PUSH2 0x7C2 PUSH1 0x6F PUSH1 0x40 MLOAD DUP1 SWAP4 PUSH32 0x7B2274726169745F74797065223A20224F766572616C6C2053636F7265222C20 PUSH1 0x20 DUP4 ADD MSTORE PUSH32 0x22646973706C61795F74797065223A2022626F6F73745F70657263656E746167 PUSH1 0x40 DUP4 ADD MSTORE PUSH13 0x32911610113B30B63AB2911D1 PUSH1 0x9D SHL PUSH1 0x60 DUP4 ADD MSTORE PUSH2 0x7A7 DUP2 MLOAD DUP1 SWAP3 PUSH1 0x20 PUSH1 0x6D DUP7 ADD SWAP2 ADD PUSH2 0x2BCF JUMP JUMPDEST DUP2 ADD PUSH2 0x1F4B PUSH1 0xF2 SHL PUSH1 0x6D DUP3 ADD MSTORE SUB PUSH1 0x4F DUP2 ADD DUP5 MSTORE ADD DUP3 PUSH2 0x2DBB JUMP JUMPDEST SWAP1 JUMPDEST PUSH1 0x5 DUP6 ADD SLOAD PUSH2 0x7D2 SWAP1 PUSH2 0x39AE JUMP JUMPDEST SWAP4 PUSH1 0x6 DUP7 ADD SLOAD PUSH2 0x7E1 SWAP1 PUSH2 0x39AE JUMP JUMPDEST SWAP4 PUSH1 0x3 DUP8 ADD SLOAD PUSH2 0x7F0 SWAP1 PUSH2 0x386B JUMP JUMPDEST SWAP1 PUSH1 0x9 DUP9 ADD SLOAD PUSH2 0x7FF SWAP1 PUSH2 0x386B JUMP JUMPDEST SWAP6 PUSH1 0xA DUP10 ADD SLOAD PUSH2 0x80E SWAP1 PUSH2 0x386B JUMP JUMPDEST SWAP8 PUSH1 0x40 MLOAD SWAP12 DUP13 SWAP11 PUSH1 0x20 DUP13 ADD PUSH32 0x7B2274726169745F74797065223A202250726F70657274792054797065222C20 SWAP1 MSTORE PUSH10 0x113B30B63AB2911D1011 PUSH1 0xB1 SHL PUSH1 0x40 DUP14 ADD MSTORE PUSH1 0x4A DUP13 ADD PUSH1 0x2 DUP3 ADD SWAP1 PUSH2 0x861 SWAP2 PUSH2 0x3652 JUMP JUMPDEST PUSH3 0x89F4B PUSH1 0xEA SHL DUP2 MSTORE PUSH32 0x7B2274726169745F74797065223A20224F776E6572222C202276616C7565223A PUSH1 0x3 DUP3 ADD MSTORE PUSH2 0x1011 PUSH1 0xF1 SHL PUSH1 0x23 DUP3 ADD MSTORE PUSH2 0x8AD SWAP2 PUSH1 0x25 SWAP1 SWAP2 ADD SWAP1 PUSH1 0x1 ADD PUSH2 0x3652 JUMP JUMPDEST PUSH3 0x89F4B PUSH1 0xEA SHL DUP2 MSTORE PUSH32 0x7B2274726169745F74797065223A2022566572696669636174696F6E20537461 PUSH1 0x3 DUP3 ADD MSTORE PUSH16 0x3A3AB9911610113B30B63AB2911D1011 PUSH1 0x81 SHL PUSH1 0x23 DUP3 ADD MSTORE DUP2 MLOAD SWAP2 PUSH2 0x90B SWAP1 DUP4 SWAP1 PUSH1 0x33 DUP5 ADD SWAP1 PUSH1 0x20 ADD PUSH2 0x2BCF JUMP JUMPDEST ADD SWAP7 PUSH3 0x89F4B PUSH1 0xEA SHL PUSH1 0x33 DUP10 ADD MSTORE PUSH1 0x36 DUP9 ADD PUSH32 0x7B2274726169745F74797065223A2022457374696D617465642056616C756522 SWAP1 MSTORE PUSH32 0x2C2022646973706C61795F74797065223A20226E756D626572222C202276616C SWAP7 DUP8 PUSH1 0x56 DUP11 ADD MSTORE PUSH5 0x3AB2911D1 PUSH1 0xDD SHL SWAP9 DUP10 PUSH1 0x76 DUP3 ADD MSTORE DUP2 MLOAD SWAP2 DUP3 PUSH1 0x7B DUP4 ADD SWAP2 PUSH1 0x20 ADD SWAP2 PUSH2 0x98E SWAP3 PUSH2 0x2BCF JUMP JUMPDEST ADD SWAP4 PUSH2 0x1F4B PUSH1 0xF2 SHL SWAP7 DUP6 DUP9 PUSH1 0x7B DUP2 SWAP9 ADD MSTORE DUP2 MLOAD SWAP2 DUP3 PUSH1 0x7D DUP4 ADD SWAP2 PUSH1 0x20 ADD SWAP2 PUSH2 0x9B5 SWAP3 PUSH2 0x2BCF JUMP JUMPDEST ADD DUP2 MLOAD SWAP2 DUP3 PUSH1 0x7D DUP4 ADD SWAP2 PUSH1 0x20 ADD SWAP2 PUSH2 0x9CC SWAP3 PUSH2 0x2BCF JUMP JUMPDEST ADD DUP2 MLOAD SWAP2 DUP3 PUSH1 0x7D DUP4 ADD SWAP2 PUSH1 0x20 ADD SWAP2 PUSH2 0x9E3 SWAP3 PUSH2 0x2BCF JUMP JUMPDEST ADD PUSH1 0x7D DUP2 ADD PUSH32 0x7B2274726169745F74797065223A20224C61746974756465222C202264697370 SWAP1 MSTORE PUSH1 0x9D DUP2 ADD PUSH32 0x6C61795F74797065223A20226E756D626572222C202276616C7565223A200000 SWAP1 MSTORE DUP2 MLOAD SWAP2 DUP3 PUSH1 0xBB DUP4 ADD SWAP2 PUSH1 0x20 ADD SWAP2 PUSH2 0xA48 SWAP3 PUSH2 0x2BCF JUMP JUMPDEST ADD DUP3 PUSH1 0xBB DUP3 ADD MSTORE PUSH1 0xBD DUP2 ADD PUSH32 0x7B2274726169745F74797065223A20224C6F6E676974756465222C2022646973 SWAP1 MSTORE PUSH1 0xDD DUP2 ADD PUSH32 0x706C61795F74797065223A20226E756D626572222C202276616C7565223A2000 SWAP1 MSTORE DUP2 MLOAD SWAP2 DUP3 PUSH1 0xFC DUP4 ADD SWAP2 PUSH1 0x20 ADD SWAP2 PUSH2 0xAB3 SWAP3 PUSH2 0x2BCF JUMP JUMPDEST ADD DUP2 PUSH1 0xFC DUP3 ADD MSTORE PUSH1 0xFE DUP2 ADD PUSH32 0x7B2274726169745F74797065223A202252656E6F766174696F6E204461746522 SWAP1 MSTORE PUSH2 0x11E DUP2 ADD PUSH32 0x2C2022646973706C61795F74797065223A202264617465222C202276616C7565 SWAP1 MSTORE PUSH3 0x111D1 PUSH1 0xED SHL PUSH2 0x13E DUP3 ADD MSTORE DUP3 MLOAD SWAP1 PUSH2 0x141 SWAP4 DUP3 DUP6 DUP4 ADD SWAP2 PUSH1 0x20 ADD SWAP2 PUSH2 0xB2F SWAP3 PUSH2 0x2BCF JUMP JUMPDEST ADD SWAP2 DUP3 ADD MSTORE PUSH32 0x7B2274726169745F74797065223A2022566572696669636174696F6E20566F74 PUSH2 0x143 DUP3 ADD MSTORE PUSH32 0x6573222C2022646973706C61795F74797065223A20226E756D626572222C2022 PUSH2 0x163 DUP3 ADD MSTORE PUSH8 0x3B30B63AB2911D1 PUSH1 0xC5 SHL PUSH2 0x183 DUP3 ADD MSTORE DUP5 MLOAD PUSH2 0x18B SWAP6 SWAP1 SWAP2 SWAP1 PUSH2 0xBAF SWAP1 DUP4 SWAP1 DUP9 DUP5 ADD SWAP1 PUSH1 0x20 ADD PUSH2 0x2BCF JUMP JUMPDEST ADD SWAP4 DUP5 ADD MSTORE PUSH2 0x18D DUP4 ADD PUSH32 0x7B2274726169745F74797065223A202252656A656374696F6E20566F74657322 SWAP1 MSTORE PUSH2 0x1AD DUP4 ADD MSTORE PUSH2 0x1CD DUP3 ADD MSTORE DUP2 MLOAD SWAP1 PUSH2 0x1D2 SWAP3 DUP3 DUP5 DUP4 ADD SWAP2 PUSH1 0x20 ADD SWAP2 PUSH2 0xC01 SWAP3 PUSH2 0x2BCF JUMP JUMPDEST ADD SWAP1 DUP2 ADD PUSH1 0x7D PUSH1 0xF8 SHL SWAP1 MSTORE SUB PUSH2 0x1B3 DUP2 ADD DUP4 MSTORE PUSH2 0x1D3 ADD PUSH2 0xC22 SWAP1 DUP4 PUSH2 0x2DBB JUMP JUMPDEST PUSH1 0x40 MLOAD SWAP4 DUP5 SWAP4 PUSH20 0x7B226E616D65223A202250726F70657274792023 PUSH1 0x60 SHL PUSH1 0x20 DUP7 ADD MSTORE DUP1 MLOAD SWAP1 DUP2 PUSH1 0x34 DUP8 ADD SWAP2 PUSH1 0x20 ADD SWAP2 PUSH2 0xC5B SWAP3 PUSH2 0x2BCF JUMP JUMPDEST DUP5 ADD PUSH1 0x34 DUP2 ADD PUSH3 0x10169 PUSH1 0xED SHL SWAP1 MSTORE PUSH1 0x37 ADD PUSH2 0xC77 SWAP1 DUP3 PUSH2 0x3652 JUMP JUMPDEST PUSH32 0x222C20226465736372697074696F6E223A202256657269666965642070726F70 DUP2 MSTORE PUSH32 0x65727479204E465420726570726573656E74696E67207265616C206573746174 PUSH1 0x20 DUP3 ADD MSTORE PUSH5 0x329030BA1 PUSH1 0xDD SHL PUSH1 0x40 DUP3 ADD MSTORE PUSH2 0xCDB SWAP1 PUSH1 0x45 ADD DUP3 PUSH2 0x3652 JUMP JUMPDEST PUSH9 0x171027BBB732B91D1 PUSH1 0xBD SHL DUP2 MSTORE PUSH2 0xCFA SWAP1 PUSH1 0x9 ADD PUSH1 0x1 DUP4 ADD PUSH2 0x3652 JUMP JUMPDEST PUSH13 0x1116101134B6B0B3B2911D1011 PUSH1 0x99 SHL DUP2 MSTORE PUSH2 0xD1F SWAP2 PUSH1 0xD SWAP1 SWAP2 ADD SWAP1 PUSH1 0x4 ADD PUSH2 0x3652 JUMP JUMPDEST PUSH32 0x222C202265787465726E616C5F75726C223A202268747470733A2F2F796F7572 DUP2 MSTORE PUSH1 0x20 DUP2 ADD PUSH17 0x6170702E636F6D2F70726F70657274792F PUSH1 0x78 SHL SWAP1 MSTORE DUP2 MLOAD SWAP2 DUP3 PUSH1 0x31 DUP4 ADD SWAP2 PUSH1 0x20 ADD SWAP2 PUSH2 0xD73 SWAP3 PUSH2 0x2BCF JUMP JUMPDEST ADD PUSH18 0x222C202261747472696275746573223A205B PUSH1 0x70 SHL PUSH1 0x31 DUP3 ADD MSTORE DUP2 MLOAD SWAP2 DUP3 PUSH1 0x43 DUP4 ADD SWAP2 PUSH1 0x20 ADD SWAP2 PUSH2 0xDA5 SWAP3 PUSH2 0x2BCF JUMP JUMPDEST ADD PUSH1 0x43 DUP2 ADD PUSH2 0x5D7D PUSH1 0xF0 SHL SWAP1 MSTORE SUB PUSH1 0x25 DUP2 ADD DUP3 MSTORE PUSH1 0x45 ADD PUSH2 0xDC6 SWAP1 DUP3 PUSH2 0x2DBB JUMP JUMPDEST PUSH2 0xDCF SWAP1 PUSH2 0x3707 JUMP JUMPDEST PUSH1 0x40 MLOAD DUP1 SWAP2 PUSH1 0x20 DUP3 ADD PUSH32 0x646174613A6170706C69636174696F6E2F6A736F6E3B6261736536342C000000 SWAP1 MSTORE DUP1 MLOAD SWAP1 DUP2 PUSH1 0x3D DUP5 ADD SWAP2 PUSH1 0x20 ADD SWAP2 PUSH2 0xE11 SWAP3 PUSH2 0x2BCF JUMP JUMPDEST DUP2 ADD SUB PUSH1 0x1D DUP2 ADD DUP3 MSTORE PUSH1 0x3D ADD PUSH2 0xE27 SWAP1 DUP3 PUSH2 0x2DBB JUMP JUMPDEST PUSH1 0x40 MLOAD DUP1 SWAP2 PUSH1 0x20 DUP3 MSTORE PUSH1 0x20 DUP3 ADD PUSH2 0xE3D SWAP2 PUSH2 0x2BF2 JUMP JUMPDEST SUB SWAP1 RETURN JUMPDEST POP PUSH1 0x40 MLOAD PUSH2 0xE4E DUP2 PUSH2 0x2D85 JUMP JUMPDEST PUSH1 0x0 DUP2 MSTORE SWAP1 PUSH2 0x7C4 JUMP JUMPDEST PUSH1 0x72 PUSH2 0xE69 PUSH2 0xF18 SWAP3 SWAP6 SWAP4 SWAP6 PUSH2 0x386B JUMP JUMPDEST SWAP3 PUSH1 0x40 MLOAD SWAP4 DUP2 PUSH2 0xE83 DUP7 SWAP4 MLOAD DUP1 SWAP3 PUSH1 0x20 DUP1 DUP8 ADD SWAP2 ADD PUSH2 0x2BCF JUMP JUMPDEST DUP3 ADD PUSH32 0x7B2274726169745F74797065223A202252656E6F766174696F6E2053636F7265 PUSH1 0x20 DUP3 ADD MSTORE PUSH32 0x222C2022646973706C61795F74797065223A2022626F6F73745F70657263656E PUSH1 0x40 DUP3 ADD MSTORE PUSH16 0x3A30B3B2911610113B30B63AB2911D1 PUSH1 0x85 SHL PUSH1 0x60 DUP3 ADD MSTORE PUSH2 0xEFE DUP3 MLOAD DUP1 SWAP4 PUSH1 0x20 PUSH1 0x70 DUP6 ADD SWAP2 ADD PUSH2 0x2BCF JUMP JUMPDEST ADD PUSH2 0x1F4B PUSH1 0xF2 SHL PUSH1 0x70 DUP3 ADD MSTORE SUB PUSH1 0x52 DUP2 ADD DUP5 MSTORE ADD DUP3 PUSH2 0x2DBB JUMP JUMPDEST SWAP2 DUP10 PUSH2 0x717 JUMP JUMPDEST PUSH1 0x6B PUSH2 0xF30 PUSH2 0xFD8 SWAP3 SWAP7 SWAP4 SWAP7 PUSH2 0x386B JUMP JUMPDEST SWAP3 PUSH1 0x40 MLOAD SWAP4 DUP2 PUSH2 0xF4A DUP7 SWAP4 MLOAD DUP1 SWAP3 PUSH1 0x20 DUP1 DUP8 ADD SWAP2 ADD PUSH2 0x2BCF JUMP JUMPDEST DUP3 ADD PUSH32 0x7B2274726169745F74797065223A20224167652053636F7265222C2022646973 PUSH1 0x20 DUP3 ADD MSTORE PUSH32 0x706C61795F74797065223A2022626F6F73745F70657263656E74616765222C20 PUSH1 0x40 DUP3 ADD MSTORE PUSH9 0x113B30B63AB2911D1 PUSH1 0xBD SHL PUSH1 0x60 DUP3 ADD MSTORE PUSH2 0xFBE DUP3 MLOAD DUP1 SWAP4 PUSH1 0x20 PUSH1 0x69 DUP6 ADD SWAP2 ADD PUSH2 0x2BCF JUMP JUMPDEST ADD PUSH2 0x1F4B PUSH1 0xF2 SHL PUSH1 0x69 DUP3 ADD MSTORE SUB PUSH1 0x4B DUP2 ADD DUP5 MSTORE ADD DUP3 PUSH2 0x2DBB JUMP JUMPDEST SWAP3 DUP11 PUSH2 0x710 JUMP JUMPDEST PUSH1 0x71 PUSH2 0xFF0 PUSH2 0x109E SWAP3 SWAP8 SWAP4 SWAP8 PUSH2 0x386B JUMP JUMPDEST SWAP3 PUSH1 0x40 MLOAD SWAP4 DUP2 PUSH2 0x100A DUP7 SWAP4 MLOAD DUP1 SWAP3 PUSH1 0x20 DUP1 DUP8 ADD SWAP2 ADD PUSH2 0x2BCF JUMP JUMPDEST DUP3 ADD PUSH32 0x7B2274726169745F74797065223A2022436F6E646974696F6E2053636F726522 PUSH1 0x20 DUP3 ADD MSTORE PUSH32 0x2C2022646973706C61795F74797065223A2022626F6F73745F70657263656E74 PUSH1 0x40 DUP3 ADD MSTORE PUSH15 0x30B3B2911610113B30B63AB2911D1 PUSH1 0x8D SHL PUSH1 0x60 DUP3 ADD MSTORE PUSH2 0x1084 DUP3 MLOAD DUP1 SWAP4 PUSH1 0x20 PUSH1 0x6F DUP6 ADD SWAP2 ADD PUSH2 0x2BCF JUMP JUMPDEST ADD PUSH2 0x1F4B PUSH1 0xF2 SHL PUSH1 0x6F DUP3 ADD MSTORE SUB PUSH1 0x51 DUP2 ADD DUP5 MSTORE ADD DUP3 PUSH2 0x2DBB JUMP JUMPDEST SWAP4 DUP12 PUSH2 0x709 JUMP JUMPDEST PUSH1 0x6C PUSH2 0x10B6 PUSH2 0x115F SWAP3 SWAP9 SWAP4 SWAP9 PUSH2 0x386B JUMP JUMPDEST SWAP3 PUSH1 0x40 MLOAD SWAP4 DUP2 PUSH2 0x10D0 DUP7 SWAP4 MLOAD DUP1 SWAP3 PUSH1 0x20 DUP1 DUP8 ADD SWAP2 ADD PUSH2 0x2BCF JUMP JUMPDEST DUP3 ADD PUSH32 0x7B2274726169745F74797065223A202253697A652053636F7265222C20226469 PUSH1 0x20 DUP3 ADD MSTORE PUSH32 0x73706C61795F74797065223A2022626F6F73745F70657263656E74616765222C PUSH1 0x40 DUP3 ADD MSTORE PUSH10 0x10113B30B63AB2911D1 PUSH1 0xB5 SHL PUSH1 0x60 DUP3 ADD MSTORE PUSH2 0x1145 DUP3 MLOAD DUP1 SWAP4 PUSH1 0x20 PUSH1 0x6A DUP6 ADD SWAP2 ADD PUSH2 0x2BCF JUMP JUMPDEST ADD PUSH2 0x1F4B PUSH1 0xF2 SHL PUSH1 0x6A DUP3 ADD MSTORE SUB PUSH1 0x4C DUP2 ADD DUP5 MSTORE ADD DUP3 PUSH2 0x2DBB JUMP JUMPDEST SWAP5 DUP13 PUSH2 0x702 JUMP JUMPDEST PUSH2 0x1225 SWAP2 SWAP3 SWAP9 POP PUSH2 0x1178 PUSH1 0x70 SWAP2 PUSH2 0x386B JUMP JUMPDEST SWAP3 PUSH1 0x40 MLOAD SWAP4 DUP2 PUSH2 0x1192 DUP7 SWAP4 MLOAD DUP1 SWAP3 PUSH1 0x20 DUP1 DUP8 ADD SWAP2 ADD PUSH2 0x2BCF JUMP JUMPDEST DUP3 ADD PUSH32 0x7B2274726169745F74797065223A20224C6F636174696F6E2053636F7265222C PUSH1 0x20 DUP3 ADD MSTORE PUSH32 0x2022646973706C61795F74797065223A2022626F6F73745F70657263656E7461 PUSH1 0x40 DUP3 ADD MSTORE PUSH14 0x33B2911610113B30B63AB2911D1 PUSH1 0x95 SHL PUSH1 0x60 DUP3 ADD MSTORE PUSH2 0x120B DUP3 MLOAD DUP1 SWAP4 PUSH1 0x20 PUSH1 0x6E DUP6 ADD SWAP2 ADD PUSH2 0x2BCF JUMP JUMPDEST ADD PUSH2 0x1F4B PUSH1 0xF2 SHL PUSH1 0x6E DUP3 ADD MSTORE SUB PUSH1 0x50 DUP2 ADD DUP5 MSTORE ADD DUP3 PUSH2 0x2DBB JUMP JUMPDEST SWAP6 DUP14 DUP1 PUSH2 0x6FA JUMP JUMPDEST POP PUSH1 0x40 MLOAD PUSH2 0x123A DUP2 PUSH2 0x2D85 JUMP JUMPDEST PUSH1 0x0 DUP2 MSTORE SWAP7 PUSH2 0x6E2 JUMP JUMPDEST PUSH1 0x40 MLOAD PUSH2 0x1250 DUP2 PUSH2 0x2DA0 JUMP JUMPDEST PUSH1 0x7 DUP2 MSTORE PUSH7 0x50656E64696E67 PUSH1 0xC8 SHL PUSH1 0x20 DUP3 ADD MSTORE SWAP8 PUSH2 0x628 JUMP JUMPDEST SWAP1 SWAP2 SWAP8 SWAP5 POP PUSH2 0x127E JUMPI DUP8 SWAP4 DIV SWAP6 DUP9 DUP1 PUSH2 0x5DC JUMP JUMPDEST PUSH4 0x4E487B71 PUSH1 0xE0 SHL PUSH1 0x0 MSTORE PUSH1 0x12 PUSH1 0x4 MSTORE PUSH1 0x24 PUSH1 0x0 REVERT JUMPDEST SWAP7 PUSH2 0x12A2 DUP7 PUSH2 0x12A8 SWAP3 PUSH2 0x3552 JUMP JUMPDEST SWAP8 PUSH2 0x35F7 JUMP JUMPDEST PUSH2 0x5D3 JUMP JUMPDEST SWAP4 SWAP6 PUSH2 0x12BC DUP7 PUSH2 0x12C2 SWAP3 PUSH2 0x3552 JUMP JUMPDEST SWAP7 PUSH2 0x35F7 JUMP JUMPDEST SWAP4 PUSH2 0x5C7 JUMP JUMPDEST SWAP3 SWAP5 PUSH2 0x12D7 DUP6 PUSH2 0x12DD SWAP3 PUSH2 0x3552 JUMP JUMPDEST SWAP6 PUSH2 0x35F7 JUMP JUMPDEST SWAP3 PUSH2 0x5BB JUMP JUMPDEST SWAP2 SWAP4 PUSH2 0x12F2 DUP4 PUSH2 0x12F8 SWAP3 PUSH2 0x3552 JUMP JUMPDEST SWAP5 PUSH2 0x35F7 JUMP JUMPDEST SWAP2 PUSH2 0x5AF JUMP JUMPDEST POP SWAP1 POP DUP1 PUSH1 0x1 PUSH2 0x5A3 JUMP JUMPDEST CALLVALUE PUSH2 0x303 JUMPI PUSH1 0x20 DUP1 PUSH1 0x3 NOT CALLDATASIZE ADD SLT PUSH2 0x303 JUMPI PUSH1 0x4 CALLDATALOAD PUSH1 0x1 PUSH1 0x1 PUSH1 0x40 SHL SUB DUP2 GT PUSH2 0x303 JUMPI DUP2 PUSH2 0x133E PUSH2 0x1351 SWAP3 CALLDATASIZE SWAP1 PUSH1 0x4 ADD PUSH2 0x2E2E JUMP JUMPDEST DUP2 PUSH1 0x40 MLOAD SWAP4 DUP3 DUP6 DUP1 SWAP5 MLOAD SWAP4 DUP5 SWAP3 ADD PUSH2 0x2BCF JUMP JUMPDEST DUP2 ADD PUSH1 0x9 DUP2 MSTORE SUB ADD SWAP1 KECCAK256 PUSH1 0x40 MLOAD SWAP1 DUP2 DUP4 DUP3 SLOAD SWAP2 DUP3 DUP2 MSTORE ADD SWAP1 DUP2 SWAP3 PUSH1 0x0 MSTORE DUP5 PUSH1 0x0 KECCAK256 SWAP1 PUSH1 0x0 JUMPDEST DUP7 DUP3 DUP3 LT PUSH2 0x13CC JUMPI DUP7 DUP7 PUSH2 0x138C DUP3 DUP9 SUB DUP4 PUSH2 0x2DBB JUMP JUMPDEST PUSH1 0x40 MLOAD SWAP3 DUP4 SWAP3 DUP2 DUP5 ADD SWAP1 DUP3 DUP6 MSTORE MLOAD DUP1 SWAP2 MSTORE PUSH1 0x40 DUP5 ADD SWAP3 SWAP2 PUSH1 0x0 JUMPDEST DUP3 DUP2 LT PUSH2 0x13B5 JUMPI POP POP POP POP SUB SWAP1 RETURN JUMPDEST DUP4 MLOAD DUP6 MSTORE DUP7 SWAP6 POP SWAP4 DUP2 ADD SWAP4 SWAP3 DUP2 ADD SWAP3 PUSH1 0x1 ADD PUSH2 0x13A6 JUMP JUMPDEST DUP4 SLOAD DUP6 MSTORE SWAP1 SWAP4 ADD SWAP3 PUSH1 0x1 SWAP3 DUP4 ADD SWAP3 ADD PUSH2 0x1376 JUMP JUMPDEST CALLVALUE PUSH2 0x303 JUMPI PUSH1 0x80 CALLDATASIZE PUSH1 0x3 NOT ADD SLT PUSH2 0x303 JUMPI PUSH2 0x13F9 PUSH2 0x2C17 JUMP JUMPDEST PUSH2 0x1401 PUSH2 0x2C2D JUMP JUMPDEST SWAP1 PUSH1 0x64 CALLDATALOAD SWAP1 PUSH1 0x44 CALLDATALOAD PUSH1 0x1 PUSH1 0x1 PUSH1 0x40 SHL SUB DUP4 GT PUSH2 0x303 JUMPI CALLDATASIZE PUSH1 0x23 DUP5 ADD SLT ISZERO PUSH2 0x303 JUMPI PUSH2 0x1465 SWAP4 PUSH2 0x143D PUSH2 0x1460 SWAP5 CALLDATASIZE SWAP1 PUSH1 0x24 DUP2 PUSH1 0x4 ADD CALLDATALOAD SWAP2 ADD PUSH2 0x2DF7 JUMP JUMPDEST SWAP3 PUSH2 0x1450 PUSH2 0x144B DUP5 CALLER PUSH2 0x319A JUMP JUMPDEST PUSH2 0x30C1 JUMP JUMPDEST PUSH2 0x145B DUP4 DUP4 DUP4 PUSH2 0x3262 JUMP JUMPDEST PUSH2 0x3491 JUMP JUMPDEST PUSH2 0x3176 JUMP JUMPDEST STOP JUMPDEST CALLVALUE PUSH2 0x303 JUMPI PUSH1 0x40 CALLDATASIZE PUSH1 0x3 NOT ADD SLT PUSH2 0x303 JUMPI PUSH2 0x1480 PUSH2 0x2C17 JUMP JUMPDEST PUSH2 0x1488 PUSH2 0x2D5A JUMP JUMPDEST PUSH1 0x1 PUSH1 0x1 PUSH1 0xA0 SHL SUB SWAP1 SWAP2 AND SWAP1 CALLER DUP3 EQ PUSH2 0x14FA JUMPI CALLER PUSH1 0x0 MSTORE PUSH1 0x5 PUSH1 0x20 MSTORE PUSH1 0x40 PUSH1 0x0 KECCAK256 DUP3 PUSH1 0x0 MSTORE PUSH1 0x20 MSTORE PUSH2 0x14CA DUP2 PUSH1 0x40 PUSH1 0x0 KECCAK256 SWAP1 PUSH1 0xFF DUP1 NOT DUP4 SLOAD AND SWAP2 ISZERO ISZERO AND OR SWAP1 SSTORE JUMP JUMPDEST PUSH1 0x40 MLOAD SWAP1 ISZERO ISZERO DUP2 MSTORE PUSH32 0x17307EAB39AB6107E8899845AD3D59BD9653F200F220920489CA2B5937696C31 PUSH1 0x20 CALLER SWAP3 LOG3 STOP JUMPDEST PUSH1 0x40 MLOAD PUSH3 0x461BCD PUSH1 0xE5 SHL DUP2 MSTORE PUSH1 0x20 PUSH1 0x4 DUP3 ADD MSTORE PUSH1 0x19 PUSH1 0x24 DUP3 ADD MSTORE PUSH32 0x4552433732313A20617070726F766520746F2063616C6C657200000000000000 PUSH1 0x44 DUP3 ADD MSTORE PUSH1 0x64 SWAP1 REVERT JUMPDEST CALLVALUE PUSH2 0x303 JUMPI PUSH1 0x0 DUP1 MLOAD PUSH1 0x20 PUSH2 0x3BFA DUP4 CODECOPY DUP2 MLOAD SWAP2 MSTORE PUSH1 0x20 DUP1 PUSH32 0x38FECA60919CB6C50D2BDA77CC786B4121A0AB59FDCBCCAD58C37F0BC84869E9 PUSH2 0x1580 CALLDATASIZE PUSH2 0x2EC6 JUMP JUMPDEST SWAP3 DUP2 SWAP4 PUSH2 0x158E DUP4 SWAP5 SWAP4 PUSH2 0x3060 JUMP JUMPDEST PUSH1 0x1 PUSH1 0x1 PUSH1 0xA0 SHL SUB SWAP1 DUP2 AND CALLER EQ SWAP1 DUP2 ISZERO PUSH2 0x1618 JUMPI JUMPDEST POP DUP1 ISZERO PUSH2 0x1600 JUMPI JUMPDEST PUSH2 0x15B4 SWAP1 PUSH2 0x3606 JUMP JUMPDEST PUSH1 0x0 DUP5 DUP2 MSTORE PUSH1 0x2 PUSH1 0x20 MSTORE PUSH1 0x40 SWAP1 KECCAK256 SLOAD PUSH2 0x15D7 SWAP1 PUSH1 0x1 PUSH1 0x1 PUSH1 0xA0 SHL SUB AND ISZERO ISZERO PUSH2 0x35AB JUMP JUMPDEST DUP4 PUSH1 0x0 MSTORE PUSH1 0xB DUP3 MSTORE PUSH1 0x40 PUSH1 0x0 KECCAK256 DUP2 PUSH1 0x8 DUP3 ADD SSTORE PUSH1 0x11 TIMESTAMP SWAP2 ADD SSTORE PUSH1 0x40 MLOAD SWAP1 DUP2 MSTORE LOG2 PUSH1 0x40 MLOAD SWAP1 DUP2 MSTORE LOG1 STOP JUMPDEST POP CALLER PUSH1 0x0 SWAP1 DUP2 MSTORE PUSH1 0xE DUP4 MSTORE PUSH1 0x40 SWAP1 KECCAK256 SLOAD PUSH1 0xFF AND PUSH2 0x15AB JUMP JUMPDEST PUSH1 0x6 SLOAD AND CALLER EQ SWAP1 POP DUP9 PUSH2 0x15A3 JUMP JUMPDEST CALLVALUE PUSH2 0x303 JUMPI PUSH1 0x0 CALLDATASIZE PUSH1 0x3 NOT ADD SLT PUSH2 0x303 JUMPI PUSH1 0x40 MLOAD PUSH1 0x0 PUSH1 0x1 DUP1 SLOAD SWAP1 PUSH2 0x164A DUP3 PUSH2 0x2EDC JUMP JUMPDEST DUP1 DUP6 MSTORE SWAP2 DUP2 DUP2 AND SWAP1 DUP2 ISZERO PUSH2 0x16DE JUMPI POP PUSH1 0x1 EQ PUSH2 0x1685 JUMPI JUMPDEST PUSH2 0xE3D DUP5 PUSH2 0x1671 DUP2 DUP7 SUB DUP3 PUSH2 0x2DBB JUMP JUMPDEST PUSH1 0x40 MLOAD SWAP2 DUP3 SWAP2 PUSH1 0x20 DUP4 MSTORE PUSH1 0x20 DUP4 ADD SWAP1 PUSH2 0x2BF2 JUMP JUMPDEST PUSH1 0x0 DUP2 DUP2 MSTORE SWAP3 POP PUSH32 0xB10E2D527612073B26EECDFD717E6A320CF44B4AFAC2B0732D9FCBE2B7FA0CF6 JUMPDEST DUP3 DUP5 LT PUSH2 0x16C6 JUMPI POP POP POP DUP2 ADD PUSH1 0x20 ADD PUSH2 0x1671 DUP3 PUSH2 0x1661 JUMP JUMPDEST DUP1 SLOAD PUSH1 0x20 DUP6 DUP8 ADD DUP2 ADD SWAP2 SWAP1 SWAP2 MSTORE SWAP1 SWAP4 ADD SWAP3 DUP2 ADD PUSH2 0x16AE JUMP JUMPDEST PUSH1 0xFF NOT AND PUSH1 0x20 DUP1 DUP8 ADD SWAP2 SWAP1 SWAP2 MSTORE SWAP3 ISZERO ISZERO PUSH1 0x5 SHL DUP6 ADD SWAP1 SWAP3 ADD SWAP3 POP PUSH2 0x1671 SWAP2 POP DUP4 SWAP1 POP PUSH2 0x1661 JUMP JUMPDEST CALLVALUE PUSH2 0x303 JUMPI PUSH1 0x40 CALLDATASIZE PUSH1 0x3 NOT ADD SLT PUSH2 0x303 JUMPI PUSH2 0x171E PUSH2 0x2C17 JUMP JUMPDEST PUSH1 0x1 PUSH1 0x1 PUSH1 0xA0 SHL SUB AND PUSH1 0x0 SWAP1 DUP2 MSTORE PUSH1 0xD PUSH1 0x20 MSTORE PUSH1 0x40 SWAP1 KECCAK256 DUP1 SLOAD PUSH1 0x24 CALLDATALOAD SWAP2 SWAP1 DUP3 LT ISZERO PUSH2 0x303 JUMPI PUSH1 0x20 SWAP2 PUSH2 0x174F SWAP2 PUSH2 0x2E81 JUMP JUMPDEST SWAP1 SLOAD PUSH1 0x40 MLOAD SWAP2 PUSH1 0x3 SHL SHR DUP2 MSTORE RETURN JUMPDEST CALLVALUE PUSH2 0x303 JUMPI PUSH1 0x0 CALLDATASIZE PUSH1 0x3 NOT ADD SLT PUSH2 0x303 JUMPI PUSH1 0x6 SLOAD PUSH1 0x40 MLOAD PUSH1 0x1 PUSH1 0x1 PUSH1 0xA0 SHL SUB SWAP1 SWAP2 AND DUP2 MSTORE PUSH1 0x20 SWAP1 RETURN JUMPDEST CALLVALUE PUSH2 0x303 JUMPI PUSH2 0x1794 CALLDATASIZE PUSH2 0x2EC6 JUMP JUMPDEST SWAP1 PUSH1 0x0 MSTORE PUSH1 0xA PUSH1 0x20 MSTORE PUSH1 0x40 PUSH1 0x0 KECCAK256 DUP1 SLOAD DUP3 LT ISZERO PUSH2 0x303 JUMPI PUSH1 0x20 SWAP2 PUSH2 0x174F SWAP2 PUSH2 0x2E81 JUMP JUMPDEST CALLVALUE PUSH2 0x303 JUMPI PUSH1 0x20 CALLDATASIZE PUSH1 0x3 NOT ADD SLT PUSH2 0x303 JUMPI PUSH1 0x4 CALLDATALOAD PUSH1 0x1 PUSH1 0x1 PUSH1 0x40 SHL SUB DUP2 GT PUSH2 0x303 JUMPI PUSH1 0xFF PUSH2 0x17EF PUSH1 0x20 PUSH2 0x133E DUP2 SWAP5 CALLDATASIZE SWAP1 PUSH1 0x4 ADD PUSH2 0x2E2E JUMP JUMPDEST DUP2 ADD PUSH1 0xC DUP2 MSTORE SUB ADD SWAP1 KECCAK256 SLOAD AND PUSH1 0x40 MLOAD SWAP1 ISZERO ISZERO DUP2 MSTORE RETURN JUMPDEST CALLVALUE PUSH2 0x303 JUMPI PUSH1 0x0 CALLDATASIZE PUSH1 0x3 NOT ADD SLT PUSH2 0x303 JUMPI PUSH2 0x181E PUSH2 0x2FBC JUMP JUMPDEST PUSH1 0x6 DUP1 SLOAD PUSH1 0x1 PUSH1 0x1 PUSH1 0xA0 SHL SUB NOT DUP2 AND SWAP1 SWAP2 SSTORE PUSH1 0x0 SWAP1 PUSH1 0x1 PUSH1 0x1 PUSH1 0xA0 SHL SUB AND PUSH32 0x8BE0079C531659141344CD1FD0A4F28419497F9722A3DAAFE3B4186F6B6457E0 DUP3 DUP1 LOG3 STOP JUMPDEST CALLVALUE PUSH2 0x303 JUMPI PUSH1 0x20 CALLDATASIZE PUSH1 0x3 NOT ADD SLT PUSH2 0x303 JUMPI PUSH1 0x1 PUSH1 0x1 PUSH1 0xA0 SHL SUB PUSH2 0x1883 PUSH2 0x2C17 JUMP JUMPDEST AND DUP1 ISZERO PUSH2 0x18A2 JUMPI PUSH1 0x0 MSTORE PUSH1 0x3 PUSH1 0x20 MSTORE PUSH1 0x20 PUSH1 0x40 PUSH1 0x0 KECCAK256 SLOAD PUSH1 0x40 MLOAD SWAP1 DUP2 MSTORE RETURN JUMPDEST PUSH1 0x40 MLOAD PUSH3 0x461BCD PUSH1 0xE5 SHL DUP2 MSTORE PUSH1 0x20 PUSH1 0x4 DUP3 ADD MSTORE PUSH1 0x29 PUSH1 0x24 DUP3 ADD MSTORE PUSH32 0x4552433732313A2061646472657373207A65726F206973206E6F742061207661 PUSH1 0x44 DUP3 ADD MSTORE PUSH9 0x3634B21037BBB732B9 PUSH1 0xB9 SHL PUSH1 0x64 DUP3 ADD MSTORE PUSH1 0x84 SWAP1 REVERT JUMPDEST CALLVALUE PUSH2 0x303 JUMPI PUSH1 0x20 CALLDATASIZE PUSH1 0x3 NOT ADD SLT PUSH2 0x303 JUMPI PUSH1 0x20 PUSH2 0x1917 PUSH1 0x4 CALLDATALOAD PUSH2 0x3060 JUMP JUMPDEST PUSH1 0x40 MLOAD PUSH1 0x1 PUSH1 0x1 PUSH1 0xA0 SHL SUB SWAP1 SWAP2 AND DUP2 MSTORE RETURN JUMPDEST CALLVALUE PUSH2 0x303 JUMPI PUSH1 0x20 DUP1 PUSH1 0x3 NOT CALLDATASIZE ADD SLT PUSH2 0x303 JUMPI PUSH1 0x4 CALLDATALOAD PUSH1 0x1 PUSH1 0x1 PUSH1 0x40 SHL SUB DUP2 GT PUSH2 0x303 JUMPI CALLDATASIZE PUSH1 0x23 DUP3 ADD SLT ISZERO PUSH2 0x303 JUMPI DUP1 PUSH1 0x4 ADD CALLDATALOAD SWAP1 PUSH2 0x1966 DUP3 PUSH2 0x2EAF JUMP JUMPDEST SWAP2 PUSH2 0x1974 PUSH1 0x40 MLOAD SWAP4 DUP5 PUSH2 0x2DBB JUMP JUMPDEST DUP1 DUP4 MSTORE PUSH1 0x24 DUP5 DUP5 ADD SWAP2 PUSH1 0x5 SHL DUP4 ADD ADD SWAP2 CALLDATASIZE DUP4 GT PUSH2 0x303 JUMPI PUSH1 0x24 ADD SWAP1 JUMPDEST DUP3 DUP3 LT PUSH2 0x19AF JUMPI PUSH2 0xE3D PUSH2 0x19A3 DUP6 PUSH2 0x3A21 JUMP JUMPDEST PUSH1 0x40 MLOAD SWAP2 DUP3 SWAP2 DUP3 PUSH2 0x2C43 JUMP JUMPDEST DUP2 CALLDATALOAD DUP2 MSTORE SWAP1 DUP5 ADD SWAP1 DUP5 ADD PUSH2 0x1990 JUMP JUMPDEST CALLVALUE PUSH2 0x303 JUMPI PUSH1 0x40 CALLDATASIZE PUSH1 0x3 NOT ADD SLT PUSH2 0x303 JUMPI PUSH1 0x4 CALLDATALOAD PUSH1 0x1 PUSH1 0x1 PUSH1 0x40 SHL SUB DUP2 GT PUSH2 0x303 JUMPI PUSH2 0x19EE SWAP1 CALLDATASIZE SWAP1 PUSH1 0x4 ADD PUSH2 0x2E2E JUMP JUMPDEST PUSH2 0x1A0A PUSH1 0x20 PUSH1 0x24 CALLDATALOAD SWAP3 DUP2 PUSH1 0x40 MLOAD SWAP4 DUP3 DUP6 DUP1 SWAP5 MLOAD SWAP4 DUP5 SWAP3 ADD PUSH2 0x2BCF JUMP JUMPDEST DUP2 ADD PUSH1 0x9 DUP2 MSTORE SUB ADD SWAP1 KECCAK256 DUP1 SLOAD DUP3 LT ISZERO PUSH2 0x303 JUMPI PUSH1 0x20 SWAP2 PUSH2 0x174F SWAP2 PUSH2 0x2E81 JUMP JUMPDEST CALLVALUE PUSH2 0x303 JUMPI PUSH2 0x100 CALLDATASIZE PUSH1 0x3 NOT ADD SLT PUSH2 0x303 JUMPI PUSH1 0x4 CALLDATALOAD PUSH1 0x24 SWAP1 DUP2 CALLDATALOAD SWAP2 PUSH1 0x64 SWAP1 DUP2 CALLDATALOAD SWAP2 PUSH1 0x84 CALLDATALOAD PUSH1 0xA4 CALLDATALOAD SWAP1 PUSH1 0xC4 CALLDATALOAD SWAP3 PUSH1 0xE4 CALLDATALOAD SWAP5 PUSH2 0x1A62 DUP9 PUSH2 0x3060 JUMP JUMPDEST PUSH1 0x1 PUSH1 0x1 PUSH1 0xA0 SHL SUB SWAP1 DUP2 AND CALLER EQ SWAP1 DUP2 ISZERO PUSH2 0x1CB2 JUMPI JUMPDEST POP DUP1 ISZERO PUSH2 0x1C99 JUMPI JUMPDEST PUSH2 0x1A88 SWAP1 PUSH2 0x3606 JUMP JUMPDEST PUSH1 0x0 DUP9 DUP2 MSTORE PUSH1 0x2 PUSH1 0x20 MSTORE PUSH1 0x40 SWAP1 KECCAK256 SLOAD PUSH2 0x1AAB SWAP1 PUSH1 0x1 PUSH1 0x1 PUSH1 0xA0 SHL SUB AND ISZERO ISZERO PUSH2 0x35AB JUMP JUMPDEST DUP2 DUP8 GT PUSH2 0x1C58 JUMPI DUP2 DUP4 GT PUSH2 0x1C17 JUMPI DUP2 DUP5 GT PUSH2 0x1BD6 JUMPI DUP2 DUP6 GT PUSH2 0x1B95 JUMPI DUP2 DUP7 GT PUSH2 0x1B54 JUMPI PUSH1 0x0 DUP1 MLOAD PUSH1 0x20 PUSH2 0x3BFA DUP4 CODECOPY DUP2 MLOAD SWAP2 MSTORE PUSH1 0x20 DUP10 DUP1 PUSH32 0x38FECA60919CB6C50D2BDA77CC786B4121A0AB59FDCBCCAD58C37F0BC84869E9 DUP4 DUP15 DUP14 DUP14 DUP14 DUP14 DUP14 DUP9 PUSH1 0x0 MSTORE PUSH1 0xB DUP8 MSTORE PUSH1 0x40 PUSH1 0x0 KECCAK256 SWAP5 DUP7 PUSH1 0x8 DUP8 ADD SSTORE PUSH1 0x44 CALLDATALOAD PUSH1 0x10 DUP8 ADD SSTORE PUSH1 0xB DUP7 ADD SSTORE PUSH1 0xC DUP6 ADD SSTORE PUSH1 0xD DUP5 ADD SSTORE PUSH1 0xE DUP4 ADD SSTORE PUSH1 0xF DUP3 ADD SSTORE PUSH1 0x11 TIMESTAMP SWAP2 ADD SSTORE PUSH1 0x40 MLOAD SWAP1 DUP2 MSTORE LOG2 PUSH1 0x40 MLOAD SWAP1 DUP2 MSTORE LOG1 STOP JUMPDEST PUSH1 0x1F PUSH1 0x40 MLOAD SWAP2 PUSH3 0x461BCD PUSH1 0xE5 SHL DUP4 MSTORE PUSH1 0x20 PUSH1 0x4 DUP5 ADD MSTORE DUP3 ADD MSTORE PUSH32 0x52656E6F766174696F6E2073636F7265206D757374206265203C3D2031303000 PUSH1 0x44 DUP3 ADD MSTORE REVERT JUMPDEST PUSH1 0x18 PUSH1 0x40 MLOAD SWAP2 PUSH3 0x461BCD PUSH1 0xE5 SHL DUP4 MSTORE PUSH1 0x20 PUSH1 0x4 DUP5 ADD MSTORE DUP3 ADD MSTORE PUSH32 0x4167652073636F7265206D757374206265203C3D203130300000000000000000 PUSH1 0x44 DUP3 ADD MSTORE REVERT JUMPDEST PUSH1 0x1E PUSH1 0x40 MLOAD SWAP2 PUSH3 0x461BCD PUSH1 0xE5 SHL DUP4 MSTORE PUSH1 0x20 PUSH1 0x4 DUP5 ADD MSTORE DUP3 ADD MSTORE PUSH32 0x436F6E646974696F6E2073636F7265206D757374206265203C3D203130300000 PUSH1 0x44 DUP3 ADD MSTORE REVERT JUMPDEST PUSH1 0x19 PUSH1 0x40 MLOAD SWAP2 PUSH3 0x461BCD PUSH1 0xE5 SHL DUP4 MSTORE PUSH1 0x20 PUSH1 0x4 DUP5 ADD MSTORE DUP3 ADD MSTORE PUSH32 0x53697A652073636F7265206D757374206265203C3D2031303000000000000000 PUSH1 0x44 DUP3 ADD MSTORE REVERT JUMPDEST PUSH1 0x1D PUSH1 0x40 MLOAD SWAP2 PUSH3 0x461BCD PUSH1 0xE5 SHL DUP4 MSTORE PUSH1 0x20 PUSH1 0x4 DUP5 ADD MSTORE DUP3 ADD MSTORE PUSH32 0x4C6F636174696F6E2073636F7265206D757374206265203C3D20313030000000 PUSH1 0x44 DUP3 ADD MSTORE REVERT JUMPDEST POP CALLER PUSH1 0x0 SWAP1 DUP2 MSTORE PUSH1 0xE PUSH1 0x20 MSTORE PUSH1 0x40 SWAP1 KECCAK256 SLOAD PUSH1 0xFF AND PUSH2 0x1A7F JUMP JUMPDEST PUSH1 0x6 SLOAD AND CALLER EQ SWAP1 POP DUP11 PUSH2 0x1A77 JUMP JUMPDEST CALLVALUE PUSH2 0x303 JUMPI PUSH2 0x1465 PUSH2 0x1460 PUSH2 0x1CD4 CALLDATASIZE PUSH2 0x2E4C JUMP JUMPDEST SWAP1 PUSH1 0x40 MLOAD SWAP3 PUSH2 0x1CE2 DUP5 PUSH2 0x2D85 JUMP JUMPDEST PUSH1 0x0 DUP5 MSTORE PUSH2 0x1450 PUSH2 0x144B DUP5 CALLER PUSH2 0x319A JUMP JUMPDEST CALLVALUE PUSH2 0x303 JUMPI PUSH1 0x0 CALLDATASIZE PUSH1 0x3 NOT ADD SLT PUSH2 0x303 JUMPI PUSH1 0x20 PUSH1 0x40 MLOAD PUSH1 0x3 DUP2 MSTORE RETURN JUMPDEST CALLVALUE PUSH2 0x303 JUMPI PUSH2 0x1465 PUSH2 0x1D20 CALLDATASIZE PUSH2 0x2E4C JUMP JUMPDEST SWAP2 PUSH2 0x1D2E PUSH2 0x144B DUP5 CALLER PUSH2 0x319A JUMP JUMPDEST PUSH2 0x3262 JUMP JUMPDEST POP CALLVALUE PUSH2 0x303 JUMPI CALLDATASIZE PUSH1 0x3 NOT ADD SLT PUSH2 0x303 JUMPI PUSH1 0x4 CALLDATALOAD PUSH1 0x1 PUSH1 0x1 PUSH1 0x40 SHL SUB DUP2 GT PUSH2 0x303 JUMPI PUSH2 0x1D62 SWAP1 CALLDATASIZE SWAP1 PUSH1 0x4 ADD PUSH2 0x2E2E JUMP JUMPDEST PUSH1 0x24 CALLDATALOAD PUSH1 0x1 PUSH1 0x1 PUSH1 0x40 SHL SUB DUP2 GT PUSH2 0x303 JUMPI PUSH2 0x1D81 SWAP1 CALLDATASIZE SWAP1 PUSH1 0x4 ADD PUSH2 0x2E2E JUMP JUMPDEST PUSH1 0x44 CALLDATALOAD PUSH1 0x1 PUSH1 0x1 PUSH1 0x40 SHL SUB DUP2 GT PUSH2 0x303 JUMPI PUSH2 0x1DA0 SWAP1 CALLDATASIZE SWAP1 PUSH1 0x4 ADD PUSH2 0x2E2E JUMP JUMPDEST SWAP1 PUSH1 0x84 CALLDATALOAD PUSH1 0x1 PUSH1 0x1 PUSH1 0x40 SHL SUB DUP2 GT PUSH2 0x303 JUMPI PUSH2 0x1DC0 SWAP1 CALLDATASIZE SWAP1 PUSH1 0x4 ADD PUSH2 0x2E2E JUMP JUMPDEST SWAP3 DUP1 MLOAD ISZERO PUSH2 0x25B7 JUMPI DUP2 MLOAD ISZERO PUSH2 0x2572 JUMPI PUSH1 0xFF PUSH1 0x40 MLOAD PUSH1 0x20 DUP2 DUP5 MLOAD PUSH2 0x1DE6 DUP2 DUP4 DUP6 DUP10 ADD PUSH2 0x2BCF JUMP JUMPDEST DUP2 ADD PUSH1 0xC DUP2 MSTORE SUB ADD SWAP1 KECCAK256 SLOAD AND PUSH2 0x252D JUMPI PUSH1 0x8 SLOAD SWAP3 PUSH1 0x1 DUP5 ADD PUSH1 0x8 SSTORE PUSH1 0x40 MLOAD PUSH2 0x1E0D DUP2 PUSH2 0x2D85 JUMP JUMPDEST PUSH1 0x0 DUP2 MSTORE CALLER ISZERO PUSH2 0x24E9 JUMPI PUSH1 0x0 DUP6 DUP2 MSTORE PUSH1 0x2 PUSH1 0x20 MSTORE PUSH1 0x40 SWAP1 KECCAK256 SLOAD PUSH2 0x1ECB SWAP2 PUSH2 0x1460 SWAP2 PUSH2 0x1E44 SWAP1 PUSH1 0x1 PUSH1 0x1 PUSH1 0xA0 SHL SUB AND ISZERO ISZERO JUMPDEST ISZERO PUSH2 0x355F JUMP JUMPDEST PUSH1 0x0 DUP8 DUP2 MSTORE PUSH1 0x2 PUSH1 0x20 MSTORE PUSH1 0x40 SWAP1 KECCAK256 SLOAD PUSH2 0x1E67 SWAP1 PUSH1 0x1 PUSH1 0x1 PUSH1 0xA0 SHL SUB AND ISZERO ISZERO PUSH2 0x1E3E JUMP JUMPDEST CALLER PUSH1 0x0 MSTORE PUSH1 0x3 PUSH1 0x20 MSTORE PUSH1 0x40 PUSH1 0x0 KECCAK256 PUSH1 0x1 DUP2 SLOAD ADD SWAP1 SSTORE DUP7 PUSH1 0x0 MSTORE PUSH1 0x2 PUSH1 0x20 MSTORE PUSH1 0x40 PUSH1 0x0 KECCAK256 CALLER PUSH1 0x1 PUSH1 0x1 PUSH1 0x60 SHL SUB PUSH1 0xA0 SHL DUP3 SLOAD AND OR SWAP1 SSTORE DUP7 CALLER PUSH1 0x0 PUSH32 0xDDF252AD1BE2C89B69C2B068FC378DAA952BA7F163C4A11628F55A4DF523B3EF DUP2 DUP1 LOG4 DUP7 CALLER PUSH2 0x3373 JUMP JUMPDEST DUP4 PUSH1 0x0 MSTORE PUSH1 0xB PUSH1 0x20 MSTORE PUSH1 0x40 PUSH1 0x0 KECCAK256 DUP3 MLOAD PUSH1 0x1 PUSH1 0x1 PUSH1 0x40 SHL SUB DUP2 GT PUSH2 0x22A6 JUMPI PUSH2 0x1EF3 DUP3 SLOAD PUSH2 0x2EDC JUMP JUMPDEST PUSH1 0x1F DUP2 GT PUSH2 0x24A5 JUMPI JUMPDEST POP DUP1 PUSH1 0x20 PUSH1 0x1F DUP3 GT PUSH1 0x1 EQ PUSH2 0x2441 JUMPI PUSH1 0x0 SWAP2 PUSH2 0x2436 JUMPI JUMPDEST POP DUP2 PUSH1 0x1 SHL SWAP2 PUSH1 0x0 NOT SWAP1 PUSH1 0x3 SHL SHR NOT AND OR DUP2 SSTORE JUMPDEST DUP4 MLOAD PUSH1 0x1 PUSH1 0x1 PUSH1 0x40 SHL SUB DUP2 GT PUSH2 0x22A6 JUMPI PUSH2 0x1F44 PUSH1 0x1 DUP4 ADD SLOAD PUSH2 0x2EDC JUMP JUMPDEST PUSH1 0x1F DUP2 GT PUSH2 0x23EF JUMPI JUMPDEST POP DUP1 PUSH1 0x20 PUSH1 0x1F DUP3 GT PUSH1 0x1 EQ PUSH2 0x2384 JUMPI PUSH1 0x0 SWAP2 PUSH2 0x2379 JUMPI JUMPDEST POP DUP2 PUSH1 0x1 SHL SWAP2 PUSH1 0x0 NOT SWAP1 PUSH1 0x3 SHL SHR NOT AND OR PUSH1 0x1 DUP3 ADD SSTORE JUMPDEST DUP2 MLOAD PUSH1 0x1 PUSH1 0x1 PUSH1 0x40 SHL SUB DUP2 GT PUSH2 0x22A6 JUMPI PUSH2 0x1F98 PUSH1 0x2 DUP4 ADD SLOAD PUSH2 0x2EDC JUMP JUMPDEST PUSH1 0x1F DUP2 GT PUSH2 0x2332 JUMPI JUMPDEST POP DUP1 PUSH1 0x20 PUSH1 0x1F DUP3 GT PUSH1 0x1 EQ PUSH2 0x22C7 JUMPI PUSH1 0x0 SWAP2 PUSH2 0x22BC JUMPI JUMPDEST POP DUP2 PUSH1 0x1 SHL SWAP2 PUSH1 0x0 NOT SWAP1 PUSH1 0x3 SHL SHR NOT AND OR PUSH1 0x2 DUP3 ADD SSTORE JUMPDEST PUSH1 0x64 CALLDATALOAD PUSH1 0x3 DUP3 ADD SSTORE DUP6 MLOAD PUSH1 0x1 PUSH1 0x1 PUSH1 0x40 SHL SUB DUP2 GT PUSH2 0x22A6 JUMPI PUSH2 0x1FF4 PUSH1 0x4 DUP4 ADD SLOAD PUSH2 0x2EDC JUMP JUMPDEST SWAP7 PUSH1 0x1F DUP9 GT PUSH2 0x225F JUMPI JUMPDEST DUP7 SWAP8 POP PUSH1 0x0 SWAP7 SWAP6 SWAP7 POP PUSH1 0x20 SWAP1 PUSH1 0x1F DUP4 GT PUSH1 0x1 EQ PUSH2 0x21BC JUMPI PUSH1 0x20 PUSH2 0x2129 SWAP6 PUSH32 0x90E8F7C94B32BA9B4E353E2E85BE612B1DD84A28D7334362B89E67C1729A2AB1 SWAP8 SWAP6 DUP6 PUSH2 0x2112 SWAP7 DUP12 SWAP7 PUSH2 0x2103 SWAP7 PUSH1 0x0 SWAP3 PUSH2 0x21B1 JUMPI JUMPDEST POP POP DUP2 PUSH1 0x1 SHL SWAP2 PUSH1 0x0 NOT SWAP1 PUSH1 0x3 SHL SHR NOT AND OR PUSH1 0x4 DUP3 ADD SSTORE JUMPDEST PUSH1 0xA4 CALLDATALOAD PUSH1 0x5 DUP3 ADD SSTORE PUSH1 0xC4 CALLDATALOAD PUSH1 0x6 DUP3 ADD SSTORE PUSH1 0x0 PUSH1 0x11 PUSH1 0x7 DUP4 ADD SWAP3 PUSH1 0xFF NOT SWAP4 DUP5 DUP2 SLOAD AND SWAP1 SSTORE DUP3 PUSH1 0x8 DUP3 ADD SSTORE DUP3 PUSH1 0x9 DUP3 ADD SSTORE DUP3 PUSH1 0xA DUP3 ADD SSTORE DUP3 PUSH1 0xB DUP3 ADD SSTORE DUP3 PUSH1 0xC DUP3 ADD SSTORE DUP3 PUSH1 0xD DUP3 ADD SSTORE DUP3 PUSH1 0xE DUP3 ADD SSTORE DUP3 PUSH1 0xF DUP3 ADD SSTORE DUP3 PUSH1 0x10 DUP3 ADD SSTORE ADD SSTORE PUSH1 0x1 PUSH1 0x40 MLOAD DUP5 DUP2 DUP2 PUSH2 0x20DC DUP13 DUP4 DUP2 MLOAD SWAP4 DUP5 SWAP3 ADD PUSH2 0x2BCF JUMP JUMPDEST DUP2 ADD PUSH1 0xC DUP2 MSTORE SUB ADD SWAP1 KECCAK256 SWAP2 DUP3 SLOAD AND OR SWAP1 SSTORE CALLER PUSH1 0x0 MSTORE PUSH1 0xD DUP3 MSTORE PUSH2 0x133E DUP5 PUSH1 0x40 PUSH1 0x0 KECCAK256 PUSH2 0x3518 JUMP JUMPDEST DUP2 ADD PUSH1 0x9 DUP2 MSTORE SUB ADD SWAP1 KECCAK256 PUSH2 0x3518 JUMP JUMPDEST PUSH2 0x2138 PUSH1 0x40 MLOAD SWAP3 DUP4 SWAP3 PUSH1 0x40 DUP5 MSTORE PUSH1 0x40 DUP5 ADD SWAP1 PUSH2 0x2BF2 JUMP JUMPDEST DUP3 DUP2 SUB PUSH1 0x20 DUP5 ADD MSTORE CALLER SWAP7 PUSH2 0x2BF2 JUMP JUMPDEST SUB SWAP1 LOG3 PUSH1 0x0 DUP1 MLOAD PUSH1 0x20 PUSH2 0x3BFA DUP4 CODECOPY DUP2 MLOAD SWAP2 MSTORE PUSH1 0x20 PUSH1 0x40 MLOAD DUP4 DUP2 MSTORE LOG1 PUSH1 0x64 CALLDATALOAD PUSH2 0x2166 JUMPI JUMPDEST PUSH1 0x20 SWAP1 PUSH1 0x40 MLOAD SWAP1 DUP2 MSTORE RETURN JUMPDEST PUSH4 0x1E13380 PUSH1 0x64 CALLDATALOAD DIV SWAP1 PUSH2 0x7B2 DUP3 ADD DUP1 SWAP3 GT PUSH2 0x219B JUMPI PUSH1 0x20 SWAP2 PUSH1 0x0 MSTORE PUSH1 0xA DUP3 MSTORE PUSH2 0x2194 DUP2 PUSH1 0x40 PUSH1 0x0 KECCAK256 PUSH2 0x3518 JUMP JUMPDEST SWAP1 POP PUSH2 0x215B JUMP JUMPDEST PUSH4 0x4E487B71 PUSH1 0xE0 SHL PUSH1 0x0 MSTORE PUSH1 0x11 PUSH1 0x4 MSTORE PUSH1 0x24 PUSH1 0x0 REVERT JUMPDEST ADD MLOAD SWAP1 POP CODESIZE DUP1 PUSH2 0x2051 JUMP JUMPDEST SWAP1 PUSH1 0x4 DUP5 ADD PUSH1 0x0 MSTORE PUSH1 0x20 PUSH1 0x0 KECCAK256 SWAP2 PUSH1 0x0 JUMPDEST PUSH1 0x1F NOT DUP6 AND DUP2 LT PUSH2 0x2244 JUMPI POP PUSH2 0x2129 SWAP6 PUSH32 0x90E8F7C94B32BA9B4E353E2E85BE612B1DD84A28D7334362B89E67C1729A2AB1 SWAP8 SWAP6 PUSH1 0x1 DUP7 DUP12 SWAP7 PUSH2 0x2103 SWAP7 PUSH1 0x20 SWAP7 PUSH2 0x2112 SWAP11 PUSH1 0x1F NOT DUP2 AND LT PUSH2 0x222B JUMPI JUMPDEST POP POP POP DUP2 SHL ADD PUSH1 0x4 DUP3 ADD SSTORE PUSH2 0x2069 JUMP JUMPDEST ADD MLOAD PUSH1 0x0 NOT PUSH1 0xF8 DUP5 PUSH1 0x3 SHL AND SHR NOT AND SWAP1 SSTORE CODESIZE DUP1 DUP1 PUSH2 0x221B JUMP JUMPDEST DUP2 DUP4 ADD MLOAD DUP5 SSTORE DUP11 SWAP9 POP PUSH1 0x1 SWAP1 SWAP4 ADD SWAP3 PUSH1 0x20 SWAP3 DUP4 ADD SWAP3 ADD PUSH2 0x21CD JUMP JUMPDEST PUSH1 0x4 DUP4 ADD PUSH1 0x0 MSTORE PUSH1 0x20 PUSH1 0x0 KECCAK256 PUSH1 0x1F DUP4 ADD PUSH1 0x5 SHR DUP2 ADD PUSH1 0x20 DUP5 LT PUSH2 0x229F JUMPI JUMPDEST PUSH1 0x1F DUP11 ADD PUSH1 0x5 SHR DUP3 ADD DUP2 LT PUSH2 0x2293 JUMPI POP POP PUSH2 0x1FFE JUMP JUMPDEST PUSH1 0x0 DUP2 SSTORE PUSH1 0x1 ADD PUSH2 0x227D JUMP JUMPDEST POP DUP1 PUSH2 0x227D JUMP JUMPDEST PUSH4 0x4E487B71 PUSH1 0xE0 SHL PUSH1 0x0 MSTORE PUSH1 0x41 PUSH1 0x4 MSTORE PUSH1 0x24 PUSH1 0x0 REVERT JUMPDEST SWAP1 POP DUP4 ADD MLOAD CODESIZE PUSH2 0x1FB8 JUMP JUMPDEST PUSH1 0x2 DUP5 ADD PUSH1 0x0 SWAP1 DUP2 MSTORE PUSH1 0x20 DUP2 KECCAK256 SWAP3 POP PUSH1 0x1F NOT DUP5 AND SWAP1 JUMPDEST DUP2 DUP2 LT PUSH2 0x231A JUMPI POP SWAP1 DUP4 PUSH1 0x1 SWAP5 SWAP4 SWAP3 LT PUSH2 0x2301 JUMPI JUMPDEST POP POP DUP2 SHL ADD PUSH1 0x2 DUP3 ADD SSTORE PUSH2 0x1FCF JUMP JUMPDEST DUP6 ADD MLOAD PUSH1 0x0 NOT PUSH1 0xF8 DUP5 PUSH1 0x3 SHL AND SHR NOT AND SWAP1 SSTORE CODESIZE DUP1 PUSH2 0x22F2 JUMP JUMPDEST SWAP2 SWAP3 PUSH1 0x20 PUSH1 0x1 DUP2 SWAP3 DUP7 DUP11 ADD MLOAD DUP2 SSTORE ADD SWAP5 ADD SWAP3 ADD PUSH2 0x22DD JUMP JUMPDEST PUSH1 0x2 DUP4 ADD PUSH1 0x0 MSTORE PUSH1 0x20 PUSH1 0x0 KECCAK256 PUSH1 0x1F DUP4 ADD PUSH1 0x5 SHR DUP2 ADD PUSH1 0x20 DUP5 LT PUSH2 0x2372 JUMPI JUMPDEST PUSH1 0x1F DUP4 ADD PUSH1 0x5 SHR DUP3 ADD DUP2 LT PUSH2 0x2366 JUMPI POP POP PUSH2 0x1FA1 JUMP JUMPDEST PUSH1 0x0 DUP2 SSTORE PUSH1 0x1 ADD PUSH2 0x2350 JUMP JUMPDEST POP DUP1 PUSH2 0x2350 JUMP JUMPDEST SWAP1 POP DUP6 ADD MLOAD CODESIZE PUSH2 0x1F64 JUMP JUMPDEST PUSH1 0x1 DUP5 ADD PUSH1 0x0 SWAP1 DUP2 MSTORE PUSH1 0x20 DUP2 KECCAK256 SWAP3 POP PUSH1 0x1F NOT DUP5 AND SWAP1 JUMPDEST DUP2 DUP2 LT PUSH2 0x23D7 JUMPI POP SWAP1 DUP4 PUSH1 0x1 SWAP5 SWAP4 SWAP3 LT PUSH2 0x23BE JUMPI JUMPDEST POP POP DUP2 SHL ADD PUSH1 0x1 DUP3 ADD SSTORE PUSH2 0x1F7B JUMP JUMPDEST DUP8 ADD MLOAD PUSH1 0x0 NOT PUSH1 0xF8 DUP5 PUSH1 0x3 SHL AND SHR NOT AND SWAP1 SSTORE CODESIZE DUP1 PUSH2 0x23AF JUMP JUMPDEST SWAP2 SWAP3 PUSH1 0x20 PUSH1 0x1 DUP2 SWAP3 DUP7 DUP13 ADD MLOAD DUP2 SSTORE ADD SWAP5 ADD SWAP3 ADD PUSH2 0x239A JUMP JUMPDEST PUSH1 0x1 DUP4 ADD PUSH1 0x0 MSTORE PUSH1 0x20 PUSH1 0x0 KECCAK256 PUSH1 0x1F DUP4 ADD PUSH1 0x5 SHR DUP2 ADD PUSH1 0x20 DUP5 LT PUSH2 0x242F JUMPI JUMPDEST PUSH1 0x1F DUP4 ADD PUSH1 0x5 SHR DUP3 ADD DUP2 LT PUSH2 0x2423 JUMPI POP POP PUSH2 0x1F4D JUMP JUMPDEST PUSH1 0x0 DUP2 SSTORE PUSH1 0x1 ADD PUSH2 0x240D JUMP JUMPDEST POP DUP1 PUSH2 0x240D JUMP JUMPDEST SWAP1 POP DUP5 ADD MLOAD CODESIZE PUSH2 0x1F13 JUMP JUMPDEST PUSH1 0x0 DUP5 DUP2 MSTORE PUSH1 0x20 DUP2 KECCAK256 SWAP3 POP PUSH1 0x1F NOT DUP5 AND SWAP1 JUMPDEST DUP2 DUP2 LT PUSH2 0x248D JUMPI POP SWAP1 DUP4 PUSH1 0x1 SWAP5 SWAP4 SWAP3 LT PUSH2 0x2474 JUMPI JUMPDEST POP POP DUP2 SHL ADD DUP2 SSTORE PUSH2 0x1F27 JUMP JUMPDEST DUP7 ADD MLOAD PUSH1 0x0 NOT PUSH1 0xF8 DUP5 PUSH1 0x3 SHL AND SHR NOT AND SWAP1 SSTORE CODESIZE DUP1 PUSH2 0x2468 JUMP JUMPDEST SWAP2 SWAP3 PUSH1 0x20 PUSH1 0x1 DUP2 SWAP3 DUP7 DUP12 ADD MLOAD DUP2 SSTORE ADD SWAP5 ADD SWAP3 ADD PUSH2 0x2453 JUMP JUMPDEST DUP3 PUSH1 0x0 MSTORE PUSH1 0x20 PUSH1 0x0 KECCAK256 PUSH1 0x1F DUP4 ADD PUSH1 0x5 SHR DUP2 ADD PUSH1 0x20 DUP5 LT PUSH2 0x24E2 JUMPI JUMPDEST PUSH1 0x1F DUP4 ADD PUSH1 0x5 SHR DUP3 ADD DUP2 LT PUSH2 0x24D6 JUMPI POP POP PUSH2 0x1EFC JUMP JUMPDEST PUSH1 0x0 DUP2 SSTORE PUSH1 0x1 ADD PUSH2 0x24C0 JUMP JUMPDEST POP DUP1 PUSH2 0x24C0 JUMP JUMPDEST PUSH1 0x64 PUSH1 0x40 MLOAD PUSH3 0x461BCD PUSH1 0xE5 SHL DUP2 MSTORE PUSH1 0x20 PUSH1 0x4 DUP3 ADD MSTORE PUSH1 0x20 PUSH1 0x24 DUP3 ADD MSTORE PUSH32 0x4552433732313A206D696E7420746F20746865207A65726F2061646472657373 PUSH1 0x44 DUP3 ADD MSTORE REVERT JUMPDEST PUSH1 0x40 MLOAD PUSH3 0x461BCD PUSH1 0xE5 SHL DUP2 MSTORE PUSH1 0x20 PUSH1 0x4 DUP3 ADD MSTORE PUSH1 0x17 PUSH1 0x24 DUP3 ADD MSTORE PUSH32 0x50726F706572747920616C726561647920657869737473000000000000000000 PUSH1 0x44 DUP3 ADD MSTORE PUSH1 0x64 SWAP1 REVERT JUMPDEST PUSH1 0x40 MLOAD PUSH3 0x461BCD PUSH1 0xE5 SHL DUP2 MSTORE PUSH1 0x20 PUSH1 0x4 DUP3 ADD MSTORE PUSH1 0x1A PUSH1 0x24 DUP3 ADD MSTORE PUSH32 0x4F776E6572206E616D652063616E6E6F7420626520656D707479000000000000 PUSH1 0x44 DUP3 ADD MSTORE PUSH1 0x64 SWAP1 REVERT JUMPDEST PUSH1 0x64 PUSH1 0x40 MLOAD PUSH3 0x461BCD PUSH1 0xE5 SHL DUP2 MSTORE PUSH1 0x20 PUSH1 0x4 DUP3 ADD MSTORE PUSH1 0x20 PUSH1 0x24 DUP3 ADD MSTORE PUSH32 0x50726F706572747920616464726573732063616E6E6F7420626520656D707479 PUSH1 0x44 DUP3 ADD MSTORE REVERT JUMPDEST CALLVALUE PUSH2 0x303 JUMPI PUSH1 0x40 CALLDATASIZE PUSH1 0x3 NOT ADD SLT PUSH2 0x303 JUMPI PUSH1 0x4 CALLDATALOAD PUSH2 0x2617 PUSH2 0x2D5A JUMP JUMPDEST PUSH1 0x0 DUP3 DUP2 MSTORE PUSH1 0x2 PUSH1 0x20 MSTORE PUSH1 0x40 SWAP1 KECCAK256 SLOAD SWAP1 SWAP2 SWAP1 PUSH2 0x263D SWAP1 PUSH1 0x1 PUSH1 0x1 PUSH1 0xA0 SHL SUB AND ISZERO ISZERO PUSH2 0x35AB JUMP JUMPDEST DUP1 PUSH1 0x0 MSTORE PUSH1 0x20 SWAP1 PUSH1 0xB DUP3 MSTORE PUSH1 0xFF PUSH1 0x7 PUSH1 0x40 PUSH1 0x0 KECCAK256 ADD SLOAD AND PUSH2 0x2865 JUMPI DUP1 PUSH1 0x0 MSTORE PUSH1 0xB DUP3 MSTORE PUSH1 0x12 PUSH1 0x40 PUSH1 0x0 KECCAK256 ADD CALLER PUSH1 0x0 MSTORE DUP3 MSTORE PUSH1 0xFF PUSH1 0x40 PUSH1 0x0 KECCAK256 SLOAD AND PUSH2 0x2830 JUMPI CALLER PUSH1 0x1 PUSH1 0x1 PUSH1 0xA0 SHL SUB PUSH2 0x268D DUP4 PUSH2 0x3060 JUMP JUMPDEST AND EQ PUSH2 0x27EB JUMPI DUP1 PUSH1 0x0 MSTORE PUSH1 0xB DUP3 MSTORE PUSH1 0x40 PUSH1 0x0 KECCAK256 SWAP3 CALLER PUSH1 0x0 MSTORE PUSH1 0x12 DUP5 ADD DUP4 MSTORE PUSH1 0x40 PUSH1 0x0 KECCAK256 SWAP1 PUSH1 0xFF NOT SWAP2 PUSH1 0x1 DUP4 DUP3 SLOAD AND OR SWAP1 SSTORE PUSH1 0x0 EQ PUSH2 0x275D JUMPI PUSH1 0x3 PUSH1 0x9 DUP6 ADD PUSH2 0x26D5 DUP2 SLOAD PUSH2 0x35F7 JUMP JUMPDEST DUP1 SWAP2 SSTORE PUSH1 0x40 MLOAD PUSH1 0x1 DUP2 MSTORE DUP5 PUSH32 0xE71FCDAC32DF1877C1700E7BDA2A03157E20993363A28FC35AC495CEFC76E4D4 DUP8 CALLER SWAP4 LOG3 LT ISZERO PUSH2 0x270D JUMPI STOP JUMPDEST PUSH1 0x1 PUSH1 0x7 PUSH1 0x0 DUP1 MLOAD PUSH1 0x20 PUSH2 0x3BFA DUP4 CODECOPY DUP2 MLOAD SWAP2 MSTORE SWAP6 ADD SWAP2 DUP3 SLOAD AND OR SWAP1 SSTORE DUP1 PUSH32 0xAFDCC517A26E633F535AA9CEBEC29F4281AB2FFA922A475B12FD1297AD765BC8 DUP4 PUSH1 0x40 MLOAD PUSH1 0x1 DUP2 MSTORE LOG2 PUSH1 0x40 MLOAD SWAP1 DUP2 MSTORE LOG1 STOP JUMPDEST POP SWAP2 PUSH1 0xA PUSH1 0x2 SWAP2 ADD PUSH2 0x276F DUP2 SLOAD PUSH2 0x35F7 JUMP JUMPDEST DUP1 SWAP2 SSTORE PUSH1 0x40 MLOAD PUSH1 0x0 DUP2 MSTORE DUP5 PUSH32 0xE71FCDAC32DF1877C1700E7BDA2A03157E20993363A28FC35AC495CEFC76E4D4 DUP6 CALLER SWAP4 LOG3 LT ISZERO PUSH2 0x27A7 JUMPI STOP JUMPDEST DUP2 PUSH1 0x0 DUP1 MLOAD PUSH1 0x20 PUSH2 0x3BFA DUP4 CODECOPY DUP2 MLOAD SWAP2 MSTORE SWAP3 PUSH32 0xAFDCC517A26E633F535AA9CEBEC29F4281AB2FFA922A475B12FD1297AD765BC8 DUP4 PUSH1 0x40 MLOAD PUSH1 0x0 DUP2 MSTORE LOG2 PUSH1 0x40 MLOAD SWAP1 DUP2 MSTORE LOG1 STOP JUMPDEST PUSH1 0x40 MLOAD PUSH3 0x461BCD PUSH1 0xE5 SHL DUP2 MSTORE PUSH1 0x4 DUP2 ADD DUP4 SWAP1 MSTORE PUSH1 0x1B PUSH1 0x24 DUP3 ADD MSTORE PUSH32 0x43616E6E6F7420766F7465206F6E206F776E2070726F70657274790000000000 PUSH1 0x44 DUP3 ADD MSTORE PUSH1 0x64 SWAP1 REVERT JUMPDEST PUSH1 0x40 MLOAD PUSH3 0x461BCD PUSH1 0xE5 SHL DUP2 MSTORE PUSH1 0x4 DUP2 ADD DUP4 SWAP1 MSTORE PUSH1 0xD PUSH1 0x24 DUP3 ADD MSTORE PUSH13 0x105B1C9958591E481D9BDD1959 PUSH1 0x9A SHL PUSH1 0x44 DUP3 ADD MSTORE PUSH1 0x64 SWAP1 REVERT JUMPDEST PUSH1 0x40 MLOAD PUSH3 0x461BCD PUSH1 0xE5 SHL DUP2 MSTORE PUSH1 0x4 DUP2 ADD DUP4 SWAP1 MSTORE PUSH1 0x19 PUSH1 0x24 DUP3 ADD MSTORE PUSH32 0x50726F706572747920616C726561647920766572696669656400000000000000 PUSH1 0x44 DUP3 ADD MSTORE PUSH1 0x64 SWAP1 REVERT JUMPDEST CALLVALUE PUSH2 0x303 JUMPI PUSH1 0x40 CALLDATASIZE PUSH1 0x3 NOT ADD SLT PUSH2 0x303 JUMPI PUSH2 0x28C3 PUSH2 0x2C17 JUMP JUMPDEST PUSH1 0x24 CALLDATALOAD SWAP1 PUSH1 0x1 PUSH1 0x1 PUSH1 0xA0 SHL SUB DUP1 DUP1 PUSH2 0x28DA DUP6 PUSH2 0x3060 JUMP JUMPDEST AND SWAP3 AND SWAP2 DUP1 DUP4 EQ PUSH2 0x29D5 JUMPI DUP1 CALLER EQ SWAP1 DUP2 ISZERO PUSH2 0x29B0 JUMPI JUMPDEST POP ISZERO PUSH2 0x2945 JUMPI PUSH1 0x0 DUP4 DUP2 MSTORE PUSH1 0x4 PUSH1 0x20 MSTORE PUSH1 0x40 SWAP1 KECCAK256 DUP1 SLOAD PUSH1 0x1 PUSH1 0x1 PUSH1 0xA0 SHL SUB NOT AND DUP4 OR SWAP1 SSTORE PUSH2 0x291D DUP4 PUSH2 0x3060 JUMP JUMPDEST AND PUSH32 0x8C5BE1E5EBEC7D5BD14F71427D1E84F3DD0314C0F7B2291E5B200AC8C7C3B925 PUSH1 0x0 DUP1 LOG4 STOP JUMPDEST PUSH1 0x40 MLOAD PUSH3 0x461BCD PUSH1 0xE5 SHL DUP2 MSTORE PUSH1 0x20 PUSH1 0x4 DUP3 ADD MSTORE PUSH1 0x3D PUSH1 0x24 DUP3 ADD MSTORE PUSH32 0x4552433732313A20617070726F76652063616C6C6572206973206E6F7420746F PUSH1 0x44 DUP3 ADD MSTORE PUSH32 0x6B656E206F776E6572206F7220617070726F76656420666F7220616C6C000000 PUSH1 0x64 DUP3 ADD MSTORE PUSH1 0x84 SWAP1 REVERT JUMPDEST SWAP1 POP PUSH1 0x0 MSTORE PUSH1 0x5 PUSH1 0x20 MSTORE PUSH1 0x40 PUSH1 0x0 KECCAK256 CALLER PUSH1 0x0 MSTORE PUSH1 0x20 MSTORE PUSH1 0xFF PUSH1 0x40 PUSH1 0x0 KECCAK256 SLOAD AND DUP5 PUSH2 0x28F0 JUMP JUMPDEST PUSH1 0x40 MLOAD PUSH3 0x461BCD PUSH1 0xE5 SHL DUP2 MSTORE PUSH1 0x20 PUSH1 0x4 DUP3 ADD MSTORE PUSH1 0x21 PUSH1 0x24 DUP3 ADD MSTORE PUSH32 0x4552433732313A20617070726F76616C20746F2063757272656E74206F776E65 PUSH1 0x44 DUP3 ADD MSTORE PUSH1 0x39 PUSH1 0xF9 SHL PUSH1 0x64 DUP3 ADD MSTORE PUSH1 0x84 SWAP1 REVERT JUMPDEST CALLVALUE PUSH2 0x303 JUMPI PUSH1 0x20 CALLDATASIZE PUSH1 0x3 NOT ADD SLT PUSH2 0x303 JUMPI PUSH1 0x20 PUSH2 0x1917 PUSH1 0x4 CALLDATALOAD PUSH2 0x3083 JUMP JUMPDEST CALLVALUE PUSH2 0x303 JUMPI PUSH1 0x20 DUP1 PUSH1 0x3 NOT CALLDATASIZE ADD SLT PUSH2 0x303 JUMPI PUSH1 0x1 PUSH1 0x1 PUSH1 0xA0 SHL SUB PUSH2 0x2A64 PUSH2 0x2C17 JUMP JUMPDEST AND PUSH1 0x0 MSTORE PUSH1 0xD DUP2 MSTORE PUSH1 0x40 PUSH1 0x0 KECCAK256 PUSH1 0x40 MLOAD SWAP2 DUP3 DUP2 DUP4 SLOAD SWAP2 DUP3 DUP2 MSTORE ADD SWAP3 PUSH1 0x0 MSTORE DUP2 PUSH1 0x0 KECCAK256 SWAP2 PUSH1 0x0 SWAP1 JUMPDEST DUP3 DUP3 LT PUSH2 0x2AAA JUMPI PUSH2 0xE3D PUSH2 0x19A3 DUP8 PUSH2 0x2AA5 DUP2 DUP10 SUB DUP3 PUSH2 0x2DBB JUMP JUMPDEST PUSH2 0x3A21 JUMP JUMPDEST DUP4 SLOAD DUP6 MSTORE SWAP4 DUP5 ADD SWAP4 PUSH1 0x1 SWAP4 DUP5 ADD SWAP4 SWAP1 SWAP2 ADD SWAP1 PUSH2 0x2A8B JUMP JUMPDEST CALLVALUE PUSH2 0x303 JUMPI PUSH1 0x0 CALLDATASIZE PUSH1 0x3 NOT ADD SLT PUSH2 0x303 JUMPI PUSH1 0x40 MLOAD PUSH1 0x0 DUP1 SLOAD PUSH2 0x2AE2 DUP2 PUSH2 0x2EDC JUMP JUMPDEST DUP1 DUP5 MSTORE SWAP1 PUSH1 0x1 SWAP1 DUP2 DUP2 AND SWAP1 DUP2 ISZERO PUSH2 0x16DE JUMPI POP PUSH1 0x1 EQ PUSH2 0x2B0B JUMPI PUSH2 0xE3D DUP5 PUSH2 0x1671 DUP2 DUP7 SUB DUP3 PUSH2 0x2DBB JUMP JUMPDEST PUSH1 0x0 DUP1 DUP1 MSTORE SWAP3 POP PUSH32 0x290DECD9548B62A8D60345A988386FC84BA6BC95484008F6362F93160EF3E563 JUMPDEST DUP3 DUP5 LT PUSH2 0x2B4C JUMPI POP POP POP DUP2 ADD PUSH1 0x20 ADD PUSH2 0x1671 DUP3 PUSH2 0x1661 JUMP JUMPDEST DUP1 SLOAD PUSH1 0x20 DUP6 DUP8 ADD DUP2 ADD SWAP2 SWAP1 SWAP2 MSTORE SWAP1 SWAP4 ADD SWAP3 DUP2 ADD PUSH2 0x2B34 JUMP JUMPDEST CALLVALUE PUSH2 0x303 JUMPI PUSH1 0x20 CALLDATASIZE PUSH1 0x3 NOT ADD SLT PUSH2 0x303 JUMPI PUSH1 0x4 CALLDATALOAD SWAP1 PUSH4 0xFFFFFFFF PUSH1 0xE0 SHL DUP3 AND DUP1 SWAP3 SUB PUSH2 0x303 JUMPI PUSH1 0x20 SWAP2 PUSH4 0x80AC58CD PUSH1 0xE0 SHL DUP2 EQ SWAP1 DUP2 ISZERO PUSH2 0x2BBE JUMPI JUMPDEST DUP2 ISZERO PUSH2 0x2BAD JUMPI JUMPDEST POP ISZERO ISZERO DUP2 MSTORE RETURN JUMPDEST PUSH4 0x1FFC9A7 PUSH1 0xE0 SHL EQ SWAP1 POP DUP4 PUSH2 0x2BA6 JUMP JUMPDEST PUSH4 0x5B5E139F PUSH1 0xE0 SHL DUP2 EQ SWAP2 POP PUSH2 0x2B9F JUMP JUMPDEST PUSH1 0x0 JUMPDEST DUP4 DUP2 LT PUSH2 0x2BE2 JUMPI POP POP PUSH1 0x0 SWAP2 ADD MSTORE JUMP JUMPDEST DUP2 DUP2 ADD MLOAD DUP4 DUP3 ADD MSTORE PUSH1 0x20 ADD PUSH2 0x2BD2 JUMP JUMPDEST SWAP1 PUSH1 0x20 SWAP2 PUSH2 0x2C0B DUP2 MLOAD DUP1 SWAP3 DUP2 DUP6 MSTORE DUP6 DUP1 DUP7 ADD SWAP2 ADD PUSH2 0x2BCF JUMP JUMPDEST PUSH1 0x1F ADD PUSH1 0x1F NOT AND ADD ADD SWAP1 JUMP JUMPDEST PUSH1 0x4 CALLDATALOAD SWAP1 PUSH1 0x1 PUSH1 0x1 PUSH1 0xA0 SHL SUB DUP3 AND DUP3 SUB PUSH2 0x303 JUMPI JUMP JUMPDEST PUSH1 0x24 CALLDATALOAD SWAP1 PUSH1 0x1 PUSH1 0x1 PUSH1 0xA0 SHL SUB DUP3 AND DUP3 SUB PUSH2 0x303 JUMPI JUMP JUMPDEST PUSH1 0x20 DUP1 DUP3 ADD SWAP1 DUP1 DUP4 MSTORE DUP4 MLOAD DUP1 SWAP3 MSTORE PUSH1 0x40 SWAP3 DUP4 DUP2 ADD DUP3 DUP6 DUP6 PUSH1 0x5 SHL DUP5 ADD ADD SWAP7 ADD SWAP5 PUSH1 0x0 SWAP3 JUMPDEST DUP6 DUP5 LT PUSH2 0x2C78 JUMPI POP POP POP POP POP POP POP SWAP1 JUMP JUMPDEST SWAP1 SWAP2 SWAP3 SWAP4 SWAP5 SWAP6 SWAP7 DUP6 DUP1 PUSH1 0x1 SWAP3 PUSH1 0x3F NOT DUP6 DUP3 SUB ADD DUP8 MSTORE DUP11 MLOAD SWAP1 DUP2 MLOAD DUP2 MSTORE PUSH2 0x2CF4 PUSH2 0x2CD7 PUSH2 0x2CC4 PUSH2 0x2CB4 DUP7 DUP7 ADD MLOAD PUSH2 0x1A0 DUP1 DUP10 DUP9 ADD MSTORE DUP7 ADD SWAP1 PUSH2 0x2BF2 JUMP JUMPDEST DUP11 DUP7 ADD MLOAD DUP6 DUP3 SUB DUP13 DUP8 ADD MSTORE PUSH2 0x2BF2 JUMP JUMPDEST PUSH1 0x60 DUP1 DUP7 ADD MLOAD SWAP1 DUP6 DUP4 SUB SWAP1 DUP7 ADD MSTORE PUSH2 0x2BF2 JUMP JUMPDEST PUSH1 0x80 DUP1 DUP6 ADD MLOAD SWAP1 DUP5 ADD MSTORE PUSH1 0xA0 DUP1 DUP6 ADD MLOAD SWAP1 DUP5 DUP4 SUB SWAP1 DUP6 ADD MSTORE PUSH2 0x2BF2 JUMP JUMPDEST SWAP2 PUSH1 0xC0 DUP1 DUP3 ADD MLOAD SWAP1 DUP4 ADD MSTORE PUSH1 0xE0 DUP1 DUP3 ADD MLOAD SWAP1 DUP4 ADD MSTORE PUSH2 0x100 DUP1 DUP3 ADD MLOAD ISZERO ISZERO SWAP1 DUP4 ADD MSTORE PUSH2 0x120 DUP1 DUP3 ADD MLOAD SWAP1 DUP4 ADD MSTORE PUSH2 0x140 DUP1 DUP3 ADD MLOAD SWAP1 DUP4 ADD MSTORE PUSH2 0x160 DUP1 DUP3 ADD MLOAD SWAP1 DUP4 ADD MSTORE PUSH2 0x180 SWAP1 DUP2 DUP8 DUP1 PUSH1 0xA0 SHL SUB SWAP2 ADD MLOAD AND SWAP2 ADD MSTORE SWAP10 ADD SWAP5 ADD SWAP5 ADD SWAP3 SWAP6 SWAP5 SWAP4 SWAP2 SWAP1 PUSH2 0x2C67 JUMP JUMPDEST PUSH1 0x24 CALLDATALOAD SWAP1 DUP2 ISZERO ISZERO DUP3 SUB PUSH2 0x303 JUMPI JUMP JUMPDEST PUSH2 0x1A0 DUP2 ADD SWAP1 DUP2 LT PUSH1 0x1 PUSH1 0x1 PUSH1 0x40 SHL SUB DUP3 GT OR PUSH2 0x22A6 JUMPI PUSH1 0x40 MSTORE JUMP JUMPDEST PUSH1 0x20 DUP2 ADD SWAP1 DUP2 LT PUSH1 0x1 PUSH1 0x1 PUSH1 0x40 SHL SUB DUP3 GT OR PUSH2 0x22A6 JUMPI PUSH1 0x40 MSTORE JUMP JUMPDEST PUSH1 0x40 DUP2 ADD SWAP1 DUP2 LT PUSH1 0x1 PUSH1 0x1 PUSH1 0x40 SHL SUB DUP3 GT OR PUSH2 0x22A6 JUMPI PUSH1 0x40 MSTORE JUMP JUMPDEST SWAP1 PUSH1 0x1F DUP1 NOT SWAP2 ADD AND DUP2 ADD SWAP1 DUP2 LT PUSH1 0x1 PUSH1 0x1 PUSH1 0x40 SHL SUB DUP3 GT OR PUSH2 0x22A6 JUMPI PUSH1 0x40 MSTORE JUMP JUMPDEST PUSH1 0x1 PUSH1 0x1 PUSH1 0x40 SHL SUB DUP2 GT PUSH2 0x22A6 JUMPI PUSH1 0x1F ADD PUSH1 0x1F NOT AND PUSH1 0x20 ADD SWAP1 JUMP JUMPDEST SWAP3 SWAP2 SWAP3 PUSH2 0x2E03 DUP3 PUSH2 0x2DDC JUMP JUMPDEST SWAP2 PUSH2 0x2E11 PUSH1 0x40 MLOAD SWAP4 DUP5 PUSH2 0x2DBB JUMP JUMPDEST DUP3 SWAP5 DUP2 DUP5 MSTORE DUP2 DUP4 ADD GT PUSH2 0x303 JUMPI DUP3 DUP2 PUSH1 0x20 SWAP4 DUP5 PUSH1 0x0 SWAP7 ADD CALLDATACOPY ADD ADD MSTORE JUMP JUMPDEST SWAP1 DUP1 PUSH1 0x1F DUP4 ADD SLT ISZERO PUSH2 0x303 JUMPI DUP2 PUSH1 0x20 PUSH2 0x2E49 SWAP4 CALLDATALOAD SWAP2 ADD PUSH2 0x2DF7 JUMP JUMPDEST SWAP1 JUMP JUMPDEST PUSH1 0x60 SWAP1 PUSH1 0x3 NOT ADD SLT PUSH2 0x303 JUMPI PUSH1 0x1 PUSH1 0x1 PUSH1 0xA0 SHL SUB SWAP1 PUSH1 0x4 CALLDATALOAD DUP3 DUP2 AND DUP2 SUB PUSH2 0x303 JUMPI SWAP2 PUSH1 0x24 CALLDATALOAD SWAP1 DUP2 AND DUP2 SUB PUSH2 0x303 JUMPI SWAP1 PUSH1 0x44 CALLDATALOAD SWAP1 JUMP JUMPDEST DUP1 SLOAD DUP3 LT ISZERO PUSH2 0x2E99 JUMPI PUSH1 0x0 MSTORE PUSH1 0x20 PUSH1 0x0 KECCAK256 ADD SWAP1 PUSH1 0x0 SWAP1 JUMP JUMPDEST PUSH4 0x4E487B71 PUSH1 0xE0 SHL PUSH1 0x0 MSTORE PUSH1 0x32 PUSH1 0x4 MSTORE PUSH1 0x24 PUSH1 0x0 REVERT JUMPDEST PUSH1 0x1 PUSH1 0x1 PUSH1 0x40 SHL SUB DUP2 GT PUSH2 0x22A6 JUMPI PUSH1 0x5 SHL PUSH1 0x20 ADD SWAP1 JUMP JUMPDEST PUSH1 0x40 SWAP1 PUSH1 0x3 NOT ADD SLT PUSH2 0x303 JUMPI PUSH1 0x4 CALLDATALOAD SWAP1 PUSH1 0x24 CALLDATALOAD SWAP1 JUMP JUMPDEST SWAP1 PUSH1 0x1 DUP3 DUP2 SHR SWAP3 AND DUP1 ISZERO PUSH2 0x2F0C JUMPI JUMPDEST PUSH1 0x20 DUP4 LT EQ PUSH2 0x2EF6 JUMPI JUMP JUMPDEST PUSH4 0x4E487B71 PUSH1 0xE0 SHL PUSH1 0x0 MSTORE PUSH1 0x22 PUSH1 0x4 MSTORE PUSH1 0x24 PUSH1 0x0 REVERT JUMPDEST SWAP2 PUSH1 0x7F AND SWAP2 PUSH2 0x2EEB JUMP JUMPDEST SWAP1 PUSH1 0x40 MLOAD SWAP2 DUP3 PUSH1 0x0 DUP3 SLOAD SWAP3 PUSH2 0x2F2A DUP5 PUSH2 0x2EDC JUMP JUMPDEST SWAP1 DUP2 DUP5 MSTORE PUSH1 0x1 SWAP5 DUP6 DUP2 AND SWAP1 DUP2 PUSH1 0x0 EQ PUSH2 0x2F99 JUMPI POP PUSH1 0x1 EQ PUSH2 0x2F56 JUMPI JUMPDEST POP POP PUSH2 0x2F54 SWAP3 POP SUB DUP4 PUSH2 0x2DBB JUMP JUMPDEST JUMP JUMPDEST SWAP1 SWAP4 SWAP2 POP PUSH1 0x0 MSTORE PUSH1 0x20 SWAP1 DUP2 PUSH1 0x0 KECCAK256 SWAP4 PUSH1 0x0 SWAP2 JUMPDEST DUP2 DUP4 LT PUSH2 0x2F81 JUMPI POP POP PUSH2 0x2F54 SWAP4 POP DUP3 ADD ADD CODESIZE DUP1 PUSH2 0x2F46 JUMP JUMPDEST DUP6 SLOAD DUP9 DUP5 ADD DUP6 ADD MSTORE SWAP5 DUP6 ADD SWAP5 DUP8 SWAP5 POP SWAP2 DUP4 ADD SWAP2 PUSH2 0x2F69 JUMP JUMPDEST SWAP2 POP POP PUSH2 0x2F54 SWAP5 POP PUSH1 0x20 SWAP3 POP PUSH1 0xFF NOT AND DUP3 DUP5 ADD MSTORE ISZERO ISZERO PUSH1 0x5 SHL DUP3 ADD ADD CODESIZE DUP1 PUSH2 0x2F46 JUMP JUMPDEST PUSH1 0x6 SLOAD PUSH1 0x1 PUSH1 0x1 PUSH1 0xA0 SHL SUB AND CALLER SUB PUSH2 0x2FD0 JUMPI JUMP JUMPDEST PUSH1 0x64 PUSH1 0x40 MLOAD PUSH3 0x461BCD PUSH1 0xE5 SHL DUP2 MSTORE PUSH1 0x20 PUSH1 0x4 DUP3 ADD MSTORE PUSH1 0x20 PUSH1 0x24 DUP3 ADD MSTORE PUSH32 0x4F776E61626C653A2063616C6C6572206973206E6F7420746865206F776E6572 PUSH1 0x44 DUP3 ADD MSTORE REVERT JUMPDEST ISZERO PUSH2 0x301B JUMPI JUMP JUMPDEST PUSH1 0x40 MLOAD PUSH3 0x461BCD PUSH1 0xE5 SHL DUP2 MSTORE PUSH1 0x20 PUSH1 0x4 DUP3 ADD MSTORE PUSH1 0x18 PUSH1 0x24 DUP3 ADD MSTORE PUSH32 0x4552433732313A20696E76616C696420746F6B656E2049440000000000000000 PUSH1 0x44 DUP3 ADD MSTORE PUSH1 0x64 SWAP1 REVERT JUMPDEST PUSH1 0x0 SWAP1 DUP2 MSTORE PUSH1 0x2 PUSH1 0x20 MSTORE PUSH1 0x40 SWAP1 KECCAK256 SLOAD PUSH1 0x1 PUSH1 0x1 PUSH1 0xA0 SHL SUB AND PUSH2 0x2E49 DUP2 ISZERO ISZERO PUSH2 0x3014 JUMP JUMPDEST PUSH1 0x0 DUP2 DUP2 MSTORE PUSH1 0x2 PUSH1 0x20 MSTORE PUSH1 0x40 SWAP1 KECCAK256 SLOAD PUSH2 0x30A6 SWAP1 PUSH1 0x1 PUSH1 0x1 PUSH1 0xA0 SHL SUB AND ISZERO ISZERO PUSH2 0x3014 JUMP JUMPDEST PUSH1 0x0 SWAP1 DUP2 MSTORE PUSH1 0x4 PUSH1 0x20 MSTORE PUSH1 0x40 SWAP1 KECCAK256 SLOAD PUSH1 0x1 PUSH1 0x1 PUSH1 0xA0 SHL SUB AND SWAP1 JUMP JUMPDEST ISZERO PUSH2 0x30C8 JUMPI JUMP JUMPDEST PUSH1 0x40 MLOAD PUSH3 0x461BCD PUSH1 0xE5 SHL DUP2 MSTORE PUSH1 0x20 PUSH1 0x4 DUP3 ADD MSTORE PUSH1 0x2D PUSH1 0x24 DUP3 ADD MSTORE PUSH32 0x4552433732313A2063616C6C6572206973206E6F7420746F6B656E206F776E65 PUSH1 0x44 DUP3 ADD MSTORE PUSH13 0x1C881BDC88185C1C1C9BDD9959 PUSH1 0x9A SHL PUSH1 0x64 DUP3 ADD MSTORE PUSH1 0x84 SWAP1 REVERT JUMPDEST PUSH1 0x80 SWAP1 PUSH1 0x20 DUP2 MSTORE PUSH1 0x32 PUSH1 0x20 DUP3 ADD MSTORE PUSH32 0x4552433732313A207472616E7366657220746F206E6F6E204552433732315265 PUSH1 0x40 DUP3 ADD MSTORE PUSH18 0x31B2B4BB32B91034B6B83632B6B2B73A32B9 PUSH1 0x71 SHL PUSH1 0x60 DUP3 ADD MSTORE ADD SWAP1 JUMP JUMPDEST ISZERO PUSH2 0x317D JUMPI JUMP JUMPDEST PUSH1 0x40 MLOAD PUSH3 0x461BCD PUSH1 0xE5 SHL DUP2 MSTORE DUP1 PUSH2 0x3196 PUSH1 0x4 DUP3 ADD PUSH2 0x3123 JUMP JUMPDEST SUB SWAP1 REVERT JUMPDEST SWAP1 PUSH1 0x1 PUSH1 0x1 PUSH1 0xA0 SHL SUB DUP1 DUP1 PUSH2 0x31AE DUP5 PUSH2 0x3060 JUMP JUMPDEST AND SWAP4 AND SWAP2 DUP4 DUP4 EQ SWAP4 DUP5 ISZERO PUSH2 0x31E1 JUMPI JUMPDEST POP DUP4 ISZERO PUSH2 0x31CB JUMPI JUMPDEST POP POP POP SWAP1 JUMP JUMPDEST PUSH2 0x31D7 SWAP2 SWAP3 SWAP4 POP PUSH2 0x3083 JUMP JUMPDEST AND EQ CODESIZE DUP1 DUP1 PUSH2 0x31C5 JUMP JUMPDEST SWAP1 SWAP4 POP PUSH1 0x0 MSTORE PUSH1 0x5 PUSH1 0x20 MSTORE PUSH1 0x40 PUSH1 0x0 KECCAK256 DUP3 PUSH1 0x0 MSTORE PUSH1 0x20 MSTORE PUSH1 0xFF PUSH1 0x40 PUSH1 0x0 KECCAK256 SLOAD AND SWAP3 CODESIZE PUSH2 0x31BD JUMP JUMPDEST ISZERO PUSH2 0x320F JUMPI JUMP JUMPDEST PUSH1 0x40 MLOAD PUSH3 0x461BCD PUSH1 0xE5 SHL DUP2 MSTORE PUSH1 0x20 PUSH1 0x4 DUP3 ADD MSTORE PUSH1 0x25 PUSH1 0x24 DUP3 ADD MSTORE PUSH32 0x4552433732313A207472616E736665722066726F6D20696E636F727265637420 PUSH1 0x44 DUP3 ADD MSTORE PUSH5 0x37BBB732B9 PUSH1 0xD9 SHL PUSH1 0x64 DUP3 ADD MSTORE PUSH1 0x84 SWAP1 REVERT JUMPDEST SWAP1 PUSH2 0x328A SWAP2 PUSH2 0x3270 DUP5 PUSH2 0x3060 JUMP JUMPDEST PUSH1 0x1 PUSH1 0x1 PUSH1 0xA0 SHL SUB SWAP4 SWAP2 DUP5 AND SWAP3 DUP5 SWAP3 SWAP1 SWAP2 DUP4 AND DUP5 EQ PUSH2 0x3208 JUMP JUMPDEST AND SWAP2 DUP3 ISZERO PUSH2 0x3322 JUMPI DUP2 PUSH2 0x32A7 SWAP2 PUSH2 0x32A0 DUP7 PUSH2 0x3060 JUMP JUMPDEST AND EQ PUSH2 0x3208 JUMP JUMPDEST PUSH32 0xDDF252AD1BE2C89B69C2B068FC378DAA952BA7F163C4A11628F55A4DF523B3EF PUSH1 0x0 DUP5 DUP2 MSTORE PUSH1 0x4 PUSH1 0x20 MSTORE PUSH1 0x40 DUP2 KECCAK256 PUSH1 0x1 PUSH1 0x1 PUSH1 0x60 SHL SUB PUSH1 0xA0 SHL SWAP1 DUP2 DUP2 SLOAD AND SWAP1 SSTORE DUP4 DUP3 MSTORE PUSH1 0x3 PUSH1 0x20 MSTORE PUSH1 0x40 DUP3 KECCAK256 PUSH1 0x0 NOT DUP2 SLOAD ADD SWAP1 SSTORE DUP5 DUP3 MSTORE PUSH1 0x40 DUP3 KECCAK256 PUSH1 0x1 DUP2 SLOAD ADD SWAP1 SSTORE DUP6 DUP3 MSTORE PUSH1 0x2 PUSH1 0x20 MSTORE DUP5 PUSH1 0x40 DUP4 KECCAK256 SWAP2 DUP3 SLOAD AND OR SWAP1 SSTORE DUP1 LOG4 JUMP JUMPDEST PUSH1 0x40 MLOAD PUSH3 0x461BCD PUSH1 0xE5 SHL DUP2 MSTORE PUSH1 0x20 PUSH1 0x4 DUP3 ADD MSTORE PUSH1 0x24 DUP1 DUP3 ADD MSTORE PUSH32 0x4552433732313A207472616E7366657220746F20746865207A65726F20616464 PUSH1 0x44 DUP3 ADD MSTORE PUSH4 0x72657373 PUSH1 0xE0 SHL PUSH1 0x64 DUP3 ADD MSTORE PUSH1 0x84 SWAP1 REVERT JUMPDEST SWAP2 SWAP3 SWAP1 SWAP2 DUP1 EXTCODESIZE ISZERO PUSH2 0x3488 JUMPI PUSH2 0x33C0 SWAP4 PUSH1 0x40 MLOAD SWAP1 DUP2 PUSH4 0xA85BD01 PUSH1 0xE1 SHL SWAP4 DUP5 DUP3 MSTORE CALLER PUSH1 0x4 DUP4 ADD MSTORE PUSH1 0x0 SWAP7 DUP8 PUSH1 0x24 DUP5 ADD MSTORE PUSH1 0x44 DUP4 ADD MSTORE PUSH1 0x80 PUSH1 0x64 DUP4 ADD MSTORE DUP2 DUP8 DUP2 PUSH1 0x20 SWAP11 DUP12 SWAP7 PUSH1 0x84 DUP4 ADD SWAP1 PUSH2 0x2BF2 JUMP JUMPDEST SUB SWAP3 PUSH1 0x1 PUSH1 0x1 PUSH1 0xA0 SHL SUB AND GAS CALL DUP5 SWAP2 DUP2 PUSH2 0x3444 JUMPI JUMPDEST POP PUSH2 0x3433 JUMPI POP POP POP RETURNDATASIZE PUSH1 0x0 EQ PUSH2 0x342B JUMPI RETURNDATASIZE PUSH2 0x33EF DUP2 PUSH2 0x2DDC JUMP JUMPDEST SWAP1 PUSH2 0x33FD PUSH1 0x40 MLOAD SWAP3 DUP4 PUSH2 0x2DBB JUMP JUMPDEST DUP2 MSTORE DUP1 SWAP2 DUP4 RETURNDATASIZE SWAP3 ADD RETURNDATACOPY JUMPDEST DUP1 MLOAD SWAP2 DUP3 PUSH2 0x3428 JUMPI PUSH1 0x40 MLOAD PUSH3 0x461BCD PUSH1 0xE5 SHL DUP2 MSTORE DUP1 PUSH2 0x3196 PUSH1 0x4 DUP3 ADD PUSH2 0x3123 JUMP JUMPDEST ADD REVERT JUMPDEST POP PUSH1 0x60 PUSH2 0x3407 JUMP JUMPDEST PUSH1 0x1 PUSH1 0x1 PUSH1 0xE0 SHL SUB NOT AND EQ SWAP3 POP SWAP1 POP JUMP JUMPDEST SWAP1 SWAP2 POP DUP6 DUP2 DUP2 RETURNDATASIZE DUP4 GT PUSH2 0x3481 JUMPI JUMPDEST PUSH2 0x345C DUP2 DUP4 PUSH2 0x2DBB JUMP JUMPDEST DUP2 ADD SUB SLT PUSH2 0x347D JUMPI MLOAD PUSH1 0x1 PUSH1 0x1 PUSH1 0xE0 SHL SUB NOT DUP2 AND DUP2 SUB PUSH2 0x347D JUMPI SWAP1 CODESIZE PUSH2 0x33D5 JUMP JUMPDEST DUP5 DUP1 REVERT JUMPDEST POP RETURNDATASIZE PUSH2 0x3452 JUMP JUMPDEST POP SWAP2 POP POP PUSH1 0x1 SWAP1 JUMP JUMPDEST SWAP3 SWAP4 SWAP2 SWAP1 DUP1 EXTCODESIZE ISZERO PUSH2 0x350E JUMPI PUSH2 0x34E3 SWAP5 PUSH1 0x40 MLOAD DUP1 SWAP3 PUSH4 0xA85BD01 PUSH1 0xE1 SHL SWAP5 DUP6 DUP4 MSTORE CALLER PUSH1 0x4 DUP5 ADD MSTORE PUSH1 0x1 DUP1 PUSH1 0xA0 SHL SUB DUP1 SWAP9 AND PUSH1 0x24 DUP5 ADD MSTORE PUSH1 0x44 DUP4 ADD MSTORE PUSH1 0x80 PUSH1 0x64 DUP4 ADD MSTORE DUP2 DUP1 PUSH1 0x20 SWAP10 DUP11 SWAP6 PUSH1 0x84 DUP4 ADD SWAP1 PUSH2 0x2BF2 JUMP JUMPDEST SUB SWAP2 PUSH1 0x0 SWAP9 DUP10 SWAP2 AND GAS CALL DUP5 SWAP2 DUP2 PUSH2 0x3444 JUMPI POP PUSH2 0x3433 JUMPI POP POP POP RETURNDATASIZE PUSH1 0x0 EQ PUSH2 0x342B JUMPI RETURNDATASIZE PUSH2 0x33EF DUP2 PUSH2 0x2DDC JUMP JUMPDEST POP POP SWAP2 POP POP PUSH1 0x1 SWAP1 JUMP JUMPDEST DUP1 SLOAD PUSH9 0x10000000000000000 DUP2 LT ISZERO PUSH2 0x22A6 JUMPI PUSH2 0x353A SWAP2 PUSH1 0x1 DUP3 ADD DUP2 SSTORE PUSH2 0x2E81 JUMP JUMPDEST DUP2 SWAP3 SWAP2 SLOAD SWAP1 PUSH1 0x3 SHL SWAP2 DUP3 SHL SWAP2 PUSH1 0x0 NOT SWAP1 SHL NOT AND OR SWAP1 SSTORE JUMP JUMPDEST SWAP2 SWAP1 DUP3 ADD DUP1 SWAP3 GT PUSH2 0x219B JUMPI JUMP JUMPDEST ISZERO PUSH2 0x3566 JUMPI JUMP JUMPDEST PUSH1 0x40 MLOAD PUSH3 0x461BCD PUSH1 0xE5 SHL DUP2 MSTORE PUSH1 0x20 PUSH1 0x4 DUP3 ADD MSTORE PUSH1 0x1C PUSH1 0x24 DUP3 ADD MSTORE PUSH32 0x4552433732313A20746F6B656E20616C7265616479206D696E74656400000000 PUSH1 0x44 DUP3 ADD MSTORE PUSH1 0x64 SWAP1 REVERT JUMPDEST ISZERO PUSH2 0x35B2 JUMPI JUMP JUMPDEST PUSH1 0x40 MLOAD PUSH3 0x461BCD PUSH1 0xE5 SHL DUP2 MSTORE PUSH1 0x20 PUSH1 0x4 DUP3 ADD MSTORE PUSH1 0x17 PUSH1 0x24 DUP3 ADD MSTORE PUSH32 0x50726F706572747920646F6573206E6F74206578697374000000000000000000 PUSH1 0x44 DUP3 ADD MSTORE PUSH1 0x64 SWAP1 REVERT JUMPDEST PUSH1 0x0 NOT DUP2 EQ PUSH2 0x219B JUMPI PUSH1 0x1 ADD SWAP1 JUMP JUMPDEST ISZERO PUSH2 0x360D JUMPI JUMP JUMPDEST PUSH1 0x40 MLOAD PUSH3 0x461BCD PUSH1 0xE5 SHL DUP2 MSTORE PUSH1 0x20 PUSH1 0x4 DUP3 ADD MSTORE PUSH1 0x1E PUSH1 0x24 DUP3 ADD MSTORE PUSH32 0x4E6F7420617574686F72697A656420746F207570646174652076616C75650000 PUSH1 0x44 DUP3 ADD MSTORE PUSH1 0x64 SWAP1 REVERT JUMPDEST PUSH1 0x0 SWAP3 SWAP2 DUP2 SLOAD PUSH2 0x3661 DUP2 PUSH2 0x2EDC JUMP JUMPDEST SWAP3 PUSH1 0x1 SWAP2 DUP1 DUP4 AND SWAP1 DUP2 ISZERO PUSH2 0x36BA JUMPI POP PUSH1 0x1 EQ PUSH2 0x367E JUMPI JUMPDEST POP POP POP POP JUMP JUMPDEST SWAP1 SWAP2 SWAP3 SWAP4 SWAP5 POP PUSH1 0x0 MSTORE PUSH1 0x20 SWAP1 DUP2 PUSH1 0x0 KECCAK256 SWAP1 PUSH1 0x0 SWAP2 JUMPDEST DUP6 DUP4 LT PUSH2 0x36A9 JUMPI POP POP POP POP ADD SWAP1 CODESIZE DUP1 DUP1 DUP1 PUSH2 0x3678 JUMP JUMPDEST DUP1 SLOAD DUP6 DUP5 ADD MSTORE SWAP2 DUP4 ADD SWAP2 DUP2 ADD PUSH2 0x3693 JUMP JUMPDEST PUSH1 0xFF NOT AND DUP5 MSTORE POP POP POP DUP2 ISZERO ISZERO SWAP1 SWAP2 MUL ADD SWAP2 POP CODESIZE DUP1 DUP1 DUP1 PUSH2 0x3678 JUMP JUMPDEST SWAP1 PUSH2 0x36DF DUP3 PUSH2 0x2DDC JUMP JUMPDEST PUSH2 0x36EC PUSH1 0x40 MLOAD SWAP2 DUP3 PUSH2 0x2DBB JUMP JUMPDEST DUP3 DUP2 MSTORE DUP1 SWAP3 PUSH2 0x36FD PUSH1 0x1F NOT SWAP2 PUSH2 0x2DDC JUMP JUMPDEST ADD SWAP1 PUSH1 0x20 CALLDATASIZE SWAP2 ADD CALLDATACOPY JUMP JUMPDEST DUP1 MLOAD ISZERO PUSH2 0x3857 JUMPI PUSH1 0x40 MLOAD SWAP1 PUSH1 0x60 DUP3 ADD DUP3 DUP2 LT PUSH1 0x1 PUSH1 0x1 PUSH1 0x40 SHL SUB DUP3 GT OR PUSH2 0x22A6 JUMPI PUSH1 0x40 MSTORE PUSH1 0x40 DUP3 MSTORE PUSH32 0x4142434445464748494A4B4C4D4E4F505152535455565758595A616263646566 PUSH1 0x20 DUP4 ADD MSTORE PUSH32 0x6768696A6B6C6D6E6F707172737475767778797A303132333435363738392B2F PUSH1 0x40 DUP4 ADD MSTORE DUP1 MLOAD PUSH1 0x2 SWAP2 DUP3 DUP3 ADD DUP1 SWAP3 GT PUSH2 0x219B JUMPI PUSH1 0x3 SWAP2 DUP3 SWAP1 DIV PUSH1 0x1 PUSH1 0x1 PUSH1 0xFE SHL SUB DUP2 AND DUP2 SUB PUSH2 0x219B JUMPI PUSH2 0x37AD SWAP1 DUP5 SWAP6 SWAP5 SHL PUSH2 0x36D5 JUMP JUMPDEST SWAP4 PUSH1 0x20 DUP6 ADD SWAP4 DUP3 SWAP2 DUP4 MLOAD DUP5 ADD SWAP1 PUSH1 0x20 DUP3 ADD SWAP3 DUP4 MLOAD SWAP5 PUSH1 0x0 DUP6 MSTORE JUMPDEST DUP4 DUP2 LT PUSH2 0x3806 JUMPI POP POP POP POP MSTORE MLOAD MOD DUP1 PUSH1 0x1 EQ PUSH2 0x37F3 JUMPI PUSH1 0x2 EQ PUSH2 0x37E8 JUMPI POP SWAP1 JUMP JUMPDEST PUSH1 0x3D SWAP1 PUSH1 0x0 NOT ADD MSTORE8 SWAP1 JUMP JUMPDEST POP PUSH1 0x3D SWAP1 DUP2 PUSH1 0x0 NOT DUP3 ADD MSTORE8 PUSH1 0x1 NOT ADD MSTORE8 SWAP1 JUMP JUMPDEST DUP8 PUSH1 0x4 SWAP2 SWAP10 SWAP3 SWAP4 SWAP5 SWAP10 ADD SWAP2 DUP3 MLOAD PUSH1 0x1 SWAP1 PUSH1 0x3F SWAP1 DUP3 DUP3 DUP3 PUSH1 0x12 SHR AND DUP9 ADD ADD MLOAD DUP5 MSTORE8 DUP3 DUP3 DUP3 PUSH1 0xC SHR AND DUP9 ADD ADD MLOAD DUP4 DUP6 ADD MSTORE8 DUP3 DUP3 DUP3 PUSH1 0x6 SHR AND DUP9 ADD ADD MLOAD DUP9 DUP6 ADD MSTORE8 AND DUP6 ADD ADD MLOAD DUP10 DUP3 ADD MSTORE8 ADD SWAP8 SWAP3 SWAP2 SWAP1 PUSH2 0x37C7 JUMP JUMPDEST POP PUSH1 0x40 MLOAD PUSH2 0x3864 DUP2 PUSH2 0x2D85 JUMP JUMPDEST PUSH1 0x0 DUP2 MSTORE SWAP1 JUMP JUMPDEST DUP1 PUSH1 0x0 SWAP2 PUSH27 0x184F03E93FF9F4DAA797ED6E38ED64BF6A1F010000000000000000 DUP1 DUP3 LT ISZERO PUSH2 0x39A0 JUMPI JUMPDEST POP PUSH14 0x4EE2D6D415B85ACEF8100000000 DUP1 DUP4 LT ISZERO PUSH2 0x3991 JUMPI JUMPDEST POP PUSH7 0x2386F26FC10000 DUP1 DUP4 LT ISZERO PUSH2 0x3982 JUMPI JUMPDEST POP PUSH4 0x5F5E100 DUP1 DUP4 LT ISZERO PUSH2 0x3973 JUMPI JUMPDEST POP PUSH2 0x2710 DUP1 DUP4 LT ISZERO PUSH2 0x3964 JUMPI JUMPDEST POP PUSH1 0x64 DUP3 LT ISZERO PUSH2 0x3954 JUMPI JUMPDEST PUSH1 0xA DUP1 SWAP3 LT ISZERO PUSH2 0x394A JUMPI JUMPDEST PUSH1 0x1 SWAP1 DUP2 PUSH1 0x21 PUSH2 0x3902 DUP3 DUP8 ADD PUSH2 0x36D5 JUMP JUMPDEST SWAP6 DUP7 ADD ADD SWAP1 JUMPDEST PUSH2 0x3914 JUMPI JUMPDEST POP POP POP POP SWAP1 JUMP JUMPDEST PUSH1 0x0 NOT ADD SWAP1 DUP4 SWAP1 PUSH16 0x181899199A1A9B1B9C1CB0B131B232B3 PUSH1 0x81 SHL DUP3 DUP3 MOD BYTE DUP4 MSTORE8 DIV SWAP2 DUP3 ISZERO PUSH2 0x3945 JUMPI SWAP2 SWAP1 DUP3 PUSH2 0x3908 JUMP JUMPDEST PUSH2 0x390D JUMP JUMPDEST SWAP2 PUSH1 0x1 ADD SWAP2 PUSH2 0x38F1 JUMP JUMPDEST SWAP2 SWAP1 PUSH1 0x64 PUSH1 0x2 SWAP2 DIV SWAP2 ADD SWAP2 PUSH2 0x38E6 JUMP JUMPDEST PUSH1 0x4 SWAP2 SWAP4 SWAP3 DIV SWAP2 ADD SWAP2 CODESIZE PUSH2 0x38DB JUMP JUMPDEST PUSH1 0x8 SWAP2 SWAP4 SWAP3 DIV SWAP2 ADD SWAP2 CODESIZE PUSH2 0x38CE JUMP JUMPDEST PUSH1 0x10 SWAP2 SWAP4 SWAP3 DIV SWAP2 ADD SWAP2 CODESIZE PUSH2 0x38BF JUMP JUMPDEST PUSH1 0x20 SWAP2 SWAP4 SWAP3 DIV SWAP2 ADD SWAP2 CODESIZE PUSH2 0x38AD JUMP JUMPDEST PUSH1 0x40 SWAP4 POP DUP2 DIV SWAP2 POP CODESIZE PUSH2 0x3894 JUMP JUMPDEST PUSH1 0x0 DUP2 SLT PUSH2 0x39BF JUMPI PUSH2 0x2E49 SWAP1 PUSH2 0x386B JUMP JUMPDEST PUSH1 0x1 PUSH1 0xFF SHL DUP2 EQ PUSH2 0x219B JUMPI PUSH2 0x39D6 SWAP1 PUSH1 0x0 SUB PUSH2 0x386B JUMP JUMPDEST PUSH2 0x2E49 PUSH1 0x21 PUSH1 0x40 MLOAD DUP1 SWAP4 PUSH1 0x2D PUSH1 0xF8 SHL PUSH1 0x20 DUP4 ADD MSTORE PUSH2 0x39FD DUP2 MLOAD DUP1 SWAP3 PUSH1 0x20 DUP7 DUP7 ADD SWAP2 ADD PUSH2 0x2BCF JUMP JUMPDEST DUP2 ADD SUB PUSH1 0x1 DUP2 ADD DUP5 MSTORE ADD DUP3 PUSH2 0x2DBB JUMP JUMPDEST DUP1 MLOAD DUP3 LT ISZERO PUSH2 0x2E99 JUMPI PUSH1 0x20 SWAP2 PUSH1 0x5 SHL ADD ADD SWAP1 JUMP JUMPDEST SWAP1 DUP2 MLOAD PUSH2 0x3A2D DUP2 PUSH2 0x2EAF JUMP JUMPDEST SWAP3 PUSH1 0x40 SWAP2 PUSH2 0x3A3D DUP4 MLOAD SWAP6 DUP7 PUSH2 0x2DBB JUMP JUMPDEST DUP1 DUP6 MSTORE PUSH2 0x3A4C PUSH1 0x1F NOT SWAP2 PUSH2 0x2EAF JUMP JUMPDEST ADD PUSH1 0x0 JUMPDEST DUP2 DUP2 LT PUSH2 0x3B87 JUMPI POP POP PUSH1 0x0 JUMPDEST DUP2 MLOAD DUP2 LT ISZERO PUSH2 0x3B82 JUMPI DUP1 PUSH2 0x3A73 PUSH2 0x3A97 SWAP3 DUP5 PUSH2 0x3A0D JUMP JUMPDEST MLOAD PUSH1 0x0 DUP2 DUP2 MSTORE PUSH1 0x2 PUSH1 0x20 MSTORE PUSH1 0x40 SWAP1 KECCAK256 SLOAD PUSH1 0x1 PUSH1 0x1 PUSH1 0xA0 SHL SUB AND PUSH2 0x3A9C JUMPI JUMPDEST POP PUSH2 0x35F7 JUMP JUMPDEST PUSH2 0x3A5C JUMP JUMPDEST DUP1 PUSH1 0x0 MSTORE PUSH1 0x20 SWAP1 PUSH1 0xB DUP3 MSTORE DUP6 DUP1 PUSH1 0x0 KECCAK256 PUSH1 0x3 DUP2 ADD SLOAD SWAP1 PUSH1 0x5 DUP2 ADD SLOAD PUSH1 0x6 DUP3 ADD SLOAD PUSH1 0xFF PUSH1 0x7 DUP5 ADD SLOAD AND SWAP2 PUSH2 0x3B2E PUSH1 0x4 PUSH1 0x8 DUP7 ADD SLOAD SWAP6 PUSH1 0x9 DUP2 ADD SLOAD SWAP8 PUSH1 0xA DUP3 ADD SLOAD SWAP10 PUSH2 0x3AE5 DUP13 PUSH2 0x3060 JUMP JUMPDEST SWAP12 DUP2 MLOAD SWAP14 DUP15 SWAP2 PUSH2 0x3AF4 DUP4 PUSH2 0x2D69 JUMP JUMPDEST DUP3 MSTORE PUSH2 0x3AFF DUP6 PUSH2 0x2F16 JUMP JUMPDEST SWAP2 ADD MSTORE PUSH2 0x3B0E PUSH1 0x1 DUP5 ADD PUSH2 0x2F16 JUMP JUMPDEST SWAP1 DUP14 ADD MSTORE PUSH2 0x3B1E PUSH1 0x2 DUP4 ADD PUSH2 0x2F16 JUMP JUMPDEST PUSH1 0x60 DUP14 ADD MSTORE PUSH1 0x80 DUP13 ADD MSTORE ADD PUSH2 0x2F16 JUMP JUMPDEST PUSH1 0xA0 DUP10 ADD MSTORE PUSH1 0xC0 DUP9 ADD MSTORE PUSH1 0xE0 DUP8 ADD MSTORE ISZERO ISZERO PUSH2 0x100 DUP7 ADD MSTORE PUSH2 0x120 DUP6 ADD MSTORE PUSH2 0x140 DUP5 ADD MSTORE PUSH2 0x160 DUP4 ADD MSTORE PUSH1 0x1 PUSH1 0x1 PUSH1 0xA0 SHL SUB AND PUSH2 0x180 DUP3 ADD MSTORE PUSH2 0x3B70 DUP3 DUP9 PUSH2 0x3A0D JUMP JUMPDEST MSTORE PUSH2 0x3B7B DUP2 DUP8 PUSH2 0x3A0D JUMP JUMPDEST POP CODESIZE PUSH2 0x3A91 JUMP JUMPDEST POP POP POP JUMP JUMPDEST PUSH1 0x20 SWAP1 DUP5 MLOAD PUSH2 0x3B95 DUP2 PUSH2 0x2D69 JUMP JUMPDEST PUSH1 0x0 DUP2 MSTORE PUSH1 0x60 DUP4 SWAP1 DUP1 DUP3 DUP5 ADD MSTORE DUP1 DUP9 DUP5 ADD MSTORE DUP1 DUP1 DUP5 ADD MSTORE PUSH1 0x0 PUSH1 0x80 DUP5 ADD MSTORE PUSH1 0xA0 DUP4 ADD MSTORE PUSH1 0x0 PUSH1 0xC0 DUP4 ADD MSTORE PUSH1 0x0 PUSH1 0xE0 DUP4 ADD MSTORE PUSH1 0x0 PUSH2 0x100 DUP4 ADD MSTORE PUSH1 0x0 PUSH2 0x120 DUP4 ADD MSTORE PUSH1 0x0 PUSH2 0x140 DUP4 ADD MSTORE PUSH1 0x0 PUSH2 0x160 DUP4 ADD MSTORE PUSH1 0x0 PUSH2 0x180 DUP4 ADD MSTORE DUP3 DUP10 ADD ADD MSTORE ADD PUSH2 0x3A50 JUMP INVALID 0xF8 0xE1 LOG1 GAS 0xBA SWAP4 SWAP9 0xE0 NOT CREATE 0xB4 SWAP14 CALL LOG4 REVERT 0xE9 DUP15 0xE1 PUSH27 0xE345CB5F6B5E2C27F5033E8CE7A2646970667358221220DE74F291 PUSH4 0x4C164027 0xF6 0x22 0xD1 GAS OR 0xD8 0x2D 0xB6 0xB6 PUSH31 0xA1F2D68C959F3C2777D89AADCA64736F6C6343000814003300000000000000 "},"methodIdentifiers":{"REJECTION_THRESHOLD()":"dfdea265","VERIFICATION_THRESHOLD()":"3f53b43f","addressExists(string)":"88f5ab9f","approve(address,uint256)":"095ea7b3","authorizedContracts(address)":"d5b9221b","balanceOf(address)":"70a08231","getApproved(uint256)":"081812fc","getMultipleProperties(uint256[])":"5bb5c50b","getOwnerPropertiesDetailed(address)":"0816ebf2","getPropertiesByType(string)":"bf13a834","isApprovedForAll(address,address)":"e985e9c5","isAuthorizedContract(address)":"66d0ead3","name()":"06fdde03","owner()":"8da5cb5b","ownerOf(uint256)":"6352211e","ownerProperties(address,uint256)":"8f48bd5b","properties(uint256)":"f7b10808","propertiesByType(string,uint256)":"53fe5c2c","propertiesByYearRange(uint256,uint256)":"8c2a27df","renounceOwnership()":"715018a6","safeTransferFrom(address,address,uint256)":"42842e0e","safeTransferFrom(address,address,uint256,bytes)":"b88d4fde","setApprovalForAll(address,bool)":"a22cb465","setAuthorizedContract(address,bool)":"f2fa7392","submitProperty(string,string,string,uint256,string,int256,int256)":"179cd756","supportsInterface(bytes4)":"01ffc9a7","symbol()":"95d89b41","tokenURI(uint256)":"c87b56dd","transferFrom(address,address,uint256)":"23b872dd","transferOwnership(address)":"f2fde38b","updatePropertyValuation(uint256,uint256,uint256,uint256,uint256,uint256,uint256,uint256)":"4beac331","updatePropertyValue(uint256,uint256)":"9b7c4b4b","voteOnProperty(uint256,bool)":"0af44108"}}}}}