{"contracts/PropertyValuation.sol":{"PropertyValuation":{"abi":[{"inputs":[{"internalType":"address","name":"_propertyNFTAddress","type":"address"}],"stateMutability":"nonpayable","type":"constructor"},{"anonymous":false,"inputs":[{"indexed":true,"internalType":"address","name":"valuationContract","type":"address"},{"indexed":true,"internalType":"address","name":"nftContract","type":"address"}],"name":"AuthorizationRequested","type":"event"},{"anonymous":false,"inputs":[{"indexed":true,"internalType":"address","name":"previousOwner","type":"address"},{"indexed":true,"internalType":"address","name":"newOwner","type":"address"}],"name":"OwnershipTransferred","type":"event"},{"anonymous":false,"inputs":[{"indexed":true,"internalType":"uint256","name":"tokenId","type":"uint256"},{"indexed":false,"internalType":"uint256","name":"estimatedValue","type":"uint256"},{"indexed":false,"internalType":"uint256","name":"comparableValue","type":"uint256"}],"name":"ValuationSubmitted","type":"event"},{"anonymous":false,"inputs":[{"indexed":true,"internalType":"uint256","name":"tokenId","type":"uint256"},{"indexed":false,"internalType":"uint256","name":"estimatedValue","type":"uint256"},{"indexed":false,"internalType":"uint256","name":"comparableValue","type":"uint256"}],"name":"ValuationUpdated","type":"event"},{"anonymous":false,"inputs":[{"indexed":true,"internalType":"uint256","name":"tokenId","type":"uint256"},{"indexed":false,"internalType":"bool","name":"verified","type":"bool"}],"name":"ValuationVerified","type":"event"},{"anonymous":false,"inputs":[{"indexed":true,"internalType":"uint256","name":"tokenId","type":"uint256"},{"indexed":true,"internalType":"address","name":"voter","type":"address"},{"indexed":false,"internalType":"bool","name":"approve","type":"bool"}],"name":"ValuationVoteCast","type":"event"},{"inputs":[],"name":"REJECTION_THRESHOLD","outputs":[{"internalType":"uint256","name":"","type":"uint256"}],"stateMutability":"view","type":"function"},{"inputs":[],"name":"VERIFICATION_THRESHOLD","outputs":[{"internalType":"uint256","name":"","type":"uint256"}],"stateMutability":"view","type":"function"},{"inputs":[],"name":"checkAuthorizationStatus","outputs":[{"internalType":"bool","name":"authorized","type":"bool"},{"internalType":"address","name":"nftContract","type":"address"},{"internalType":"address","name":"thisContract","type":"address"}],"stateMutability":"view","type":"function"},{"inputs":[{"internalType":"uint256","name":"_tokenId","type":"uint256"}],"name":"confirmValuationUpdate","outputs":[],"stateMutability":"nonpayable","type":"function"},{"inputs":[{"internalType":"uint256","name":"_tokenId","type":"uint256"}],"name":"debugConfirmValuation","outputs":[{"internalType":"bool","name":"propertyExists","type":"bool"},{"internalType":"bool","name":"isOwner","type":"bool"},{"internalType":"bool","name":"valuationVerified","type":"bool"},{"internalType":"bool","name":"contractAuthorized","type":"bool"}],"stateMutability":"view","type":"function"},{"inputs":[{"internalType":"uint256","name":"_tokenId","type":"uint256"}],"name":"getHistoricalValues","outputs":[{"internalType":"uint256[]","name":"","type":"uint256[]"}],"stateMutability":"view","type":"function"},{"inputs":[{"internalType":"uint256","name":"propertyId","type":"uint256"}],"name":"getPendingValuation","outputs":[{"components":[{"internalType":"uint256","name":"estimatedValue","type":"uint256"},{"internalType":"uint256","name":"comparableValue","type":"uint256"},{"internalType":"uint256","name":"lastUpdated","type":"uint256"},{"internalType":"uint256","name":"locationScore","type":"uint256"},{"internalType":"uint256","name":"sizeScore","type":"uint256"},{"internalType":"uint256","name":"conditionScore","type":"uint256"},{"internalType":"uint256","name":"ageScore","type":"uint256"},{"internalType":"uint256","name":"renovationScore","type":"uint256"},{"internalType":"bool","name":"isVerified","type":"bool"},{"internalType":"uint256","name":"verificationVotes","type":"uint256"},{"internalType":"uint256","name":"rejectionVotes","type":"uint256"}],"internalType":"struct PropertyValuation.Valuation","name":"","type":"tuple"}],"stateMutability":"view","type":"function"},{"inputs":[{"internalType":"uint256","name":"_tokenId","type":"uint256"}],"name":"getValuation","outputs":[{"internalType":"uint256","name":"estimatedValue","type":"uint256"},{"internalType":"uint256","name":"comparableValue","type":"uint256"},{"internalType":"uint256","name":"lastUpdated","type":"uint256"},{"internalType":"uint256","name":"locationScore","type":"uint256"},{"internalType":"uint256","name":"sizeScore","type":"uint256"},{"internalType":"uint256","name":"conditionScore","type":"uint256"},{"internalType":"uint256","name":"ageScore","type":"uint256"},{"internalType":"uint256","name":"renovationScore","type":"uint256"},{"internalType":"bool","name":"isVerified","type":"bool"},{"internalType":"uint256","name":"verificationVotes","type":"uint256"},{"internalType":"uint256","name":"rejectionVotes","type":"uint256"}],"stateMutability":"view","type":"function"},{"inputs":[{"internalType":"uint256","name":"_tokenId","type":"uint256"}],"name":"getValuationStatus","outputs":[{"internalType":"bool","name":"hasVerified","type":"bool"},{"internalType":"bool","name":"hasPending","type":"bool"},{"internalType":"bool","name":"pendingIsVerified","type":"bool"},{"internalType":"bool","name":"canConfirm","type":"bool"}],"stateMutability":"view","type":"function"},{"inputs":[{"internalType":"uint256","name":"_tokenId","type":"uint256"},{"internalType":"address","name":"_user","type":"address"}],"name":"hasUserVoted","outputs":[{"internalType":"bool","name":"","type":"bool"}],"stateMutability":"view","type":"function"},{"inputs":[{"internalType":"uint256","name":"_tokenId","type":"uint256"},{"internalType":"address","name":"_user","type":"address"}],"name":"hasUserVotedOnPending","outputs":[{"internalType":"bool","name":"","type":"bool"}],"stateMutability":"view","type":"function"},{"inputs":[{"internalType":"uint256","name":"","type":"uint256"},{"internalType":"uint256","name":"","type":"uint256"}],"name":"historicalValues","outputs":[{"internalType":"uint256","name":"","type":"uint256"}],"stateMutability":"view","type":"function"},{"inputs":[],"name":"isAuthorizedToUpdate","outputs":[{"internalType":"bool","name":"","type":"bool"}],"stateMutability":"view","type":"function"},{"inputs":[],"name":"owner","outputs":[{"internalType":"address","name":"","type":"address"}],"stateMutability":"view","type":"function"},{"inputs":[{"internalType":"uint256","name":"","type":"uint256"},{"internalType":"address","name":"","type":"address"}],"name":"pendingValuationVotes","outputs":[{"internalType":"bool","name":"","type":"bool"}],"stateMutability":"view","type":"function"},{"inputs":[{"internalType":"uint256","name":"","type":"uint256"}],"name":"pendingValuations","outputs":[{"internalType":"uint256","name":"estimatedValue","type":"uint256"},{"internalType":"uint256","name":"comparableValue","type":"uint256"},{"internalType":"uint256","name":"lastUpdated","type":"uint256"},{"internalType":"uint256","name":"locationScore","type":"uint256"},{"internalType":"uint256","name":"sizeScore","type":"uint256"},{"internalType":"uint256","name":"conditionScore","type":"uint256"},{"internalType":"uint256","name":"ageScore","type":"uint256"},{"internalType":"uint256","name":"renovationScore","type":"uint256"},{"internalType":"bool","name":"isVerified","type":"bool"},{"internalType":"uint256","name":"verificationVotes","type":"uint256"},{"internalType":"uint256","name":"rejectionVotes","type":"uint256"}],"stateMutability":"view","type":"function"},{"inputs":[],"name":"propertyNFT","outputs":[{"internalType":"contract PropertyNFT","name":"","type":"address"}],"stateMutability":"view","type":"function"},{"inputs":[],"name":"renounceOwnership","outputs":[],"stateMutability":"nonpayable","type":"function"},{"inputs":[],"name":"requestAuthorization","outputs":[],"stateMutability":"nonpayable","type":"function"},{"inputs":[{"internalType":"uint256","name":"_tokenId","type":"uint256"},{"internalType":"uint256","name":"_estimatedValue","type":"uint256"},{"internalType":"uint256","name":"_comparableValue","type":"uint256"},{"internalType":"uint256","name":"_locationScore","type":"uint256"},{"internalType":"uint256","name":"_sizeScore","type":"uint256"},{"internalType":"uint256","name":"_conditionScore","type":"uint256"},{"internalType":"uint256","name":"_ageScore","type":"uint256"},{"internalType":"uint256","name":"_renovationScore","type":"uint256"}],"name":"submitValuation","outputs":[],"stateMutability":"nonpayable","type":"function"},{"inputs":[{"internalType":"address","name":"newOwner","type":"address"}],"name":"transferOwnership","outputs":[],"stateMutability":"nonpayable","type":"function"},{"inputs":[{"internalType":"uint256","name":"","type":"uint256"}],"name":"valuations","outputs":[{"internalType":"uint256","name":"estimatedValue","type":"uint256"},{"internalType":"uint256","name":"comparableValue","type":"uint256"},{"internalType":"uint256","name":"lastUpdated","type":"uint256"},{"internalType":"uint256","name":"locationScore","type":"uint256"},{"internalType":"uint256","name":"sizeScore","type":"uint256"},{"internalType":"uint256","name":"conditionScore","type":"uint256"},{"internalType":"uint256","name":"ageScore","type":"uint256"},{"internalType":"uint256","name":"renovationScore","type":"uint256"},{"internalType":"bool","name":"isVerified","type":"bool"},{"internalType":"uint256","name":"verificationVotes","type":"uint256"},{"internalType":"uint256","name":"rejectionVotes","type":"uint256"}],"stateMutability":"view","type":"function"},{"inputs":[{"internalType":"uint256","name":"_tokenId","type":"uint256"},{"internalType":"bool","name":"_approve","type":"bool"}],"name":"voteOnValuation","outputs":[],"stateMutability":"nonpayable","type":"function"}],"evm":{"bytecode":{"linkReferences":{},"object":"6080346100f357601f611a2e38819003918201601f19168301916001600160401b038311848410176100f8578084926020946040528339810103126100f357516001600160a01b03808216918290036100f3576000549060018060a01b0319913383821617600055604051913391167f8be0079c531659141344cd1fd0a4f28419497f9722a3daafe3b4186f6b6457e0600080a382156100b15750600154161760015560405161191f908161010f8239f35b62461bcd60e51b815260206004820152601c60248201527f496e76616c6964204e465420636f6e74726163742061646472657373000000006044820152606490fd5b600080fd5b634e487b7160e01b600052604160045260246000fdfe608080604052600436101561001357600080fd5b600090813560e01c9081630aa63ad41461130f575080631865e4331461128f5780631920a67d1461124657806337f768381461121d5780633bd18a3b14610ba85780633f53b43f14611201578063482e6882146111195780635770d1d914610c145780635d03d83e14610ba857806360767a3614610b3c578063715018a614610ae257806378f5c8871461072e57806385058d9e146106e25780638bdcc1f91461058b5780638da5cb5b14610564578063974d5d10146104c4578063bafc01be14610439578063d64e2e5d146102f3578063dc296ae1146102a4578063dfdea26514610288578063e2b4a70c1461023f578063edea8b9f146101f25763f2fde38b1461011e57600080fd5b346101ef5760203660031901126101ef576004356001600160a01b03818116918290036101ea5761014d6116ff565b811561019657600054826bffffffffffffffffffffffff60a01b821617600055167f8be0079c531659141344cd1fd0a4f28419497f9722a3daafe3b4186f6b6457e0600080a380f35b60405162461bcd60e51b815260206004820152602660248201527f4f776e61626c653a206e6577206f776e657220697320746865207a65726f206160448201526564647265737360d01b6064820152608490fd5b600080fd5b80fd5b50346101ef57806003193601126101ef5761020b6116ff565b6001546001600160a01b0316307fad4331c53e281629778341427fc257a5bd17aef5d5f353da42bfb3905baa45508380a380f35b50346101ef5760403660031901126101ef576024359060043581526003602052604081209081548310156101ef57602061027984846116d1565b90549060031b1c604051908152f35b50346101ef57806003193601126101ef57602060405160028152f35b50346101ef5760403660031901126101ef57600b60406102c261166d565b926004358152600260205220019060018060a01b0316600052602052602060ff604060002054166040519015158152f35b50346101ef57602080600319360112610435576001546040516331a9108f60e11b815260048035908201819052926001600160a01b039283169290918281602481875afa869181610406575b506103f9575050839184935b85526004825260248260ff60086040892001541692604051928380926366d0ead360e01b82523060048301525afa9283156103ee576103bb949596936103bf575b505060405194859485926060929594919560808501961515855215156020850152151560408401521515910152565b0390f35b6103df929350803d106103e7575b6103d7818361178a565b8101906117ac565b90388061038c565b503d6103cd565b6040513d88823e3d90fd5b163314926001929061034b565b610427919250843d861161042e575b61041f818361178a565b8101906117c4565b903861033f565b503d610415565b5080fd5b50346101ef57806003193601126101ef576001546040516366d0ead360e01b8152306004820152906001600160a01b0316602082602481845afa9182156104b95760609392610499575b5060405191151582526020820152306040820152f35b6104b291925060203d81116103e7576103d7818361178a565b9038610483565b6040513d85823e3d90fd5b50346101ef57602080600319360112610435576004358252600381526040822060405192838383549182815201908193835284832090835b818110610550575050508461051291038561178a565b60405193838594850191818652518092526040850193925b82811061053957505050500390f35b83518552869550938101939281019260010161052a565b8254845292860192600192830192016104fc565b50346101ef57806003193601126101ef57546040516001600160a01b039091168152602090f35b50346101ef5760203660031901126101ef5761016090610140604051916105b183611757565b8083528060208401528060408401528060608401528060808401528060a08401528060c08401528060e08401526040610100918083860152808461012096828882015201526004358152600460205220926040519161060f83611757565b600a85549586855260018101546020860152600281015460408601526003810154606086015260048101546080860152600581015460a0860152600681015460c0860152600781015460e086015260ff6008820154161515838601526009810154848601520154848401526040519485526020830151602086015260408301516040860152606083015160608601526080830151608086015260a083015160a086015260c083015160c086015260e083015160e08601528083015115159085015280820151908401520151610140820152f35b50346101ef5760403660031901126101ef5760406106fe61166d565b9160043581526005602052209060018060a01b0316600052602052602060ff604060002054166040519015158152f35b50346101ef576101003660031901126101ef576001546040516331a9108f60e11b80825260048035908301526001600160a01b039283169190602082602481865afa8015610ad7578461078e916020948891610aba575b501615156117e3565b602460405180948193825260043560048301525afa9081156104b9578391610a9b575b5081163314908115610a8e575b5015610a5857606480803511610a165780608435116109d4578060a43511610992578060c43511610950578060e4351161090e57604051906107ff82611757565b60243582526044356020830152426040830152356060820152608435608082015260a43560a082015260c43560c082015260e43560e082015281610100820152816101208201528161014082015260043582526004602052600a6101406040842092805184556020810151600185015560408101516002850155606081015160038501556080810151600485015560a0810151600585015560c0810151600685015560e0810151600785015560088401610100820151151560ff8019835416911617905561012081015160098501550151910155604051602435815260443560208201527f4355f180719c91f4f06494335f14fbd63c0602c4aa06e75378c4a67ec11d5af2604060043592a280f35b60405162461bcd60e51b815260206004820152601f60248201527f52656e6f766174696f6e2073636f7265206d757374206265203c3d20313030006044820152fd5b60405162461bcd60e51b815260206004820152601860248201527f4167652073636f7265206d757374206265203c3d2031303000000000000000006044820152fd5b60405162461bcd60e51b815260206004820152601e60248201527f436f6e646974696f6e2073636f7265206d757374206265203c3d2031303000006044820152fd5b60405162461bcd60e51b815260206004820152601960248201527f53697a652073636f7265206d757374206265203c3d20313030000000000000006044820152fd5b60405162461bcd60e51b815260206004820152601d60248201527f4c6f636174696f6e2073636f7265206d757374206265203c3d203130300000006044820152fd5b60405162461bcd60e51b815260206004820152600e60248201526d139bdd08185d5d1a1bdc9a5e995960921b6044820152606490fd5b82541633149050386107be565b610ab4915060203d60201161042e5761041f818361178a565b386107b1565b610ad19150853d871161042e5761041f818361178a565b38610785565b6040513d87823e3d90fd5b50346101ef57806003193601126101ef57610afb6116ff565b600080546001600160a01b0319811682556001600160a01b03167f8be0079c531659141344cd1fd0a4f28419497f9722a3daafe3b4186f6b6457e08280a380f35b50346101ef5760203660031901126101ef57604090600435815260046020522080546103bb60018301549260028101549060038101546004820154600583015460068401549060078501549260ff60088701541694600a6009880154970154976040519b8c9b8c611683565b50346101ef5760203660031901126101ef57604090600435815260026020522080546103bb60018301549260028101549060038101546004820154600583015460068401549060078501549260ff60088701541694600a6009880154970154976040519b8c9b8c611683565b50346101ef57602090816003193601126101ef576001546040516331a9108f60e11b815260048035908201526001600160a01b03918216918482602481865afa91821561110e5784926110ef575b50339116036110b55760043582526004835260ff60086040842001541615611077576040516366d0ead360e01b81523060048201528381602481855afa9081156104b957839161105a575b501561100457600435825260048352604082209081549060018301928354916003820192835494600484019586549260058601928354956006880195865460078a0198895492843b1561100057928f96959392610104959288946040519a8b998a98634beac33160e01b8a5260043560048b015260248a015260448901526064880152608487015260a486015260c485015260e48401525af19081610fd0575b50610e8a5788888060033d11610e79575b506308c379a014610dc9575b6084906040519062461bcd60e51b82526004820152603260248201527f4661696c656420746f207570646174652070726f70657274792076616c75617460448201527134b7b71d103ab735b737bbb71032b93937b960711b6064820152fd5b610dd1611854565b9081610dde579050610d6a565b60449060405192610e42604585848101937f4661696c656420746f207570646174652070726f70657274792076616c756174855264034b7b71d160dd1b6040830152610e32815180928886860191016118c6565b810103602581018752018561178a565b610e6b60405194859362461bcd60e51b85526004850152518092816024860152858501906118c6565b601f01601f19168101030190fd5b9050600481803e5160e01c82610d5e565b92600a9283928a969583549954986004358c526002895260408c20978b89558a60018a0155600286015460028a015554600389015554600488015554600587015554600686015554600785015560088401600160ff19825416179055600981015460098501550154910155600381526040842080549068010000000000000000821015610fbc5790610f21916001820181556116d1565b81549060031b9085821b91600019901b1916179055600435845260048152610f8860408520600a6000918281558260018201558260028201558260038201558260048201558260058201558260068201558260078201558260088201558260098201550155565b6040519283528201527fdd9c5b684ac908e56b235f477f4fbd037117f994e48c60f5700009c106c9a681604060043592a280f35b634e487b7160e01b86526041600452602486fd5b67ffffffffffffffff819a929a11610fec576040529738610d4d565b634e487b7160e01b82526041600452602482fd5b8f80fd5b60405162461bcd60e51b815260048101849052602860248201527f436f6e7472616374206e6f7420617574686f72697a656420746f207570646174604482015267652076616c75657360c01b6064820152608490fd5b6110719150843d86116103e7576103d7818361178a565b38610cad565b60405162461bcd60e51b815260048101849052601660248201527515985b1d585d1a5bdb881b9bdd081d995c9a599a595960521b6044820152606490fd5b60405162461bcd60e51b81526004810184905260126024820152712737ba10383937b832b93a3c9037bbb732b960711b6044820152606490fd5b611107919250853d871161042e5761041f818361178a565b9038610c62565b6040513d86823e3d90fd5b50346101ef576020806003193601126104355760089060043583526002815260ff82604085200154169060048152604084209060ff8254151594859301541690826111f8575b8261118d575b5060408051931515845293151560208401521515928201929092529015156060820152608090f35b6001546040516366d0ead360e01b81523060048201529293509091908290829060249082906001600160a01b03165afa9182156103ee576103bb949596926111db575b505090849392611165565b6111f19250803d106103e7576103d7818361178a565b38806111d0565b9150809161115f565b50346101ef57806003193601126101ef57602060405160038152f35b50346101ef57806003193601126101ef576001546040516001600160a01b039091168152602090f35b50346101ef5760403660031901126101ef5760ff604060209261126761166d565b6004358252600585528282206001600160a01b03909116825284522054604051911615158152f35b50346101ef57806003193601126101ef576001546040516366d0ead360e01b815230600482015290602090829060249082906001600160a01b03165afa90811561130457602092916112e7575b506040519015158152f35b6112fe9150823d81116103e7576103d7818361178a565b386112dc565b6040513d84823e3d90fd5b90503461043557604036600319011261043557600435906024908135918215158303611669576001546331a9108f60e11b808452600484018690526020936001600160a01b0392831692919085818681875afa90811561165e5761137e9184918b9161164757501615156117e3565b8688526004855260ff600860408a20015416611603578688526005855260408820338952855260ff6040892054166115cf578490846040518095819382528a60048301525afa9182156115c45787926115a5575b50163314611562575082845260048152604084209160058252604085203386528252604085209060ff199160018382541617905560001461149a5760036009840161141d815461182f565b80915560405160018152867fa256e30908fb7ff9fae4faf53e13a423f492b7cb412ce9854a158a3abb046897863393a3101561145b575b5050505080f35b600160087f84b3c050f7881730fcfa395d8218beeddeab15622a1e66227f0d632da9bda54794019182541617905560405160018152a238808080611454565b5090600a600291016114ac815461182f565b809155604051858152847fa256e30908fb7ff9fae4faf53e13a423f492b7cb412ce9854a158a3abb046897853393a310156114e657505080f35b7f84b3c050f7881730fcfa395d8218beeddeab15622a1e66227f0d632da9bda547908284526004815261155860408520600a6000918281558260018201558260028201558260038201558260048201558260058201558260068201558260078201558260088201558260098201550155565b604051848152a280f35b90601b6064926040519262461bcd60e51b845260048401528201527f43616e6e6f7420766f7465206f6e206f776e2070726f706572747900000000006044820152fd5b6115bd919250843d861161042e5761041f818361178a565b90386113d2565b6040513d89823e3d90fd5b60405162461bcd60e51b815260048101869052600d818601526c105b1c9958591e481d9bdd1959609a1b6044820152606490fd5b60405162461bcd60e51b815260048101869052601a818601527f56616c756174696f6e20616c72656164792076657269666965640000000000006044820152606490fd5b610ad19150883d8a1161042e5761041f818361178a565b6040513d8b823e3d90fd5b8480fd5b602435906001600160a01b03821682036101ea57565b979491926101409996939c9b9a9794919c6101608a019d8a5260208a015260408901526060880152608087015260a086015260c085015260e084015215156101008301526101208201520152565b80548210156116e95760005260206000200190600090565b634e487b7160e01b600052603260045260246000fd5b6000546001600160a01b0316330361171357565b606460405162461bcd60e51b815260206004820152602060248201527f4f776e61626c653a2063616c6c6572206973206e6f7420746865206f776e65726044820152fd5b610160810190811067ffffffffffffffff82111761177457604052565b634e487b7160e01b600052604160045260246000fd5b90601f8019910116810190811067ffffffffffffffff82111761177457604052565b908160209103126101ea575180151581036101ea5790565b908160209103126101ea57516001600160a01b03811681036101ea5790565b156117ea57565b60405162461bcd60e51b815260206004820152601760248201527f50726f706572747920646f6573206e6f742065786973740000000000000000006044820152606490fd5b600019811461183e5760010190565b634e487b7160e01b600052601160045260246000fd5b600060443d106118b257604051600319913d83016004833e815167ffffffffffffffff918282113d6024840111176118b5578184019485519384116118bd573d850101602084870101116118b557506118b29291016020019061178a565b90565b949350505050565b50949350505050565b60005b8381106118d95750506000910152565b81810151838201526020016118c956fea264697066735822122031d888e15f68eea775cd4106030b0f68c3fa49c6d55cca92acf3a6e2ffad54fd64736f6c63430008140033","opcodes":"PUSH1 0x80 CALLVALUE PUSH2 0xF3 JUMPI PUSH1 0x1F PUSH2 0x1A2E CODESIZE DUP2 SWAP1 SUB SWAP2 DUP3 ADD PUSH1 0x1F NOT AND DUP4 ADD SWAP2 PUSH1 0x1 PUSH1 0x1 PUSH1 0x40 SHL SUB DUP4 GT DUP5 DUP5 LT OR PUSH2 0xF8 JUMPI DUP1 DUP5 SWAP3 PUSH1 0x20 SWAP5 PUSH1 0x40 MSTORE DUP4 CODECOPY DUP2 ADD SUB SLT PUSH2 0xF3 JUMPI MLOAD PUSH1 0x1 PUSH1 0x1 PUSH1 0xA0 SHL SUB DUP1 DUP3 AND SWAP2 DUP3 SWAP1 SUB PUSH2 0xF3 JUMPI PUSH1 0x0 SLOAD SWAP1 PUSH1 0x1 DUP1 PUSH1 0xA0 SHL SUB NOT SWAP2 CALLER DUP4 DUP3 AND OR PUSH1 0x0 SSTORE PUSH1 0x40 MLOAD SWAP2 CALLER SWAP2 AND PUSH32 0x8BE0079C531659141344CD1FD0A4F28419497F9722A3DAAFE3B4186F6B6457E0 PUSH1 0x0 DUP1 LOG3 DUP3 ISZERO PUSH2 0xB1 JUMPI POP PUSH1 0x1 SLOAD AND OR PUSH1 0x1 SSTORE PUSH1 0x40 MLOAD PUSH2 0x191F SWAP1 DUP2 PUSH2 0x10F DUP3 CODECOPY RETURN JUMPDEST PUSH3 0x461BCD PUSH1 0xE5 SHL DUP2 MSTORE PUSH1 0x20 PUSH1 0x4 DUP3 ADD MSTORE PUSH1 0x1C PUSH1 0x24 DUP3 ADD MSTORE PUSH32 0x496E76616C6964204E465420636F6E7472616374206164647265737300000000 PUSH1 0x44 DUP3 ADD MSTORE PUSH1 0x64 SWAP1 REVERT JUMPDEST PUSH1 0x0 DUP1 REVERT JUMPDEST PUSH4 0x4E487B71 PUSH1 0xE0 SHL PUSH1 0x0 MSTORE PUSH1 0x41 PUSH1 0x4 MSTORE PUSH1 0x24 PUSH1 0x0 REVERT INVALID PUSH1 0x80 DUP1 PUSH1 0x40 MSTORE PUSH1 0x4 CALLDATASIZE LT ISZERO PUSH2 0x13 JUMPI PUSH1 0x0 DUP1 REVERT JUMPDEST PUSH1 0x0 SWAP1 DUP2 CALLDATALOAD PUSH1 0xE0 SHR SWAP1 DUP2 PUSH4 0xAA63AD4 EQ PUSH2 0x130F JUMPI POP DUP1 PUSH4 0x1865E433 EQ PUSH2 0x128F JUMPI DUP1 PUSH4 0x1920A67D EQ PUSH2 0x1246 JUMPI DUP1 PUSH4 0x37F76838 EQ PUSH2 0x121D JUMPI DUP1 PUSH4 0x3BD18A3B EQ PUSH2 0xBA8 JUMPI DUP1 PUSH4 0x3F53B43F EQ PUSH2 0x1201 JUMPI DUP1 PUSH4 0x482E6882 EQ PUSH2 0x1119 JUMPI DUP1 PUSH4 0x5770D1D9 EQ PUSH2 0xC14 JUMPI DUP1 PUSH4 0x5D03D83E EQ PUSH2 0xBA8 JUMPI DUP1 PUSH4 0x60767A36 EQ PUSH2 0xB3C JUMPI DUP1 PUSH4 0x715018A6 EQ PUSH2 0xAE2 JUMPI DUP1 PUSH4 0x78F5C887 EQ PUSH2 0x72E JUMPI DUP1 PUSH4 0x85058D9E EQ PUSH2 0x6E2 JUMPI DUP1 PUSH4 0x8BDCC1F9 EQ PUSH2 0x58B JUMPI DUP1 PUSH4 0x8DA5CB5B EQ PUSH2 0x564 JUMPI DUP1 PUSH4 0x974D5D10 EQ PUSH2 0x4C4 JUMPI DUP1 PUSH4 0xBAFC01BE EQ PUSH2 0x439 JUMPI DUP1 PUSH4 0xD64E2E5D EQ PUSH2 0x2F3 JUMPI DUP1 PUSH4 0xDC296AE1 EQ PUSH2 0x2A4 JUMPI DUP1 PUSH4 0xDFDEA265 EQ PUSH2 0x288 JUMPI DUP1 PUSH4 0xE2B4A70C EQ PUSH2 0x23F JUMPI DUP1 PUSH4 0xEDEA8B9F EQ PUSH2 0x1F2 JUMPI PUSH4 0xF2FDE38B EQ PUSH2 0x11E JUMPI PUSH1 0x0 DUP1 REVERT JUMPDEST CALLVALUE PUSH2 0x1EF JUMPI PUSH1 0x20 CALLDATASIZE PUSH1 0x3 NOT ADD SLT PUSH2 0x1EF JUMPI PUSH1 0x4 CALLDATALOAD PUSH1 0x1 PUSH1 0x1 PUSH1 0xA0 SHL SUB DUP2 DUP2 AND SWAP2 DUP3 SWAP1 SUB PUSH2 0x1EA JUMPI PUSH2 0x14D PUSH2 0x16FF JUMP JUMPDEST DUP2 ISZERO PUSH2 0x196 JUMPI PUSH1 0x0 SLOAD DUP3 PUSH12 0xFFFFFFFFFFFFFFFFFFFFFFFF PUSH1 0xA0 SHL DUP3 AND OR PUSH1 0x0 SSTORE AND PUSH32 0x8BE0079C531659141344CD1FD0A4F28419497F9722A3DAAFE3B4186F6B6457E0 PUSH1 0x0 DUP1 LOG3 DUP1 RETURN JUMPDEST PUSH1 0x40 MLOAD PUSH3 0x461BCD PUSH1 0xE5 SHL DUP2 MSTORE PUSH1 0x20 PUSH1 0x4 DUP3 ADD MSTORE PUSH1 0x26 PUSH1 0x24 DUP3 ADD MSTORE PUSH32 0x4F776E61626C653A206E6577206F776E657220697320746865207A65726F2061 PUSH1 0x44 DUP3 ADD MSTORE PUSH6 0x646472657373 PUSH1 0xD0 SHL PUSH1 0x64 DUP3 ADD MSTORE PUSH1 0x84 SWAP1 REVERT JUMPDEST PUSH1 0x0 DUP1 REVERT JUMPDEST DUP1 REVERT JUMPDEST POP CALLVALUE PUSH2 0x1EF JUMPI DUP1 PUSH1 0x3 NOT CALLDATASIZE ADD SLT PUSH2 0x1EF JUMPI PUSH2 0x20B PUSH2 0x16FF JUMP JUMPDEST PUSH1 0x1 SLOAD PUSH1 0x1 PUSH1 0x1 PUSH1 0xA0 SHL SUB AND ADDRESS PUSH32 0xAD4331C53E281629778341427FC257A5BD17AEF5D5F353DA42BFB3905BAA4550 DUP4 DUP1 LOG3 DUP1 RETURN JUMPDEST POP CALLVALUE PUSH2 0x1EF JUMPI PUSH1 0x40 CALLDATASIZE PUSH1 0x3 NOT ADD SLT PUSH2 0x1EF JUMPI PUSH1 0x24 CALLDATALOAD SWAP1 PUSH1 0x4 CALLDATALOAD DUP2 MSTORE PUSH1 0x3 PUSH1 0x20 MSTORE PUSH1 0x40 DUP2 KECCAK256 SWAP1 DUP2 SLOAD DUP4 LT ISZERO PUSH2 0x1EF JUMPI PUSH1 0x20 PUSH2 0x279 DUP5 DUP5 PUSH2 0x16D1 JUMP JUMPDEST SWAP1 SLOAD SWAP1 PUSH1 0x3 SHL SHR PUSH1 0x40 MLOAD SWAP1 DUP2 MSTORE RETURN JUMPDEST POP CALLVALUE PUSH2 0x1EF JUMPI DUP1 PUSH1 0x3 NOT CALLDATASIZE ADD SLT PUSH2 0x1EF JUMPI PUSH1 0x20 PUSH1 0x40 MLOAD PUSH1 0x2 DUP2 MSTORE RETURN JUMPDEST POP CALLVALUE PUSH2 0x1EF JUMPI PUSH1 0x40 CALLDATASIZE PUSH1 0x3 NOT ADD SLT PUSH2 0x1EF JUMPI PUSH1 0xB PUSH1 0x40 PUSH2 0x2C2 PUSH2 0x166D JUMP JUMPDEST SWAP3 PUSH1 0x4 CALLDATALOAD DUP2 MSTORE PUSH1 0x2 PUSH1 0x20 MSTORE KECCAK256 ADD SWAP1 PUSH1 0x1 DUP1 PUSH1 0xA0 SHL SUB AND PUSH1 0x0 MSTORE PUSH1 0x20 MSTORE PUSH1 0x20 PUSH1 0xFF PUSH1 0x40 PUSH1 0x0 KECCAK256 SLOAD AND PUSH1 0x40 MLOAD SWAP1 ISZERO ISZERO DUP2 MSTORE RETURN JUMPDEST POP CALLVALUE PUSH2 0x1EF JUMPI PUSH1 0x20 DUP1 PUSH1 0x3 NOT CALLDATASIZE ADD SLT PUSH2 0x435 JUMPI PUSH1 0x1 SLOAD PUSH1 0x40 MLOAD PUSH4 0x31A9108F PUSH1 0xE1 SHL DUP2 MSTORE PUSH1 0x4 DUP1 CALLDATALOAD SWAP1 DUP3 ADD DUP2 SWAP1 MSTORE SWAP3 PUSH1 0x1 PUSH1 0x1 PUSH1 0xA0 SHL SUB SWAP3 DUP4 AND SWAP3 SWAP1 SWAP2 DUP3 DUP2 PUSH1 0x24 DUP2 DUP8 GAS STATICCALL DUP7 SWAP2 DUP2 PUSH2 0x406 JUMPI JUMPDEST POP PUSH2 0x3F9 JUMPI POP POP DUP4 SWAP2 DUP5 SWAP4 JUMPDEST DUP6 MSTORE PUSH1 0x4 DUP3 MSTORE PUSH1 0x24 DUP3 PUSH1 0xFF PUSH1 0x8 PUSH1 0x40 DUP10 KECCAK256 ADD SLOAD AND SWAP3 PUSH1 0x40 MLOAD SWAP3 DUP4 DUP1 SWAP3 PUSH4 0x66D0EAD3 PUSH1 0xE0 SHL DUP3 MSTORE ADDRESS PUSH1 0x4 DUP4 ADD MSTORE GAS STATICCALL SWAP3 DUP4 ISZERO PUSH2 0x3EE JUMPI PUSH2 0x3BB SWAP5 SWAP6 SWAP7 SWAP4 PUSH2 0x3BF JUMPI JUMPDEST POP POP PUSH1 0x40 MLOAD SWAP5 DUP6 SWAP5 DUP6 SWAP3 PUSH1 0x60 SWAP3 SWAP6 SWAP5 SWAP2 SWAP6 PUSH1 0x80 DUP6 ADD SWAP7 ISZERO ISZERO DUP6 MSTORE ISZERO ISZERO PUSH1 0x20 DUP6 ADD MSTORE ISZERO ISZERO PUSH1 0x40 DUP5 ADD MSTORE ISZERO ISZERO SWAP2 ADD MSTORE JUMP JUMPDEST SUB SWAP1 RETURN JUMPDEST PUSH2 0x3DF SWAP3 SWAP4 POP DUP1 RETURNDATASIZE LT PUSH2 0x3E7 JUMPI JUMPDEST PUSH2 0x3D7 DUP2 DUP4 PUSH2 0x178A JUMP JUMPDEST DUP2 ADD SWAP1 PUSH2 0x17AC JUMP JUMPDEST SWAP1 CODESIZE DUP1 PUSH2 0x38C JUMP JUMPDEST POP RETURNDATASIZE PUSH2 0x3CD JUMP JUMPDEST PUSH1 0x40 MLOAD RETURNDATASIZE DUP9 DUP3 RETURNDATACOPY RETURNDATASIZE SWAP1 REVERT JUMPDEST AND CALLER EQ SWAP3 PUSH1 0x1 SWAP3 SWAP1 PUSH2 0x34B JUMP JUMPDEST PUSH2 0x427 SWAP2 SWAP3 POP DUP5 RETURNDATASIZE DUP7 GT PUSH2 0x42E JUMPI JUMPDEST PUSH2 0x41F DUP2 DUP4 PUSH2 0x178A JUMP JUMPDEST DUP2 ADD SWAP1 PUSH2 0x17C4 JUMP JUMPDEST SWAP1 CODESIZE PUSH2 0x33F JUMP JUMPDEST POP RETURNDATASIZE PUSH2 0x415 JUMP JUMPDEST POP DUP1 REVERT JUMPDEST POP CALLVALUE PUSH2 0x1EF JUMPI DUP1 PUSH1 0x3 NOT CALLDATASIZE ADD SLT PUSH2 0x1EF JUMPI PUSH1 0x1 SLOAD PUSH1 0x40 MLOAD PUSH4 0x66D0EAD3 PUSH1 0xE0 SHL DUP2 MSTORE ADDRESS PUSH1 0x4 DUP3 ADD MSTORE SWAP1 PUSH1 0x1 PUSH1 0x1 PUSH1 0xA0 SHL SUB AND PUSH1 0x20 DUP3 PUSH1 0x24 DUP2 DUP5 GAS STATICCALL SWAP2 DUP3 ISZERO PUSH2 0x4B9 JUMPI PUSH1 0x60 SWAP4 SWAP3 PUSH2 0x499 JUMPI JUMPDEST POP PUSH1 0x40 MLOAD SWAP2 ISZERO ISZERO DUP3 MSTORE PUSH1 0x20 DUP3 ADD MSTORE ADDRESS PUSH1 0x40 DUP3 ADD MSTORE RETURN JUMPDEST PUSH2 0x4B2 SWAP2 SWAP3 POP PUSH1 0x20 RETURNDATASIZE DUP2 GT PUSH2 0x3E7 JUMPI PUSH2 0x3D7 DUP2 DUP4 PUSH2 0x178A JUMP JUMPDEST SWAP1 CODESIZE PUSH2 0x483 JUMP JUMPDEST PUSH1 0x40 MLOAD RETURNDATASIZE DUP6 DUP3 RETURNDATACOPY RETURNDATASIZE SWAP1 REVERT JUMPDEST POP CALLVALUE PUSH2 0x1EF JUMPI PUSH1 0x20 DUP1 PUSH1 0x3 NOT CALLDATASIZE ADD SLT PUSH2 0x435 JUMPI PUSH1 0x4 CALLDATALOAD DUP3 MSTORE PUSH1 0x3 DUP2 MSTORE PUSH1 0x40 DUP3 KECCAK256 PUSH1 0x40 MLOAD SWAP3 DUP4 DUP4 DUP4 SLOAD SWAP2 DUP3 DUP2 MSTORE ADD SWAP1 DUP2 SWAP4 DUP4 MSTORE DUP5 DUP4 KECCAK256 SWAP1 DUP4 JUMPDEST DUP2 DUP2 LT PUSH2 0x550 JUMPI POP POP POP DUP5 PUSH2 0x512 SWAP2 SUB DUP6 PUSH2 0x178A JUMP JUMPDEST PUSH1 0x40 MLOAD SWAP4 DUP4 DUP6 SWAP5 DUP6 ADD SWAP2 DUP2 DUP7 MSTORE MLOAD DUP1 SWAP3 MSTORE PUSH1 0x40 DUP6 ADD SWAP4 SWAP3 JUMPDEST DUP3 DUP2 LT PUSH2 0x539 JUMPI POP POP POP POP SUB SWAP1 RETURN JUMPDEST DUP4 MLOAD DUP6 MSTORE DUP7 SWAP6 POP SWAP4 DUP2 ADD SWAP4 SWAP3 DUP2 ADD SWAP3 PUSH1 0x1 ADD PUSH2 0x52A JUMP JUMPDEST DUP3 SLOAD DUP5 MSTORE SWAP3 DUP7 ADD SWAP3 PUSH1 0x1 SWAP3 DUP4 ADD SWAP3 ADD PUSH2 0x4FC JUMP JUMPDEST POP CALLVALUE PUSH2 0x1EF JUMPI DUP1 PUSH1 0x3 NOT CALLDATASIZE ADD SLT PUSH2 0x1EF JUMPI SLOAD PUSH1 0x40 MLOAD PUSH1 0x1 PUSH1 0x1 PUSH1 0xA0 SHL SUB SWAP1 SWAP2 AND DUP2 MSTORE PUSH1 0x20 SWAP1 RETURN JUMPDEST POP CALLVALUE PUSH2 0x1EF JUMPI PUSH1 0x20 CALLDATASIZE PUSH1 0x3 NOT ADD SLT PUSH2 0x1EF JUMPI PUSH2 0x160 SWAP1 PUSH2 0x140 PUSH1 0x40 MLOAD SWAP2 PUSH2 0x5B1 DUP4 PUSH2 0x1757 JUMP JUMPDEST DUP1 DUP4 MSTORE DUP1 PUSH1 0x20 DUP5 ADD MSTORE DUP1 PUSH1 0x40 DUP5 ADD MSTORE DUP1 PUSH1 0x60 DUP5 ADD MSTORE DUP1 PUSH1 0x80 DUP5 ADD MSTORE DUP1 PUSH1 0xA0 DUP5 ADD MSTORE DUP1 PUSH1 0xC0 DUP5 ADD MSTORE DUP1 PUSH1 0xE0 DUP5 ADD MSTORE PUSH1 0x40 PUSH2 0x100 SWAP2 DUP1 DUP4 DUP7 ADD MSTORE DUP1 DUP5 PUSH2 0x120 SWAP7 DUP3 DUP9 DUP3 ADD MSTORE ADD MSTORE PUSH1 0x4 CALLDATALOAD DUP2 MSTORE PUSH1 0x4 PUSH1 0x20 MSTORE KECCAK256 SWAP3 PUSH1 0x40 MLOAD SWAP2 PUSH2 0x60F DUP4 PUSH2 0x1757 JUMP JUMPDEST PUSH1 0xA DUP6 SLOAD SWAP6 DUP7 DUP6 MSTORE PUSH1 0x1 DUP2 ADD SLOAD PUSH1 0x20 DUP7 ADD MSTORE PUSH1 0x2 DUP2 ADD SLOAD PUSH1 0x40 DUP7 ADD MSTORE PUSH1 0x3 DUP2 ADD SLOAD PUSH1 0x60 DUP7 ADD MSTORE PUSH1 0x4 DUP2 ADD SLOAD PUSH1 0x80 DUP7 ADD MSTORE PUSH1 0x5 DUP2 ADD SLOAD PUSH1 0xA0 DUP7 ADD MSTORE PUSH1 0x6 DUP2 ADD SLOAD PUSH1 0xC0 DUP7 ADD MSTORE PUSH1 0x7 DUP2 ADD SLOAD PUSH1 0xE0 DUP7 ADD MSTORE PUSH1 0xFF PUSH1 0x8 DUP3 ADD SLOAD AND ISZERO ISZERO DUP4 DUP7 ADD MSTORE PUSH1 0x9 DUP2 ADD SLOAD DUP5 DUP7 ADD MSTORE ADD SLOAD DUP5 DUP5 ADD MSTORE PUSH1 0x40 MLOAD SWAP5 DUP6 MSTORE PUSH1 0x20 DUP4 ADD MLOAD PUSH1 0x20 DUP7 ADD MSTORE PUSH1 0x40 DUP4 ADD MLOAD PUSH1 0x40 DUP7 ADD MSTORE PUSH1 0x60 DUP4 ADD MLOAD PUSH1 0x60 DUP7 ADD MSTORE PUSH1 0x80 DUP4 ADD MLOAD PUSH1 0x80 DUP7 ADD MSTORE PUSH1 0xA0 DUP4 ADD MLOAD PUSH1 0xA0 DUP7 ADD MSTORE PUSH1 0xC0 DUP4 ADD MLOAD PUSH1 0xC0 DUP7 ADD MSTORE PUSH1 0xE0 DUP4 ADD MLOAD PUSH1 0xE0 DUP7 ADD MSTORE DUP1 DUP4 ADD MLOAD ISZERO ISZERO SWAP1 DUP6 ADD MSTORE DUP1 DUP3 ADD MLOAD SWAP1 DUP5 ADD MSTORE ADD MLOAD PUSH2 0x140 DUP3 ADD MSTORE RETURN JUMPDEST POP CALLVALUE PUSH2 0x1EF JUMPI PUSH1 0x40 CALLDATASIZE PUSH1 0x3 NOT ADD SLT PUSH2 0x1EF JUMPI PUSH1 0x40 PUSH2 0x6FE PUSH2 0x166D JUMP JUMPDEST SWAP2 PUSH1 0x4 CALLDATALOAD DUP2 MSTORE PUSH1 0x5 PUSH1 0x20 MSTORE KECCAK256 SWAP1 PUSH1 0x1 DUP1 PUSH1 0xA0 SHL SUB AND PUSH1 0x0 MSTORE PUSH1 0x20 MSTORE PUSH1 0x20 PUSH1 0xFF PUSH1 0x40 PUSH1 0x0 KECCAK256 SLOAD AND PUSH1 0x40 MLOAD SWAP1 ISZERO ISZERO DUP2 MSTORE RETURN JUMPDEST POP CALLVALUE PUSH2 0x1EF JUMPI PUSH2 0x100 CALLDATASIZE PUSH1 0x3 NOT ADD SLT PUSH2 0x1EF JUMPI PUSH1 0x1 SLOAD PUSH1 0x40 MLOAD PUSH4 0x31A9108F PUSH1 0xE1 SHL DUP1 DUP3 MSTORE PUSH1 0x4 DUP1 CALLDATALOAD SWAP1 DUP4 ADD MSTORE PUSH1 0x1 PUSH1 0x1 PUSH1 0xA0 SHL SUB SWAP3 DUP4 AND SWAP2 SWAP1 PUSH1 0x20 DUP3 PUSH1 0x24 DUP2 DUP7 GAS STATICCALL DUP1 ISZERO PUSH2 0xAD7 JUMPI DUP5 PUSH2 0x78E SWAP2 PUSH1 0x20 SWAP5 DUP9 SWAP2 PUSH2 0xABA JUMPI JUMPDEST POP AND ISZERO ISZERO PUSH2 0x17E3 JUMP JUMPDEST PUSH1 0x24 PUSH1 0x40 MLOAD DUP1 SWAP5 DUP2 SWAP4 DUP3 MSTORE PUSH1 0x4 CALLDATALOAD PUSH1 0x4 DUP4 ADD MSTORE GAS STATICCALL SWAP1 DUP2 ISZERO PUSH2 0x4B9 JUMPI DUP4 SWAP2 PUSH2 0xA9B JUMPI JUMPDEST POP DUP2 AND CALLER EQ SWAP1 DUP2 ISZERO PUSH2 0xA8E JUMPI JUMPDEST POP ISZERO PUSH2 0xA58 JUMPI PUSH1 0x64 DUP1 DUP1 CALLDATALOAD GT PUSH2 0xA16 JUMPI DUP1 PUSH1 0x84 CALLDATALOAD GT PUSH2 0x9D4 JUMPI DUP1 PUSH1 0xA4 CALLDATALOAD GT PUSH2 0x992 JUMPI DUP1 PUSH1 0xC4 CALLDATALOAD GT PUSH2 0x950 JUMPI DUP1 PUSH1 0xE4 CALLDATALOAD GT PUSH2 0x90E JUMPI PUSH1 0x40 MLOAD SWAP1 PUSH2 0x7FF DUP3 PUSH2 0x1757 JUMP JUMPDEST PUSH1 0x24 CALLDATALOAD DUP3 MSTORE PUSH1 0x44 CALLDATALOAD PUSH1 0x20 DUP4 ADD MSTORE TIMESTAMP PUSH1 0x40 DUP4 ADD MSTORE CALLDATALOAD PUSH1 0x60 DUP3 ADD MSTORE PUSH1 0x84 CALLDATALOAD PUSH1 0x80 DUP3 ADD MSTORE PUSH1 0xA4 CALLDATALOAD PUSH1 0xA0 DUP3 ADD MSTORE PUSH1 0xC4 CALLDATALOAD PUSH1 0xC0 DUP3 ADD MSTORE PUSH1 0xE4 CALLDATALOAD PUSH1 0xE0 DUP3 ADD MSTORE DUP2 PUSH2 0x100 DUP3 ADD MSTORE DUP2 PUSH2 0x120 DUP3 ADD MSTORE DUP2 PUSH2 0x140 DUP3 ADD MSTORE PUSH1 0x4 CALLDATALOAD DUP3 MSTORE PUSH1 0x4 PUSH1 0x20 MSTORE PUSH1 0xA PUSH2 0x140 PUSH1 0x40 DUP5 KECCAK256 SWAP3 DUP1 MLOAD DUP5 SSTORE PUSH1 0x20 DUP2 ADD MLOAD PUSH1 0x1 DUP6 ADD SSTORE PUSH1 0x40 DUP2 ADD MLOAD PUSH1 0x2 DUP6 ADD SSTORE PUSH1 0x60 DUP2 ADD MLOAD PUSH1 0x3 DUP6 ADD SSTORE PUSH1 0x80 DUP2 ADD MLOAD PUSH1 0x4 DUP6 ADD SSTORE PUSH1 0xA0 DUP2 ADD MLOAD PUSH1 0x5 DUP6 ADD SSTORE PUSH1 0xC0 DUP2 ADD MLOAD PUSH1 0x6 DUP6 ADD SSTORE PUSH1 0xE0 DUP2 ADD MLOAD PUSH1 0x7 DUP6 ADD SSTORE PUSH1 0x8 DUP5 ADD PUSH2 0x100 DUP3 ADD MLOAD ISZERO ISZERO PUSH1 0xFF DUP1 NOT DUP4 SLOAD AND SWAP2 AND OR SWAP1 SSTORE PUSH2 0x120 DUP2 ADD MLOAD PUSH1 0x9 DUP6 ADD SSTORE ADD MLOAD SWAP2 ADD SSTORE PUSH1 0x40 MLOAD PUSH1 0x24 CALLDATALOAD DUP2 MSTORE PUSH1 0x44 CALLDATALOAD PUSH1 0x20 DUP3 ADD MSTORE PUSH32 0x4355F180719C91F4F06494335F14FBD63C0602C4AA06E75378C4A67EC11D5AF2 PUSH1 0x40 PUSH1 0x4 CALLDATALOAD SWAP3 LOG2 DUP1 RETURN JUMPDEST PUSH1 0x40 MLOAD PUSH3 0x461BCD PUSH1 0xE5 SHL DUP2 MSTORE PUSH1 0x20 PUSH1 0x4 DUP3 ADD MSTORE PUSH1 0x1F PUSH1 0x24 DUP3 ADD MSTORE PUSH32 0x52656E6F766174696F6E2073636F7265206D757374206265203C3D2031303000 PUSH1 0x44 DUP3 ADD MSTORE REVERT JUMPDEST PUSH1 0x40 MLOAD PUSH3 0x461BCD PUSH1 0xE5 SHL DUP2 MSTORE PUSH1 0x20 PUSH1 0x4 DUP3 ADD MSTORE PUSH1 0x18 PUSH1 0x24 DUP3 ADD MSTORE PUSH32 0x4167652073636F7265206D757374206265203C3D203130300000000000000000 PUSH1 0x44 DUP3 ADD MSTORE REVERT JUMPDEST PUSH1 0x40 MLOAD PUSH3 0x461BCD PUSH1 0xE5 SHL DUP2 MSTORE PUSH1 0x20 PUSH1 0x4 DUP3 ADD MSTORE PUSH1 0x1E PUSH1 0x24 DUP3 ADD MSTORE PUSH32 0x436F6E646974696F6E2073636F7265206D757374206265203C3D203130300000 PUSH1 0x44 DUP3 ADD MSTORE REVERT JUMPDEST PUSH1 0x40 MLOAD PUSH3 0x461BCD PUSH1 0xE5 SHL DUP2 MSTORE PUSH1 0x20 PUSH1 0x4 DUP3 ADD MSTORE PUSH1 0x19 PUSH1 0x24 DUP3 ADD MSTORE PUSH32 0x53697A652073636F7265206D757374206265203C3D2031303000000000000000 PUSH1 0x44 DUP3 ADD MSTORE REVERT JUMPDEST PUSH1 0x40 MLOAD PUSH3 0x461BCD PUSH1 0xE5 SHL DUP2 MSTORE PUSH1 0x20 PUSH1 0x4 DUP3 ADD MSTORE PUSH1 0x1D PUSH1 0x24 DUP3 ADD MSTORE PUSH32 0x4C6F636174696F6E2073636F7265206D757374206265203C3D20313030000000 PUSH1 0x44 DUP3 ADD MSTORE REVERT JUMPDEST PUSH1 0x40 MLOAD PUSH3 0x461BCD PUSH1 0xE5 SHL DUP2 MSTORE PUSH1 0x20 PUSH1 0x4 DUP3 ADD MSTORE PUSH1 0xE PUSH1 0x24 DUP3 ADD MSTORE PUSH14 0x139BDD08185D5D1A1BDC9A5E9959 PUSH1 0x92 SHL PUSH1 0x44 DUP3 ADD MSTORE PUSH1 0x64 SWAP1 REVERT JUMPDEST DUP3 SLOAD AND CALLER EQ SWAP1 POP CODESIZE PUSH2 0x7BE JUMP JUMPDEST PUSH2 0xAB4 SWAP2 POP PUSH1 0x20 RETURNDATASIZE PUSH1 0x20 GT PUSH2 0x42E JUMPI PUSH2 0x41F DUP2 DUP4 PUSH2 0x178A JUMP JUMPDEST CODESIZE PUSH2 0x7B1 JUMP JUMPDEST PUSH2 0xAD1 SWAP2 POP DUP6 RETURNDATASIZE DUP8 GT PUSH2 0x42E JUMPI PUSH2 0x41F DUP2 DUP4 PUSH2 0x178A JUMP JUMPDEST CODESIZE PUSH2 0x785 JUMP JUMPDEST PUSH1 0x40 MLOAD RETURNDATASIZE DUP8 DUP3 RETURNDATACOPY RETURNDATASIZE SWAP1 REVERT JUMPDEST POP CALLVALUE PUSH2 0x1EF JUMPI DUP1 PUSH1 0x3 NOT CALLDATASIZE ADD SLT PUSH2 0x1EF JUMPI PUSH2 0xAFB PUSH2 0x16FF JUMP JUMPDEST PUSH1 0x0 DUP1 SLOAD PUSH1 0x1 PUSH1 0x1 PUSH1 0xA0 SHL SUB NOT DUP2 AND DUP3 SSTORE PUSH1 0x1 PUSH1 0x1 PUSH1 0xA0 SHL SUB AND PUSH32 0x8BE0079C531659141344CD1FD0A4F28419497F9722A3DAAFE3B4186F6B6457E0 DUP3 DUP1 LOG3 DUP1 RETURN JUMPDEST POP CALLVALUE PUSH2 0x1EF JUMPI PUSH1 0x20 CALLDATASIZE PUSH1 0x3 NOT ADD SLT PUSH2 0x1EF JUMPI PUSH1 0x40 SWAP1 PUSH1 0x4 CALLDATALOAD DUP2 MSTORE PUSH1 0x4 PUSH1 0x20 MSTORE KECCAK256 DUP1 SLOAD PUSH2 0x3BB PUSH1 0x1 DUP4 ADD SLOAD SWAP3 PUSH1 0x2 DUP2 ADD SLOAD SWAP1 PUSH1 0x3 DUP2 ADD SLOAD PUSH1 0x4 DUP3 ADD SLOAD PUSH1 0x5 DUP4 ADD SLOAD PUSH1 0x6 DUP5 ADD SLOAD SWAP1 PUSH1 0x7 DUP6 ADD SLOAD SWAP3 PUSH1 0xFF PUSH1 0x8 DUP8 ADD SLOAD AND SWAP5 PUSH1 0xA PUSH1 0x9 DUP9 ADD SLOAD SWAP8 ADD SLOAD SWAP8 PUSH1 0x40 MLOAD SWAP12 DUP13 SWAP12 DUP13 PUSH2 0x1683 JUMP JUMPDEST POP CALLVALUE PUSH2 0x1EF JUMPI PUSH1 0x20 CALLDATASIZE PUSH1 0x3 NOT ADD SLT PUSH2 0x1EF JUMPI PUSH1 0x40 SWAP1 PUSH1 0x4 CALLDATALOAD DUP2 MSTORE PUSH1 0x2 PUSH1 0x20 MSTORE KECCAK256 DUP1 SLOAD PUSH2 0x3BB PUSH1 0x1 DUP4 ADD SLOAD SWAP3 PUSH1 0x2 DUP2 ADD SLOAD SWAP1 PUSH1 0x3 DUP2 ADD SLOAD PUSH1 0x4 DUP3 ADD SLOAD PUSH1 0x5 DUP4 ADD SLOAD PUSH1 0x6 DUP5 ADD SLOAD SWAP1 PUSH1 0x7 DUP6 ADD SLOAD SWAP3 PUSH1 0xFF PUSH1 0x8 DUP8 ADD SLOAD AND SWAP5 PUSH1 0xA PUSH1 0x9 DUP9 ADD SLOAD SWAP8 ADD SLOAD SWAP8 PUSH1 0x40 MLOAD SWAP12 DUP13 SWAP12 DUP13 PUSH2 0x1683 JUMP JUMPDEST POP CALLVALUE PUSH2 0x1EF JUMPI PUSH1 0x20 SWAP1 DUP2 PUSH1 0x3 NOT CALLDATASIZE ADD SLT PUSH2 0x1EF JUMPI PUSH1 0x1 SLOAD PUSH1 0x40 MLOAD PUSH4 0x31A9108F PUSH1 0xE1 SHL DUP2 MSTORE PUSH1 0x4 DUP1 CALLDATALOAD SWAP1 DUP3 ADD MSTORE PUSH1 0x1 PUSH1 0x1 PUSH1 0xA0 SHL SUB SWAP2 DUP3 AND SWAP2 DUP5 DUP3 PUSH1 0x24 DUP2 DUP7 GAS STATICCALL SWAP2 DUP3 ISZERO PUSH2 0x110E JUMPI DUP5 SWAP3 PUSH2 0x10EF JUMPI JUMPDEST POP CALLER SWAP2 AND SUB PUSH2 0x10B5 JUMPI PUSH1 0x4 CALLDATALOAD DUP3 MSTORE PUSH1 0x4 DUP4 MSTORE PUSH1 0xFF PUSH1 0x8 PUSH1 0x40 DUP5 KECCAK256 ADD SLOAD AND ISZERO PUSH2 0x1077 JUMPI PUSH1 0x40 MLOAD PUSH4 0x66D0EAD3 PUSH1 0xE0 SHL DUP2 MSTORE ADDRESS PUSH1 0x4 DUP3 ADD MSTORE DUP4 DUP2 PUSH1 0x24 DUP2 DUP6 GAS STATICCALL SWAP1 DUP2 ISZERO PUSH2 0x4B9 JUMPI DUP4 SWAP2 PUSH2 0x105A JUMPI JUMPDEST POP ISZERO PUSH2 0x1004 JUMPI PUSH1 0x4 CALLDATALOAD DUP3 MSTORE PUSH1 0x4 DUP4 MSTORE PUSH1 0x40 DUP3 KECCAK256 SWAP1 DUP2 SLOAD SWAP1 PUSH1 0x1 DUP4 ADD SWAP3 DUP4 SLOAD SWAP2 PUSH1 0x3 DUP3 ADD SWAP3 DUP4 SLOAD SWAP5 PUSH1 0x4 DUP5 ADD SWAP6 DUP7 SLOAD SWAP3 PUSH1 0x5 DUP7 ADD SWAP3 DUP4 SLOAD SWAP6 PUSH1 0x6 DUP9 ADD SWAP6 DUP7 SLOAD PUSH1 0x7 DUP11 ADD SWAP9 DUP10 SLOAD SWAP3 DUP5 EXTCODESIZE ISZERO PUSH2 0x1000 JUMPI SWAP3 DUP16 SWAP7 SWAP6 SWAP4 SWAP3 PUSH2 0x104 SWAP6 SWAP3 DUP9 SWAP5 PUSH1 0x40 MLOAD SWAP11 DUP12 SWAP10 DUP11 SWAP9 PUSH4 0x4BEAC331 PUSH1 0xE0 SHL DUP11 MSTORE PUSH1 0x4 CALLDATALOAD PUSH1 0x4 DUP12 ADD MSTORE PUSH1 0x24 DUP11 ADD MSTORE PUSH1 0x44 DUP10 ADD MSTORE PUSH1 0x64 DUP9 ADD MSTORE PUSH1 0x84 DUP8 ADD MSTORE PUSH1 0xA4 DUP7 ADD MSTORE PUSH1 0xC4 DUP6 ADD MSTORE PUSH1 0xE4 DUP5 ADD MSTORE GAS CALL SWAP1 DUP2 PUSH2 0xFD0 JUMPI JUMPDEST POP PUSH2 0xE8A JUMPI DUP9 DUP9 DUP1 PUSH1 0x3 RETURNDATASIZE GT PUSH2 0xE79 JUMPI JUMPDEST POP PUSH4 0x8C379A0 EQ PUSH2 0xDC9 JUMPI JUMPDEST PUSH1 0x84 SWAP1 PUSH1 0x40 MLOAD SWAP1 PUSH3 0x461BCD PUSH1 0xE5 SHL DUP3 MSTORE PUSH1 0x4 DUP3 ADD MSTORE PUSH1 0x32 PUSH1 0x24 DUP3 ADD MSTORE PUSH32 0x4661696C656420746F207570646174652070726F70657274792076616C756174 PUSH1 0x44 DUP3 ADD MSTORE PUSH18 0x34B7B71D103AB735B737BBB71032B93937B9 PUSH1 0x71 SHL PUSH1 0x64 DUP3 ADD MSTORE REVERT JUMPDEST PUSH2 0xDD1 PUSH2 0x1854 JUMP JUMPDEST SWAP1 DUP2 PUSH2 0xDDE JUMPI SWAP1 POP PUSH2 0xD6A JUMP JUMPDEST PUSH1 0x44 SWAP1 PUSH1 0x40 MLOAD SWAP3 PUSH2 0xE42 PUSH1 0x45 DUP6 DUP5 DUP2 ADD SWAP4 PUSH32 0x4661696C656420746F207570646174652070726F70657274792076616C756174 DUP6 MSTORE PUSH5 0x34B7B71D1 PUSH1 0xDD SHL PUSH1 0x40 DUP4 ADD MSTORE PUSH2 0xE32 DUP2 MLOAD DUP1 SWAP3 DUP9 DUP7 DUP7 ADD SWAP2 ADD PUSH2 0x18C6 JUMP JUMPDEST DUP2 ADD SUB PUSH1 0x25 DUP2 ADD DUP8 MSTORE ADD DUP6 PUSH2 0x178A JUMP JUMPDEST PUSH2 0xE6B PUSH1 0x40 MLOAD SWAP5 DUP6 SWAP4 PUSH3 0x461BCD PUSH1 0xE5 SHL DUP6 MSTORE PUSH1 0x4 DUP6 ADD MSTORE MLOAD DUP1 SWAP3 DUP2 PUSH1 0x24 DUP7 ADD MSTORE DUP6 DUP6 ADD SWAP1 PUSH2 0x18C6 JUMP JUMPDEST PUSH1 0x1F ADD PUSH1 0x1F NOT AND DUP2 ADD SUB ADD SWAP1 REVERT JUMPDEST SWAP1 POP PUSH1 0x4 DUP2 DUP1 RETURNDATACOPY MLOAD PUSH1 0xE0 SHR DUP3 PUSH2 0xD5E JUMP JUMPDEST SWAP3 PUSH1 0xA SWAP3 DUP4 SWAP3 DUP11 SWAP7 SWAP6 DUP4 SLOAD SWAP10 SLOAD SWAP9 PUSH1 0x4 CALLDATALOAD DUP13 MSTORE PUSH1 0x2 DUP10 MSTORE PUSH1 0x40 DUP13 KECCAK256 SWAP8 DUP12 DUP10 SSTORE DUP11 PUSH1 0x1 DUP11 ADD SSTORE PUSH1 0x2 DUP7 ADD SLOAD PUSH1 0x2 DUP11 ADD SSTORE SLOAD PUSH1 0x3 DUP10 ADD SSTORE SLOAD PUSH1 0x4 DUP9 ADD SSTORE SLOAD PUSH1 0x5 DUP8 ADD SSTORE SLOAD PUSH1 0x6 DUP7 ADD SSTORE SLOAD PUSH1 0x7 DUP6 ADD SSTORE PUSH1 0x8 DUP5 ADD PUSH1 0x1 PUSH1 0xFF NOT DUP3 SLOAD AND OR SWAP1 SSTORE PUSH1 0x9 DUP2 ADD SLOAD PUSH1 0x9 DUP6 ADD SSTORE ADD SLOAD SWAP2 ADD SSTORE PUSH1 0x3 DUP2 MSTORE PUSH1 0x40 DUP5 KECCAK256 DUP1 SLOAD SWAP1 PUSH9 0x10000000000000000 DUP3 LT ISZERO PUSH2 0xFBC JUMPI SWAP1 PUSH2 0xF21 SWAP2 PUSH1 0x1 DUP3 ADD DUP2 SSTORE PUSH2 0x16D1 JUMP JUMPDEST DUP2 SLOAD SWAP1 PUSH1 0x3 SHL SWAP1 DUP6 DUP3 SHL SWAP2 PUSH1 0x0 NOT SWAP1 SHL NOT AND OR SWAP1 SSTORE PUSH1 0x4 CALLDATALOAD DUP5 MSTORE PUSH1 0x4 DUP2 MSTORE PUSH2 0xF88 PUSH1 0x40 DUP6 KECCAK256 PUSH1 0xA PUSH1 0x0 SWAP2 DUP3 DUP2 SSTORE DUP3 PUSH1 0x1 DUP3 ADD SSTORE DUP3 PUSH1 0x2 DUP3 ADD SSTORE DUP3 PUSH1 0x3 DUP3 ADD SSTORE DUP3 PUSH1 0x4 DUP3 ADD SSTORE DUP3 PUSH1 0x5 DUP3 ADD SSTORE DUP3 PUSH1 0x6 DUP3 ADD SSTORE DUP3 PUSH1 0x7 DUP3 ADD SSTORE DUP3 PUSH1 0x8 DUP3 ADD SSTORE DUP3 PUSH1 0x9 DUP3 ADD SSTORE ADD SSTORE JUMP JUMPDEST PUSH1 0x40 MLOAD SWAP3 DUP4 MSTORE DUP3 ADD MSTORE PUSH32 0xDD9C5B684AC908E56B235F477F4FBD037117F994E48C60F5700009C106C9A681 PUSH1 0x40 PUSH1 0x4 CALLDATALOAD SWAP3 LOG2 DUP1 RETURN JUMPDEST PUSH4 0x4E487B71 PUSH1 0xE0 SHL DUP7 MSTORE PUSH1 0x41 PUSH1 0x4 MSTORE PUSH1 0x24 DUP7 REVERT JUMPDEST PUSH8 0xFFFFFFFFFFFFFFFF DUP2 SWAP11 SWAP3 SWAP11 GT PUSH2 0xFEC JUMPI PUSH1 0x40 MSTORE SWAP8 CODESIZE PUSH2 0xD4D JUMP JUMPDEST PUSH4 0x4E487B71 PUSH1 0xE0 SHL DUP3 MSTORE PUSH1 0x41 PUSH1 0x4 MSTORE PUSH1 0x24 DUP3 REVERT JUMPDEST DUP16 DUP1 REVERT JUMPDEST PUSH1 0x40 MLOAD PUSH3 0x461BCD PUSH1 0xE5 SHL DUP2 MSTORE PUSH1 0x4 DUP2 ADD DUP5 SWAP1 MSTORE PUSH1 0x28 PUSH1 0x24 DUP3 ADD MSTORE PUSH32 0x436F6E7472616374206E6F7420617574686F72697A656420746F207570646174 PUSH1 0x44 DUP3 ADD MSTORE PUSH8 0x652076616C756573 PUSH1 0xC0 SHL PUSH1 0x64 DUP3 ADD MSTORE PUSH1 0x84 SWAP1 REVERT JUMPDEST PUSH2 0x1071 SWAP2 POP DUP5 RETURNDATASIZE DUP7 GT PUSH2 0x3E7 JUMPI PUSH2 0x3D7 DUP2 DUP4 PUSH2 0x178A JUMP JUMPDEST CODESIZE PUSH2 0xCAD JUMP JUMPDEST PUSH1 0x40 MLOAD PUSH3 0x461BCD PUSH1 0xE5 SHL DUP2 MSTORE PUSH1 0x4 DUP2 ADD DUP5 SWAP1 MSTORE PUSH1 0x16 PUSH1 0x24 DUP3 ADD MSTORE PUSH22 0x15985B1D585D1A5BDB881B9BDD081D995C9A599A5959 PUSH1 0x52 SHL PUSH1 0x44 DUP3 ADD MSTORE PUSH1 0x64 SWAP1 REVERT JUMPDEST PUSH1 0x40 MLOAD PUSH3 0x461BCD PUSH1 0xE5 SHL DUP2 MSTORE PUSH1 0x4 DUP2 ADD DUP5 SWAP1 MSTORE PUSH1 0x12 PUSH1 0x24 DUP3 ADD MSTORE PUSH18 0x2737BA10383937B832B93A3C9037BBB732B9 PUSH1 0x71 SHL PUSH1 0x44 DUP3 ADD MSTORE PUSH1 0x64 SWAP1 REVERT JUMPDEST PUSH2 0x1107 SWAP2 SWAP3 POP DUP6 RETURNDATASIZE DUP8 GT PUSH2 0x42E JUMPI PUSH2 0x41F DUP2 DUP4 PUSH2 0x178A JUMP JUMPDEST SWAP1 CODESIZE PUSH2 0xC62 JUMP JUMPDEST PUSH1 0x40 MLOAD RETURNDATASIZE DUP7 DUP3 RETURNDATACOPY RETURNDATASIZE SWAP1 REVERT JUMPDEST POP CALLVALUE PUSH2 0x1EF JUMPI PUSH1 0x20 DUP1 PUSH1 0x3 NOT CALLDATASIZE ADD SLT PUSH2 0x435 JUMPI PUSH1 0x8 SWAP1 PUSH1 0x4 CALLDATALOAD DUP4 MSTORE PUSH1 0x2 DUP2 MSTORE PUSH1 0xFF DUP3 PUSH1 0x40 DUP6 KECCAK256 ADD SLOAD AND SWAP1 PUSH1 0x4 DUP2 MSTORE PUSH1 0x40 DUP5 KECCAK256 SWAP1 PUSH1 0xFF DUP3 SLOAD ISZERO ISZERO SWAP5 DUP6 SWAP4 ADD SLOAD AND SWAP1 DUP3 PUSH2 0x11F8 JUMPI JUMPDEST DUP3 PUSH2 0x118D JUMPI JUMPDEST POP PUSH1 0x40 DUP1 MLOAD SWAP4 ISZERO ISZERO DUP5 MSTORE SWAP4 ISZERO ISZERO PUSH1 0x20 DUP5 ADD MSTORE ISZERO ISZERO SWAP3 DUP3 ADD SWAP3 SWAP1 SWAP3 MSTORE SWAP1 ISZERO ISZERO PUSH1 0x60 DUP3 ADD MSTORE PUSH1 0x80 SWAP1 RETURN JUMPDEST PUSH1 0x1 SLOAD PUSH1 0x40 MLOAD PUSH4 0x66D0EAD3 PUSH1 0xE0 SHL DUP2 MSTORE ADDRESS PUSH1 0x4 DUP3 ADD MSTORE SWAP3 SWAP4 POP SWAP1 SWAP2 SWAP1 DUP3 SWAP1 DUP3 SWAP1 PUSH1 0x24 SWAP1 DUP3 SWAP1 PUSH1 0x1 PUSH1 0x1 PUSH1 0xA0 SHL SUB AND GAS STATICCALL SWAP2 DUP3 ISZERO PUSH2 0x3EE JUMPI PUSH2 0x3BB SWAP5 SWAP6 SWAP7 SWAP3 PUSH2 0x11DB JUMPI JUMPDEST POP POP SWAP1 DUP5 SWAP4 SWAP3 PUSH2 0x1165 JUMP JUMPDEST PUSH2 0x11F1 SWAP3 POP DUP1 RETURNDATASIZE LT PUSH2 0x3E7 JUMPI PUSH2 0x3D7 DUP2 DUP4 PUSH2 0x178A JUMP JUMPDEST CODESIZE DUP1 PUSH2 0x11D0 JUMP JUMPDEST SWAP2 POP DUP1 SWAP2 PUSH2 0x115F JUMP JUMPDEST POP CALLVALUE PUSH2 0x1EF JUMPI DUP1 PUSH1 0x3 NOT CALLDATASIZE ADD SLT PUSH2 0x1EF JUMPI PUSH1 0x20 PUSH1 0x40 MLOAD PUSH1 0x3 DUP2 MSTORE RETURN JUMPDEST POP CALLVALUE PUSH2 0x1EF JUMPI DUP1 PUSH1 0x3 NOT CALLDATASIZE ADD SLT PUSH2 0x1EF JUMPI PUSH1 0x1 SLOAD PUSH1 0x40 MLOAD PUSH1 0x1 PUSH1 0x1 PUSH1 0xA0 SHL SUB SWAP1 SWAP2 AND DUP2 MSTORE PUSH1 0x20 SWAP1 RETURN JUMPDEST POP CALLVALUE PUSH2 0x1EF JUMPI PUSH1 0x40 CALLDATASIZE PUSH1 0x3 NOT ADD SLT PUSH2 0x1EF JUMPI PUSH1 0xFF PUSH1 0x40 PUSH1 0x20 SWAP3 PUSH2 0x1267 PUSH2 0x166D JUMP JUMPDEST PUSH1 0x4 CALLDATALOAD DUP3 MSTORE PUSH1 0x5 DUP6 MSTORE DUP3 DUP3 KECCAK256 PUSH1 0x1 PUSH1 0x1 PUSH1 0xA0 SHL SUB SWAP1 SWAP2 AND DUP3 MSTORE DUP5 MSTORE KECCAK256 SLOAD PUSH1 0x40 MLOAD SWAP2 AND ISZERO ISZERO DUP2 MSTORE RETURN JUMPDEST POP CALLVALUE PUSH2 0x1EF JUMPI DUP1 PUSH1 0x3 NOT CALLDATASIZE ADD SLT PUSH2 0x1EF JUMPI PUSH1 0x1 SLOAD PUSH1 0x40 MLOAD PUSH4 0x66D0EAD3 PUSH1 0xE0 SHL DUP2 MSTORE ADDRESS PUSH1 0x4 DUP3 ADD MSTORE SWAP1 PUSH1 0x20 SWAP1 DUP3 SWAP1 PUSH1 0x24 SWAP1 DUP3 SWAP1 PUSH1 0x1 PUSH1 0x1 PUSH1 0xA0 SHL SUB AND GAS STATICCALL SWAP1 DUP2 ISZERO PUSH2 0x1304 JUMPI PUSH1 0x20 SWAP3 SWAP2 PUSH2 0x12E7 JUMPI JUMPDEST POP PUSH1 0x40 MLOAD SWAP1 ISZERO ISZERO DUP2 MSTORE RETURN JUMPDEST PUSH2 0x12FE SWAP2 POP DUP3 RETURNDATASIZE DUP2 GT PUSH2 0x3E7 JUMPI PUSH2 0x3D7 DUP2 DUP4 PUSH2 0x178A JUMP JUMPDEST CODESIZE PUSH2 0x12DC JUMP JUMPDEST PUSH1 0x40 MLOAD RETURNDATASIZE DUP5 DUP3 RETURNDATACOPY RETURNDATASIZE SWAP1 REVERT JUMPDEST SWAP1 POP CALLVALUE PUSH2 0x435 JUMPI PUSH1 0x40 CALLDATASIZE PUSH1 0x3 NOT ADD SLT PUSH2 0x435 JUMPI PUSH1 0x4 CALLDATALOAD SWAP1 PUSH1 0x24 SWAP1 DUP2 CALLDATALOAD SWAP2 DUP3 ISZERO ISZERO DUP4 SUB PUSH2 0x1669 JUMPI PUSH1 0x1 SLOAD PUSH4 0x31A9108F PUSH1 0xE1 SHL DUP1 DUP5 MSTORE PUSH1 0x4 DUP5 ADD DUP7 SWAP1 MSTORE PUSH1 0x20 SWAP4 PUSH1 0x1 PUSH1 0x1 PUSH1 0xA0 SHL SUB SWAP3 DUP4 AND SWAP3 SWAP2 SWAP1 DUP6 DUP2 DUP7 DUP2 DUP8 GAS STATICCALL SWAP1 DUP2 ISZERO PUSH2 0x165E JUMPI PUSH2 0x137E SWAP2 DUP5 SWAP2 DUP12 SWAP2 PUSH2 0x1647 JUMPI POP AND ISZERO ISZERO PUSH2 0x17E3 JUMP JUMPDEST DUP7 DUP9 MSTORE PUSH1 0x4 DUP6 MSTORE PUSH1 0xFF PUSH1 0x8 PUSH1 0x40 DUP11 KECCAK256 ADD SLOAD AND PUSH2 0x1603 JUMPI DUP7 DUP9 MSTORE PUSH1 0x5 DUP6 MSTORE PUSH1 0x40 DUP9 KECCAK256 CALLER DUP10 MSTORE DUP6 MSTORE PUSH1 0xFF PUSH1 0x40 DUP10 KECCAK256 SLOAD AND PUSH2 0x15CF JUMPI DUP5 SWAP1 DUP5 PUSH1 0x40 MLOAD DUP1 SWAP6 DUP2 SWAP4 DUP3 MSTORE DUP11 PUSH1 0x4 DUP4 ADD MSTORE GAS STATICCALL SWAP2 DUP3 ISZERO PUSH2 0x15C4 JUMPI DUP8 SWAP3 PUSH2 0x15A5 JUMPI JUMPDEST POP AND CALLER EQ PUSH2 0x1562 JUMPI POP DUP3 DUP5 MSTORE PUSH1 0x4 DUP2 MSTORE PUSH1 0x40 DUP5 KECCAK256 SWAP2 PUSH1 0x5 DUP3 MSTORE PUSH1 0x40 DUP6 KECCAK256 CALLER DUP7 MSTORE DUP3 MSTORE PUSH1 0x40 DUP6 KECCAK256 SWAP1 PUSH1 0xFF NOT SWAP2 PUSH1 0x1 DUP4 DUP3 SLOAD AND OR SWAP1 SSTORE PUSH1 0x0 EQ PUSH2 0x149A JUMPI PUSH1 0x3 PUSH1 0x9 DUP5 ADD PUSH2 0x141D DUP2 SLOAD PUSH2 0x182F JUMP JUMPDEST DUP1 SWAP2 SSTORE PUSH1 0x40 MLOAD PUSH1 0x1 DUP2 MSTORE DUP7 PUSH32 0xA256E30908FB7FF9FAE4FAF53E13A423F492B7CB412CE9854A158A3ABB046897 DUP7 CALLER SWAP4 LOG3 LT ISZERO PUSH2 0x145B JUMPI JUMPDEST POP POP POP POP DUP1 RETURN JUMPDEST PUSH1 0x1 PUSH1 0x8 PUSH32 0x84B3C050F7881730FCFA395D8218BEEDDEAB15622A1E66227F0D632DA9BDA547 SWAP5 ADD SWAP2 DUP3 SLOAD AND OR SWAP1 SSTORE PUSH1 0x40 MLOAD PUSH1 0x1 DUP2 MSTORE LOG2 CODESIZE DUP1 DUP1 DUP1 PUSH2 0x1454 JUMP JUMPDEST POP SWAP1 PUSH1 0xA PUSH1 0x2 SWAP2 ADD PUSH2 0x14AC DUP2 SLOAD PUSH2 0x182F JUMP JUMPDEST DUP1 SWAP2 SSTORE PUSH1 0x40 MLOAD DUP6 DUP2 MSTORE DUP5 PUSH32 0xA256E30908FB7FF9FAE4FAF53E13A423F492B7CB412CE9854A158A3ABB046897 DUP6 CALLER SWAP4 LOG3 LT ISZERO PUSH2 0x14E6 JUMPI POP POP DUP1 RETURN JUMPDEST PUSH32 0x84B3C050F7881730FCFA395D8218BEEDDEAB15622A1E66227F0D632DA9BDA547 SWAP1 DUP3 DUP5 MSTORE PUSH1 0x4 DUP2 MSTORE PUSH2 0x1558 PUSH1 0x40 DUP6 KECCAK256 PUSH1 0xA PUSH1 0x0 SWAP2 DUP3 DUP2 SSTORE DUP3 PUSH1 0x1 DUP3 ADD SSTORE DUP3 PUSH1 0x2 DUP3 ADD SSTORE DUP3 PUSH1 0x3 DUP3 ADD SSTORE DUP3 PUSH1 0x4 DUP3 ADD SSTORE DUP3 PUSH1 0x5 DUP3 ADD SSTORE DUP3 PUSH1 0x6 DUP3 ADD SSTORE DUP3 PUSH1 0x7 DUP3 ADD SSTORE DUP3 PUSH1 0x8 DUP3 ADD SSTORE DUP3 PUSH1 0x9 DUP3 ADD SSTORE ADD SSTORE JUMP JUMPDEST PUSH1 0x40 MLOAD DUP5 DUP2 MSTORE LOG2 DUP1 RETURN JUMPDEST SWAP1 PUSH1 0x1B PUSH1 0x64 SWAP3 PUSH1 0x40 MLOAD SWAP3 PUSH3 0x461BCD PUSH1 0xE5 SHL DUP5 MSTORE PUSH1 0x4 DUP5 ADD MSTORE DUP3 ADD MSTORE PUSH32 0x43616E6E6F7420766F7465206F6E206F776E2070726F70657274790000000000 PUSH1 0x44 DUP3 ADD MSTORE REVERT JUMPDEST PUSH2 0x15BD SWAP2 SWAP3 POP DUP5 RETURNDATASIZE DUP7 GT PUSH2 0x42E JUMPI PUSH2 0x41F DUP2 DUP4 PUSH2 0x178A JUMP JUMPDEST SWAP1 CODESIZE PUSH2 0x13D2 JUMP JUMPDEST PUSH1 0x40 MLOAD RETURNDATASIZE DUP10 DUP3 RETURNDATACOPY RETURNDATASIZE SWAP1 REVERT JUMPDEST PUSH1 0x40 MLOAD PUSH3 0x461BCD PUSH1 0xE5 SHL DUP2 MSTORE PUSH1 0x4 DUP2 ADD DUP7 SWAP1 MSTORE PUSH1 0xD DUP2 DUP7 ADD MSTORE PUSH13 0x105B1C9958591E481D9BDD1959 PUSH1 0x9A SHL PUSH1 0x44 DUP3 ADD MSTORE PUSH1 0x64 SWAP1 REVERT JUMPDEST PUSH1 0x40 MLOAD PUSH3 0x461BCD PUSH1 0xE5 SHL DUP2 MSTORE PUSH1 0x4 DUP2 ADD DUP7 SWAP1 MSTORE PUSH1 0x1A DUP2 DUP7 ADD MSTORE PUSH32 0x56616C756174696F6E20616C7265616479207665726966696564000000000000 PUSH1 0x44 DUP3 ADD MSTORE PUSH1 0x64 SWAP1 REVERT JUMPDEST PUSH2 0xAD1 SWAP2 POP DUP9 RETURNDATASIZE DUP11 GT PUSH2 0x42E JUMPI PUSH2 0x41F DUP2 DUP4 PUSH2 0x178A JUMP JUMPDEST PUSH1 0x40 MLOAD RETURNDATASIZE DUP12 DUP3 RETURNDATACOPY RETURNDATASIZE SWAP1 REVERT JUMPDEST DUP5 DUP1 REVERT JUMPDEST PUSH1 0x24 CALLDATALOAD SWAP1 PUSH1 0x1 PUSH1 0x1 PUSH1 0xA0 SHL SUB DUP3 AND DUP3 SUB PUSH2 0x1EA JUMPI JUMP JUMPDEST SWAP8 SWAP5 SWAP2 SWAP3 PUSH2 0x140 SWAP10 SWAP7 SWAP4 SWAP13 SWAP12 SWAP11 SWAP8 SWAP5 SWAP2 SWAP13 PUSH2 0x160 DUP11 ADD SWAP14 DUP11 MSTORE PUSH1 0x20 DUP11 ADD MSTORE PUSH1 0x40 DUP10 ADD MSTORE PUSH1 0x60 DUP9 ADD MSTORE PUSH1 0x80 DUP8 ADD MSTORE PUSH1 0xA0 DUP7 ADD MSTORE PUSH1 0xC0 DUP6 ADD MSTORE PUSH1 0xE0 DUP5 ADD MSTORE ISZERO ISZERO PUSH2 0x100 DUP4 ADD MSTORE PUSH2 0x120 DUP3 ADD MSTORE ADD MSTORE JUMP JUMPDEST DUP1 SLOAD DUP3 LT ISZERO PUSH2 0x16E9 JUMPI PUSH1 0x0 MSTORE PUSH1 0x20 PUSH1 0x0 KECCAK256 ADD SWAP1 PUSH1 0x0 SWAP1 JUMP JUMPDEST PUSH4 0x4E487B71 PUSH1 0xE0 SHL PUSH1 0x0 MSTORE PUSH1 0x32 PUSH1 0x4 MSTORE PUSH1 0x24 PUSH1 0x0 REVERT JUMPDEST PUSH1 0x0 SLOAD PUSH1 0x1 PUSH1 0x1 PUSH1 0xA0 SHL SUB AND CALLER SUB PUSH2 0x1713 JUMPI JUMP JUMPDEST PUSH1 0x64 PUSH1 0x40 MLOAD PUSH3 0x461BCD PUSH1 0xE5 SHL DUP2 MSTORE PUSH1 0x20 PUSH1 0x4 DUP3 ADD MSTORE PUSH1 0x20 PUSH1 0x24 DUP3 ADD MSTORE PUSH32 0x4F776E61626C653A2063616C6C6572206973206E6F7420746865206F776E6572 PUSH1 0x44 DUP3 ADD MSTORE REVERT JUMPDEST PUSH2 0x160 DUP2 ADD SWAP1 DUP2 LT PUSH8 0xFFFFFFFFFFFFFFFF DUP3 GT OR PUSH2 0x1774 JUMPI PUSH1 0x40 MSTORE JUMP JUMPDEST PUSH4 0x4E487B71 PUSH1 0xE0 SHL PUSH1 0x0 MSTORE PUSH1 0x41 PUSH1 0x4 MSTORE PUSH1 0x24 PUSH1 0x0 REVERT JUMPDEST SWAP1 PUSH1 0x1F DUP1 NOT SWAP2 ADD AND DUP2 ADD SWAP1 DUP2 LT PUSH8 0xFFFFFFFFFFFFFFFF DUP3 GT OR PUSH2 0x1774 JUMPI PUSH1 0x40 MSTORE JUMP JUMPDEST SWAP1 DUP2 PUSH1 0x20 SWAP2 SUB SLT PUSH2 0x1EA JUMPI MLOAD DUP1 ISZERO ISZERO DUP2 SUB PUSH2 0x1EA JUMPI SWAP1 JUMP JUMPDEST SWAP1 DUP2 PUSH1 0x20 SWAP2 SUB SLT PUSH2 0x1EA JUMPI MLOAD PUSH1 0x1 PUSH1 0x1 PUSH1 0xA0 SHL SUB DUP2 AND DUP2 SUB PUSH2 0x1EA JUMPI SWAP1 JUMP JUMPDEST ISZERO PUSH2 0x17EA JUMPI JUMP JUMPDEST PUSH1 0x40 MLOAD PUSH3 0x461BCD PUSH1 0xE5 SHL DUP2 MSTORE PUSH1 0x20 PUSH1 0x4 DUP3 ADD MSTORE PUSH1 0x17 PUSH1 0x24 DUP3 ADD MSTORE PUSH32 0x50726F706572747920646F6573206E6F74206578697374000000000000000000 PUSH1 0x44 DUP3 ADD MSTORE PUSH1 0x64 SWAP1 REVERT JUMPDEST PUSH1 0x0 NOT DUP2 EQ PUSH2 0x183E JUMPI PUSH1 0x1 ADD SWAP1 JUMP JUMPDEST PUSH4 0x4E487B71 PUSH1 0xE0 SHL PUSH1 0x0 MSTORE PUSH1 0x11 PUSH1 0x4 MSTORE PUSH1 0x24 PUSH1 0x0 REVERT JUMPDEST PUSH1 0x0 PUSH1 0x44 RETURNDATASIZE LT PUSH2 0x18B2 JUMPI PUSH1 0x40 MLOAD PUSH1 0x3 NOT SWAP2 RETURNDATASIZE DUP4 ADD PUSH1 0x4 DUP4 RETURNDATACOPY DUP2 MLOAD PUSH8 0xFFFFFFFFFFFFFFFF SWAP2 DUP3 DUP3 GT RETURNDATASIZE PUSH1 0x24 DUP5 ADD GT OR PUSH2 0x18B5 JUMPI DUP2 DUP5 ADD SWAP5 DUP6 MLOAD SWAP4 DUP5 GT PUSH2 0x18BD JUMPI RETURNDATASIZE DUP6 ADD ADD PUSH1 0x20 DUP5 DUP8 ADD ADD GT PUSH2 0x18B5 JUMPI POP PUSH2 0x18B2 SWAP3 SWAP2 ADD PUSH1 0x20 ADD SWAP1 PUSH2 0x178A JUMP JUMPDEST SWAP1 JUMP JUMPDEST SWAP5 SWAP4 POP POP POP POP JUMP JUMPDEST POP SWAP5 SWAP4 POP POP POP POP JUMP JUMPDEST PUSH1 0x0 JUMPDEST DUP4 DUP2 LT PUSH2 0x18D9 JUMPI POP POP PUSH1 0x0 SWAP2 ADD MSTORE JUMP JUMPDEST DUP2 DUP2 ADD MLOAD DUP4 DUP3 ADD MSTORE PUSH1 0x20 ADD PUSH2 0x18C9 JUMP INVALID LOG2 PUSH5 0x6970667358 0x22 SLT KECCAK256 BALANCE 0xD8 DUP9 0xE1 PUSH0 PUSH9 0xEEA775CD4106030B0F PUSH9 0xC3FA49C6D55CCA92AC RETURN 0xA6 0xE2 SELFDESTRUCT 0xAD SLOAD REVERT PUSH5 0x736F6C6343 STOP ADDMOD EQ STOP CALLER "},"methodIdentifiers":{"REJECTION_THRESHOLD()":"dfdea265","VERIFICATION_THRESHOLD()":"3f53b43f","checkAuthorizationStatus()":"bafc01be","confirmValuationUpdate(uint256)":"5770d1d9","debugConfirmValuation(uint256)":"d64e2e5d","getHistoricalValues(uint256)":"974d5d10","getPendingValuation(uint256)":"8bdcc1f9","getValuation(uint256)":"3bd18a3b","getValuationStatus(uint256)":"482e6882","hasUserVoted(uint256,address)":"dc296ae1","hasUserVotedOnPending(uint256,address)":"85058d9e","historicalValues(uint256,uint256)":"e2b4a70c","isAuthorizedToUpdate()":"1865e433","owner()":"8da5cb5b","pendingValuationVotes(uint256,address)":"1920a67d","pendingValuations(uint256)":"60767a36","propertyNFT()":"37f76838","renounceOwnership()":"715018a6","requestAuthorization()":"edea8b9f","submitValuation(uint256,uint256,uint256,uint256,uint256,uint256,uint256,uint256)":"78f5c887","transferOwnership(address)":"f2fde38b","valuations(uint256)":"5d03d83e","voteOnValuation(uint256,bool)":"0aa63ad4"}}}}}