{
  "_format": "hh-sol-artifact-1",
  "contractName": "PropertyNFT",
  "sourceName": "contracts/PropertyNFT.sol",
  "abi": [
    {
      "inputs": [],
      "stateMutability": "nonpayable",
      "type": "constructor"
    },
    {
      "anonymous": false,
      "inputs": [
        {
          "indexed": true,
          "internalType": "address",
          "name": "owner",
          "type": "address"
        },
        {
          "indexed": true,
          "internalType": "address",
          "name": "approved",
          "type": "address"
        },
        {
          "indexed": true,
          "internalType": "uint256",
          "name": "tokenId",
          "type": "uint256"
        }
      ],
      "name": "Approval",
      "type": "event"
    },
    {
      "anonymous": false,
      "inputs": [
        {
          "indexed": true,
          "internalType": "address",
          "name": "owner",
          "type": "address"
        },
        {
          "indexed": true,
          "internalType": "address",
          "name": "operator",
          "type": "address"
        },
        {
          "indexed": false,
          "internalType": "bool",
          "name": "approved",
          "type": "bool"
        }
      ],
      "name": "ApprovalForAll",
      "type": "event"
    },
    {
      "anonymous": false,
      "inputs": [
        {
          "indexed": false,
          "internalType": "uint256",
          "name": "_fromTokenId",
          "type": "uint256"
        },
        {
          "indexed": false,
          "internalType": "uint256",
          "name": "_toTokenId",
          "type": "uint256"
        }
      ],
      "name": "BatchMetadataUpdate",
      "type": "event"
    },
    {
      "anonymous": false,
      "inputs": [
        {
          "indexed": false,
          "internalType": "uint256",
          "name": "_tokenId",
          "type": "uint256"
        }
      ],
      "name": "MetadataUpdate",
      "type": "event"
    },
    {
      "anonymous": false,
      "inputs": [
        {
          "indexed": true,
          "internalType": "address",
          "name": "previousOwner",
          "type": "address"
        },
        {
          "indexed": true,
          "internalType": "address",
          "name": "newOwner",
          "type": "address"
        }
      ],
      "name": "OwnershipTransferred",
      "type": "event"
    },
    {
      "anonymous": false,
      "inputs": [
        {
          "indexed": true,
          "internalType": "uint256",
          "name": "tokenId",
          "type": "uint256"
        },
        {
          "indexed": false,
          "internalType": "string",
          "name": "propertyAddress",
          "type": "string"
        },
        {
          "indexed": false,
          "internalType": "string",
          "name": "ownerName",
          "type": "string"
        },
        {
          "indexed": true,
          "internalType": "address",
          "name": "submitter",
          "type": "address"
        }
      ],
      "name": "PropertySubmitted",
      "type": "event"
    },
    {
      "anonymous": false,
      "inputs": [
        {
          "indexed": true,
          "internalType": "uint256",
          "name": "tokenId",
          "type": "uint256"
        },
        {
          "indexed": false,
          "internalType": "uint256",
          "name": "newValue",
          "type": "uint256"
        }
      ],
      "name": "PropertyValueUpdated",
      "type": "event"
    },
    {
      "anonymous": false,
      "inputs": [
        {
          "indexed": true,
          "internalType": "uint256",
          "name": "tokenId",
          "type": "uint256"
        },
        {
          "indexed": false,
          "internalType": "bool",
          "name": "verified",
          "type": "bool"
        }
      ],
      "name": "PropertyVerified",
      "type": "event"
    },
    {
      "anonymous": false,
      "inputs": [
        {
          "indexed": true,
          "internalType": "address",
          "name": "from",
          "type": "address"
        },
        {
          "indexed": true,
          "internalType": "address",
          "name": "to",
          "type": "address"
        },
        {
          "indexed": true,
          "internalType": "uint256",
          "name": "tokenId",
          "type": "uint256"
        }
      ],
      "name": "Transfer",
      "type": "event"
    },
    {
      "anonymous": false,
      "inputs": [
        {
          "indexed": true,
          "internalType": "uint256",
          "name": "tokenId",
          "type": "uint256"
        },
        {
          "indexed": true,
          "internalType": "address",
          "name": "voter",
          "type": "address"
        },
        {
          "indexed": false,
          "internalType": "bool",
          "name": "approve",
          "type": "bool"
        }
      ],
      "name": "VoteCast",
      "type": "event"
    },
    {
      "inputs": [],
      "name": "REJECTION_THRESHOLD",
      "outputs": [
        {
          "internalType": "uint256",
          "name": "",
          "type": "uint256"
        }
      ],
      "stateMutability": "view",
      "type": "function"
    },
    {
      "inputs": [],
      "name": "VERIFICATION_THRESHOLD",
      "outputs": [
        {
          "internalType": "uint256",
          "name": "",
          "type": "uint256"
        }
      ],
      "stateMutability": "view",
      "type": "function"
    },
    {
      "inputs": [
        {
          "internalType": "string",
          "name": "",
          "type": "string"
        }
      ],
      "name": "addressExists",
      "outputs": [
        {
          "internalType": "bool",
          "name": "",
          "type": "bool"
        }
      ],
      "stateMutability": "view",
      "type": "function"
    },
    {
      "inputs": [
        {
          "internalType": "address",
          "name": "to",
          "type": "address"
        },
        {
          "internalType": "uint256",
          "name": "tokenId",
          "type": "uint256"
        }
      ],
      "name": "approve",
      "outputs": [],
      "stateMutability": "nonpayable",
      "type": "function"
    },
    {
      "inputs": [
        {
          "internalType": "address",
          "name": "owner",
          "type": "address"
        }
      ],
      "name": "balanceOf",
      "outputs": [
        {
          "internalType": "uint256",
          "name": "",
          "type": "uint256"
        }
      ],
      "stateMutability": "view",
      "type": "function"
    },
    {
      "inputs": [
        {
          "internalType": "uint256",
          "name": "tokenId",
          "type": "uint256"
        }
      ],
      "name": "getApproved",
      "outputs": [
        {
          "internalType": "address",
          "name": "",
          "type": "address"
        }
      ],
      "stateMutability": "view",
      "type": "function"
    },
    {
      "inputs": [
        {
          "internalType": "address",
          "name": "_owner",
          "type": "address"
        }
      ],
      "name": "getOwnerProperties",
      "outputs": [
        {
          "internalType": "uint256[]",
          "name": "",
          "type": "uint256[]"
        }
      ],
      "stateMutability": "view",
      "type": "function"
    },
    {
      "inputs": [
        {
          "internalType": "uint256",
          "name": "_tokenId",
          "type": "uint256"
        }
      ],
      "name": "getProperty",
      "outputs": [
        {
          "internalType": "string",
          "name": "propertyAddress",
          "type": "string"
        },
        {
          "internalType": "string",
          "name": "ownerName",
          "type": "string"
        },
        {
          "internalType": "string",
          "name": "propertyType",
          "type": "string"
        },
        {
          "internalType": "uint256",
          "name": "renovationDate",
          "type": "uint256"
        },
        {
          "internalType": "string",
          "name": "imageURI",
          "type": "string"
        },
        {
          "internalType": "int256",
          "name": "latitude",
          "type": "int256"
        },
        {
          "internalType": "int256",
          "name": "longitude",
          "type": "int256"
        },
        {
          "internalType": "bool",
          "name": "isVerified",
          "type": "bool"
        },
        {
          "internalType": "uint256",
          "name": "estimatedValue",
          "type": "uint256"
        },
        {
          "internalType": "uint256",
          "name": "verificationVotes",
          "type": "uint256"
        },
        {
          "internalType": "uint256",
          "name": "rejectionVotes",
          "type": "uint256"
        }
      ],
      "stateMutability": "view",
      "type": "function"
    },
    {
      "inputs": [],
      "name": "getTotalProperties",
      "outputs": [
        {
          "internalType": "uint256",
          "name": "",
          "type": "uint256"
        }
      ],
      "stateMutability": "view",
      "type": "function"
    },
    {
      "inputs": [],
      "name": "getUnverifiedProperties",
      "outputs": [
        {
          "internalType": "uint256[]",
          "name": "",
          "type": "uint256[]"
        }
      ],
      "stateMutability": "view",
      "type": "function"
    },
    {
      "inputs": [
        {
          "internalType": "uint256",
          "name": "_tokenId",
          "type": "uint256"
        },
        {
          "internalType": "address",
          "name": "_user",
          "type": "address"
        }
      ],
      "name": "hasUserVoted",
      "outputs": [
        {
          "internalType": "bool",
          "name": "",
          "type": "bool"
        }
      ],
      "stateMutability": "view",
      "type": "function"
    },
    {
      "inputs": [
        {
          "internalType": "address",
          "name": "owner",
          "type": "address"
        },
        {
          "internalType": "address",
          "name": "operator",
          "type": "address"
        }
      ],
      "name": "isApprovedForAll",
      "outputs": [
        {
          "internalType": "bool",
          "name": "",
          "type": "bool"
        }
      ],
      "stateMutability": "view",
      "type": "function"
    },
    {
      "inputs": [],
      "name": "name",
      "outputs": [
        {
          "internalType": "string",
          "name": "",
          "type": "string"
        }
      ],
      "stateMutability": "view",
      "type": "function"
    },
    {
      "inputs": [],
      "name": "owner",
      "outputs": [
        {
          "internalType": "address",
          "name": "",
          "type": "address"
        }
      ],
      "stateMutability": "view",
      "type": "function"
    },
    {
      "inputs": [
        {
          "internalType": "uint256",
          "name": "tokenId",
          "type": "uint256"
        }
      ],
      "name": "ownerOf",
      "outputs": [
        {
          "internalType": "address",
          "name": "",
          "type": "address"
        }
      ],
      "stateMutability": "view",
      "type": "function"
    },
    {
      "inputs": [
        {
          "internalType": "address",
          "name": "",
          "type": "address"
        },
        {
          "internalType": "uint256",
          "name": "",
          "type": "uint256"
        }
      ],
      "name": "ownerProperties",
      "outputs": [
        {
          "internalType": "uint256",
          "name": "",
          "type": "uint256"
        }
      ],
      "stateMutability": "view",
      "type": "function"
    },
    {
      "inputs": [
        {
          "internalType": "uint256",
          "name": "",
          "type": "uint256"
        }
      ],
      "name": "properties",
      "outputs": [
        {
          "internalType": "string",
          "name": "propertyAddress",
          "type": "string"
        },
        {
          "internalType": "string",
          "name": "ownerName",
          "type": "string"
        },
        {
          "internalType": "string",
          "name": "propertyType",
          "type": "string"
        },
        {
          "internalType": "uint256",
          "name": "renovationDate",
          "type": "uint256"
        },
        {
          "internalType": "string",
          "name": "imageURI",
          "type": "string"
        },
        {
          "internalType": "int256",
          "name": "latitude",
          "type": "int256"
        },
        {
          "internalType": "int256",
          "name": "longitude",
          "type": "int256"
        },
        {
          "internalType": "bool",
          "name": "isVerified",
          "type": "bool"
        },
        {
          "internalType": "uint256",
          "name": "estimatedValue",
          "type": "uint256"
        },
        {
          "internalType": "uint256",
          "name": "verificationVotes",
          "type": "uint256"
        },
        {
          "internalType": "uint256",
          "name": "rejectionVotes",
          "type": "uint256"
        }
      ],
      "stateMutability": "view",
      "type": "function"
    },
    {
      "inputs": [],
      "name": "renounceOwnership",
      "outputs": [],
      "stateMutability": "nonpayable",
      "type": "function"
    },
    {
      "inputs": [
        {
          "internalType": "address",
          "name": "from",
          "type": "address"
        },
        {
          "internalType": "address",
          "name": "to",
          "type": "address"
        },
        {
          "internalType": "uint256",
          "name": "tokenId",
          "type": "uint256"
        }
      ],
      "name": "safeTransferFrom",
      "outputs": [],
      "stateMutability": "nonpayable",
      "type": "function"
    },
    {
      "inputs": [
        {
          "internalType": "address",
          "name": "from",
          "type": "address"
        },
        {
          "internalType": "address",
          "name": "to",
          "type": "address"
        },
        {
          "internalType": "uint256",
          "name": "tokenId",
          "type": "uint256"
        },
        {
          "internalType": "bytes",
          "name": "data",
          "type": "bytes"
        }
      ],
      "name": "safeTransferFrom",
      "outputs": [],
      "stateMutability": "nonpayable",
      "type": "function"
    },
    {
      "inputs": [
        {
          "internalType": "address",
          "name": "operator",
          "type": "address"
        },
        {
          "internalType": "bool",
          "name": "approved",
          "type": "bool"
        }
      ],
      "name": "setApprovalForAll",
      "outputs": [],
      "stateMutability": "nonpayable",
      "type": "function"
    },
    {
      "inputs": [
        {
          "internalType": "string",
          "name": "_propertyAddress",
          "type": "string"
        },
        {
          "internalType": "string",
          "name": "_ownerName",
          "type": "string"
        },
        {
          "internalType": "string",
          "name": "_propertyType",
          "type": "string"
        },
        {
          "internalType": "uint256",
          "name": "_renovationDate",
          "type": "uint256"
        },
        {
          "internalType": "string",
          "name": "_imageURI",
          "type": "string"
        },
        {
          "internalType": "int256",
          "name": "_latitude",
          "type": "int256"
        },
        {
          "internalType": "int256",
          "name": "_longitude",
          "type": "int256"
        }
      ],
      "name": "submitProperty",
      "outputs": [
        {
          "internalType": "uint256",
          "name": "",
          "type": "uint256"
        }
      ],
      "stateMutability": "nonpayable",
      "type": "function"
    },
    {
      "inputs": [
        {
          "internalType": "bytes4",
          "name": "interfaceId",
          "type": "bytes4"
        }
      ],
      "name": "supportsInterface",
      "outputs": [
        {
          "internalType": "bool",
          "name": "",
          "type": "bool"
        }
      ],
      "stateMutability": "view",
      "type": "function"
    },
    {
      "inputs": [],
      "name": "symbol",
      "outputs": [
        {
          "internalType": "string",
          "name": "",
          "type": "string"
        }
      ],
      "stateMutability": "view",
      "type": "function"
    },
    {
      "inputs": [
        {
          "internalType": "uint256",
          "name": "tokenId",
          "type": "uint256"
        }
      ],
      "name": "tokenURI",
      "outputs": [
        {
          "internalType": "string",
          "name": "",
          "type": "string"
        }
      ],
      "stateMutability": "view",
      "type": "function"
    },
    {
      "inputs": [
        {
          "internalType": "address",
          "name": "from",
          "type": "address"
        },
        {
          "internalType": "address",
          "name": "to",
          "type": "address"
        },
        {
          "internalType": "uint256",
          "name": "tokenId",
          "type": "uint256"
        }
      ],
      "name": "transferFrom",
      "outputs": [],
      "stateMutability": "nonpayable",
      "type": "function"
    },
    {
      "inputs": [
        {
          "internalType": "address",
          "name": "newOwner",
          "type": "address"
        }
      ],
      "name": "transferOwnership",
      "outputs": [],
      "stateMutability": "nonpayable",
      "type": "function"
    },
    {
      "inputs": [
        {
          "internalType": "uint256",
          "name": "_tokenId",
          "type": "uint256"
        },
        {
          "internalType": "uint256",
          "name": "_newValue",
          "type": "uint256"
        }
      ],
      "name": "updatePropertyValue",
      "outputs": [],
      "stateMutability": "nonpayable",
      "type": "function"
    },
    {
      "inputs": [
        {
          "internalType": "uint256",
          "name": "_tokenId",
          "type": "uint256"
        },
        {
          "internalType": "bool",
          "name": "_approve",
          "type": "bool"
        }
      ],
      "name": "voteOnProperty",
      "outputs": [],
      "stateMutability": "nonpayable",
      "type": "function"
    }
  ],
  "bytecode": "0x60806040523480156200001157600080fd5b506040518060400160405280600b81526020016a141c9bdc195c9d1e53919560aa1b81525060405180604001604052806004815260200163050524f560e41b815250816000908162000064919062000196565b50600162000073828262000196565b505050620000906200008a6200009b60201b60201c565b6200009f565b600160085562000262565b3390565b600780546001600160a01b038381166001600160a01b0319831681179093556040519116919082907f8be0079c531659141344cd1fd0a4f28419497f9722a3daafe3b4186f6b6457e090600090a35050565b634e487b7160e01b600052604160045260246000fd5b600181811c908216806200011c57607f821691505b6020821081036200013d57634e487b7160e01b600052602260045260246000fd5b50919050565b601f8211156200019157600081815260208120601f850160051c810160208610156200016c5750805b601f850160051c820191505b818110156200018d5782815560010162000178565b5050505b505050565b81516001600160401b03811115620001b257620001b2620000f1565b620001ca81620001c3845462000107565b8462000143565b602080601f831160018114620002025760008415620001e95750858301515b600019600386901b1c1916600185901b1785556200018d565b600085815260208120601f198616915b82811015620002335788860151825594840194600190910190840162000212565b5085821015620002525787850151600019600388901b60f8161c191681555b5050505050600190811b01905550565b612c8180620002726000396000f3fe608060405234801561001057600080fd5b50600436106101cf5760003560e01c8063715018a611610104578063b88d4fde116100a2578063dfdea26511610071578063dfdea265146103f4578063e985e9c5146103fc578063f2fde38b14610438578063f7b108081461044b57600080fd5b8063b88d4fde146103a8578063c87b56dd146103bb578063cb644897146103ce578063dc296ae1146103e157600080fd5b80638f48bd5b116100de5780638f48bd5b1461036757806395d89b411461037a5780639b7c4b4b14610382578063a22cb4651461039557600080fd5b8063715018a61461032057806388f5ab9f146103285780638da5cb5b1461035657600080fd5b806323b872dd1161017157806342842e0e1161014b57806342842e0e146102d2578063600805ca146102e55780636352211e146102fa57806370a082311461030d57600080fd5b806323b872dd1461028d57806332665ffb146102a05780633f53b43f146102ca57600080fd5b8063095ea7b3116101ad578063095ea7b31461023c5780630af4410814610251578063179cd7561461026457806317aaf5ed1461028557600080fd5b806301ffc9a7146101d457806306fdde03146101fc578063081812fc14610211575b600080fd5b6101e76101e23660046123a2565b61045e565b60405190151581526020015b60405180910390f35b61020461046f565b6040516101f3919061240f565b61022461021f366004612422565b610501565b6040516001600160a01b0390911681526020016101f3565b61024f61024a366004612457565b610528565b005b61024f61025f366004612491565b610642565b610277610272366004612569565b6108eb565b6040519081526020016101f3565b610277610b48565b61024f61029b366004612633565b610b58565b6102b36102ae366004612422565b610c60565b6040516101f39b9a9998979695949392919061266f565b610277600381565b61024f6102e0366004612633565b610f44565b6102ed610f5f565b6040516101f391906126fe565b610224610308366004612422565b6110dd565b61027761031b366004612742565b61113d565b61024f6111c3565b6101e761033636600461275d565b8051602081830181018051600b8252928201919093012091525460ff1681565b6007546001600160a01b0316610224565b610277610375366004612457565b6111d7565b610204611208565b61024f610390366004612792565b611217565b61024f6103a33660046127b4565b611305565b61024f6103b63660046127de565b611314565b6102046103c9366004612422565b61141e565b6102ed6103dc366004612742565b611429565b6101e76103ef36600461285a565b611495565b610277600281565b6101e761040a36600461287d565b6001600160a01b03918216600090815260056020908152604080832093909416825291909152205460ff1690565b61024f610446366004612742565b6114ec565b6102b3610459366004612422565b611565565b6000610469826117de565b92915050565b60606000805461047e906128a7565b80601f01602080910402602001604051908101604052809291908181526020018280546104aa906128a7565b80156104f75780601f106104cc576101008083540402835291602001916104f7565b820191906000526020600020905b8154815290600101906020018083116104da57829003601f168201915b5050505050905090565b600061050c82611803565b506000908152600460205260409020546001600160a01b031690565b6000610533826110dd565b9050806001600160a01b0316836001600160a01b0316036105a55760405162461bcd60e51b815260206004820152602160248201527f4552433732313a20617070726f76616c20746f2063757272656e74206f776e656044820152603960f91b60648201526084015b60405180910390fd5b336001600160a01b03821614806105c157506105c1813361040a565b6106335760405162461bcd60e51b815260206004820152603d60248201527f4552433732313a20617070726f76652063616c6c6572206973206e6f7420746f60448201527f6b656e206f776e6572206f7220617070726f76656420666f7220616c6c000000606482015260840161059c565b61063d8383611853565b505050565b61064b826118c1565b6106675760405162461bcd60e51b815260040161059c906128e1565b6000828152600a602052604090206007015460ff16156106c95760405162461bcd60e51b815260206004820152601960248201527f50726f706572747920616c726561647920766572696669656400000000000000604482015260640161059c565b6000828152600a60209081526040808320338452600b0190915290205460ff16156107265760405162461bcd60e51b815260206004820152600d60248201526c105b1c9958591e481d9bdd1959609a1b604482015260640161059c565b33610730836110dd565b6001600160a01b0316036107865760405162461bcd60e51b815260206004820152601b60248201527f43616e6e6f7420766f7465206f6e206f776e2070726f70657274790000000000604482015260640161059c565b6000828152600a60209081526040808320338452600b8101909252909120805460ff19166001179055811561085d576009810180549060006107c78361292e565b909155505060405160018152339084907fe71fcdac32df1877c1700e7bda2a03157e20993363a28fc35ac495cefc76e4d49060200160405180910390a3600381600901541061063d5760078101805460ff1916600190811790915560405190815283907fafdcc517a26e633f535aa9cebec29f4281ab2ffa922a475b12fd1297ad765bc8906020015b60405180910390a2505050565b600a8101805490600061086f8361292e565b909155505060405160008152339084907fe71fcdac32df1877c1700e7bda2a03157e20993363a28fc35ac495cefc76e4d49060200160405180910390a3600281600a01541061063d576040516000815283907fafdcc517a26e633f535aa9cebec29f4281ab2ffa922a475b12fd1297ad765bc890602001610850565b60008088511161093d5760405162461bcd60e51b815260206004820181905260248201527f50726f706572747920616464726573732063616e6e6f7420626520656d707479604482015260640161059c565b600087511161098e5760405162461bcd60e51b815260206004820152601a60248201527f4f776e6572206e616d652063616e6e6f7420626520656d707479000000000000604482015260640161059c565b600b8860405161099e9190612947565b9081526040519081900360200190205460ff16156109fe5760405162461bcd60e51b815260206004820152601760248201527f50726f706572747920616c726561647920657869737473000000000000000000604482015260640161059c565b6000610a0960095490565b9050610a19600980546001019055565b610a2333826118de565b610a2d81866118f8565b6000818152600a6020526040902080610a468b826129b1565b5060018101610a558a826129b1565b5060028101610a6489826129b1565b506003810187905560048101610a7a87826129b1565b50600581018590556006810184905560078101805460ff1916905560006008820181905560098201819055600a820155604051600190600b90610abe908d90612947565b9081526040805160209281900383018120805460ff191694151594909417909355336000818152600c84529182208054600181018255908352929091209091018490559083907f90e8f7c94b32ba9b4e353e2e85be612b1dd84a28d7334362b89e67c1729a2ab190610b33908e908e90612a71565b60405180910390a35098975050505050505050565b6000610b5360095490565b905090565b610b638383836119b4565b6001600160a01b0383166000908152600c60205260408120905b8154811015610c315782828281548110610b9957610b99612a9f565b906000526020600020015403610c1f5781548290610bb990600190612ab5565b81548110610bc957610bc9612a9f565b9060005260206000200154828281548110610be657610be6612a9f565b906000526020600020018190555081805480610c0457610c04612ac8565b60019003818190600052602060002001600090559055610c31565b80610c298161292e565b915050610b7d565b50506001600160a01b039091166000908152600c60209081526040822080546001810182559083529120015550565b606080606060006060600080600080600080610c7b8c6118c1565b610c975760405162461bcd60e51b815260040161059c906128e1565b6000600a60008e81526020019081526020016000209050806000018160010182600201836003015484600401856005015486600601548760070160009054906101000a900460ff16886008015489600901548a600a01548a8054610cfa906128a7565b80601f0160208091040260200160405190810160405280929190818152602001828054610d26906128a7565b8015610d735780601f10610d4857610100808354040283529160200191610d73565b820191906000526020600020905b815481529060010190602001808311610d5657829003601f168201915b50505050509a50898054610d86906128a7565b80601f0160208091040260200160405190810160405280929190818152602001828054610db2906128a7565b8015610dff5780601f10610dd457610100808354040283529160200191610dff565b820191906000526020600020905b815481529060010190602001808311610de257829003601f168201915b50505050509950888054610e12906128a7565b80601f0160208091040260200160405190810160405280929190818152602001828054610e3e906128a7565b8015610e8b5780601f10610e6057610100808354040283529160200191610e8b565b820191906000526020600020905b815481529060010190602001808311610e6e57829003601f168201915b50505050509850868054610e9e906128a7565b80601f0160208091040260200160405190810160405280929190818152602001828054610eca906128a7565b8015610f175780601f10610eec57610100808354040283529160200191610f17565b820191906000526020600020905b815481529060010190602001808311610efa57829003601f168201915b505050505096509b509b509b509b509b509b509b509b509b509b509b505091939597999b90929496989a50565b61063d83838360405180602001604052806000815250611314565b60606000610f6c60095490565b905060008167ffffffffffffffff811115610f8957610f896124bd565b604051908082528060200260200182016040528015610fb2578160200160208202803683370190505b5090506000805b83811015611038576000818152600a602052604090206007015460ff16158015610ff557506000818152600a6020819052604090912001546002115b15611026578083838151811061100d5761100d612a9f565b6020908102919091010152816110228161292e565b9250505b806110308161292e565b915050610fb9565b5060008167ffffffffffffffff811115611054576110546124bd565b60405190808252806020026020018201604052801561107d578160200160208202803683370190505b50905060005b828110156110d45783818151811061109d5761109d612a9f565b60200260200101518282815181106110b7576110b7612a9f565b6020908102919091010152806110cc8161292e565b915050611083565b50949350505050565b6000818152600260205260408120546001600160a01b0316806104695760405162461bcd60e51b8152602060048201526018602482015277115490cdcc8c4e881a5b9d985b1a59081d1bdad95b88125160421b604482015260640161059c565b60006001600160a01b0382166111a75760405162461bcd60e51b815260206004820152602960248201527f4552433732313a2061646472657373207a65726f206973206e6f7420612076616044820152683634b21037bbb732b960b91b606482015260840161059c565b506001600160a01b031660009081526003602052604090205490565b6111cb6119e5565b6111d56000611a3f565b565b600c60205281600052604060002081815481106111f357600080fd5b90600052602060002001600091509150505481565b60606001805461047e906128a7565b611220826118c1565b61123c5760405162461bcd60e51b815260040161059c906128e1565b33611246836110dd565b6001600160a01b031614806112745750336112696007546001600160a01b031690565b6001600160a01b0316145b6112b15760405162461bcd60e51b815260206004820152600e60248201526d139bdd08185d5d1a1bdc9a5e995960921b604482015260640161059c565b6000828152600a6020526040908190206008018290555182907f38feca60919cb6c50d2bda77cc786b4121a0ab59fdcbccad58c37f0bc84869e9906112f99084815260200190565b60405180910390a25050565b611310338383611a91565b5050565b61132084848484611b5f565b6001600160a01b0384166000908152600c60205260408120905b81548110156113ee578382828154811061135657611356612a9f565b9060005260206000200154036113dc578154829061137690600190612ab5565b8154811061138657611386612a9f565b90600052602060002001548282815481106113a3576113a3612a9f565b9060005260206000200181905550818054806113c1576113c1612ac8565b600190038181906000526020600020016000905590556113ee565b806113e68161292e565b91505061133a565b5050506001600160a01b039091166000908152600c60209081526040822080546001810182559083529120015550565b606061046982611b97565b6001600160a01b0381166000908152600c602090815260409182902080548351818402810184019094528084526060939283018282801561148957602002820191906000526020600020905b815481526020019060010190808311611475575b50505050509050919050565b60006114a0836118c1565b6114bc5760405162461bcd60e51b815260040161059c906128e1565b506000828152600a602090815260408083206001600160a01b0385168452600b0190915290205460ff1692915050565b6114f46119e5565b6001600160a01b0381166115595760405162461bcd60e51b815260206004820152602660248201527f4f776e61626c653a206e6577206f776e657220697320746865207a65726f206160448201526564647265737360d01b606482015260840161059c565b61156281611a3f565b50565b600a60205260009081526040902080548190611580906128a7565b80601f01602080910402602001604051908101604052809291908181526020018280546115ac906128a7565b80156115f95780601f106115ce576101008083540402835291602001916115f9565b820191906000526020600020905b8154815290600101906020018083116115dc57829003601f168201915b50505050509080600101805461160e906128a7565b80601f016020809104026020016040519081016040528092919081815260200182805461163a906128a7565b80156116875780601f1061165c57610100808354040283529160200191611687565b820191906000526020600020905b81548152906001019060200180831161166a57829003601f168201915b50505050509080600201805461169c906128a7565b80601f01602080910402602001604051908101604052809291908181526020018280546116c8906128a7565b80156117155780601f106116ea57610100808354040283529160200191611715565b820191906000526020600020905b8154815290600101906020018083116116f857829003601f168201915b505050505090806003015490806004018054611730906128a7565b80601f016020809104026020016040519081016040528092919081815260200182805461175c906128a7565b80156117a95780601f1061177e576101008083540402835291602001916117a9565b820191906000526020600020905b81548152906001019060200180831161178c57829003601f168201915b50505060058401546006850154600786015460088701546009880154600a909801549697939692955060ff909116935091908b565b60006001600160e01b03198216632483248360e11b1480610469575061046982611ca7565b61180c816118c1565b6115625760405162461bcd60e51b8152602060048201526018602482015277115490cdcc8c4e881a5b9d985b1a59081d1bdad95b88125160421b604482015260640161059c565b600081815260046020526040902080546001600160a01b0319166001600160a01b0384169081179091558190611888826110dd565b6001600160a01b03167f8c5be1e5ebec7d5bd14f71427d1e84f3dd0314c0f7b2291e5b200ac8c7c3b92560405160405180910390a45050565b6000908152600260205260409020546001600160a01b0316151590565b611310828260405180602001604052806000815250611cf7565b611901826118c1565b6119645760405162461bcd60e51b815260206004820152602e60248201527f45524337323155524953746f726167653a2055524920736574206f66206e6f6e60448201526d32bc34b9ba32b73a103a37b5b2b760911b606482015260840161059c565b600082815260066020526040902061197c82826129b1565b506040518281527ff8e1a15aba9398e019f0b49df1a4fde98ee17ae345cb5f6b5e2c27f5033e8ce79060200160405180910390a15050565b6119be3382611d2a565b6119da5760405162461bcd60e51b815260040161059c90612ade565b61063d838383611da8565b6007546001600160a01b031633146111d55760405162461bcd60e51b815260206004820181905260248201527f4f776e61626c653a2063616c6c6572206973206e6f7420746865206f776e6572604482015260640161059c565b600780546001600160a01b038381166001600160a01b0319831681179093556040519116919082907f8be0079c531659141344cd1fd0a4f28419497f9722a3daafe3b4186f6b6457e090600090a35050565b816001600160a01b0316836001600160a01b031603611af25760405162461bcd60e51b815260206004820152601960248201527f4552433732313a20617070726f766520746f2063616c6c657200000000000000604482015260640161059c565b6001600160a01b03838116600081815260056020908152604080832094871680845294825291829020805460ff191686151590811790915591519182527f17307eab39ab6107e8899845ad3d59bd9653f200f220920489ca2b5937696c31910160405180910390a3505050565b611b693383611d2a565b611b855760405162461bcd60e51b815260040161059c90612ade565b611b9184848484611f0c565b50505050565b6060611ba282611803565b60008281526006602052604081208054611bbb906128a7565b80601f0160208091040260200160405190810160405280929190818152602001828054611be7906128a7565b8015611c345780601f10611c0957610100808354040283529160200191611c34565b820191906000526020600020905b815481529060010190602001808311611c1757829003601f168201915b505050505090506000611c5260408051602081019091526000815290565b90508051600003611c64575092915050565b815115611c96578082604051602001611c7e929190612b2b565b60405160208183030381529060405292505050919050565b611c9f84611f3f565b949350505050565b60006001600160e01b031982166380ac58cd60e01b1480611cd857506001600160e01b03198216635b5e139f60e01b145b8061046957506301ffc9a760e01b6001600160e01b0319831614610469565b611d018383611fb3565b611d0e6000848484612120565b61063d5760405162461bcd60e51b815260040161059c90612b5a565b600080611d36836110dd565b9050806001600160a01b0316846001600160a01b03161480611d7d57506001600160a01b0380821660009081526005602090815260408083209388168352929052205460ff165b80611c9f5750836001600160a01b0316611d9684610501565b6001600160a01b031614949350505050565b826001600160a01b0316611dbb826110dd565b6001600160a01b031614611de15760405162461bcd60e51b815260040161059c90612bac565b6001600160a01b038216611e435760405162461bcd60e51b8152602060048201526024808201527f4552433732313a207472616e7366657220746f20746865207a65726f206164646044820152637265737360e01b606482015260840161059c565b826001600160a01b0316611e56826110dd565b6001600160a01b031614611e7c5760405162461bcd60e51b815260040161059c90612bac565b600081815260046020908152604080832080546001600160a01b03199081169091556001600160a01b0387811680865260038552838620805460001901905590871680865283862080546001019055868652600290945282852080549092168417909155905184937fddf252ad1be2c89b69c2b068fc378daa952ba7f163c4a11628f55a4df523b3ef91a4505050565b611f17848484611da8565b611f2384848484612120565b611b915760405162461bcd60e51b815260040161059c90612b5a565b6060611f4a82611803565b6000611f6160408051602081019091526000815290565b90506000815111611f815760405180602001604052806000815250611fac565b80611f8b84612221565b604051602001611f9c929190612b2b565b6040516020818303038152906040525b9392505050565b6001600160a01b0382166120095760405162461bcd60e51b815260206004820181905260248201527f4552433732313a206d696e7420746f20746865207a65726f2061646472657373604482015260640161059c565b612012816118c1565b1561205f5760405162461bcd60e51b815260206004820152601c60248201527f4552433732313a20746f6b656e20616c7265616479206d696e74656400000000604482015260640161059c565b612068816118c1565b156120b55760405162461bcd60e51b815260206004820152601c60248201527f4552433732313a20746f6b656e20616c7265616479206d696e74656400000000604482015260640161059c565b6001600160a01b038216600081815260036020908152604080832080546001019055848352600290915280822080546001600160a01b0319168417905551839291907fddf252ad1be2c89b69c2b068fc378daa952ba7f163c4a11628f55a4df523b3ef908290a45050565b60006001600160a01b0384163b1561221657604051630a85bd0160e11b81526001600160a01b0385169063150b7a0290612164903390899088908890600401612bf1565b6020604051808303816000875af192505050801561219f575060408051601f3d908101601f1916820190925261219c91810190612c2e565b60015b6121fc573d8080156121cd576040519150601f19603f3d011682016040523d82523d6000602084013e6121d2565b606091505b5080516000036121f45760405162461bcd60e51b815260040161059c90612b5a565b805181602001fd5b6001600160e01b031916630a85bd0160e11b149050611c9f565b506001949350505050565b6060600061222e836122b4565b600101905060008167ffffffffffffffff81111561224e5761224e6124bd565b6040519080825280601f01601f191660200182016040528015612278576020820181803683370190505b5090508181016020015b600019016f181899199a1a9b1b9c1cb0b131b232b360811b600a86061a8153600a850494508461228257509392505050565b60008072184f03e93ff9f4daa797ed6e38ed64bf6a1f0160401b83106122f35772184f03e93ff9f4daa797ed6e38ed64bf6a1f0160401b830492506040015b6d04ee2d6d415b85acef8100000000831061231f576d04ee2d6d415b85acef8100000000830492506020015b662386f26fc10000831061233d57662386f26fc10000830492506010015b6305f5e1008310612355576305f5e100830492506008015b612710831061236957612710830492506004015b6064831061237b576064830492506002015b600a83106104695760010192915050565b6001600160e01b03198116811461156257600080fd5b6000602082840312156123b457600080fd5b8135611fac8161238c565b60005b838110156123da5781810151838201526020016123c2565b50506000910152565b600081518084526123fb8160208601602086016123bf565b601f01601f19169290920160200192915050565b602081526000611fac60208301846123e3565b60006020828403121561243457600080fd5b5035919050565b80356001600160a01b038116811461245257600080fd5b919050565b6000806040838503121561246a57600080fd5b6124738361243b565b946020939093013593505050565b8035801515811461245257600080fd5b600080604083850312156124a457600080fd5b823591506124b460208401612481565b90509250929050565b634e487b7160e01b600052604160045260246000fd5b600067ffffffffffffffff808411156124ee576124ee6124bd565b604051601f8501601f19908116603f01168101908282118183101715612516576125166124bd565b8160405280935085815286868601111561252f57600080fd5b858560208301376000602087830101525050509392505050565b600082601f83011261255a57600080fd5b611fac838335602085016124d3565b600080600080600080600060e0888a03121561258457600080fd5b873567ffffffffffffffff8082111561259c57600080fd5b6125a88b838c01612549565b985060208a01359150808211156125be57600080fd5b6125ca8b838c01612549565b975060408a01359150808211156125e057600080fd5b6125ec8b838c01612549565b965060608a0135955060808a013591508082111561260957600080fd5b506126168a828b01612549565b93505060a0880135915060c0880135905092959891949750929550565b60008060006060848603121561264857600080fd5b6126518461243b565b925061265f6020850161243b565b9150604084013590509250925092565b60006101608083526126838184018f6123e3565b90508281036020840152612697818e6123e3565b905082810360408401526126ab818d6123e3565b90508a606084015282810360808401526126c5818b6123e3565b60a0840199909952505060c081019590955292151560e08501526101008401919091526101208301526101409091015295945050505050565b6020808252825182820181905260009190848201906040850190845b818110156127365783518352928401929184019160010161271a565b50909695505050505050565b60006020828403121561275457600080fd5b611fac8261243b565b60006020828403121561276f57600080fd5b813567ffffffffffffffff81111561278657600080fd5b611c9f84828501612549565b600080604083850312156127a557600080fd5b50508035926020909101359150565b600080604083850312156127c757600080fd5b6127d08361243b565b91506124b460208401612481565b600080600080608085870312156127f457600080fd5b6127fd8561243b565b935061280b6020860161243b565b925060408501359150606085013567ffffffffffffffff81111561282e57600080fd5b8501601f8101871361283f57600080fd5b61284e878235602084016124d3565b91505092959194509250565b6000806040838503121561286d57600080fd5b823591506124b46020840161243b565b6000806040838503121561289057600080fd5b6128998361243b565b91506124b46020840161243b565b600181811c908216806128bb57607f821691505b6020821081036128db57634e487b7160e01b600052602260045260246000fd5b50919050565b60208082526017908201527f50726f706572747920646f6573206e6f74206578697374000000000000000000604082015260600190565b634e487b7160e01b600052601160045260246000fd5b60006001820161294057612940612918565b5060010190565b600082516129598184602087016123bf565b9190910192915050565b601f82111561063d57600081815260208120601f850160051c8101602086101561298a5750805b601f850160051c820191505b818110156129a957828155600101612996565b505050505050565b815167ffffffffffffffff8111156129cb576129cb6124bd565b6129df816129d984546128a7565b84612963565b602080601f831160018114612a1457600084156129fc5750858301515b600019600386901b1c1916600185901b1785556129a9565b600085815260208120601f198616915b82811015612a4357888601518255948401946001909101908401612a24565b5085821015612a615787850151600019600388901b60f8161c191681555b5050505050600190811b01905550565b604081526000612a8460408301856123e3565b8281036020840152612a9681856123e3565b95945050505050565b634e487b7160e01b600052603260045260246000fd5b8181038181111561046957610469612918565b634e487b7160e01b600052603160045260246000fd5b6020808252602d908201527f4552433732313a2063616c6c6572206973206e6f7420746f6b656e206f776e6560408201526c1c881bdc88185c1c1c9bdd9959609a1b606082015260800190565b60008351612b3d8184602088016123bf565b835190830190612b518183602088016123bf565b01949350505050565b60208082526032908201527f4552433732313a207472616e7366657220746f206e6f6e20455243373231526560408201527131b2b4bb32b91034b6b83632b6b2b73a32b960711b606082015260800190565b60208082526025908201527f4552433732313a207472616e736665722066726f6d20696e636f72726563742060408201526437bbb732b960d91b606082015260800190565b6001600160a01b0385811682528416602082015260408101839052608060608201819052600090612c24908301846123e3565b9695505050505050565b600060208284031215612c4057600080fd5b8151611fac8161238c56fea26469706673582212203f672c3e484af690df7b32a850e971957b4c8bc5a5fbf8633a75951cae4d4fae64736f6c63430008140033",
  "linkReferences": {},
  "deployedLinkReferences": {}
}