{
  "_format": "hh-sol-artifact-1",
  "contractName": "PropertyValuation",
  "sourceName": "contracts/PropertyValuation.sol",
  "abi": [
    {
      "inputs": [
        {
          "internalType": "address",
          "name": "_propertyNFTAddress",
          "type": "address"
        }
      ],
      "stateMutability": "nonpayable",
      "type": "constructor"
    },
    {
      "anonymous": false,
      "inputs": [
        {
          "indexed": true,
          "internalType": "address",
          "name": "previousOwner",
          "type": "address"
        },
        {
          "indexed": true,
          "internalType": "address",
          "name": "newOwner",
          "type": "address"
        }
      ],
      "name": "OwnershipTransferred",
      "type": "event"
    },
    {
      "anonymous": false,
      "inputs": [
        {
          "indexed": true,
          "internalType": "uint256",
          "name": "tokenId",
          "type": "uint256"
        },
        {
          "indexed": false,
          "internalType": "uint256",
          "name": "estimatedValue",
          "type": "uint256"
        },
        {
          "indexed": false,
          "internalType": "uint256",
          "name": "comparableValue",
          "type": "uint256"
        }
      ],
      "name": "ValuationSubmitted",
      "type": "event"
    },
    {
      "anonymous": false,
      "inputs": [
        {
          "indexed": true,
          "internalType": "uint256",
          "name": "tokenId",
          "type": "uint256"
        },
        {
          "indexed": false,
          "internalType": "uint256",
          "name": "estimatedValue",
          "type": "uint256"
        },
        {
          "indexed": false,
          "internalType": "uint256",
          "name": "comparableValue",
          "type": "uint256"
        }
      ],
      "name": "ValuationUpdated",
      "type": "event"
    },
    {
      "anonymous": false,
      "inputs": [
        {
          "indexed": true,
          "internalType": "uint256",
          "name": "tokenId",
          "type": "uint256"
        },
        {
          "indexed": false,
          "internalType": "bool",
          "name": "verified",
          "type": "bool"
        }
      ],
      "name": "ValuationVerified",
      "type": "event"
    },
    {
      "anonymous": false,
      "inputs": [
        {
          "indexed": true,
          "internalType": "uint256",
          "name": "tokenId",
          "type": "uint256"
        },
        {
          "indexed": true,
          "internalType": "address",
          "name": "voter",
          "type": "address"
        },
        {
          "indexed": false,
          "internalType": "bool",
          "name": "approve",
          "type": "bool"
        }
      ],
      "name": "ValuationVoteCast",
      "type": "event"
    },
    {
      "inputs": [],
      "name": "REJECTION_THRESHOLD",
      "outputs": [
        {
          "internalType": "uint256",
          "name": "",
          "type": "uint256"
        }
      ],
      "stateMutability": "view",
      "type": "function"
    },
    {
      "inputs": [],
      "name": "VERIFICATION_THRESHOLD",
      "outputs": [
        {
          "internalType": "uint256",
          "name": "",
          "type": "uint256"
        }
      ],
      "stateMutability": "view",
      "type": "function"
    },
    {
      "inputs": [
        {
          "internalType": "uint256",
          "name": "_tokenId",
          "type": "uint256"
        }
      ],
      "name": "confirmValuationUpdate",
      "outputs": [],
      "stateMutability": "nonpayable",
      "type": "function"
    },
    {
      "inputs": [
        {
          "internalType": "uint256",
          "name": "_tokenId",
          "type": "uint256"
        }
      ],
      "name": "getHistoricalValues",
      "outputs": [
        {
          "internalType": "uint256[]",
          "name": "",
          "type": "uint256[]"
        }
      ],
      "stateMutability": "view",
      "type": "function"
    },
    {
      "inputs": [
        {
          "internalType": "uint256",
          "name": "propertyId",
          "type": "uint256"
        }
      ],
      "name": "getPendingValuation",
      "outputs": [
        {
          "components": [
            {
              "internalType": "uint256",
              "name": "estimatedValue",
              "type": "uint256"
            },
            {
              "internalType": "uint256",
              "name": "comparableValue",
              "type": "uint256"
            },
            {
              "internalType": "uint256",
              "name": "lastUpdated",
              "type": "uint256"
            },
            {
              "internalType": "uint256",
              "name": "locationScore",
              "type": "uint256"
            },
            {
              "internalType": "uint256",
              "name": "sizeScore",
              "type": "uint256"
            },
            {
              "internalType": "uint256",
              "name": "conditionScore",
              "type": "uint256"
            },
            {
              "internalType": "uint256",
              "name": "ageScore",
              "type": "uint256"
            },
            {
              "internalType": "uint256",
              "name": "renovationScore",
              "type": "uint256"
            },
            {
              "internalType": "bool",
              "name": "isVerified",
              "type": "bool"
            },
            {
              "internalType": "uint256",
              "name": "verificationVotes",
              "type": "uint256"
            },
            {
              "internalType": "uint256",
              "name": "rejectionVotes",
              "type": "uint256"
            }
          ],
          "internalType": "struct PropertyValuation.Valuation",
          "name": "",
          "type": "tuple"
        }
      ],
      "stateMutability": "view",
      "type": "function"
    },
    {
      "inputs": [
        {
          "internalType": "uint256",
          "name": "_tokenId",
          "type": "uint256"
        }
      ],
      "name": "getValuation",
      "outputs": [
        {
          "internalType": "uint256",
          "name": "estimatedValue",
          "type": "uint256"
        },
        {
          "internalType": "uint256",
          "name": "comparableValue",
          "type": "uint256"
        },
        {
          "internalType": "uint256",
          "name": "lastUpdated",
          "type": "uint256"
        },
        {
          "internalType": "uint256",
          "name": "locationScore",
          "type": "uint256"
        },
        {
          "internalType": "uint256",
          "name": "sizeScore",
          "type": "uint256"
        },
        {
          "internalType": "uint256",
          "name": "conditionScore",
          "type": "uint256"
        },
        {
          "internalType": "uint256",
          "name": "ageScore",
          "type": "uint256"
        },
        {
          "internalType": "uint256",
          "name": "renovationScore",
          "type": "uint256"
        },
        {
          "internalType": "bool",
          "name": "isVerified",
          "type": "bool"
        },
        {
          "internalType": "uint256",
          "name": "verificationVotes",
          "type": "uint256"
        },
        {
          "internalType": "uint256",
          "name": "rejectionVotes",
          "type": "uint256"
        }
      ],
      "stateMutability": "view",
      "type": "function"
    },
    {
      "inputs": [
        {
          "internalType": "uint256",
          "name": "_tokenId",
          "type": "uint256"
        },
        {
          "internalType": "address",
          "name": "_user",
          "type": "address"
        }
      ],
      "name": "hasUserVoted",
      "outputs": [
        {
          "internalType": "bool",
          "name": "",
          "type": "bool"
        }
      ],
      "stateMutability": "view",
      "type": "function"
    },
    {
      "inputs": [
        {
          "internalType": "uint256",
          "name": "",
          "type": "uint256"
        },
        {
          "internalType": "uint256",
          "name": "",
          "type": "uint256"
        }
      ],
      "name": "historicalValues",
      "outputs": [
        {
          "internalType": "uint256",
          "name": "",
          "type": "uint256"
        }
      ],
      "stateMutability": "view",
      "type": "function"
    },
    {
      "inputs": [],
      "name": "owner",
      "outputs": [
        {
          "internalType": "address",
          "name": "",
          "type": "address"
        }
      ],
      "stateMutability": "view",
      "type": "function"
    },
    {
      "inputs": [
        {
          "internalType": "uint256",
          "name": "",
          "type": "uint256"
        },
        {
          "internalType": "address",
          "name": "",
          "type": "address"
        }
      ],
      "name": "pendingValuationVotes",
      "outputs": [
        {
          "internalType": "bool",
          "name": "",
          "type": "bool"
        }
      ],
      "stateMutability": "view",
      "type": "function"
    },
    {
      "inputs": [
        {
          "internalType": "uint256",
          "name": "",
          "type": "uint256"
        }
      ],
      "name": "pendingValuations",
      "outputs": [
        {
          "internalType": "uint256",
          "name": "estimatedValue",
          "type": "uint256"
        },
        {
          "internalType": "uint256",
          "name": "comparableValue",
          "type": "uint256"
        },
        {
          "internalType": "uint256",
          "name": "lastUpdated",
          "type": "uint256"
        },
        {
          "internalType": "uint256",
          "name": "locationScore",
          "type": "uint256"
        },
        {
          "internalType": "uint256",
          "name": "sizeScore",
          "type": "uint256"
        },
        {
          "internalType": "uint256",
          "name": "conditionScore",
          "type": "uint256"
        },
        {
          "internalType": "uint256",
          "name": "ageScore",
          "type": "uint256"
        },
        {
          "internalType": "uint256",
          "name": "renovationScore",
          "type": "uint256"
        },
        {
          "internalType": "bool",
          "name": "isVerified",
          "type": "bool"
        },
        {
          "internalType": "uint256",
          "name": "verificationVotes",
          "type": "uint256"
        },
        {
          "internalType": "uint256",
          "name": "rejectionVotes",
          "type": "uint256"
        }
      ],
      "stateMutability": "view",
      "type": "function"
    },
    {
      "inputs": [],
      "name": "propertyNFT",
      "outputs": [
        {
          "internalType": "contract PropertyNFT",
          "name": "",
          "type": "address"
        }
      ],
      "stateMutability": "view",
      "type": "function"
    },
    {
      "inputs": [],
      "name": "renounceOwnership",
      "outputs": [],
      "stateMutability": "nonpayable",
      "type": "function"
    },
    {
      "inputs": [
        {
          "internalType": "uint256",
          "name": "_tokenId",
          "type": "uint256"
        },
        {
          "internalType": "uint256",
          "name": "_estimatedValue",
          "type": "uint256"
        },
        {
          "internalType": "uint256",
          "name": "_comparableValue",
          "type": "uint256"
        },
        {
          "internalType": "uint256",
          "name": "_locationScore",
          "type": "uint256"
        },
        {
          "internalType": "uint256",
          "name": "_sizeScore",
          "type": "uint256"
        },
        {
          "internalType": "uint256",
          "name": "_conditionScore",
          "type": "uint256"
        },
        {
          "internalType": "uint256",
          "name": "_ageScore",
          "type": "uint256"
        },
        {
          "internalType": "uint256",
          "name": "_renovationScore",
          "type": "uint256"
        }
      ],
      "name": "submitValuation",
      "outputs": [],
      "stateMutability": "nonpayable",
      "type": "function"
    },
    {
      "inputs": [
        {
          "internalType": "address",
          "name": "newOwner",
          "type": "address"
        }
      ],
      "name": "transferOwnership",
      "outputs": [],
      "stateMutability": "nonpayable",
      "type": "function"
    },
    {
      "inputs": [
        {
          "internalType": "uint256",
          "name": "",
          "type": "uint256"
        }
      ],
      "name": "valuations",
      "outputs": [
        {
          "internalType": "uint256",
          "name": "estimatedValue",
          "type": "uint256"
        },
        {
          "internalType": "uint256",
          "name": "comparableValue",
          "type": "uint256"
        },
        {
          "internalType": "uint256",
          "name": "lastUpdated",
          "type": "uint256"
        },
        {
          "internalType": "uint256",
          "name": "locationScore",
          "type": "uint256"
        },
        {
          "internalType": "uint256",
          "name": "sizeScore",
          "type": "uint256"
        },
        {
          "internalType": "uint256",
          "name": "conditionScore",
          "type": "uint256"
        },
        {
          "internalType": "uint256",
          "name": "ageScore",
          "type": "uint256"
        },
        {
          "internalType": "uint256",
          "name": "renovationScore",
          "type": "uint256"
        },
        {
          "internalType": "bool",
          "name": "isVerified",
          "type": "bool"
        },
        {
          "internalType": "uint256",
          "name": "verificationVotes",
          "type": "uint256"
        },
        {
          "internalType": "uint256",
          "name": "rejectionVotes",
          "type": "uint256"
        }
      ],
      "stateMutability": "view",
      "type": "function"
    },
    {
      "inputs": [
        {
          "internalType": "uint256",
          "name": "_tokenId",
          "type": "uint256"
        },
        {
          "internalType": "bool",
          "name": "_approve",
          "type": "bool"
        }
      ],
      "name": "voteOnValuation",
      "outputs": [],
      "stateMutability": "nonpayable",
      "type": "function"
    }
  ],
  "bytecode": "0x608060405234801561001057600080fd5b5060405161135938038061135983398101604081905261002f916100ad565b6100383361005d565b600180546001600160a01b0319166001600160a01b03929092169190911790556100dd565b600080546001600160a01b038381166001600160a01b0319831681178455604051919092169283917f8be0079c531659141344cd1fd0a4f28419497f9722a3daafe3b4186f6b6457e09190a35050565b6000602082840312156100bf57600080fd5b81516001600160a01b03811681146100d657600080fd5b9392505050565b61126d806100ec6000396000f3fe608060405234801561001057600080fd5b506004361061010b5760003560e01c8063715018a6116100a2578063974d5d1011610071578063974d5d101461039e578063dc296ae1146103be578063dfdea265146103fb578063e2b4a70c14610403578063f2fde38b1461041657600080fd5b8063715018a61461035257806378f5c8871461035a5780638bdcc1f91461036d5780638da5cb5b1461038d57600080fd5b80633f53b43f116100de5780633f53b43f146102535780635770d1d9146102695780635d03d83e1461027c57806360767a36146102e757600080fd5b80630aa63ad4146101105780631920a67d1461012557806337f76838146101685780633bd18a3b14610193575b600080fd5b61012361011e366004611006565b610429565b005b610153610133366004611050565b600560209081526000928352604080842090915290825290205460ff1681565b60405190151581526020015b60405180910390f35b60015461017b906001600160a01b031681565b6040516001600160a01b03909116815260200161015f565b6101fe6101a1366004611075565b600090815260026020819052604090912080546001820154928201546003830154600484015460058501546006860154600787015460088801546009890154600a90990154979a96989597949693959294919360ff909116929190565b604080519b8c5260208c019a909a52988a01979097526060890195909552608088019390935260a087019190915260c086015260e085015215156101008401526101208301526101408201526101600161015f565b61025b600381565b60405190815260200161015f565b610123610277366004611075565b610837565b6101fe61028a366004611075565b600260208190526000918252604090912080546001820154928201546003830154600484015460058501546006860154600787015460088801546009890154600a9099015497999896979596949593949293919260ff909116918b565b6101fe6102f5366004611075565b600460208190526000918252604090912080546001820154600283015460038401549484015460058501546006860154600787015460088801546009890154600a90990154979996989597949593949293919260ff90911691908b565b610123610a79565b61012361036836600461108e565b610a8d565b61038061037b366004611075565b610d5e565b60405161015f91906110e3565b6000546001600160a01b031661017b565b6103b16103ac366004611075565b610e50565b60405161015f9190611169565b6101536103cc366004611050565b60008281526002602090815260408083206001600160a01b0385168452600b0190915290205460ff1692915050565b61025b600281565b61025b6104113660046111ad565b610eb2565b6101236104243660046111cf565b610ee3565b6001546040516331a9108f60e11b8152600481018490526000916001600160a01b031690636352211e90602401602060405180830381865afa158015610473573d6000803e3d6000fd5b505050506040513d601f19601f8201168201806040525081019061049791906111f3565b6001600160a01b0316036104ec5760405162461bcd60e51b8152602060048201526017602482015276141c9bdc195c9d1e48191bd95cc81b9bdd08195e1a5cdd604a1b60448201526064015b60405180910390fd5b60008281526004602052604090206008015460ff161561054e5760405162461bcd60e51b815260206004820152601a60248201527f56616c756174696f6e20616c726561647920766572696669656400000000000060448201526064016104e3565b600082815260056020908152604080832033845290915290205460ff16156105a85760405162461bcd60e51b815260206004820152600d60248201526c105b1c9958591e481d9bdd1959609a1b60448201526064016104e3565b6001546040516331a9108f60e11b81526004810184905233916001600160a01b031690636352211e90602401602060405180830381865afa1580156105f1573d6000803e3d6000fd5b505050506040513d601f19601f8201168201806040525081019061061591906111f3565b6001600160a01b03160361066b5760405162461bcd60e51b815260206004820152601b60248201527f43616e6e6f7420766f7465206f6e206f776e2070726f7065727479000000000060448201526064016104e3565b600082815260046020908152604080832060058352818420338552909252909120805460ff191660011790558115610746576009810180549060006106af83611210565b909155505060405160018152339084907fa256e30908fb7ff9fae4faf53e13a423f492b7cb412ce9854a158a3abb0468979060200160405180910390a360038160090154106107415760088101805460ff1916600190811790915560405190815283907f84b3c050f7881730fcfa395d8218beeddeab15622a1e66227f0d632da9bda547906020015b60405180910390a25b505050565b600a8101805490600061075883611210565b909155505060405160008152339084907fa256e30908fb7ff9fae4faf53e13a423f492b7cb412ce9854a158a3abb0468979060200160405180910390a3600281600a01541061074157600083815260046020818152604080842084815560018101859055600281018590556003810185905592830184905560058301849055600683018490556007830184905560088301805460ff1916905560098301849055600a909201839055905191825284917f84b3c050f7881730fcfa395d8218beeddeab15622a1e66227f0d632da9bda547910160405180910390a2505050565b6001546040516331a9108f60e11b81526004810183905233916001600160a01b031690636352211e90602401602060405180830381865afa158015610880573d6000803e3d6000fd5b505050506040513d601f19601f820116820180604052508101906108a491906111f3565b6001600160a01b0316146108ef5760405162461bcd60e51b81526020600482015260126024820152712737ba10383937b832b93a3c9037bbb732b960711b60448201526064016104e3565b60008181526004602052604090206008015460ff166109495760405162461bcd60e51b815260206004820152601660248201527515985b1d585d1a5bdb881b9bdd081d995c9a599a595960521b60448201526064016104e3565b600081815260046020819052604091829020805460019182015491549351639b7c4b4b60e01b8152928301859052602483018190529290916001600160a01b0390911690639b7c4b4b90604401600060405180830381600087803b1580156109b057600080fd5b505af11580156109c4573d6000803e3d6000fd5b50505060008481526003602081815260408084208054600180820183559186528386200188905588855260048084528286208681559182018690556002820186905593810185905592830184905560058301849055600683018490556007830184905560088301805460ff1916905560098301849055600a9092019290925580518581529182018490528592507fdd9c5b684ac908e56b235f477f4fbd037117f994e48c60f5700009c106c9a6819101610738565b610a81610f5c565b610a8b6000610fb6565b565b6001546040516331a9108f60e11b8152600481018a90526000916001600160a01b031690636352211e90602401602060405180830381865afa158015610ad7573d6000803e3d6000fd5b505050506040513d601f19601f82011682018060405250810190610afb91906111f3565b6001600160a01b031603610b4b5760405162461bcd60e51b8152602060048201526017602482015276141c9bdc195c9d1e48191bd95cc81b9bdd08195e1a5cdd604a1b60448201526064016104e3565b6001546040516331a9108f60e11b8152600481018a905233916001600160a01b031690636352211e90602401602060405180830381865afa158015610b94573d6000803e3d6000fd5b505050506040513d601f19601f82011682018060405250810190610bb891906111f3565b6001600160a01b03161480610be6575033610bdb6000546001600160a01b031690565b6001600160a01b0316145b610c235760405162461bcd60e51b815260206004820152600e60248201526d139bdd08185d5d1a1bdc9a5e995960921b60448201526064016104e3565b604051806101600160405280888152602001878152602001428152602001868152602001858152602001848152602001838152602001828152602001600015158152602001600081526020016000815250600460008a8152602001908152602001600020600082015181600001556020820151816001015560408201518160020155606082015181600301556080820151816004015560a0820151816005015560c0820151816006015560e082015181600701556101008201518160080160006101000a81548160ff021916908315150217905550610120820151816009015561014082015181600a0155905050877f4355f180719c91f4f06494335f14fbd63c0602c4aa06e75378c4a67ec11d5af28888604051610d4c929190918252602082015260400190565b60405180910390a25050505050505050565b610dbd604051806101600160405280600081526020016000815260200160008152602001600081526020016000815260200160008152602001600081526020016000815260200160001515815260200160008152602001600081525090565b506000908152600460208181526040928390208351610160810185528154815260018201549281019290925260028101549382019390935260038301546060820152908201546080820152600582015460a0820152600682015460c0820152600782015460e0820152600882015460ff1615156101008201526009820154610120820152600a9091015461014082015290565b600081815260036020908152604091829020805483518184028101840190945280845260609392830182828015610ea657602002820191906000526020600020905b815481526020019060010190808311610e92575b50505050509050919050565b60036020528160005260406000208181548110610ece57600080fd5b90600052602060002001600091509150505481565b610eeb610f5c565b6001600160a01b038116610f505760405162461bcd60e51b815260206004820152602660248201527f4f776e61626c653a206e6577206f776e657220697320746865207a65726f206160448201526564647265737360d01b60648201526084016104e3565b610f5981610fb6565b50565b6000546001600160a01b03163314610a8b5760405162461bcd60e51b815260206004820181905260248201527f4f776e61626c653a2063616c6c6572206973206e6f7420746865206f776e657260448201526064016104e3565b600080546001600160a01b038381166001600160a01b0319831681178455604051919092169283917f8be0079c531659141344cd1fd0a4f28419497f9722a3daafe3b4186f6b6457e09190a35050565b6000806040838503121561101957600080fd5b823591506020830135801515811461103057600080fd5b809150509250929050565b6001600160a01b0381168114610f5957600080fd5b6000806040838503121561106357600080fd5b8235915060208301356110308161103b565b60006020828403121561108757600080fd5b5035919050565b600080600080600080600080610100898b0312156110ab57600080fd5b505086359860208801359850604088013597606081013597506080810135965060a0810135955060c0810135945060e0013592509050565b600061016082019050825182526020830151602083015260408301516040830152606083015160608301526080830151608083015260a083015160a083015260c083015160c083015260e083015160e08301526101008084015161114a8285018215159052565b5050610120838101519083015261014092830151929091019190915290565b6020808252825182820181905260009190848201906040850190845b818110156111a157835183529284019291840191600101611185565b50909695505050505050565b600080604083850312156111c057600080fd5b50508035926020909101359150565b6000602082840312156111e157600080fd5b81356111ec8161103b565b9392505050565b60006020828403121561120557600080fd5b81516111ec8161103b565b60006001820161123057634e487b7160e01b600052601160045260246000fd5b506001019056fea26469706673582212207029ca1bba97dfd038fffbc41ea8d2272a1cba5f382569d4a3ccff493257b2e464736f6c63430008140033",
  "linkReferences": {},
  "deployedLinkReferences": {}
}