{
  "_format": "hh-sol-artifact-1",
  "contractName": "PropertyValuation",
  "sourceName": "contracts/PropertyValuation.sol",
  "abi": [
    {
      "inputs": [
        {
          "internalType": "address",
          "name": "_propertyNFTAddress",
          "type": "address"
        }
      ],
      "stateMutability": "nonpayable",
      "type": "constructor"
    },
    {
      "anonymous": false,
      "inputs": [
        {
          "indexed": true,
          "internalType": "address",
          "name": "valuationContract",
          "type": "address"
        },
        {
          "indexed": true,
          "internalType": "address",
          "name": "nftContract",
          "type": "address"
        }
      ],
      "name": "AuthorizationRequested",
      "type": "event"
    },
    {
      "anonymous": false,
      "inputs": [
        {
          "indexed": true,
          "internalType": "address",
          "name": "previousOwner",
          "type": "address"
        },
        {
          "indexed": true,
          "internalType": "address",
          "name": "newOwner",
          "type": "address"
        }
      ],
      "name": "OwnershipTransferred",
      "type": "event"
    },
    {
      "anonymous": false,
      "inputs": [
        {
          "indexed": true,
          "internalType": "uint256",
          "name": "tokenId",
          "type": "uint256"
        },
        {
          "indexed": false,
          "internalType": "uint256",
          "name": "estimatedValue",
          "type": "uint256"
        },
        {
          "indexed": false,
          "internalType": "uint256",
          "name": "comparableValue",
          "type": "uint256"
        }
      ],
      "name": "ValuationSubmitted",
      "type": "event"
    },
    {
      "anonymous": false,
      "inputs": [
        {
          "indexed": true,
          "internalType": "uint256",
          "name": "tokenId",
          "type": "uint256"
        },
        {
          "indexed": false,
          "internalType": "uint256",
          "name": "estimatedValue",
          "type": "uint256"
        },
        {
          "indexed": false,
          "internalType": "uint256",
          "name": "comparableValue",
          "type": "uint256"
        }
      ],
      "name": "ValuationUpdated",
      "type": "event"
    },
    {
      "anonymous": false,
      "inputs": [
        {
          "indexed": true,
          "internalType": "uint256",
          "name": "tokenId",
          "type": "uint256"
        },
        {
          "indexed": false,
          "internalType": "bool",
          "name": "verified",
          "type": "bool"
        }
      ],
      "name": "ValuationVerified",
      "type": "event"
    },
    {
      "anonymous": false,
      "inputs": [
        {
          "indexed": true,
          "internalType": "uint256",
          "name": "tokenId",
          "type": "uint256"
        },
        {
          "indexed": true,
          "internalType": "address",
          "name": "voter",
          "type": "address"
        },
        {
          "indexed": false,
          "internalType": "bool",
          "name": "approve",
          "type": "bool"
        }
      ],
      "name": "ValuationVoteCast",
      "type": "event"
    },
    {
      "inputs": [],
      "name": "REJECTION_THRESHOLD",
      "outputs": [
        {
          "internalType": "uint256",
          "name": "",
          "type": "uint256"
        }
      ],
      "stateMutability": "view",
      "type": "function"
    },
    {
      "inputs": [],
      "name": "VERIFICATION_THRESHOLD",
      "outputs": [
        {
          "internalType": "uint256",
          "name": "",
          "type": "uint256"
        }
      ],
      "stateMutability": "view",
      "type": "function"
    },
    {
      "inputs": [],
      "name": "checkAuthorizationStatus",
      "outputs": [
        {
          "internalType": "bool",
          "name": "authorized",
          "type": "bool"
        },
        {
          "internalType": "address",
          "name": "nftContract",
          "type": "address"
        },
        {
          "internalType": "address",
          "name": "thisContract",
          "type": "address"
        }
      ],
      "stateMutability": "view",
      "type": "function"
    },
    {
      "inputs": [
        {
          "internalType": "uint256",
          "name": "_tokenId",
          "type": "uint256"
        }
      ],
      "name": "confirmValuationUpdate",
      "outputs": [],
      "stateMutability": "nonpayable",
      "type": "function"
    },
    {
      "inputs": [
        {
          "internalType": "uint256",
          "name": "_tokenId",
          "type": "uint256"
        }
      ],
      "name": "debugConfirmValuation",
      "outputs": [
        {
          "internalType": "bool",
          "name": "propertyExists",
          "type": "bool"
        },
        {
          "internalType": "bool",
          "name": "isOwner",
          "type": "bool"
        },
        {
          "internalType": "bool",
          "name": "valuationVerified",
          "type": "bool"
        },
        {
          "internalType": "bool",
          "name": "contractAuthorized",
          "type": "bool"
        }
      ],
      "stateMutability": "view",
      "type": "function"
    },
    {
      "inputs": [
        {
          "internalType": "uint256",
          "name": "_tokenId",
          "type": "uint256"
        }
      ],
      "name": "getHistoricalValues",
      "outputs": [
        {
          "internalType": "uint256[]",
          "name": "",
          "type": "uint256[]"
        }
      ],
      "stateMutability": "view",
      "type": "function"
    },
    {
      "inputs": [
        {
          "internalType": "uint256",
          "name": "propertyId",
          "type": "uint256"
        }
      ],
      "name": "getPendingValuation",
      "outputs": [
        {
          "components": [
            {
              "internalType": "uint256",
              "name": "estimatedValue",
              "type": "uint256"
            },
            {
              "internalType": "uint256",
              "name": "comparableValue",
              "type": "uint256"
            },
            {
              "internalType": "uint256",
              "name": "lastUpdated",
              "type": "uint256"
            },
            {
              "internalType": "uint256",
              "name": "locationScore",
              "type": "uint256"
            },
            {
              "internalType": "uint256",
              "name": "sizeScore",
              "type": "uint256"
            },
            {
              "internalType": "uint256",
              "name": "conditionScore",
              "type": "uint256"
            },
            {
              "internalType": "uint256",
              "name": "ageScore",
              "type": "uint256"
            },
            {
              "internalType": "uint256",
              "name": "renovationScore",
              "type": "uint256"
            },
            {
              "internalType": "bool",
              "name": "isVerified",
              "type": "bool"
            },
            {
              "internalType": "uint256",
              "name": "verificationVotes",
              "type": "uint256"
            },
            {
              "internalType": "uint256",
              "name": "rejectionVotes",
              "type": "uint256"
            }
          ],
          "internalType": "struct PropertyValuation.Valuation",
          "name": "",
          "type": "tuple"
        }
      ],
      "stateMutability": "view",
      "type": "function"
    },
    {
      "inputs": [
        {
          "internalType": "uint256",
          "name": "_tokenId",
          "type": "uint256"
        }
      ],
      "name": "getValuation",
      "outputs": [
        {
          "internalType": "uint256",
          "name": "estimatedValue",
          "type": "uint256"
        },
        {
          "internalType": "uint256",
          "name": "comparableValue",
          "type": "uint256"
        },
        {
          "internalType": "uint256",
          "name": "lastUpdated",
          "type": "uint256"
        },
        {
          "internalType": "uint256",
          "name": "locationScore",
          "type": "uint256"
        },
        {
          "internalType": "uint256",
          "name": "sizeScore",
          "type": "uint256"
        },
        {
          "internalType": "uint256",
          "name": "conditionScore",
          "type": "uint256"
        },
        {
          "internalType": "uint256",
          "name": "ageScore",
          "type": "uint256"
        },
        {
          "internalType": "uint256",
          "name": "renovationScore",
          "type": "uint256"
        },
        {
          "internalType": "bool",
          "name": "isVerified",
          "type": "bool"
        },
        {
          "internalType": "uint256",
          "name": "verificationVotes",
          "type": "uint256"
        },
        {
          "internalType": "uint256",
          "name": "rejectionVotes",
          "type": "uint256"
        }
      ],
      "stateMutability": "view",
      "type": "function"
    },
    {
      "inputs": [
        {
          "internalType": "uint256",
          "name": "_tokenId",
          "type": "uint256"
        }
      ],
      "name": "getValuationStatus",
      "outputs": [
        {
          "internalType": "bool",
          "name": "hasVerified",
          "type": "bool"
        },
        {
          "internalType": "bool",
          "name": "hasPending",
          "type": "bool"
        },
        {
          "internalType": "bool",
          "name": "pendingIsVerified",
          "type": "bool"
        },
        {
          "internalType": "bool",
          "name": "canConfirm",
          "type": "bool"
        }
      ],
      "stateMutability": "view",
      "type": "function"
    },
    {
      "inputs": [
        {
          "internalType": "uint256",
          "name": "_tokenId",
          "type": "uint256"
        },
        {
          "internalType": "address",
          "name": "_user",
          "type": "address"
        }
      ],
      "name": "hasUserVoted",
      "outputs": [
        {
          "internalType": "bool",
          "name": "",
          "type": "bool"
        }
      ],
      "stateMutability": "view",
      "type": "function"
    },
    {
      "inputs": [
        {
          "internalType": "uint256",
          "name": "_tokenId",
          "type": "uint256"
        },
        {
          "internalType": "address",
          "name": "_user",
          "type": "address"
        }
      ],
      "name": "hasUserVotedOnPending",
      "outputs": [
        {
          "internalType": "bool",
          "name": "",
          "type": "bool"
        }
      ],
      "stateMutability": "view",
      "type": "function"
    },
    {
      "inputs": [
        {
          "internalType": "uint256",
          "name": "",
          "type": "uint256"
        },
        {
          "internalType": "uint256",
          "name": "",
          "type": "uint256"
        }
      ],
      "name": "historicalValues",
      "outputs": [
        {
          "internalType": "uint256",
          "name": "",
          "type": "uint256"
        }
      ],
      "stateMutability": "view",
      "type": "function"
    },
    {
      "inputs": [],
      "name": "isAuthorizedToUpdate",
      "outputs": [
        {
          "internalType": "bool",
          "name": "",
          "type": "bool"
        }
      ],
      "stateMutability": "view",
      "type": "function"
    },
    {
      "inputs": [],
      "name": "owner",
      "outputs": [
        {
          "internalType": "address",
          "name": "",
          "type": "address"
        }
      ],
      "stateMutability": "view",
      "type": "function"
    },
    {
      "inputs": [
        {
          "internalType": "uint256",
          "name": "",
          "type": "uint256"
        },
        {
          "internalType": "address",
          "name": "",
          "type": "address"
        }
      ],
      "name": "pendingValuationVotes",
      "outputs": [
        {
          "internalType": "bool",
          "name": "",
          "type": "bool"
        }
      ],
      "stateMutability": "view",
      "type": "function"
    },
    {
      "inputs": [
        {
          "internalType": "uint256",
          "name": "",
          "type": "uint256"
        }
      ],
      "name": "pendingValuations",
      "outputs": [
        {
          "internalType": "uint256",
          "name": "estimatedValue",
          "type": "uint256"
        },
        {
          "internalType": "uint256",
          "name": "comparableValue",
          "type": "uint256"
        },
        {
          "internalType": "uint256",
          "name": "lastUpdated",
          "type": "uint256"
        },
        {
          "internalType": "uint256",
          "name": "locationScore",
          "type": "uint256"
        },
        {
          "internalType": "uint256",
          "name": "sizeScore",
          "type": "uint256"
        },
        {
          "internalType": "uint256",
          "name": "conditionScore",
          "type": "uint256"
        },
        {
          "internalType": "uint256",
          "name": "ageScore",
          "type": "uint256"
        },
        {
          "internalType": "uint256",
          "name": "renovationScore",
          "type": "uint256"
        },
        {
          "internalType": "bool",
          "name": "isVerified",
          "type": "bool"
        },
        {
          "internalType": "uint256",
          "name": "verificationVotes",
          "type": "uint256"
        },
        {
          "internalType": "uint256",
          "name": "rejectionVotes",
          "type": "uint256"
        }
      ],
      "stateMutability": "view",
      "type": "function"
    },
    {
      "inputs": [],
      "name": "propertyNFT",
      "outputs": [
        {
          "internalType": "contract PropertyNFT",
          "name": "",
          "type": "address"
        }
      ],
      "stateMutability": "view",
      "type": "function"
    },
    {
      "inputs": [],
      "name": "renounceOwnership",
      "outputs": [],
      "stateMutability": "nonpayable",
      "type": "function"
    },
    {
      "inputs": [],
      "name": "requestAuthorization",
      "outputs": [],
      "stateMutability": "nonpayable",
      "type": "function"
    },
    {
      "inputs": [
        {
          "internalType": "uint256",
          "name": "_tokenId",
          "type": "uint256"
        },
        {
          "internalType": "uint256",
          "name": "_estimatedValue",
          "type": "uint256"
        },
        {
          "internalType": "uint256",
          "name": "_comparableValue",
          "type": "uint256"
        },
        {
          "internalType": "uint256",
          "name": "_locationScore",
          "type": "uint256"
        },
        {
          "internalType": "uint256",
          "name": "_sizeScore",
          "type": "uint256"
        },
        {
          "internalType": "uint256",
          "name": "_conditionScore",
          "type": "uint256"
        },
        {
          "internalType": "uint256",
          "name": "_ageScore",
          "type": "uint256"
        },
        {
          "internalType": "uint256",
          "name": "_renovationScore",
          "type": "uint256"
        }
      ],
      "name": "submitValuation",
      "outputs": [],
      "stateMutability": "nonpayable",
      "type": "function"
    },
    {
      "inputs": [
        {
          "internalType": "address",
          "name": "newOwner",
          "type": "address"
        }
      ],
      "name": "transferOwnership",
      "outputs": [],
      "stateMutability": "nonpayable",
      "type": "function"
    },
    {
      "inputs": [
        {
          "internalType": "uint256",
          "name": "",
          "type": "uint256"
        }
      ],
      "name": "valuations",
      "outputs": [
        {
          "internalType": "uint256",
          "name": "estimatedValue",
          "type": "uint256"
        },
        {
          "internalType": "uint256",
          "name": "comparableValue",
          "type": "uint256"
        },
        {
          "internalType": "uint256",
          "name": "lastUpdated",
          "type": "uint256"
        },
        {
          "internalType": "uint256",
          "name": "locationScore",
          "type": "uint256"
        },
        {
          "internalType": "uint256",
          "name": "sizeScore",
          "type": "uint256"
        },
        {
          "internalType": "uint256",
          "name": "conditionScore",
          "type": "uint256"
        },
        {
          "internalType": "uint256",
          "name": "ageScore",
          "type": "uint256"
        },
        {
          "internalType": "uint256",
          "name": "renovationScore",
          "type": "uint256"
        },
        {
          "internalType": "bool",
          "name": "isVerified",
          "type": "bool"
        },
        {
          "internalType": "uint256",
          "name": "verificationVotes",
          "type": "uint256"
        },
        {
          "internalType": "uint256",
          "name": "rejectionVotes",
          "type": "uint256"
        }
      ],
      "stateMutability": "view",
      "type": "function"
    },
    {
      "inputs": [
        {
          "internalType": "uint256",
          "name": "_tokenId",
          "type": "uint256"
        },
        {
          "internalType": "bool",
          "name": "_approve",
          "type": "bool"
        }
      ],
      "name": "voteOnValuation",
      "outputs": [],
      "stateMutability": "nonpayable",
      "type": "function"
    }
  ],
  "bytecode": "0x6080346100f357601f611a2e38819003918201601f19168301916001600160401b038311848410176100f8578084926020946040528339810103126100f357516001600160a01b03808216918290036100f3576000549060018060a01b0319913383821617600055604051913391167f8be0079c531659141344cd1fd0a4f28419497f9722a3daafe3b4186f6b6457e0600080a382156100b15750600154161760015560405161191f908161010f8239f35b62461bcd60e51b815260206004820152601c60248201527f496e76616c6964204e465420636f6e74726163742061646472657373000000006044820152606490fd5b600080fd5b634e487b7160e01b600052604160045260246000fdfe608080604052600436101561001357600080fd5b600090813560e01c9081630aa63ad41461130f575080631865e4331461128f5780631920a67d1461124657806337f768381461121d5780633bd18a3b14610ba85780633f53b43f14611201578063482e6882146111195780635770d1d914610c145780635d03d83e14610ba857806360767a3614610b3c578063715018a614610ae257806378f5c8871461072e57806385058d9e146106e25780638bdcc1f91461058b5780638da5cb5b14610564578063974d5d10146104c4578063bafc01be14610439578063d64e2e5d146102f3578063dc296ae1146102a4578063dfdea26514610288578063e2b4a70c1461023f578063edea8b9f146101f25763f2fde38b1461011e57600080fd5b346101ef5760203660031901126101ef576004356001600160a01b03818116918290036101ea5761014d6116ff565b811561019657600054826bffffffffffffffffffffffff60a01b821617600055167f8be0079c531659141344cd1fd0a4f28419497f9722a3daafe3b4186f6b6457e0600080a380f35b60405162461bcd60e51b815260206004820152602660248201527f4f776e61626c653a206e6577206f776e657220697320746865207a65726f206160448201526564647265737360d01b6064820152608490fd5b600080fd5b80fd5b50346101ef57806003193601126101ef5761020b6116ff565b6001546001600160a01b0316307fad4331c53e281629778341427fc257a5bd17aef5d5f353da42bfb3905baa45508380a380f35b50346101ef5760403660031901126101ef576024359060043581526003602052604081209081548310156101ef57602061027984846116d1565b90549060031b1c604051908152f35b50346101ef57806003193601126101ef57602060405160028152f35b50346101ef5760403660031901126101ef57600b60406102c261166d565b926004358152600260205220019060018060a01b0316600052602052602060ff604060002054166040519015158152f35b50346101ef57602080600319360112610435576001546040516331a9108f60e11b815260048035908201819052926001600160a01b039283169290918281602481875afa869181610406575b506103f9575050839184935b85526004825260248260ff60086040892001541692604051928380926366d0ead360e01b82523060048301525afa9283156103ee576103bb949596936103bf575b505060405194859485926060929594919560808501961515855215156020850152151560408401521515910152565b0390f35b6103df929350803d106103e7575b6103d7818361178a565b8101906117ac565b90388061038c565b503d6103cd565b6040513d88823e3d90fd5b163314926001929061034b565b610427919250843d861161042e575b61041f818361178a565b8101906117c4565b903861033f565b503d610415565b5080fd5b50346101ef57806003193601126101ef576001546040516366d0ead360e01b8152306004820152906001600160a01b0316602082602481845afa9182156104b95760609392610499575b5060405191151582526020820152306040820152f35b6104b291925060203d81116103e7576103d7818361178a565b9038610483565b6040513d85823e3d90fd5b50346101ef57602080600319360112610435576004358252600381526040822060405192838383549182815201908193835284832090835b818110610550575050508461051291038561178a565b60405193838594850191818652518092526040850193925b82811061053957505050500390f35b83518552869550938101939281019260010161052a565b8254845292860192600192830192016104fc565b50346101ef57806003193601126101ef57546040516001600160a01b039091168152602090f35b50346101ef5760203660031901126101ef5761016090610140604051916105b183611757565b8083528060208401528060408401528060608401528060808401528060a08401528060c08401528060e08401526040610100918083860152808461012096828882015201526004358152600460205220926040519161060f83611757565b600a85549586855260018101546020860152600281015460408601526003810154606086015260048101546080860152600581015460a0860152600681015460c0860152600781015460e086015260ff6008820154161515838601526009810154848601520154848401526040519485526020830151602086015260408301516040860152606083015160608601526080830151608086015260a083015160a086015260c083015160c086015260e083015160e08601528083015115159085015280820151908401520151610140820152f35b50346101ef5760403660031901126101ef5760406106fe61166d565b9160043581526005602052209060018060a01b0316600052602052602060ff604060002054166040519015158152f35b50346101ef576101003660031901126101ef576001546040516331a9108f60e11b80825260048035908301526001600160a01b039283169190602082602481865afa8015610ad7578461078e916020948891610aba575b501615156117e3565b602460405180948193825260043560048301525afa9081156104b9578391610a9b575b5081163314908115610a8e575b5015610a5857606480803511610a165780608435116109d4578060a43511610992578060c43511610950578060e4351161090e57604051906107ff82611757565b60243582526044356020830152426040830152356060820152608435608082015260a43560a082015260c43560c082015260e43560e082015281610100820152816101208201528161014082015260043582526004602052600a6101406040842092805184556020810151600185015560408101516002850155606081015160038501556080810151600485015560a0810151600585015560c0810151600685015560e0810151600785015560088401610100820151151560ff8019835416911617905561012081015160098501550151910155604051602435815260443560208201527f4355f180719c91f4f06494335f14fbd63c0602c4aa06e75378c4a67ec11d5af2604060043592a280f35b60405162461bcd60e51b815260206004820152601f60248201527f52656e6f766174696f6e2073636f7265206d757374206265203c3d20313030006044820152fd5b60405162461bcd60e51b815260206004820152601860248201527f4167652073636f7265206d757374206265203c3d2031303000000000000000006044820152fd5b60405162461bcd60e51b815260206004820152601e60248201527f436f6e646974696f6e2073636f7265206d757374206265203c3d2031303000006044820152fd5b60405162461bcd60e51b815260206004820152601960248201527f53697a652073636f7265206d757374206265203c3d20313030000000000000006044820152fd5b60405162461bcd60e51b815260206004820152601d60248201527f4c6f636174696f6e2073636f7265206d757374206265203c3d203130300000006044820152fd5b60405162461bcd60e51b815260206004820152600e60248201526d139bdd08185d5d1a1bdc9a5e995960921b6044820152606490fd5b82541633149050386107be565b610ab4915060203d60201161042e5761041f818361178a565b386107b1565b610ad19150853d871161042e5761041f818361178a565b38610785565b6040513d87823e3d90fd5b50346101ef57806003193601126101ef57610afb6116ff565b600080546001600160a01b0319811682556001600160a01b03167f8be0079c531659141344cd1fd0a4f28419497f9722a3daafe3b4186f6b6457e08280a380f35b50346101ef5760203660031901126101ef57604090600435815260046020522080546103bb60018301549260028101549060038101546004820154600583015460068401549060078501549260ff60088701541694600a6009880154970154976040519b8c9b8c611683565b50346101ef5760203660031901126101ef57604090600435815260026020522080546103bb60018301549260028101549060038101546004820154600583015460068401549060078501549260ff60088701541694600a6009880154970154976040519b8c9b8c611683565b50346101ef57602090816003193601126101ef576001546040516331a9108f60e11b815260048035908201526001600160a01b03918216918482602481865afa91821561110e5784926110ef575b50339116036110b55760043582526004835260ff60086040842001541615611077576040516366d0ead360e01b81523060048201528381602481855afa9081156104b957839161105a575b501561100457600435825260048352604082209081549060018301928354916003820192835494600484019586549260058601928354956006880195865460078a0198895492843b1561100057928f96959392610104959288946040519a8b998a98634beac33160e01b8a5260043560048b015260248a015260448901526064880152608487015260a486015260c485015260e48401525af19081610fd0575b50610e8a5788888060033d11610e79575b506308c379a014610dc9575b6084906040519062461bcd60e51b82526004820152603260248201527f4661696c656420746f207570646174652070726f70657274792076616c75617460448201527134b7b71d103ab735b737bbb71032b93937b960711b6064820152fd5b610dd1611854565b9081610dde579050610d6a565b60449060405192610e42604585848101937f4661696c656420746f207570646174652070726f70657274792076616c756174855264034b7b71d160dd1b6040830152610e32815180928886860191016118c6565b810103602581018752018561178a565b610e6b60405194859362461bcd60e51b85526004850152518092816024860152858501906118c6565b601f01601f19168101030190fd5b9050600481803e5160e01c82610d5e565b92600a9283928a969583549954986004358c526002895260408c20978b89558a60018a0155600286015460028a015554600389015554600488015554600587015554600686015554600785015560088401600160ff19825416179055600981015460098501550154910155600381526040842080549068010000000000000000821015610fbc5790610f21916001820181556116d1565b81549060031b9085821b91600019901b1916179055600435845260048152610f8860408520600a6000918281558260018201558260028201558260038201558260048201558260058201558260068201558260078201558260088201558260098201550155565b6040519283528201527fdd9c5b684ac908e56b235f477f4fbd037117f994e48c60f5700009c106c9a681604060043592a280f35b634e487b7160e01b86526041600452602486fd5b67ffffffffffffffff819a929a11610fec576040529738610d4d565b634e487b7160e01b82526041600452602482fd5b8f80fd5b60405162461bcd60e51b815260048101849052602860248201527f436f6e7472616374206e6f7420617574686f72697a656420746f207570646174604482015267652076616c75657360c01b6064820152608490fd5b6110719150843d86116103e7576103d7818361178a565b38610cad565b60405162461bcd60e51b815260048101849052601660248201527515985b1d585d1a5bdb881b9bdd081d995c9a599a595960521b6044820152606490fd5b60405162461bcd60e51b81526004810184905260126024820152712737ba10383937b832b93a3c9037bbb732b960711b6044820152606490fd5b611107919250853d871161042e5761041f818361178a565b9038610c62565b6040513d86823e3d90fd5b50346101ef576020806003193601126104355760089060043583526002815260ff82604085200154169060048152604084209060ff8254151594859301541690826111f8575b8261118d575b5060408051931515845293151560208401521515928201929092529015156060820152608090f35b6001546040516366d0ead360e01b81523060048201529293509091908290829060249082906001600160a01b03165afa9182156103ee576103bb949596926111db575b505090849392611165565b6111f19250803d106103e7576103d7818361178a565b38806111d0565b9150809161115f565b50346101ef57806003193601126101ef57602060405160038152f35b50346101ef57806003193601126101ef576001546040516001600160a01b039091168152602090f35b50346101ef5760403660031901126101ef5760ff604060209261126761166d565b6004358252600585528282206001600160a01b03909116825284522054604051911615158152f35b50346101ef57806003193601126101ef576001546040516366d0ead360e01b815230600482015290602090829060249082906001600160a01b03165afa90811561130457602092916112e7575b506040519015158152f35b6112fe9150823d81116103e7576103d7818361178a565b386112dc565b6040513d84823e3d90fd5b90503461043557604036600319011261043557600435906024908135918215158303611669576001546331a9108f60e11b808452600484018690526020936001600160a01b0392831692919085818681875afa90811561165e5761137e9184918b9161164757501615156117e3565b8688526004855260ff600860408a20015416611603578688526005855260408820338952855260ff6040892054166115cf578490846040518095819382528a60048301525afa9182156115c45787926115a5575b50163314611562575082845260048152604084209160058252604085203386528252604085209060ff199160018382541617905560001461149a5760036009840161141d815461182f565b80915560405160018152867fa256e30908fb7ff9fae4faf53e13a423f492b7cb412ce9854a158a3abb046897863393a3101561145b575b5050505080f35b600160087f84b3c050f7881730fcfa395d8218beeddeab15622a1e66227f0d632da9bda54794019182541617905560405160018152a238808080611454565b5090600a600291016114ac815461182f565b809155604051858152847fa256e30908fb7ff9fae4faf53e13a423f492b7cb412ce9854a158a3abb046897853393a310156114e657505080f35b7f84b3c050f7881730fcfa395d8218beeddeab15622a1e66227f0d632da9bda547908284526004815261155860408520600a6000918281558260018201558260028201558260038201558260048201558260058201558260068201558260078201558260088201558260098201550155565b604051848152a280f35b90601b6064926040519262461bcd60e51b845260048401528201527f43616e6e6f7420766f7465206f6e206f776e2070726f706572747900000000006044820152fd5b6115bd919250843d861161042e5761041f818361178a565b90386113d2565b6040513d89823e3d90fd5b60405162461bcd60e51b815260048101869052600d818601526c105b1c9958591e481d9bdd1959609a1b6044820152606490fd5b60405162461bcd60e51b815260048101869052601a818601527f56616c756174696f6e20616c72656164792076657269666965640000000000006044820152606490fd5b610ad19150883d8a1161042e5761041f818361178a565b6040513d8b823e3d90fd5b8480fd5b602435906001600160a01b03821682036101ea57565b979491926101409996939c9b9a9794919c6101608a019d8a5260208a015260408901526060880152608087015260a086015260c085015260e084015215156101008301526101208201520152565b80548210156116e95760005260206000200190600090565b634e487b7160e01b600052603260045260246000fd5b6000546001600160a01b0316330361171357565b606460405162461bcd60e51b815260206004820152602060248201527f4f776e61626c653a2063616c6c6572206973206e6f7420746865206f776e65726044820152fd5b610160810190811067ffffffffffffffff82111761177457604052565b634e487b7160e01b600052604160045260246000fd5b90601f8019910116810190811067ffffffffffffffff82111761177457604052565b908160209103126101ea575180151581036101ea5790565b908160209103126101ea57516001600160a01b03811681036101ea5790565b156117ea57565b60405162461bcd60e51b815260206004820152601760248201527f50726f706572747920646f6573206e6f742065786973740000000000000000006044820152606490fd5b600019811461183e5760010190565b634e487b7160e01b600052601160045260246000fd5b600060443d106118b257604051600319913d83016004833e815167ffffffffffffffff918282113d6024840111176118b5578184019485519384116118bd573d850101602084870101116118b557506118b29291016020019061178a565b90565b949350505050565b50949350505050565b60005b8381106118d95750506000910152565b81810151838201526020016118c956fea264697066735822122077adbbfa5e34e1b338a781aa73cb1bbaace48b240ea7ef583ab939243f29393e64736f6c63430008140033",
  "linkReferences": {},
  "deployedLinkReferences": {}
}