{
  "_format": "hh-sol-artifact-1",
  "contractName": "PropertyValuation",
  "sourceName": "contracts/PropertyValuation.sol",
  "abi": [
    {
      "inputs": [
        {
          "internalType": "address",
          "name": "_propertyNFTAddress",
          "type": "address"
        }
      ],
      "stateMutability": "nonpayable",
      "type": "constructor"
    },
    {
      "anonymous": false,
      "inputs": [
        {
          "indexed": true,
          "internalType": "address",
          "name": "previousOwner",
          "type": "address"
        },
        {
          "indexed": true,
          "internalType": "address",
          "name": "newOwner",
          "type": "address"
        }
      ],
      "name": "OwnershipTransferred",
      "type": "event"
    },
    {
      "anonymous": false,
      "inputs": [
        {
          "indexed": true,
          "internalType": "uint256",
          "name": "tokenId",
          "type": "uint256"
        },
        {
          "indexed": false,
          "internalType": "uint256",
          "name": "estimatedValue",
          "type": "uint256"
        },
        {
          "indexed": false,
          "internalType": "uint256",
          "name": "comparableValue",
          "type": "uint256"
        }
      ],
      "name": "ValuationSubmitted",
      "type": "event"
    },
    {
      "anonymous": false,
      "inputs": [
        {
          "indexed": true,
          "internalType": "uint256",
          "name": "tokenId",
          "type": "uint256"
        },
        {
          "indexed": false,
          "internalType": "uint256",
          "name": "estimatedValue",
          "type": "uint256"
        },
        {
          "indexed": false,
          "internalType": "uint256",
          "name": "comparableValue",
          "type": "uint256"
        }
      ],
      "name": "ValuationUpdated",
      "type": "event"
    },
    {
      "anonymous": false,
      "inputs": [
        {
          "indexed": true,
          "internalType": "uint256",
          "name": "tokenId",
          "type": "uint256"
        },
        {
          "indexed": false,
          "internalType": "bool",
          "name": "verified",
          "type": "bool"
        }
      ],
      "name": "ValuationVerified",
      "type": "event"
    },
    {
      "anonymous": false,
      "inputs": [
        {
          "indexed": true,
          "internalType": "uint256",
          "name": "tokenId",
          "type": "uint256"
        },
        {
          "indexed": true,
          "internalType": "address",
          "name": "voter",
          "type": "address"
        },
        {
          "indexed": false,
          "internalType": "bool",
          "name": "approve",
          "type": "bool"
        }
      ],
      "name": "ValuationVoteCast",
      "type": "event"
    },
    {
      "inputs": [],
      "name": "REJECTION_THRESHOLD",
      "outputs": [
        {
          "internalType": "uint256",
          "name": "",
          "type": "uint256"
        }
      ],
      "stateMutability": "view",
      "type": "function"
    },
    {
      "inputs": [],
      "name": "VERIFICATION_THRESHOLD",
      "outputs": [
        {
          "internalType": "uint256",
          "name": "",
          "type": "uint256"
        }
      ],
      "stateMutability": "view",
      "type": "function"
    },
    {
      "inputs": [
        {
          "internalType": "uint256",
          "name": "_tokenId",
          "type": "uint256"
        }
      ],
      "name": "confirmValuationUpdate",
      "outputs": [],
      "stateMutability": "nonpayable",
      "type": "function"
    },
    {
      "inputs": [
        {
          "internalType": "uint256",
          "name": "_tokenId",
          "type": "uint256"
        }
      ],
      "name": "getHistoricalValues",
      "outputs": [
        {
          "internalType": "uint256[]",
          "name": "",
          "type": "uint256[]"
        }
      ],
      "stateMutability": "view",
      "type": "function"
    },
    {
      "inputs": [
        {
          "internalType": "uint256",
          "name": "propertyId",
          "type": "uint256"
        }
      ],
      "name": "getPendingValuation",
      "outputs": [
        {
          "components": [
            {
              "internalType": "uint256",
              "name": "estimatedValue",
              "type": "uint256"
            },
            {
              "internalType": "uint256",
              "name": "comparableValue",
              "type": "uint256"
            },
            {
              "internalType": "uint256",
              "name": "lastUpdated",
              "type": "uint256"
            },
            {
              "internalType": "uint256",
              "name": "locationScore",
              "type": "uint256"
            },
            {
              "internalType": "uint256",
              "name": "sizeScore",
              "type": "uint256"
            },
            {
              "internalType": "uint256",
              "name": "conditionScore",
              "type": "uint256"
            },
            {
              "internalType": "uint256",
              "name": "ageScore",
              "type": "uint256"
            },
            {
              "internalType": "uint256",
              "name": "renovationScore",
              "type": "uint256"
            },
            {
              "internalType": "bool",
              "name": "isVerified",
              "type": "bool"
            },
            {
              "internalType": "uint256",
              "name": "verificationVotes",
              "type": "uint256"
            },
            {
              "internalType": "uint256",
              "name": "rejectionVotes",
              "type": "uint256"
            }
          ],
          "internalType": "struct PropertyValuation.Valuation",
          "name": "",
          "type": "tuple"
        }
      ],
      "stateMutability": "view",
      "type": "function"
    },
    {
      "inputs": [
        {
          "internalType": "uint256",
          "name": "_tokenId",
          "type": "uint256"
        }
      ],
      "name": "getValuation",
      "outputs": [
        {
          "internalType": "uint256",
          "name": "estimatedValue",
          "type": "uint256"
        },
        {
          "internalType": "uint256",
          "name": "comparableValue",
          "type": "uint256"
        },
        {
          "internalType": "uint256",
          "name": "lastUpdated",
          "type": "uint256"
        },
        {
          "internalType": "uint256",
          "name": "locationScore",
          "type": "uint256"
        },
        {
          "internalType": "uint256",
          "name": "sizeScore",
          "type": "uint256"
        },
        {
          "internalType": "uint256",
          "name": "conditionScore",
          "type": "uint256"
        },
        {
          "internalType": "uint256",
          "name": "ageScore",
          "type": "uint256"
        },
        {
          "internalType": "uint256",
          "name": "renovationScore",
          "type": "uint256"
        },
        {
          "internalType": "bool",
          "name": "isVerified",
          "type": "bool"
        },
        {
          "internalType": "uint256",
          "name": "verificationVotes",
          "type": "uint256"
        },
        {
          "internalType": "uint256",
          "name": "rejectionVotes",
          "type": "uint256"
        }
      ],
      "stateMutability": "view",
      "type": "function"
    },
    {
      "inputs": [
        {
          "internalType": "uint256",
          "name": "_tokenId",
          "type": "uint256"
        },
        {
          "internalType": "address",
          "name": "_user",
          "type": "address"
        }
      ],
      "name": "hasUserVoted",
      "outputs": [
        {
          "internalType": "bool",
          "name": "",
          "type": "bool"
        }
      ],
      "stateMutability": "view",
      "type": "function"
    },
    {
      "inputs": [
        {
          "internalType": "uint256",
          "name": "",
          "type": "uint256"
        },
        {
          "internalType": "uint256",
          "name": "",
          "type": "uint256"
        }
      ],
      "name": "historicalValues",
      "outputs": [
        {
          "internalType": "uint256",
          "name": "",
          "type": "uint256"
        }
      ],
      "stateMutability": "view",
      "type": "function"
    },
    {
      "inputs": [],
      "name": "owner",
      "outputs": [
        {
          "internalType": "address",
          "name": "",
          "type": "address"
        }
      ],
      "stateMutability": "view",
      "type": "function"
    },
    {
      "inputs": [
        {
          "internalType": "uint256",
          "name": "",
          "type": "uint256"
        },
        {
          "internalType": "address",
          "name": "",
          "type": "address"
        }
      ],
      "name": "pendingValuationVotes",
      "outputs": [
        {
          "internalType": "bool",
          "name": "",
          "type": "bool"
        }
      ],
      "stateMutability": "view",
      "type": "function"
    },
    {
      "inputs": [
        {
          "internalType": "uint256",
          "name": "",
          "type": "uint256"
        }
      ],
      "name": "pendingValuations",
      "outputs": [
        {
          "internalType": "uint256",
          "name": "estimatedValue",
          "type": "uint256"
        },
        {
          "internalType": "uint256",
          "name": "comparableValue",
          "type": "uint256"
        },
        {
          "internalType": "uint256",
          "name": "lastUpdated",
          "type": "uint256"
        },
        {
          "internalType": "uint256",
          "name": "locationScore",
          "type": "uint256"
        },
        {
          "internalType": "uint256",
          "name": "sizeScore",
          "type": "uint256"
        },
        {
          "internalType": "uint256",
          "name": "conditionScore",
          "type": "uint256"
        },
        {
          "internalType": "uint256",
          "name": "ageScore",
          "type": "uint256"
        },
        {
          "internalType": "uint256",
          "name": "renovationScore",
          "type": "uint256"
        },
        {
          "internalType": "bool",
          "name": "isVerified",
          "type": "bool"
        },
        {
          "internalType": "uint256",
          "name": "verificationVotes",
          "type": "uint256"
        },
        {
          "internalType": "uint256",
          "name": "rejectionVotes",
          "type": "uint256"
        }
      ],
      "stateMutability": "view",
      "type": "function"
    },
    {
      "inputs": [],
      "name": "propertyNFT",
      "outputs": [
        {
          "internalType": "contract PropertyNFT",
          "name": "",
          "type": "address"
        }
      ],
      "stateMutability": "view",
      "type": "function"
    },
    {
      "inputs": [],
      "name": "renounceOwnership",
      "outputs": [],
      "stateMutability": "nonpayable",
      "type": "function"
    },
    {
      "inputs": [
        {
          "internalType": "uint256",
          "name": "_tokenId",
          "type": "uint256"
        },
        {
          "internalType": "uint256",
          "name": "_estimatedValue",
          "type": "uint256"
        },
        {
          "internalType": "uint256",
          "name": "_comparableValue",
          "type": "uint256"
        },
        {
          "internalType": "uint256",
          "name": "_locationScore",
          "type": "uint256"
        },
        {
          "internalType": "uint256",
          "name": "_sizeScore",
          "type": "uint256"
        },
        {
          "internalType": "uint256",
          "name": "_conditionScore",
          "type": "uint256"
        },
        {
          "internalType": "uint256",
          "name": "_ageScore",
          "type": "uint256"
        },
        {
          "internalType": "uint256",
          "name": "_renovationScore",
          "type": "uint256"
        }
      ],
      "name": "submitValuation",
      "outputs": [],
      "stateMutability": "nonpayable",
      "type": "function"
    },
    {
      "inputs": [
        {
          "internalType": "address",
          "name": "newOwner",
          "type": "address"
        }
      ],
      "name": "transferOwnership",
      "outputs": [],
      "stateMutability": "nonpayable",
      "type": "function"
    },
    {
      "inputs": [
        {
          "internalType": "uint256",
          "name": "",
          "type": "uint256"
        }
      ],
      "name": "valuations",
      "outputs": [
        {
          "internalType": "uint256",
          "name": "estimatedValue",
          "type": "uint256"
        },
        {
          "internalType": "uint256",
          "name": "comparableValue",
          "type": "uint256"
        },
        {
          "internalType": "uint256",
          "name": "lastUpdated",
          "type": "uint256"
        },
        {
          "internalType": "uint256",
          "name": "locationScore",
          "type": "uint256"
        },
        {
          "internalType": "uint256",
          "name": "sizeScore",
          "type": "uint256"
        },
        {
          "internalType": "uint256",
          "name": "conditionScore",
          "type": "uint256"
        },
        {
          "internalType": "uint256",
          "name": "ageScore",
          "type": "uint256"
        },
        {
          "internalType": "uint256",
          "name": "renovationScore",
          "type": "uint256"
        },
        {
          "internalType": "bool",
          "name": "isVerified",
          "type": "bool"
        },
        {
          "internalType": "uint256",
          "name": "verificationVotes",
          "type": "uint256"
        },
        {
          "internalType": "uint256",
          "name": "rejectionVotes",
          "type": "uint256"
        }
      ],
      "stateMutability": "view",
      "type": "function"
    },
    {
      "inputs": [
        {
          "internalType": "uint256",
          "name": "_tokenId",
          "type": "uint256"
        },
        {
          "internalType": "bool",
          "name": "_approve",
          "type": "bool"
        }
      ],
      "name": "voteOnValuation",
      "outputs": [],
      "stateMutability": "nonpayable",
      "type": "function"
    }
  ],
  "bytecode": "0x608060405234801561001057600080fd5b5060405161145338038061145383398101604081905261002f916100ca565b610051610043640100000000610076810204565b64010000000061007a810204565b60018054600160a060020a031916600160a060020a03929092169190911790556100fa565b3390565b60008054600160a060020a03838116600160a060020a0319831681178455604051919092169283917f8be0079c531659141344cd1fd0a4f28419497f9722a3daafe3b4186f6b6457e09190a35050565b6000602082840312156100dc57600080fd5b8151600160a060020a03811681146100f357600080fd5b9392505050565b61134a806101096000396000f3fe608060405234801561001057600080fd5b5060043610610128576000357c010000000000000000000000000000000000000000000000000000000090048063715018a6116100bf578063974d5d101161008e578063974d5d10146103bb578063dc296ae1146103db578063dfdea26514610418578063e2b4a70c14610420578063f2fde38b1461043357600080fd5b8063715018a61461036f57806378f5c887146103775780638bdcc1f91461038a5780638da5cb5b146103aa57600080fd5b80633f53b43f116100fb5780633f53b43f146102705780635770d1d9146102865780635d03d83e1461029957806360767a361461030457600080fd5b80630aa63ad41461012d5780631920a67d1461014257806337f76838146101855780633bd18a3b146101b0575b600080fd5b61014061013b3660046110ca565b610446565b005b610170610150366004611114565b600560209081526000928352604080842090915290825290205460ff1681565b60405190151581526020015b60405180910390f35b60015461019890600160a060020a031681565b604051600160a060020a03909116815260200161017c565b61021b6101be366004611139565b600090815260026020819052604090912080546001820154928201546003830154600484015460058501546006860154600787015460088801546009890154600a90990154979a96989597949693959294919360ff909116929190565b604080519b8c5260208c019a909a52988a01979097526060890195909552608088019390935260a087019190915260c086015260e085015215156101008401526101208301526101408201526101600161017c565b610278600381565b60405190815260200161017c565b610140610294366004611139565b61087c565b61021b6102a7366004611139565b600260208190526000918252604090912080546001820154928201546003830154600484015460058501546006860154600787015460088801546009890154600a9099015497999896979596949593949293919260ff909116918b565b61021b610312366004611139565b600460208190526000918252604090912080546001820154600283015460038401549484015460058501546006860154600787015460088801546009890154600a90990154979996989597949593949293919260ff90911691908b565b610140610af2565b610140610385366004611152565b610b06565b61039d610398366004611139565b610df8565b60405161017c91906111a7565b600054600160a060020a0316610198565b6103ce6103c9366004611139565b610eea565b60405161017c919061122d565b6101706103e9366004611114565b6000828152600260209081526040808320600160a060020a0385168452600b0190915290205460ff1692915050565b610278600281565b61027861042e366004611271565b610f4c565b610140610441366004611293565b610f7d565b60015460405160e160020a6331a9108f02815260048101849052600091600160a060020a031690636352211e90602401602060405180830381865afa158015610493573d6000803e3d6000fd5b505050506040513d601f19601f820116820180604052508101906104b791906112b7565b600160a060020a0316036105155760405160e560020a62461bcd02815260206004820152601760248201527f50726f706572747920646f6573206e6f7420657869737400000000000000000060448201526064015b60405180910390fd5b60008281526004602052604090206008015460ff161561057a5760405160e560020a62461bcd02815260206004820152601a60248201527f56616c756174696f6e20616c7265616479207665726966696564000000000000604482015260640161050c565b600082815260056020908152604080832033845290915290205460ff16156105e75760405160e560020a62461bcd02815260206004820152600d60248201527f416c726561647920766f74656400000000000000000000000000000000000000604482015260640161050c565b60015460405160e160020a6331a9108f028152600481018490523391600160a060020a031690636352211e90602401602060405180830381865afa158015610633573d6000803e3d6000fd5b505050506040513d601f19601f8201168201806040525081019061065791906112b7565b600160a060020a0316036106b05760405160e560020a62461bcd02815260206004820152601b60248201527f43616e6e6f7420766f7465206f6e206f776e2070726f70657274790000000000604482015260640161050c565b600082815260046020908152604080832060058352818420338552909252909120805460ff19166001179055811561078b576009810180549060006106f4836112d4565b909155505060405160018152339084907fa256e30908fb7ff9fae4faf53e13a423f492b7cb412ce9854a158a3abb0468979060200160405180910390a360038160090154106107865760088101805460ff1916600190811790915560405190815283907f84b3c050f7881730fcfa395d8218beeddeab15622a1e66227f0d632da9bda547906020015b60405180910390a25b505050565b600a8101805490600061079d836112d4565b909155505060405160008152339084907fa256e30908fb7ff9fae4faf53e13a423f492b7cb412ce9854a158a3abb0468979060200160405180910390a3600281600a01541061078657600083815260046020818152604080842084815560018101859055600281018590556003810185905592830184905560058301849055600683018490556007830184905560088301805460ff1916905560098301849055600a909201839055905191825284917f84b3c050f7881730fcfa395d8218beeddeab15622a1e66227f0d632da9bda547910160405180910390a2505050565b60015460405160e160020a6331a9108f028152600481018390523391600160a060020a031690636352211e90602401602060405180830381865afa1580156108c8573d6000803e3d6000fd5b505050506040513d601f19601f820116820180604052508101906108ec91906112b7565b600160a060020a0316146109455760405160e560020a62461bcd02815260206004820152601260248201527f4e6f742070726f7065727479206f776e65720000000000000000000000000000604482015260640161050c565b60008181526004602052604090206008015460ff166109a95760405160e560020a62461bcd02815260206004820152601660248201527f56616c756174696f6e206e6f7420766572696669656400000000000000000000604482015260640161050c565b6000818152600460208190526040918290208054600191820154915493517f9b7c4b4b00000000000000000000000000000000000000000000000000000000815292830185905260248301819052929091600160a060020a0390911690639b7c4b4b90604401600060405180830381600087803b158015610a2957600080fd5b505af1158015610a3d573d6000803e3d6000fd5b50505060008481526003602081815260408084208054600180820183559186528386200188905588855260048084528286208681559182018690556002820186905593810185905592830184905560058301849055600683018490556007830184905560088301805460ff1916905560098301849055600a9092019290925580518581529182018490528592507fdd9c5b684ac908e56b235f477f4fbd037117f994e48c60f5700009c106c9a681910161077d565b610afa611010565b610b04600061106d565b565b60015460405160e160020a6331a9108f028152600481018a9052600091600160a060020a031690636352211e90602401602060405180830381865afa158015610b53573d6000803e3d6000fd5b505050506040513d601f19601f82011682018060405250810190610b7791906112b7565b600160a060020a031603610bd05760405160e560020a62461bcd02815260206004820152601760248201527f50726f706572747920646f6573206e6f74206578697374000000000000000000604482015260640161050c565b60015460405160e160020a6331a9108f028152600481018a90523391600160a060020a031690636352211e90602401602060405180830381865afa158015610c1c573d6000803e3d6000fd5b505050506040513d601f19601f82011682018060405250810190610c4091906112b7565b600160a060020a03161480610c6e575033610c63600054600160a060020a031690565b600160a060020a0316145b610cbd5760405160e560020a62461bcd02815260206004820152600e60248201527f4e6f7420617574686f72697a6564000000000000000000000000000000000000604482015260640161050c565b604051806101600160405280888152602001878152602001428152602001868152602001858152602001848152602001838152602001828152602001600015158152602001600081526020016000815250600460008a8152602001908152602001600020600082015181600001556020820151816001015560408201518160020155606082015181600301556080820151816004015560a0820151816005015560c0820151816006015560e082015181600701556101008201518160080160006101000a81548160ff021916908315150217905550610120820151816009015561014082015181600a0155905050877f4355f180719c91f4f06494335f14fbd63c0602c4aa06e75378c4a67ec11d5af28888604051610de6929190918252602082015260400190565b60405180910390a25050505050505050565b610e57604051806101600160405280600081526020016000815260200160008152602001600081526020016000815260200160008152602001600081526020016000815260200160001515815260200160008152602001600081525090565b506000908152600460208181526040928390208351610160810185528154815260018201549281019290925260028101549382019390935260038301546060820152908201546080820152600582015460a0820152600682015460c0820152600782015460e0820152600882015460ff1615156101008201526009820154610120820152600a9091015461014082015290565b600081815260036020908152604091829020805483518184028101840190945280845260609392830182828015610f4057602002820191906000526020600020905b815481526020019060010190808311610f2c575b50505050509050919050565b60036020528160005260406000208181548110610f6857600080fd5b90600052602060002001600091509150505481565b610f85611010565b600160a060020a0381166110045760405160e560020a62461bcd02815260206004820152602660248201527f4f776e61626c653a206e6577206f776e657220697320746865207a65726f206160448201527f6464726573730000000000000000000000000000000000000000000000000000606482015260840161050c565b61100d8161106d565b50565b600054600160a060020a03163314610b045760405160e560020a62461bcd02815260206004820181905260248201527f4f776e61626c653a2063616c6c6572206973206e6f7420746865206f776e6572604482015260640161050c565b60008054600160a060020a0383811673ffffffffffffffffffffffffffffffffffffffff19831681178455604051919092169283917f8be0079c531659141344cd1fd0a4f28419497f9722a3daafe3b4186f6b6457e09190a35050565b600080604083850312156110dd57600080fd5b82359150602083013580151581146110f457600080fd5b809150509250929050565b600160a060020a038116811461100d57600080fd5b6000806040838503121561112757600080fd5b8235915060208301356110f4816110ff565b60006020828403121561114b57600080fd5b5035919050565b600080600080600080600080610100898b03121561116f57600080fd5b505086359860208801359850604088013597606081013597506080810135965060a0810135955060c0810135945060e0013592509050565b600061016082019050825182526020830151602083015260408301516040830152606083015160608301526080830151608083015260a083015160a083015260c083015160c083015260e083015160e08301526101008084015161120e8285018215159052565b5050610120838101519083015261014092830151929091019190915290565b6020808252825182820181905260009190848201906040850190845b8181101561126557835183529284019291840191600101611249565b50909695505050505050565b6000806040838503121561128457600080fd5b50508035926020909101359150565b6000602082840312156112a557600080fd5b81356112b0816110ff565b9392505050565b6000602082840312156112c957600080fd5b81516112b0816110ff565b60006001820161130d577f4e487b7100000000000000000000000000000000000000000000000000000000600052601160045260246000fd5b506001019056fea2646970667358221220580af699e9641d8db5326cf7e6d369b4e6c836083c623402ee303cdf722569cf64736f6c63430008140033",
  "linkReferences": {},
  "deployedLinkReferences": {}
}