{
  "contractName": "PropertyNFT",
  "abi": [
    {
      "inputs": [],
      "stateMutability": "nonpayable",
      "type": "constructor"
    },
    {
      "anonymous": false,
      "inputs": [
        {
          "indexed": true,
          "internalType": "address",
          "name": "owner",
          "type": "address"
        },
        {
          "indexed": true,
          "internalType": "address",
          "name": "approved",
          "type": "address"
        },
        {
          "indexed": true,
          "internalType": "uint256",
          "name": "tokenId",
          "type": "uint256"
        }
      ],
      "name": "Approval",
      "type": "event"
    },
    {
      "anonymous": false,
      "inputs": [
        {
          "indexed": true,
          "internalType": "address",
          "name": "owner",
          "type": "address"
        },
        {
          "indexed": true,
          "internalType": "address",
          "name": "operator",
          "type": "address"
        },
        {
          "indexed": false,
          "internalType": "bool",
          "name": "approved",
          "type": "bool"
        }
      ],
      "name": "ApprovalForAll",
      "type": "event"
    },
    {
      "anonymous": false,
      "inputs": [
        {
          "indexed": false,
          "internalType": "uint256",
          "name": "_fromTokenId",
          "type": "uint256"
        },
        {
          "indexed": false,
          "internalType": "uint256",
          "name": "_toTokenId",
          "type": "uint256"
        }
      ],
      "name": "BatchMetadataUpdate",
      "type": "event"
    },
    {
      "anonymous": false,
      "inputs": [
        {
          "indexed": false,
          "internalType": "uint256",
          "name": "_tokenId",
          "type": "uint256"
        }
      ],
      "name": "MetadataUpdate",
      "type": "event"
    },
    {
      "anonymous": false,
      "inputs": [
        {
          "indexed": true,
          "internalType": "address",
          "name": "previousOwner",
          "type": "address"
        },
        {
          "indexed": true,
          "internalType": "address",
          "name": "newOwner",
          "type": "address"
        }
      ],
      "name": "OwnershipTransferred",
      "type": "event"
    },
    {
      "anonymous": false,
      "inputs": [
        {
          "indexed": true,
          "internalType": "uint256",
          "name": "tokenId",
          "type": "uint256"
        },
        {
          "indexed": false,
          "internalType": "string",
          "name": "propertyAddress",
          "type": "string"
        },
        {
          "indexed": false,
          "internalType": "string",
          "name": "ownerName",
          "type": "string"
        },
        {
          "indexed": true,
          "internalType": "address",
          "name": "submitter",
          "type": "address"
        }
      ],
      "name": "PropertySubmitted",
      "type": "event"
    },
    {
      "anonymous": false,
      "inputs": [
        {
          "indexed": true,
          "internalType": "uint256",
          "name": "tokenId",
          "type": "uint256"
        },
        {
          "indexed": false,
          "internalType": "uint256",
          "name": "newValue",
          "type": "uint256"
        }
      ],
      "name": "PropertyValueUpdated",
      "type": "event"
    },
    {
      "anonymous": false,
      "inputs": [
        {
          "indexed": true,
          "internalType": "uint256",
          "name": "tokenId",
          "type": "uint256"
        },
        {
          "indexed": false,
          "internalType": "bool",
          "name": "verified",
          "type": "bool"
        }
      ],
      "name": "PropertyVerified",
      "type": "event"
    },
    {
      "anonymous": false,
      "inputs": [
        {
          "indexed": true,
          "internalType": "address",
          "name": "from",
          "type": "address"
        },
        {
          "indexed": true,
          "internalType": "address",
          "name": "to",
          "type": "address"
        },
        {
          "indexed": true,
          "internalType": "uint256",
          "name": "tokenId",
          "type": "uint256"
        }
      ],
      "name": "Transfer",
      "type": "event"
    },
    {
      "anonymous": false,
      "inputs": [
        {
          "indexed": true,
          "internalType": "uint256",
          "name": "tokenId",
          "type": "uint256"
        },
        {
          "indexed": true,
          "internalType": "address",
          "name": "voter",
          "type": "address"
        },
        {
          "indexed": false,
          "internalType": "bool",
          "name": "approve",
          "type": "bool"
        }
      ],
      "name": "VoteCast",
      "type": "event"
    },
    {
      "inputs": [],
      "name": "REJECTION_THRESHOLD",
      "outputs": [
        {
          "internalType": "uint256",
          "name": "",
          "type": "uint256"
        }
      ],
      "stateMutability": "view",
      "type": "function",
      "constant": true
    },
    {
      "inputs": [],
      "name": "VERIFICATION_THRESHOLD",
      "outputs": [
        {
          "internalType": "uint256",
          "name": "",
          "type": "uint256"
        }
      ],
      "stateMutability": "view",
      "type": "function",
      "constant": true
    },
    {
      "inputs": [
        {
          "internalType": "string",
          "name": "",
          "type": "string"
        }
      ],
      "name": "addressExists",
      "outputs": [
        {
          "internalType": "bool",
          "name": "",
          "type": "bool"
        }
      ],
      "stateMutability": "view",
      "type": "function",
      "constant": true
    },
    {
      "inputs": [
        {
          "internalType": "address",
          "name": "to",
          "type": "address"
        },
        {
          "internalType": "uint256",
          "name": "tokenId",
          "type": "uint256"
        }
      ],
      "name": "approve",
      "outputs": [],
      "stateMutability": "nonpayable",
      "type": "function"
    },
    {
      "inputs": [
        {
          "internalType": "address",
          "name": "owner",
          "type": "address"
        }
      ],
      "name": "balanceOf",
      "outputs": [
        {
          "internalType": "uint256",
          "name": "",
          "type": "uint256"
        }
      ],
      "stateMutability": "view",
      "type": "function",
      "constant": true
    },
    {
      "inputs": [
        {
          "internalType": "uint256",
          "name": "tokenId",
          "type": "uint256"
        }
      ],
      "name": "getApproved",
      "outputs": [
        {
          "internalType": "address",
          "name": "",
          "type": "address"
        }
      ],
      "stateMutability": "view",
      "type": "function",
      "constant": true
    },
    {
      "inputs": [
        {
          "internalType": "address",
          "name": "owner",
          "type": "address"
        },
        {
          "internalType": "address",
          "name": "operator",
          "type": "address"
        }
      ],
      "name": "isApprovedForAll",
      "outputs": [
        {
          "internalType": "bool",
          "name": "",
          "type": "bool"
        }
      ],
      "stateMutability": "view",
      "type": "function",
      "constant": true
    },
    {
      "inputs": [],
      "name": "name",
      "outputs": [
        {
          "internalType": "string",
          "name": "",
          "type": "string"
        }
      ],
      "stateMutability": "view",
      "type": "function",
      "constant": true
    },
    {
      "inputs": [],
      "name": "owner",
      "outputs": [
        {
          "internalType": "address",
          "name": "",
          "type": "address"
        }
      ],
      "stateMutability": "view",
      "type": "function",
      "constant": true
    },
    {
      "inputs": [
        {
          "internalType": "uint256",
          "name": "tokenId",
          "type": "uint256"
        }
      ],
      "name": "ownerOf",
      "outputs": [
        {
          "internalType": "address",
          "name": "",
          "type": "address"
        }
      ],
      "stateMutability": "view",
      "type": "function",
      "constant": true
    },
    {
      "inputs": [
        {
          "internalType": "address",
          "name": "",
          "type": "address"
        },
        {
          "internalType": "uint256",
          "name": "",
          "type": "uint256"
        }
      ],
      "name": "ownerProperties",
      "outputs": [
        {
          "internalType": "uint256",
          "name": "",
          "type": "uint256"
        }
      ],
      "stateMutability": "view",
      "type": "function",
      "constant": true
    },
    {
      "inputs": [
        {
          "internalType": "uint256",
          "name": "",
          "type": "uint256"
        }
      ],
      "name": "properties",
      "outputs": [
        {
          "internalType": "string",
          "name": "propertyAddress",
          "type": "string"
        },
        {
          "internalType": "string",
          "name": "ownerName",
          "type": "string"
        },
        {
          "internalType": "string",
          "name": "propertyType",
          "type": "string"
        },
        {
          "internalType": "uint256",
          "name": "renovationDate",
          "type": "uint256"
        },
        {
          "internalType": "string",
          "name": "imageURI",
          "type": "string"
        },
        {
          "internalType": "int256",
          "name": "latitude",
          "type": "int256"
        },
        {
          "internalType": "int256",
          "name": "longitude",
          "type": "int256"
        },
        {
          "internalType": "bool",
          "name": "isVerified",
          "type": "bool"
        },
        {
          "internalType": "uint256",
          "name": "estimatedValue",
          "type": "uint256"
        },
        {
          "internalType": "uint256",
          "name": "verificationVotes",
          "type": "uint256"
        },
        {
          "internalType": "uint256",
          "name": "rejectionVotes",
          "type": "uint256"
        }
      ],
      "stateMutability": "view",
      "type": "function",
      "constant": true
    },
    {
      "inputs": [],
      "name": "renounceOwnership",
      "outputs": [],
      "stateMutability": "nonpayable",
      "type": "function"
    },
    {
      "inputs": [
        {
          "internalType": "address",
          "name": "operator",
          "type": "address"
        },
        {
          "internalType": "bool",
          "name": "approved",
          "type": "bool"
        }
      ],
      "name": "setApprovalForAll",
      "outputs": [],
      "stateMutability": "nonpayable",
      "type": "function"
    },
    {
      "inputs": [],
      "name": "symbol",
      "outputs": [
        {
          "internalType": "string",
          "name": "",
          "type": "string"
        }
      ],
      "stateMutability": "view",
      "type": "function",
      "constant": true
    },
    {
      "inputs": [
        {
          "internalType": "address",
          "name": "newOwner",
          "type": "address"
        }
      ],
      "name": "transferOwnership",
      "outputs": [],
      "stateMutability": "nonpayable",
      "type": "function"
    },
    {
      "inputs": [
        {
          "internalType": "string",
          "name": "_propertyAddress",
          "type": "string"
        },
        {
          "internalType": "string",
          "name": "_ownerName",
          "type": "string"
        },
        {
          "internalType": "string",
          "name": "_propertyType",
          "type": "string"
        },
        {
          "internalType": "uint256",
          "name": "_renovationDate",
          "type": "uint256"
        },
        {
          "internalType": "string",
          "name": "_imageURI",
          "type": "string"
        },
        {
          "internalType": "int256",
          "name": "_latitude",
          "type": "int256"
        },
        {
          "internalType": "int256",
          "name": "_longitude",
          "type": "int256"
        }
      ],
      "name": "submitProperty",
      "outputs": [
        {
          "internalType": "uint256",
          "name": "",
          "type": "uint256"
        }
      ],
      "stateMutability": "nonpayable",
      "type": "function"
    },
    {
      "inputs": [
        {
          "internalType": "uint256",
          "name": "_tokenId",
          "type": "uint256"
        },
        {
          "internalType": "bool",
          "name": "_approve",
          "type": "bool"
        }
      ],
      "name": "voteOnProperty",
      "outputs": [],
      "stateMutability": "nonpayable",
      "type": "function"
    },
    {
      "inputs": [
        {
          "internalType": "uint256",
          "name": "_tokenId",
          "type": "uint256"
        },
        {
          "internalType": "uint256",
          "name": "_newValue",
          "type": "uint256"
        }
      ],
      "name": "updatePropertyValue",
      "outputs": [],
      "stateMutability": "nonpayable",
      "type": "function"
    },
    {
      "inputs": [
        {
          "internalType": "uint256",
          "name": "_tokenId",
          "type": "uint256"
        }
      ],
      "name": "getProperty",
      "outputs": [
        {
          "internalType": "string",
          "name": "propertyAddress",
          "type": "string"
        },
        {
          "internalType": "string",
          "name": "ownerName",
          "type": "string"
        },
        {
          "internalType": "string",
          "name": "propertyType",
          "type": "string"
        },
        {
          "internalType": "uint256",
          "name": "renovationDate",
          "type": "uint256"
        },
        {
          "internalType": "string",
          "name": "imageURI",
          "type": "string"
        },
        {
          "internalType": "int256",
          "name": "latitude",
          "type": "int256"
        },
        {
          "internalType": "int256",
          "name": "longitude",
          "type": "int256"
        },
        {
          "internalType": "bool",
          "name": "isVerified",
          "type": "bool"
        },
        {
          "internalType": "uint256",
          "name": "estimatedValue",
          "type": "uint256"
        },
        {
          "internalType": "uint256",
          "name": "verificationVotes",
          "type": "uint256"
        },
        {
          "internalType": "uint256",
          "name": "rejectionVotes",
          "type": "uint256"
        }
      ],
      "stateMutability": "view",
      "type": "function",
      "constant": true
    },
    {
      "inputs": [
        {
          "internalType": "address",
          "name": "_owner",
          "type": "address"
        }
      ],
      "name": "getOwnerProperties",
      "outputs": [
        {
          "internalType": "uint256[]",
          "name": "",
          "type": "uint256[]"
        }
      ],
      "stateMutability": "view",
      "type": "function",
      "constant": true
    },
    {
      "inputs": [
        {
          "internalType": "uint256",
          "name": "_tokenId",
          "type": "uint256"
        },
        {
          "internalType": "address",
          "name": "_user",
          "type": "address"
        }
      ],
      "name": "hasUserVoted",
      "outputs": [
        {
          "internalType": "bool",
          "name": "",
          "type": "bool"
        }
      ],
      "stateMutability": "view",
      "type": "function",
      "constant": true
    },
    {
      "inputs": [],
      "name": "getTotalProperties",
      "outputs": [
        {
          "internalType": "uint256",
          "name": "",
          "type": "uint256"
        }
      ],
      "stateMutability": "view",
      "type": "function",
      "constant": true
    },
    {
      "inputs": [],
      "name": "getUnverifiedProperties",
      "outputs": [
        {
          "internalType": "uint256[]",
          "name": "",
          "type": "uint256[]"
        }
      ],
      "stateMutability": "view",
      "type": "function",
      "constant": true
    },
    {
      "inputs": [
        {
          "internalType": "address",
          "name": "from",
          "type": "address"
        },
        {
          "internalType": "address",
          "name": "to",
          "type": "address"
        },
        {
          "internalType": "uint256",
          "name": "tokenId",
          "type": "uint256"
        }
      ],
      "name": "transferFrom",
      "outputs": [],
      "stateMutability": "nonpayable",
      "type": "function"
    },
    {
      "inputs": [
        {
          "internalType": "address",
          "name": "from",
          "type": "address"
        },
        {
          "internalType": "address",
          "name": "to",
          "type": "address"
        },
        {
          "internalType": "uint256",
          "name": "tokenId",
          "type": "uint256"
        }
      ],
      "name": "safeTransferFrom",
      "outputs": [],
      "stateMutability": "nonpayable",
      "type": "function"
    },
    {
      "inputs": [
        {
          "internalType": "address",
          "name": "from",
          "type": "address"
        },
        {
          "internalType": "address",
          "name": "to",
          "type": "address"
        },
        {
          "internalType": "uint256",
          "name": "tokenId",
          "type": "uint256"
        },
        {
          "internalType": "bytes",
          "name": "data",
          "type": "bytes"
        }
      ],
      "name": "safeTransferFrom",
      "outputs": [],
      "stateMutability": "nonpayable",
      "type": "function"
    },
    {
      "inputs": [
        {
          "internalType": "uint256",
          "name": "tokenId",
          "type": "uint256"
        }
      ],
      "name": "tokenURI",
      "outputs": [
        {
          "internalType": "string",
          "name": "",
          "type": "string"
        }
      ],
      "stateMutability": "view",
      "type": "function",
      "constant": true
    },
    {
      "inputs": [
        {
          "internalType": "bytes4",
          "name": "interfaceId",
          "type": "bytes4"
        }
      ],
      "name": "supportsInterface",
      "outputs": [
        {
          "internalType": "bool",
          "name": "",
          "type": "bool"
        }
      ],
      "stateMutability": "view",
      "type": "function",
      "constant": true
    }
  ],
  "bytecode": "0x60806040523480156200001157600080fd5b506040518060400160405280600b81526020017f50726f70657274794e46540000000000000000000000000000000000000000008152506040518060400160405280600481526020017f50524f500000000000000000000000000000000000000000000000000000000081525081600090816200008f919062000205565b5060016200009e828262000205565b505050620000cd620000be620000d8640100000000026401000000009004565b640100000000620000dc810204565b6001600855620002d8565b3390565b60078054600160a060020a03838116600160a060020a0319831681179093556040519116919082907f8be0079c531659141344cd1fd0a4f28419497f9722a3daafe3b4186f6b6457e090600090a35050565b7f4e487b7100000000000000000000000000000000000000000000000000000000600052604160045260246000fd5b6002810460018216806200017257607f821691505b602082108103620001ac577f4e487b7100000000000000000000000000000000000000000000000000000000600052602260045260246000fd5b50919050565b601f82111562000200576000818152602081206020601f86010481016020861015620001db5750805b6020601f860104820191505b81811015620001fc57828155600101620001e7565b5050505b505050565b815167ffffffffffffffff8111156200022257620002226200012e565b6200023a816200023384546200015d565b84620001b2565b602080601f831160018114620002765760008415620002595750858301515b60028086026008870290910a6000190419821617865550620001fc565b600085815260208120601f198616915b82811015620002a75788860151825594840194600190910190840162000286565b5085821015620002c857878501516008601f88160260020a60001904191681555b5050505050600202600101905550565b612ebb80620002e86000396000f3fe608060405234801561001057600080fd5b50600436106101ec576000357c010000000000000000000000000000000000000000000000000000000090048063715018a611610121578063b88d4fde116100bf578063dfdea2651161008e578063dfdea26514610411578063e985e9c514610419578063f2fde38b14610455578063f7b108081461046857600080fd5b8063b88d4fde146103c5578063c87b56dd146103d8578063cb644897146103eb578063dc296ae1146103fe57600080fd5b80638f48bd5b116100fb5780638f48bd5b1461038457806395d89b41146103975780639b7c4b4b1461039f578063a22cb465146103b257600080fd5b8063715018a61461033d57806388f5ab9f146103455780638da5cb5b1461037357600080fd5b806323b872dd1161018e57806342842e0e1161016857806342842e0e146102ef578063600805ca146103025780636352211e1461031757806370a082311461032a57600080fd5b806323b872dd146102aa57806332665ffb146102bd5780633f53b43f146102e757600080fd5b8063095ea7b3116101ca578063095ea7b3146102595780630af441081461026e578063179cd7561461028157806317aaf5ed146102a257600080fd5b806301ffc9a7146101f157806306fdde0314610219578063081812fc1461022e575b600080fd5b6102046101ff366004612595565b61047b565b60405190151581526020015b60405180910390f35b61022161048c565b6040516102109190612602565b61024161023c366004612615565b61051e565b604051600160a060020a039091168152602001610210565b61026c61026736600461264a565b610545565b005b61026c61027c366004612684565b610681565b61029461028f36600461275f565b610946565b604051908152602001610210565b610294610bac565b61026c6102b8366004612829565b610bbc565b6102d06102cb366004612615565b610cc4565b6040516102109b9a99989796959493929190612865565b610294600381565b61026c6102fd366004612829565b610fab565b61030a610fc6565b60405161021091906128f4565b610241610325366004612615565b611144565b610294610338366004612938565b6111ac565b61026c611249565b610204610353366004612953565b8051602081830181018051600b8252928201919093012091525460ff1681565b600754600160a060020a0316610241565b61029461039236600461264a565b61125d565b61022161128e565b61026c6103ad366004612988565b61129d565b61026c6103c03660046129aa565b6113a0565b61026c6103d33660046129d4565b6113af565b6102216103e6366004612615565b6114b9565b61030a6103f9366004612938565b6114c4565b61020461040c366004612a50565b611530565b610294600281565b610204610427366004612a73565b600160a060020a03918216600090815260056020908152604080832093909416825291909152205460ff1690565b61026c610463366004612938565b61158a565b6102d0610476366004612615565b61161d565b600061048682611896565b92915050565b60606000805461049b90612a9d565b80601f01602080910402602001604051908101604052809291908181526020018280546104c790612a9d565b80156105145780601f106104e957610100808354040283529160200191610514565b820191906000526020600020905b8154815290600101906020018083116104f757829003601f168201915b5050505050905090565b6000610529826118d4565b50600090815260046020526040902054600160a060020a031690565b600061055082611144565b905080600160a060020a031683600160a060020a0316036105e15760405160e560020a62461bcd02815260206004820152602160248201527f4552433732313a20617070726f76616c20746f2063757272656e74206f776e6560448201527f720000000000000000000000000000000000000000000000000000000000000060648201526084015b60405180910390fd5b33600160a060020a03821614806105fd57506105fd8133610427565b6106725760405160e560020a62461bcd02815260206004820152603d60248201527f4552433732313a20617070726f76652063616c6c6572206973206e6f7420746f60448201527f6b656e206f776e6572206f7220617070726f76656420666f7220616c6c00000060648201526084016105d8565b61067c838361192c565b505050565b61068a826119a7565b6106a95760405160e560020a62461bcd0281526004016105d890612ada565b6000828152600a602052604090206007015460ff161561070e5760405160e560020a62461bcd02815260206004820152601960248201527f50726f706572747920616c72656164792076657269666965640000000000000060448201526064016105d8565b6000828152600a60209081526040808320338452600b0190915290205460ff161561077e5760405160e560020a62461bcd02815260206004820152600d60248201527f416c726561647920766f7465640000000000000000000000000000000000000060448201526064016105d8565b3361078883611144565b600160a060020a0316036107e15760405160e560020a62461bcd02815260206004820152601b60248201527f43616e6e6f7420766f7465206f6e206f776e2070726f7065727479000000000060448201526064016105d8565b6000828152600a60209081526040808320338452600b8101909252909120805460ff1916600117905581156108b85760098101805490600061082283612b2a565b909155505060405160018152339084907fe71fcdac32df1877c1700e7bda2a03157e20993363a28fc35ac495cefc76e4d49060200160405180910390a3600381600901541061067c5760078101805460ff1916600190811790915560405190815283907fafdcc517a26e633f535aa9cebec29f4281ab2ffa922a475b12fd1297ad765bc8906020015b60405180910390a2505050565b600a810180549060006108ca83612b2a565b909155505060405160008152339084907fe71fcdac32df1877c1700e7bda2a03157e20993363a28fc35ac495cefc76e4d49060200160405180910390a3600281600a01541061067c576040516000815283907fafdcc517a26e633f535aa9cebec29f4281ab2ffa922a475b12fd1297ad765bc8906020016108ab565b60008088511161099b5760405160e560020a62461bcd02815260206004820181905260248201527f50726f706572747920616464726573732063616e6e6f7420626520656d70747960448201526064016105d8565b60008751116109ef5760405160e560020a62461bcd02815260206004820152601a60248201527f4f776e6572206e616d652063616e6e6f7420626520656d70747900000000000060448201526064016105d8565b600b886040516109ff9190612b43565b9081526040519081900360200190205460ff1615610a625760405160e560020a62461bcd02815260206004820152601760248201527f50726f706572747920616c72656164792065786973747300000000000000000060448201526064016105d8565b6000610a6d60095490565b9050610a7d600980546001019055565b610a8733826119c4565b610a9181866119de565b6000818152600a6020526040902080610aaa8b82612bad565b5060018101610ab98a82612bad565b5060028101610ac88982612bad565b506003810187905560048101610ade8782612bad565b50600581018590556006810184905560078101805460ff1916905560006008820181905560098201819055600a820155604051600190600b90610b22908d90612b43565b9081526040805160209281900383018120805460ff191694151594909417909355336000818152600c84529182208054600181018255908352929091209091018490559083907f90e8f7c94b32ba9b4e353e2e85be612b1dd84a28d7334362b89e67c1729a2ab190610b97908e908e90612c73565b60405180910390a35098975050505050505050565b6000610bb760095490565b905090565b610bc7838383611aac565b600160a060020a0383166000908152600c60205260408120905b8154811015610c955782828281548110610bfd57610bfd612ca1565b906000526020600020015403610c835781548290610c1d90600190612cba565b81548110610c2d57610c2d612ca1565b9060005260206000200154828281548110610c4a57610c4a612ca1565b906000526020600020018190555081805480610c6857610c68612ccd565b60019003818190600052602060002001600090559055610c95565b80610c8d81612b2a565b915050610be1565b5050600160a060020a039091166000908152600c60209081526040822080546001810182559083529120015550565b606080606060006060600080600080600080610cdf8c6119a7565b610cfe5760405160e560020a62461bcd0281526004016105d890612ada565b6000600a60008e81526020019081526020016000209050806000018160010182600201836003015484600401856005015486600601548760070160009054906101000a900460ff16886008015489600901548a600a01548a8054610d6190612a9d565b80601f0160208091040260200160405190810160405280929190818152602001828054610d8d90612a9d565b8015610dda5780601f10610daf57610100808354040283529160200191610dda565b820191906000526020600020905b815481529060010190602001808311610dbd57829003601f168201915b50505050509a50898054610ded90612a9d565b80601f0160208091040260200160405190810160405280929190818152602001828054610e1990612a9d565b8015610e665780601f10610e3b57610100808354040283529160200191610e66565b820191906000526020600020905b815481529060010190602001808311610e4957829003601f168201915b50505050509950888054610e7990612a9d565b80601f0160208091040260200160405190810160405280929190818152602001828054610ea590612a9d565b8015610ef25780601f10610ec757610100808354040283529160200191610ef2565b820191906000526020600020905b815481529060010190602001808311610ed557829003601f168201915b50505050509850868054610f0590612a9d565b80601f0160208091040260200160405190810160405280929190818152602001828054610f3190612a9d565b8015610f7e5780601f10610f5357610100808354040283529160200191610f7e565b820191906000526020600020905b815481529060010190602001808311610f6157829003601f168201915b505050505096509b509b509b509b509b509b509b509b509b509b509b505091939597999b90929496989a50565b61067c838383604051806020016040528060008152506113af565b60606000610fd360095490565b905060008167ffffffffffffffff811115610ff057610ff06126b0565b604051908082528060200260200182016040528015611019578160200160208202803683370190505b5090506000805b8381101561109f576000818152600a602052604090206007015460ff1615801561105c57506000818152600a6020819052604090912001546002115b1561108d578083838151811061107457611074612ca1565b60209081029190910101528161108981612b2a565b9250505b8061109781612b2a565b915050611020565b5060008167ffffffffffffffff8111156110bb576110bb6126b0565b6040519080825280602002602001820160405280156110e4578160200160208202803683370190505b50905060005b8281101561113b5783818151811061110457611104612ca1565b602002602001015182828151811061111e5761111e612ca1565b60209081029190910101528061113381612b2a565b9150506110ea565b50949350505050565b600081815260026020526040812054600160a060020a0316806104865760405160e560020a62461bcd02815260206004820152601860248201527f4552433732313a20696e76616c696420746f6b656e204944000000000000000060448201526064016105d8565b6000600160a060020a03821661122d5760405160e560020a62461bcd02815260206004820152602960248201527f4552433732313a2061646472657373207a65726f206973206e6f74206120766160448201527f6c6964206f776e6572000000000000000000000000000000000000000000000060648201526084016105d8565b50600160a060020a031660009081526003602052604090205490565b611251611ae0565b61125b6000611b3d565b565b600c602052816000526040600020818154811061127957600080fd5b90600052602060002001600091509150505481565b60606001805461049b90612a9d565b6112a6826119a7565b6112c55760405160e560020a62461bcd0281526004016105d890612ada565b336112cf83611144565b600160a060020a031614806112fd5750336112f2600754600160a060020a031690565b600160a060020a0316145b61134c5760405160e560020a62461bcd02815260206004820152600e60248201527f4e6f7420617574686f72697a656400000000000000000000000000000000000060448201526064016105d8565b6000828152600a6020526040908190206008018290555182907f38feca60919cb6c50d2bda77cc786b4121a0ab59fdcbccad58c37f0bc84869e9906113949084815260200190565b60405180910390a25050565b6113ab338383611b9c565b5050565b6113bb84848484611c6d565b600160a060020a0384166000908152600c60205260408120905b815481101561148957838282815481106113f1576113f1612ca1565b906000526020600020015403611477578154829061141190600190612cba565b8154811061142157611421612ca1565b906000526020600020015482828154811061143e5761143e612ca1565b90600052602060002001819055508180548061145c5761145c612ccd565b60019003818190600052602060002001600090559055611489565b8061148181612b2a565b9150506113d5565b505050600160a060020a039091166000908152600c60209081526040822080546001810182559083529120015550565b606061048682611ca8565b600160a060020a0381166000908152600c602090815260409182902080548351818402810184019094528084526060939283018282801561152457602002820191906000526020600020905b815481526020019060010190808311611510575b50505050509050919050565b600061153b836119a7565b61155a5760405160e560020a62461bcd0281526004016105d890612ada565b506000828152600a60209081526040808320600160a060020a0385168452600b0190915290205460ff1692915050565b611592611ae0565b600160a060020a0381166116115760405160e560020a62461bcd02815260206004820152602660248201527f4f776e61626c653a206e6577206f776e657220697320746865207a65726f206160448201527f646472657373000000000000000000000000000000000000000000000000000060648201526084016105d8565b61161a81611b3d565b50565b600a6020526000908152604090208054819061163890612a9d565b80601f016020809104026020016040519081016040528092919081815260200182805461166490612a9d565b80156116b15780601f10611686576101008083540402835291602001916116b1565b820191906000526020600020905b81548152906001019060200180831161169457829003601f168201915b5050505050908060010180546116c690612a9d565b80601f01602080910402602001604051908101604052809291908181526020018280546116f290612a9d565b801561173f5780601f106117145761010080835404028352916020019161173f565b820191906000526020600020905b81548152906001019060200180831161172257829003601f168201915b50505050509080600201805461175490612a9d565b80601f016020809104026020016040519081016040528092919081815260200182805461178090612a9d565b80156117cd5780601f106117a2576101008083540402835291602001916117cd565b820191906000526020600020905b8154815290600101906020018083116117b057829003601f168201915b5050505050908060030154908060040180546117e890612a9d565b80601f016020809104026020016040519081016040528092919081815260200182805461181490612a9d565b80156118615780601f1061183657610100808354040283529160200191611861565b820191906000526020600020905b81548152906001019060200180831161184457829003601f168201915b50505060058401546006850154600786015460088701546009880154600a909801549697939692955060ff909116935091908b565b6000600160e060020a031982167f49064906000000000000000000000000000000000000000000000000000000001480610486575061048682611db8565b6118dd816119a7565b61161a5760405160e560020a62461bcd02815260206004820152601860248201527f4552433732313a20696e76616c696420746f6b656e204944000000000000000060448201526064016105d8565b6000818152600460205260409020805473ffffffffffffffffffffffffffffffffffffffff1916600160a060020a038416908117909155819061196e82611144565b600160a060020a03167f8c5be1e5ebec7d5bd14f71427d1e84f3dd0314c0f7b2291e5b200ac8c7c3b92560405160405180910390a45050565b600090815260026020526040902054600160a060020a0316151590565b6113ab828260405180602001604052806000815250611e53565b6119e7826119a7565b611a5c5760405160e560020a62461bcd02815260206004820152602e60248201527f45524337323155524953746f726167653a2055524920736574206f66206e6f6e60448201527f6578697374656e7420746f6b656e00000000000000000000000000000000000060648201526084016105d8565b6000828152600660205260409020611a748282612bad565b506040518281527ff8e1a15aba9398e019f0b49df1a4fde98ee17ae345cb5f6b5e2c27f5033e8ce79060200160405180910390a15050565b611ab63382611e89565b611ad55760405160e560020a62461bcd0281526004016105d890612ce6565b61067c838383611f07565b600754600160a060020a0316331461125b5760405160e560020a62461bcd02815260206004820181905260248201527f4f776e61626c653a2063616c6c6572206973206e6f7420746865206f776e657260448201526064016105d8565b60078054600160a060020a0383811673ffffffffffffffffffffffffffffffffffffffff19831681179093556040519116919082907f8be0079c531659141344cd1fd0a4f28419497f9722a3daafe3b4186f6b6457e090600090a35050565b81600160a060020a031683600160a060020a031603611c005760405160e560020a62461bcd02815260206004820152601960248201527f4552433732313a20617070726f766520746f2063616c6c65720000000000000060448201526064016105d8565b600160a060020a03838116600081815260056020908152604080832094871680845294825291829020805460ff191686151590811790915591519182527f17307eab39ab6107e8899845ad3d59bd9653f200f220920489ca2b5937696c31910160405180910390a3505050565b611c773383611e89565b611c965760405160e560020a62461bcd0281526004016105d890612ce6565b611ca28484848461209a565b50505050565b6060611cb3826118d4565b60008281526006602052604081208054611ccc90612a9d565b80601f0160208091040260200160405190810160405280929190818152602001828054611cf890612a9d565b8015611d455780601f10611d1a57610100808354040283529160200191611d45565b820191906000526020600020905b815481529060010190602001808311611d2857829003601f168201915b505050505090506000611d6360408051602081019091526000815290565b90508051600003611d75575092915050565b815115611da7578082604051602001611d8f929190612d43565b60405160208183030381529060405292505050919050565b611db0846120d0565b949350505050565b6000600160e060020a031982167f80ac58cd000000000000000000000000000000000000000000000000000000001480611e1b5750600160e060020a031982167f5b5e139f00000000000000000000000000000000000000000000000000000000145b8061048657507f01ffc9a700000000000000000000000000000000000000000000000000000000600160e060020a0319831614610486565b611e5d8383612144565b611e6a60008484846122c7565b61067c5760405160e560020a62461bcd0281526004016105d890612d72565b600080611e9583611144565b905080600160a060020a031684600160a060020a03161480611edc5750600160a060020a0380821660009081526005602090815260408083209388168352929052205460ff165b80611db0575083600160a060020a0316611ef58461051e565b600160a060020a031614949350505050565b82600160a060020a0316611f1a82611144565b600160a060020a031614611f435760405160e560020a62461bcd0281526004016105d890612dcf565b600160a060020a038216611fc15760405160e560020a62461bcd028152602060048201526024808201527f4552433732313a207472616e7366657220746f20746865207a65726f2061646460448201527f726573730000000000000000000000000000000000000000000000000000000060648201526084016105d8565b82600160a060020a0316611fd482611144565b600160a060020a031614611ffd5760405160e560020a62461bcd0281526004016105d890612dcf565b6000818152600460209081526040808320805473ffffffffffffffffffffffffffffffffffffffff19908116909155600160a060020a0387811680865260038552838620805460001901905590871680865283862080546001019055868652600290945282852080549092168417909155905184937fddf252ad1be2c89b69c2b068fc378daa952ba7f163c4a11628f55a4df523b3ef91a4505050565b6120a5848484611f07565b6120b1848484846122c7565b611ca25760405160e560020a62461bcd0281526004016105d890612d72565b60606120db826118d4565b60006120f260408051602081019091526000815290565b90506000815111612112576040518060200160405280600081525061213d565b8061211c846123fd565b60405160200161212d929190612d43565b6040516020818303038152906040525b9392505050565b600160a060020a03821661219d5760405160e560020a62461bcd02815260206004820181905260248201527f4552433732313a206d696e7420746f20746865207a65726f206164647265737360448201526064016105d8565b6121a6816119a7565b156121f65760405160e560020a62461bcd02815260206004820152601c60248201527f4552433732313a20746f6b656e20616c7265616479206d696e7465640000000060448201526064016105d8565b6121ff816119a7565b1561224f5760405160e560020a62461bcd02815260206004820152601c60248201527f4552433732313a20746f6b656e20616c7265616479206d696e7465640000000060448201526064016105d8565b600160a060020a0382166000818152600360209081526040808320805460010190558483526002909152808220805473ffffffffffffffffffffffffffffffffffffffff19168417905551839291907fddf252ad1be2c89b69c2b068fc378daa952ba7f163c4a11628f55a4df523b3ef908290a45050565b6000600160a060020a0384163b156123f2576040517f150b7a02000000000000000000000000000000000000000000000000000000008152600160a060020a0385169063150b7a0290612324903390899088908890600401612e2c565b6020604051808303816000875af192505050801561235f575060408051601f3d908101601f1916820190925261235c91810190612e68565b60015b6123bf573d80801561238d576040519150601f19603f3d011682016040523d82523d6000602084013e612392565b606091505b5080516000036123b75760405160e560020a62461bcd0281526004016105d890612d72565b805181602001fd5b600160e060020a0319167f150b7a0200000000000000000000000000000000000000000000000000000000149050611db0565b506001949350505050565b6060600061240a8361249d565b600101905060008167ffffffffffffffff81111561242a5761242a6126b0565b6040519080825280601f01601f191660200182016040528015612454576020820181803683370190505b5090508181016020015b600019017f3031323334353637383961626364656600000000000000000000000000000000600a86061a8153600a850494508461245e57509392505050565b6000807a184f03e93ff9f4daa797ed6e38ed64bf6a1f01000000000000000083106124e6577a184f03e93ff9f4daa797ed6e38ed64bf6a1f010000000000000000830492506040015b6d04ee2d6d415b85acef81000000008310612512576d04ee2d6d415b85acef8100000000830492506020015b662386f26fc10000831061253057662386f26fc10000830492506010015b6305f5e1008310612548576305f5e100830492506008015b612710831061255c57612710830492506004015b6064831061256e576064830492506002015b600a83106104865760010192915050565b600160e060020a03198116811461161a57600080fd5b6000602082840312156125a757600080fd5b813561213d8161257f565b60005b838110156125cd5781810151838201526020016125b5565b50506000910152565b600081518084526125ee8160208601602086016125b2565b601f01601f19169290920160200192915050565b60208152600061213d60208301846125d6565b60006020828403121561262757600080fd5b5035919050565b8035600160a060020a038116811461264557600080fd5b919050565b6000806040838503121561265d57600080fd5b6126668361262e565b946020939093013593505050565b8035801515811461264557600080fd5b6000806040838503121561269757600080fd5b823591506126a760208401612674565b90509250929050565b60e060020a634e487b7102600052604160045260246000fd5b600067ffffffffffffffff808411156126e4576126e46126b0565b604051601f8501601f19908116603f0116810190828211818310171561270c5761270c6126b0565b8160405280935085815286868601111561272557600080fd5b858560208301376000602087830101525050509392505050565b600082601f83011261275057600080fd5b61213d838335602085016126c9565b600080600080600080600060e0888a03121561277a57600080fd5b873567ffffffffffffffff8082111561279257600080fd5b61279e8b838c0161273f565b985060208a01359150808211156127b457600080fd5b6127c08b838c0161273f565b975060408a01359150808211156127d657600080fd5b6127e28b838c0161273f565b965060608a0135955060808a01359150808211156127ff57600080fd5b5061280c8a828b0161273f565b93505060a0880135915060c0880135905092959891949750929550565b60008060006060848603121561283e57600080fd5b6128478461262e565b92506128556020850161262e565b9150604084013590509250925092565b60006101608083526128798184018f6125d6565b9050828103602084015261288d818e6125d6565b905082810360408401526128a1818d6125d6565b90508a606084015282810360808401526128bb818b6125d6565b60a0840199909952505060c081019590955292151560e08501526101008401919091526101208301526101409091015295945050505050565b6020808252825182820181905260009190848201906040850190845b8181101561292c57835183529284019291840191600101612910565b50909695505050505050565b60006020828403121561294a57600080fd5b61213d8261262e565b60006020828403121561296557600080fd5b813567ffffffffffffffff81111561297c57600080fd5b611db08482850161273f565b6000806040838503121561299b57600080fd5b50508035926020909101359150565b600080604083850312156129bd57600080fd5b6129c68361262e565b91506126a760208401612674565b600080600080608085870312156129ea57600080fd5b6129f38561262e565b9350612a016020860161262e565b925060408501359150606085013567ffffffffffffffff811115612a2457600080fd5b8501601f81018713612a3557600080fd5b612a44878235602084016126c9565b91505092959194509250565b60008060408385031215612a6357600080fd5b823591506126a76020840161262e565b60008060408385031215612a8657600080fd5b612a8f8361262e565b91506126a76020840161262e565b600281046001821680612ab157607f821691505b602082108103612ad45760e060020a634e487b7102600052602260045260246000fd5b50919050565b60208082526017908201527f50726f706572747920646f6573206e6f74206578697374000000000000000000604082015260600190565b60e060020a634e487b7102600052601160045260246000fd5b600060018201612b3c57612b3c612b11565b5060010190565b60008251612b558184602087016125b2565b9190910192915050565b601f82111561067c576000818152602081206020601f86010481016020861015612b865750805b6020601f860104820191505b81811015612ba557828155600101612b92565b505050505050565b815167ffffffffffffffff811115612bc757612bc76126b0565b612bdb81612bd58454612a9d565b84612b5f565b602080601f831160018114612c145760008415612bf85750858301515b60028086026008870290910a6000190419821617865550612ba5565b600085815260208120601f198616915b82811015612c4357888601518255948401946001909101908401612c24565b5085821015612c6357878501516008601f88160260020a60001904191681555b5050505050600202600101905550565b604081526000612c8660408301856125d6565b8281036020840152612c9881856125d6565b95945050505050565b60e060020a634e487b7102600052603260045260246000fd5b8181038181111561048657610486612b11565b60e060020a634e487b7102600052603160045260246000fd5b6020808252602d908201527f4552433732313a2063616c6c6572206973206e6f7420746f6b656e206f776e6560408201527f72206f7220617070726f76656400000000000000000000000000000000000000606082015260800190565b60008351612d558184602088016125b2565b835190830190612d698183602088016125b2565b01949350505050565b60208082526032908201527f4552433732313a207472616e7366657220746f206e6f6e20455243373231526560408201527f63656976657220696d706c656d656e7465720000000000000000000000000000606082015260800190565b60208082526025908201527f4552433732313a207472616e736665722066726f6d20696e636f72726563742060408201527f6f776e6572000000000000000000000000000000000000000000000000000000606082015260800190565b6000600160a060020a03808716835280861660208401525083604083015260806060830152612e5e60808301846125d6565b9695505050505050565b600060208284031215612e7a57600080fd5b815161213d8161257f56fea2646970667358221220ac79dec1492b31b51fc647208054521219dce947a4c770fb3a47a8136919eca164736f6c63430008140033",
  "immutableReferences": {},
  "source": "// SPDX-License-Identifier: MIT\npragma solidity ^0.8.19;\n\nimport \"@openzeppelin/contracts/token/ERC721/ERC721.sol\";\nimport \"@openzeppelin/contracts/token/ERC721/extensions/ERC721URIStorage.sol\";\nimport \"@openzeppelin/contracts/access/Ownable.sol\";\nimport \"@openzeppelin/contracts/utils/Counters.sol\";\nimport \"@openzeppelin/contracts/security/ReentrancyGuard.sol\";\nimport \"@openzeppelin/contracts/token/ERC721/IERC721.sol\";\n\ncontract PropertyNFT is ERC721, ERC721URIStorage, Ownable, ReentrancyGuard {\n    using Counters for Counters.Counter;\n    \n    Counters.Counter private _tokenIdCounter;\n    \n    // Property structure\n    struct Property {\n        string propertyAddress;\n        string ownerName;\n        string propertyType;\n        uint256 renovationDate;\n        string imageURI;\n        int256 latitude;\n        int256 longitude;\n        bool isVerified;\n        uint256 estimatedValue;\n        uint256 verificationVotes;\n        uint256 rejectionVotes;\n        mapping(address => bool) hasVoted;\n    }\n    \n    // Mappings\n    mapping(uint256 => Property) public properties;\n    mapping(string => bool) public addressExists;\n    mapping(address => uint256[]) public ownerProperties;\n    \n    // Events\n    event PropertySubmitted(\n        uint256 indexed tokenId,\n        string propertyAddress,\n        string ownerName,\n        address indexed submitter\n    );\n    \n    event PropertyVerified(uint256 indexed tokenId, bool verified);\n    event VoteCast(uint256 indexed tokenId, address indexed voter, bool approve);\n    event PropertyValueUpdated(uint256 indexed tokenId, uint256 newValue);\n    \n    // Constants\n    uint256 public constant VERIFICATION_THRESHOLD = 3;\n    uint256 public constant REJECTION_THRESHOLD = 2;\n    \n    constructor() ERC721(\"PropertyNFT\", \"PROP\") {}\n    \n    /**\n     * @dev Submit a new property for NFT creation\n     */\n    function submitProperty(\n        string memory _propertyAddress,\n        string memory _ownerName,\n        string memory _propertyType,\n        uint256 _renovationDate,\n        string memory _imageURI,\n        int256 _latitude,\n        int256 _longitude\n    ) public returns (uint256) {\n        require(bytes(_propertyAddress).length > 0, \"Property address cannot be empty\");\n        require(bytes(_ownerName).length > 0, \"Owner name cannot be empty\");\n        require(!addressExists[_propertyAddress], \"Property already exists\");\n        \n        uint256 tokenId = _tokenIdCounter.current();\n        _tokenIdCounter.increment();\n        \n        // Mint NFT to the submitter\n        _safeMint(msg.sender, tokenId);\n        _setTokenURI(tokenId, _imageURI);\n        \n        // Create property record\n        Property storage newProperty = properties[tokenId];\n        newProperty.propertyAddress = _propertyAddress;\n        newProperty.ownerName = _ownerName;\n        newProperty.propertyType = _propertyType;\n        newProperty.renovationDate = _renovationDate;\n        newProperty.imageURI = _imageURI;\n        newProperty.latitude = _latitude;\n        newProperty.longitude = _longitude;\n        newProperty.isVerified = false;\n        newProperty.estimatedValue = 0;\n        newProperty.verificationVotes = 0;\n        newProperty.rejectionVotes = 0;\n        \n        // Mark address as existing\n        addressExists[_propertyAddress] = true;\n        \n        // Add to owner's properties\n        ownerProperties[msg.sender].push(tokenId);\n        \n        emit PropertySubmitted(tokenId, _propertyAddress, _ownerName, msg.sender);\n        \n        return tokenId;\n    }\n    \n    /**\n     * @dev Vote on property verification\n     */\n    function voteOnProperty(uint256 _tokenId, bool _approve) public {\n        require(_exists(_tokenId), \"Property does not exist\");\n        require(!properties[_tokenId].isVerified, \"Property already verified\");\n        require(!properties[_tokenId].hasVoted[msg.sender], \"Already voted\");\n        require(ownerOf(_tokenId) != msg.sender, \"Cannot vote on own property\");\n        \n        Property storage property = properties[_tokenId];\n        property.hasVoted[msg.sender] = true;\n        \n        if (_approve) {\n            property.verificationVotes++;\n            emit VoteCast(_tokenId, msg.sender, true);\n            \n            // Check if verification threshold is met\n            if (property.verificationVotes >= VERIFICATION_THRESHOLD) {\n                property.isVerified = true;\n                emit PropertyVerified(_tokenId, true);\n            }\n        } else {\n            property.rejectionVotes++;\n            emit VoteCast(_tokenId, msg.sender, false);\n            \n            // Check if rejection threshold is met\n            if (property.rejectionVotes >= REJECTION_THRESHOLD) {\n                emit PropertyVerified(_tokenId, false);\n            }\n        }\n    }\n    \n    /**\n     * @dev Update property estimated value (only owner)\n     */\n    function updatePropertyValue(uint256 _tokenId, uint256 _newValue) public {\n        require(_exists(_tokenId), \"Property does not exist\");\n        require(ownerOf(_tokenId) == msg.sender || owner() == msg.sender, \"Not authorized\");\n        \n        properties[_tokenId].estimatedValue = _newValue;\n        emit PropertyValueUpdated(_tokenId, _newValue);\n    }\n    \n    /**\n     * @dev Get property details\n     */\n    function getProperty(uint256 _tokenId) public view returns (\n        string memory propertyAddress,\n        string memory ownerName,\n        string memory propertyType,\n        uint256 renovationDate,\n        string memory imageURI,\n        int256 latitude,\n        int256 longitude,\n        bool isVerified,\n        uint256 estimatedValue,\n        uint256 verificationVotes,\n        uint256 rejectionVotes\n    ) {\n        require(_exists(_tokenId), \"Property does not exist\");\n        \n        Property storage property = properties[_tokenId];\n        return (\n            property.propertyAddress,\n            property.ownerName,\n            property.propertyType,\n            property.renovationDate,\n            property.imageURI,\n            property.latitude,\n            property.longitude,\n            property.isVerified,\n            property.estimatedValue,\n            property.verificationVotes,\n            property.rejectionVotes\n        );\n    }\n    \n    /**\n     * @dev Get properties owned by an address\n     */\n    function getOwnerProperties(address _owner) public view returns (uint256[] memory) {\n        return ownerProperties[_owner];\n    }\n    \n    /**\n     * @dev Check if user has voted on a property\n     */\n    function hasUserVoted(uint256 _tokenId, address _user) public view returns (bool) {\n        require(_exists(_tokenId), \"Property does not exist\");\n        return properties[_tokenId].hasVoted[_user];\n    }\n    \n    /**\n     * @dev Get total number of properties\n     */\n    function getTotalProperties() public view returns (uint256) {\n        return _tokenIdCounter.current();\n    }\n    \n    /**\n     * @dev Get all unverified properties for verification\n     */\n    function getUnverifiedProperties() public view returns (uint256[] memory) {\n        uint256 totalProperties = _tokenIdCounter.current();\n        uint256[] memory tempArray = new uint256[](totalProperties);\n        uint256 count = 0;\n        \n        for (uint256 i = 0; i < totalProperties; i++) {\n            if (!properties[i].isVerified && \n                properties[i].rejectionVotes < REJECTION_THRESHOLD) {\n                tempArray[count] = i;\n                count++;\n            }\n        }\n        \n        // Create array with exact size\n        uint256[] memory unverifiedProperties = new uint256[](count);\n        for (uint256 i = 0; i < count; i++) {\n            unverifiedProperties[i] = tempArray[i];\n        }\n        \n        return unverifiedProperties;\n    }\n    \n    /**\n     * @dev Transfer property ownership (override to update ownerProperties)\n     */\n    function transferFrom(address from, address to, uint256 tokenId) public override(ERC721, IERC721) {\n        super.transferFrom(from, to, tokenId);\n        \n        // Remove from previous owner's list\n        uint256[] storage fromProperties = ownerProperties[from];\n        for (uint256 i = 0; i < fromProperties.length; i++) {\n            if (fromProperties[i] == tokenId) {\n                fromProperties[i] = fromProperties[fromProperties.length - 1];\n                fromProperties.pop();\n                break;\n            }\n        }\n        \n        // Add to new owner's list\n        ownerProperties[to].push(tokenId);\n    }\n    \n    /**\n     * @dev Safe transfer with ownership tracking\n     */\n    function safeTransferFrom(address from, address to, uint256 tokenId, bytes memory data) public override(ERC721, IERC721) {\n        super.safeTransferFrom(from, to, tokenId, data);\n        \n        // Remove from previous owner's list\n        uint256[] storage fromProperties = ownerProperties[from];\n        for (uint256 i = 0; i < fromProperties.length; i++) {\n            if (fromProperties[i] == tokenId) {\n                fromProperties[i] = fromProperties[fromProperties.length - 1];\n                fromProperties.pop();\n                break;\n            }\n        }\n        \n        // Add to new owner's list\n        ownerProperties[to].push(tokenId);\n    }\n    \n    // Override required functions\n    function _burn(uint256 tokenId) internal override(ERC721, ERC721URIStorage) {\n        super._burn(tokenId);\n    }\n    \n    function tokenURI(uint256 tokenId) public view override(ERC721, ERC721URIStorage) returns (string memory) {\n        return super.tokenURI(tokenId);\n    }\n    \n    function supportsInterface(bytes4 interfaceId) public view override(ERC721, ERC721URIStorage) returns (bool) {\n        return super.supportsInterface(interfaceId);\n    }\n}\n",
  "sourcePath": "/Users/yosgi/freelancer/property-nft/contracts/PropertyNFT.sol",
  "compiler": {
    "name": "solc",
    "version": "0.8.20+commit.a1b79de6.Emscripten.clang"
  },
  "schemaVersion": "3.4.16",
  "updatedAt": "2025-05-29T06:30:27.992Z",
  "networkType": "ethereum",
  "devdoc": {
    "events": {
      "Approval(address,address,uint256)": {
        "details": "Emitted when `owner` enables `approved` to manage the `tokenId` token."
      },
      "ApprovalForAll(address,address,bool)": {
        "details": "Emitted when `owner` enables or disables (`approved`) `operator` to manage all of its assets."
      },
      "BatchMetadataUpdate(uint256,uint256)": {
        "details": "This event emits when the metadata of a range of tokens is changed. So that the third-party platforms such as NFT market could timely update the images and related attributes of the NFTs."
      },
      "MetadataUpdate(uint256)": {
        "details": "This event emits when the metadata of a token is changed. So that the third-party platforms such as NFT market could timely update the images and related attributes of the NFT."
      },
      "Transfer(address,address,uint256)": {
        "details": "Emitted when `tokenId` token is transferred from `from` to `to`."
      }
    },
    "kind": "dev",
    "methods": {
      "approve(address,uint256)": {
        "details": "See {IERC721-approve}."
      },
      "balanceOf(address)": {
        "details": "See {IERC721-balanceOf}."
      },
      "getApproved(uint256)": {
        "details": "See {IERC721-getApproved}."
      },
      "getOwnerProperties(address)": {
        "details": "Get properties owned by an address"
      },
      "getProperty(uint256)": {
        "details": "Get property details"
      },
      "getTotalProperties()": {
        "details": "Get total number of properties"
      },
      "getUnverifiedProperties()": {
        "details": "Get all unverified properties for verification"
      },
      "hasUserVoted(uint256,address)": {
        "details": "Check if user has voted on a property"
      },
      "isApprovedForAll(address,address)": {
        "details": "See {IERC721-isApprovedForAll}."
      },
      "name()": {
        "details": "See {IERC721Metadata-name}."
      },
      "owner()": {
        "details": "Returns the address of the current owner."
      },
      "ownerOf(uint256)": {
        "details": "See {IERC721-ownerOf}."
      },
      "renounceOwnership()": {
        "details": "Leaves the contract without owner. It will not be possible to call `onlyOwner` functions. Can only be called by the current owner. NOTE: Renouncing ownership will leave the contract without an owner, thereby disabling any functionality that is only available to the owner."
      },
      "safeTransferFrom(address,address,uint256)": {
        "details": "See {IERC721-safeTransferFrom}."
      },
      "safeTransferFrom(address,address,uint256,bytes)": {
        "details": "Safe transfer with ownership tracking"
      },
      "setApprovalForAll(address,bool)": {
        "details": "See {IERC721-setApprovalForAll}."
      },
      "submitProperty(string,string,string,uint256,string,int256,int256)": {
        "details": "Submit a new property for NFT creation"
      },
      "symbol()": {
        "details": "See {IERC721Metadata-symbol}."
      },
      "transferFrom(address,address,uint256)": {
        "details": "Transfer property ownership (override to update ownerProperties)"
      },
      "transferOwnership(address)": {
        "details": "Transfers ownership of the contract to a new account (`newOwner`). Can only be called by the current owner."
      },
      "updatePropertyValue(uint256,uint256)": {
        "details": "Update property estimated value (only owner)"
      },
      "voteOnProperty(uint256,bool)": {
        "details": "Vote on property verification"
      }
    },
    "version": 1
  },
  "userdoc": {
    "kind": "user",
    "methods": {},
    "version": 1
  }
}